{
	"contracts/Airworthiness.sol": {
		"Airworthiness": {
			"abi": [
				{
					"inputs": [
						{
							"internalType": "address",
							"name": "_regulatoryAuthority",
							"type": "address"
						}
					],
					"stateMutability": "nonpayable",
					"type": "constructor"
				},
				{
					"anonymous": false,
					"inputs": [
						{
							"indexed": true,
							"internalType": "uint256",
							"name": "applicationId",
							"type": "uint256"
						}
					],
					"name": "ApplicationSubmitted",
					"type": "event"
				},
				{
					"anonymous": false,
					"inputs": [
						{
							"indexed": true,
							"internalType": "uint256",
							"name": "applicationId",
							"type": "uint256"
						},
						{
							"indexed": false,
							"internalType": "string",
							"name": "airworthinessCertificateHash",
							"type": "string"
						}
					],
					"name": "CertificateIssued",
					"type": "event"
				},
				{
					"anonymous": false,
					"inputs": [
						{
							"indexed": true,
							"internalType": "uint256",
							"name": "applicationId",
							"type": "uint256"
						},
						{
							"indexed": false,
							"internalType": "string",
							"name": "inspectionReportHash",
							"type": "string"
						}
					],
					"name": "InspectionCompleted",
					"type": "event"
				},
				{
					"inputs": [],
					"name": "applicationCounter",
					"outputs": [
						{
							"internalType": "uint256",
							"name": "",
							"type": "uint256"
						}
					],
					"stateMutability": "view",
					"type": "function"
				},
				{
					"inputs": [
						{
							"internalType": "uint256",
							"name": "",
							"type": "uint256"
						}
					],
					"name": "applications",
					"outputs": [
						{
							"internalType": "uint256",
							"name": "id",
							"type": "uint256"
						},
						{
							"internalType": "address",
							"name": "uavTokenAddress",
							"type": "address"
						},
						{
							"internalType": "uint256",
							"name": "uavTokenId",
							"type": "uint256"
						},
						{
							"internalType": "string",
							"name": "ipfsHashDocuments",
							"type": "string"
						},
						{
							"internalType": "enum Airworthiness.CertificationStatus",
							"name": "status",
							"type": "uint8"
						}
					],
					"stateMutability": "view",
					"type": "function"
				},
				{
					"inputs": [
						{
							"internalType": "uint256",
							"name": "applicationId",
							"type": "uint256"
						},
						{
							"internalType": "string",
							"name": "inspectionReportHash",
							"type": "string"
						}
					],
					"name": "completeInspection",
					"outputs": [],
					"stateMutability": "nonpayable",
					"type": "function"
				},
				{
					"inputs": [
						{
							"internalType": "uint256",
							"name": "applicationId",
							"type": "uint256"
						}
					],
					"name": "isCertified",
					"outputs": [
						{
							"internalType": "bool",
							"name": "",
							"type": "bool"
						}
					],
					"stateMutability": "view",
					"type": "function"
				},
				{
					"inputs": [
						{
							"internalType": "uint256",
							"name": "applicationId",
							"type": "uint256"
						},
						{
							"internalType": "string",
							"name": "airworthinessCertificateHash",
							"type": "string"
						}
					],
					"name": "issueCertificate",
					"outputs": [],
					"stateMutability": "nonpayable",
					"type": "function"
				},
				{
					"inputs": [],
					"name": "regulatoryAuthority",
					"outputs": [
						{
							"internalType": "address",
							"name": "",
							"type": "address"
						}
					],
					"stateMutability": "view",
					"type": "function"
				},
				{
					"inputs": [
						{
							"internalType": "address",
							"name": "uavNFTAddress",
							"type": "address"
						},
						{
							"internalType": "uint256",
							"name": "uavTokenId",
							"type": "uint256"
						},
						{
							"internalType": "string",
							"name": "ipfsHashDocuments",
							"type": "string"
						}
					],
					"name": "submitApplication",
					"outputs": [],
					"stateMutability": "nonpayable",
					"type": "function"
				}
			],
			"devdoc": {
				"kind": "dev",
				"methods": {},
				"version": 1
			},
			"evm": {
				"assembly": "    /* \"contracts/Airworthiness.sol\":174:2738  contract Airworthiness {... */\n  mstore(0x40, 0x80)\n    /* \"contracts/Airworthiness.sol\":857:960  constructor(address _regulatoryAuthority) {... */\n  callvalue\n  dup1\n  iszero\n  tag_1\n  jumpi\n  0x00\n  dup1\n  revert\ntag_1:\n  pop\n  mload(0x40)\n  sub(codesize, bytecodeSize)\n  dup1\n  bytecodeSize\n  dup4\n  codecopy\n  dup2\n  dup2\n  add\n  0x40\n  mstore\n  dup2\n  add\n  swap1\n  tag_2\n  swap2\n  swap1\n  tag_3\n  jump\t// in\ntag_2:\n    /* \"contracts/Airworthiness.sol\":932:952  _regulatoryAuthority */\n  dup1\n    /* \"contracts/Airworthiness.sol\":910:929  regulatoryAuthority */\n  0x02\n  0x00\n    /* \"contracts/Airworthiness.sol\":910:952  regulatoryAuthority = _regulatoryAuthority */\n  0x0100\n  exp\n  dup2\n  sload\n  dup2\n  0xffffffffffffffffffffffffffffffffffffffff\n  mul\n  not\n  and\n  swap1\n  dup4\n  0xffffffffffffffffffffffffffffffffffffffff\n  and\n  mul\n  or\n  swap1\n  sstore\n  pop\n    /* \"contracts/Airworthiness.sol\":857:960  constructor(address _regulatoryAuthority) {... */\n  pop\n    /* \"contracts/Airworthiness.sol\":174:2738  contract Airworthiness {... */\n  jump(tag_6)\n    /* \"#utility.yul\":88:205   */\ntag_8:\n    /* \"#utility.yul\":197:198   */\n  0x00\n    /* \"#utility.yul\":194:195   */\n  dup1\n    /* \"#utility.yul\":187:199   */\n  revert\n    /* \"#utility.yul\":334:460   */\ntag_10:\n    /* \"#utility.yul\":371:378   */\n  0x00\n    /* \"#utility.yul\":411:453   */\n  0xffffffffffffffffffffffffffffffffffffffff\n    /* \"#utility.yul\":404:409   */\n  dup3\n    /* \"#utility.yul\":400:454   */\n  and\n    /* \"#utility.yul\":389:454   */\n  swap1\n  pop\n    /* \"#utility.yul\":334:460   */\n  swap2\n  swap1\n  pop\n  jump\t// out\n    /* \"#utility.yul\":466:562   */\ntag_11:\n    /* \"#utility.yul\":503:510   */\n  0x00\n    /* \"#utility.yul\":532:556   */\n  tag_20\n    /* \"#utility.yul\":550:555   */\n  dup3\n    /* \"#utility.yul\":532:556   */\n  tag_10\n  jump\t// in\ntag_20:\n    /* \"#utility.yul\":521:556   */\n  swap1\n  pop\n    /* \"#utility.yul\":466:562   */\n  swap2\n  swap1\n  pop\n  jump\t// out\n    /* \"#utility.yul\":568:690   */\ntag_12:\n    /* \"#utility.yul\":641:665   */\n  tag_22\n    /* \"#utility.yul\":659:664   */\n  dup2\n    /* \"#utility.yul\":641:665   */\n  tag_11\n  jump\t// in\ntag_22:\n    /* \"#utility.yul\":634:639   */\n  dup2\n    /* \"#utility.yul\":631:666   */\n  eq\n    /* \"#utility.yul\":621:684   */\n  tag_23\n  jumpi\n    /* \"#utility.yul\":680:681   */\n  0x00\n    /* \"#utility.yul\":677:678   */\n  dup1\n    /* \"#utility.yul\":670:682   */\n  revert\n    /* \"#utility.yul\":621:684   */\ntag_23:\n    /* \"#utility.yul\":568:690   */\n  pop\n  jump\t// out\n    /* \"#utility.yul\":696:839   */\ntag_13:\n    /* \"#utility.yul\":753:758   */\n  0x00\n    /* \"#utility.yul\":784:790   */\n  dup2\n    /* \"#utility.yul\":778:791   */\n  mload\n    /* \"#utility.yul\":769:791   */\n  swap1\n  pop\n    /* \"#utility.yul\":800:833   */\n  tag_25\n    /* \"#utility.yul\":827:832   */\n  dup2\n    /* \"#utility.yul\":800:833   */\n  tag_12\n  jump\t// in\ntag_25:\n    /* \"#utility.yul\":696:839   */\n  swap3\n  swap2\n  pop\n  pop\n  jump\t// out\n    /* \"#utility.yul\":845:1196   */\ntag_3:\n    /* \"#utility.yul\":915:921   */\n  0x00\n    /* \"#utility.yul\":964:966   */\n  0x20\n    /* \"#utility.yul\":952:961   */\n  dup3\n    /* \"#utility.yul\":943:950   */\n  dup5\n    /* \"#utility.yul\":939:962   */\n  sub\n    /* \"#utility.yul\":935:967   */\n  slt\n    /* \"#utility.yul\":932:1051   */\n  iszero\n  tag_27\n  jumpi\n    /* \"#utility.yul\":970:1049   */\n  tag_28\n  tag_8\n  jump\t// in\ntag_28:\n    /* \"#utility.yul\":932:1051   */\ntag_27:\n    /* \"#utility.yul\":1090:1091   */\n  0x00\n    /* \"#utility.yul\":1115:1179   */\n  tag_29\n    /* \"#utility.yul\":1171:1178   */\n  dup5\n    /* \"#utility.yul\":1162:1168   */\n  dup3\n    /* \"#utility.yul\":1151:1160   */\n  dup6\n    /* \"#utility.yul\":1147:1169   */\n  add\n    /* \"#utility.yul\":1115:1179   */\n  tag_13\n  jump\t// in\ntag_29:\n    /* \"#utility.yul\":1105:1179   */\n  swap2\n  pop\n    /* \"#utility.yul\":1061:1189   */\n  pop\n    /* \"#utility.yul\":845:1196   */\n  swap3\n  swap2\n  pop\n  pop\n  jump\t// out\n    /* \"contracts/Airworthiness.sol\":174:2738  contract Airworthiness {... */\ntag_6:\n  dataSize(sub_0)\n  dup1\n  dataOffset(sub_0)\n  0x00\n  codecopy\n  0x00\n  return\nstop\n\nsub_0: assembly {\n        /* \"contracts/Airworthiness.sol\":174:2738  contract Airworthiness {... */\n      mstore(0x40, 0x80)\n      callvalue\n      dup1\n      iszero\n      tag_1\n      jumpi\n      0x00\n      dup1\n      revert\n    tag_1:\n      pop\n      jumpi(tag_2, lt(calldatasize, 0x04))\n      shr(0xe0, calldataload(0x00))\n      dup1\n      0x53e50083\n      gt\n      tag_10\n      jumpi\n      dup1\n      0x53e50083\n      eq\n      tag_6\n      jumpi\n      dup1\n      0x7925132d\n      eq\n      tag_7\n      jumpi\n      dup1\n      0xdb144d01\n      eq\n      tag_8\n      jumpi\n      dup1\n      0xdfefadff\n      eq\n      tag_9\n      jumpi\n      jump(tag_2)\n    tag_10:\n      dup1\n      0x0c816de4\n      eq\n      tag_3\n      jumpi\n      dup1\n      0x4f82ff41\n      eq\n      tag_4\n      jumpi\n      dup1\n      0x500a90cc\n      eq\n      tag_5\n      jumpi\n    tag_2:\n      0x00\n      dup1\n      revert\n        /* \"contracts/Airworthiness.sol\":2008:2506  function issueCertificate(uint256 applicationId, string memory airworthinessCertificateHash) external onlyRegulatoryAuthority {... */\n    tag_3:\n      tag_11\n      0x04\n      dup1\n      calldatasize\n      sub\n      dup2\n      add\n      swap1\n      tag_12\n      swap2\n      swap1\n      tag_13\n      jump\t// in\n    tag_12:\n      tag_14\n      jump\t// in\n    tag_11:\n      stop\n        /* \"contracts/Airworthiness.sol\":2514:2735  function isCertified(uint256 applicationId) external view returns (bool) {... */\n    tag_4:\n      tag_15\n      0x04\n      dup1\n      calldatasize\n      sub\n      dup2\n      add\n      swap1\n      tag_16\n      swap2\n      swap1\n      tag_17\n      jump\t// in\n    tag_16:\n      tag_18\n      jump\t// in\n    tag_15:\n      mload(0x40)\n      tag_19\n      swap2\n      swap1\n      tag_20\n      jump\t// in\n    tag_19:\n      mload(0x40)\n      dup1\n      swap2\n      sub\n      swap1\n      return\n        /* \"contracts/Airworthiness.sol\":1121:1796  function submitApplication(address uavNFTAddress, uint256 uavTokenId, string memory ipfsHashDocuments) external {... */\n    tag_5:\n      tag_21\n      0x04\n      dup1\n      calldatasize\n      sub\n      dup2\n      add\n      swap1\n      tag_22\n      swap2\n      swap1\n      tag_23\n      jump\t// in\n    tag_22:\n      tag_24\n      jump\t// in\n    tag_21:\n      stop\n        /* \"contracts/Airworthiness.sol\":1804:2004  function completeInspection(uint256 applicationId, string memory inspectionReportHash) external onlyRegulatoryAuthority {... */\n    tag_6:\n      tag_25\n      0x04\n      dup1\n      calldatasize\n      sub\n      dup2\n      add\n      swap1\n      tag_26\n      swap2\n      swap1\n      tag_13\n      jump\t// in\n    tag_26:\n      tag_27\n      jump\t// in\n    tag_25:\n      stop\n        /* \"contracts/Airworthiness.sol\":558:592  address public regulatoryAuthority */\n    tag_7:\n      tag_28\n      tag_29\n      jump\t// in\n    tag_28:\n      mload(0x40)\n      tag_30\n      swap2\n      swap1\n      tag_31\n      jump\t// in\n    tag_30:\n      mload(0x40)\n      dup1\n      swap2\n      sub\n      swap1\n      return\n        /* \"contracts/Airworthiness.sol\":460:493  uint256 public applicationCounter */\n    tag_8:\n      tag_32\n      tag_33\n      jump\t// in\n    tag_32:\n      mload(0x40)\n      tag_34\n      swap2\n      swap1\n      tag_35\n      jump\t// in\n    tag_34:\n      mload(0x40)\n      dup1\n      swap2\n      sub\n      swap1\n      return\n        /* \"contracts/Airworthiness.sol\":500:551  mapping(uint256 => Application) public applications */\n    tag_9:\n      tag_36\n      0x04\n      dup1\n      calldatasize\n      sub\n      dup2\n      add\n      swap1\n      tag_37\n      swap2\n      swap1\n      tag_17\n      jump\t// in\n    tag_37:\n      tag_38\n      jump\t// in\n    tag_36:\n      mload(0x40)\n      tag_39\n      swap6\n      swap5\n      swap4\n      swap3\n      swap2\n      swap1\n      tag_40\n      jump\t// in\n    tag_39:\n      mload(0x40)\n      dup1\n      swap2\n      sub\n      swap1\n      return\n        /* \"contracts/Airworthiness.sol\":2008:2506  function issueCertificate(uint256 applicationId, string memory airworthinessCertificateHash) external onlyRegulatoryAuthority {... */\n    tag_14:\n        /* \"contracts/Airworthiness.sol\":1036:1055  regulatoryAuthority */\n      0x02\n      0x00\n      swap1\n      sload\n      swap1\n      0x0100\n      exp\n      swap1\n      div\n      0xffffffffffffffffffffffffffffffffffffffff\n      and\n        /* \"contracts/Airworthiness.sol\":1022:1055  msg.sender == regulatoryAuthority */\n      0xffffffffffffffffffffffffffffffffffffffff\n      and\n        /* \"contracts/Airworthiness.sol\":1022:1032  msg.sender */\n      caller\n        /* \"contracts/Airworthiness.sol\":1022:1055  msg.sender == regulatoryAuthority */\n      0xffffffffffffffffffffffffffffffffffffffff\n      and\n      eq\n        /* \"contracts/Airworthiness.sol\":1014:1093  require(msg.sender == regulatoryAuthority, \"Only regulatory authority allowed\") */\n      tag_42\n      jumpi\n      mload(0x40)\n      0x08c379a000000000000000000000000000000000000000000000000000000000\n      dup2\n      mstore\n      0x04\n      add\n      tag_43\n      swap1\n      tag_44\n      jump\t// in\n    tag_43:\n      mload(0x40)\n      dup1\n      swap2\n      sub\n      swap1\n      revert\n    tag_42:\n        /* \"contracts/Airworthiness.sol\":2141:2164  Application storage app */\n      0x00\n        /* \"contracts/Airworthiness.sol\":2167:2179  applications */\n      0x01\n        /* \"contracts/Airworthiness.sol\":2167:2194  applications[applicationId] */\n      0x00\n        /* \"contracts/Airworthiness.sol\":2180:2193  applicationId */\n      dup5\n        /* \"contracts/Airworthiness.sol\":2167:2194  applications[applicationId] */\n      dup2\n      mstore\n      0x20\n      add\n      swap1\n      dup2\n      mstore\n      0x20\n      add\n      0x00\n      keccak256\n        /* \"contracts/Airworthiness.sol\":2141:2194  Application storage app = applications[applicationId] */\n      swap1\n      pop\n        /* \"contracts/Airworthiness.sol\":2225:2226  0 */\n      0x00\n        /* \"contracts/Airworthiness.sol\":2215:2218  app */\n      dup2\n        /* \"contracts/Airworthiness.sol\":2215:2221  app.id */\n      0x00\n      add\n      sload\n        /* \"contracts/Airworthiness.sol\":2215:2226  app.id != 0 */\n      sub\n        /* \"contracts/Airworthiness.sol\":2207:2257  require(app.id != 0, \"Application does not exist\") */\n      tag_46\n      jumpi\n      mload(0x40)\n      0x08c379a000000000000000000000000000000000000000000000000000000000\n      dup2\n      mstore\n      0x04\n      add\n      tag_47\n      swap1\n      tag_48\n      jump\t// in\n    tag_47:\n      mload(0x40)\n      dup1\n      swap2\n      sub\n      swap1\n      revert\n    tag_46:\n        /* \"contracts/Airworthiness.sol\":2319:2346  CertificationStatus.Pending */\n      0x00\n        /* \"contracts/Airworthiness.sol\":2305:2346  app.status == CertificationStatus.Pending */\n      0x02\n      dup2\n      gt\n      iszero\n      tag_49\n      jumpi\n      tag_50\n      tag_51\n      jump\t// in\n    tag_50:\n    tag_49:\n        /* \"contracts/Airworthiness.sol\":2305:2308  app */\n      dup2\n        /* \"contracts/Airworthiness.sol\":2305:2315  app.status */\n      0x04\n      add\n      0x00\n      swap1\n      sload\n      swap1\n      0x0100\n      exp\n      swap1\n      div\n      0xff\n      and\n        /* \"contracts/Airworthiness.sol\":2305:2346  app.status == CertificationStatus.Pending */\n      0x02\n      dup2\n      gt\n      iszero\n      tag_52\n      jumpi\n      tag_53\n      tag_51\n      jump\t// in\n    tag_53:\n    tag_52:\n      eq\n        /* \"contracts/Airworthiness.sol\":2297:2377  require(app.status == CertificationStatus.Pending, \"Application is not pending\") */\n      tag_54\n      jumpi\n      mload(0x40)\n      0x08c379a000000000000000000000000000000000000000000000000000000000\n      dup2\n      mstore\n      0x04\n      add\n      tag_55\n      swap1\n      tag_56\n      jump\t// in\n    tag_55:\n      mload(0x40)\n      dup1\n      swap2\n      sub\n      swap1\n      revert\n    tag_54:\n        /* \"contracts/Airworthiness.sol\":2399:2428  CertificationStatus.Certified */\n      0x01\n        /* \"contracts/Airworthiness.sol\":2386:2389  app */\n      dup2\n        /* \"contracts/Airworthiness.sol\":2386:2396  app.status */\n      0x04\n      add\n      0x00\n        /* \"contracts/Airworthiness.sol\":2386:2428  app.status = CertificationStatus.Certified */\n      0x0100\n      exp\n      dup2\n      sload\n      dup2\n      0xff\n      mul\n      not\n      and\n      swap1\n      dup4\n      0x02\n      dup2\n      gt\n      iszero\n      tag_57\n      jumpi\n      tag_58\n      tag_51\n      jump\t// in\n    tag_58:\n    tag_57:\n      mul\n      or\n      swap1\n      sstore\n      pop\n        /* \"contracts/Airworthiness.sol\":2458:2471  applicationId */\n      dup3\n        /* \"contracts/Airworthiness.sol\":2440:2502  CertificateIssued(applicationId, airworthinessCertificateHash) */\n      0x82e047af96f6b7e5a52ea238aee0ca4188211301535ddf1fe126e140df6421b4\n        /* \"contracts/Airworthiness.sol\":2473:2501  airworthinessCertificateHash */\n      dup4\n        /* \"contracts/Airworthiness.sol\":2440:2502  CertificateIssued(applicationId, airworthinessCertificateHash) */\n      mload(0x40)\n      tag_59\n      swap2\n      swap1\n      tag_60\n      jump\t// in\n    tag_59:\n      mload(0x40)\n      dup1\n      swap2\n      sub\n      swap1\n      log2\n        /* \"contracts/Airworthiness.sol\":2134:2506  {... */\n      pop\n        /* \"contracts/Airworthiness.sol\":2008:2506  function issueCertificate(uint256 applicationId, string memory airworthinessCertificateHash) external onlyRegulatoryAuthority {... */\n      pop\n      pop\n      jump\t// out\n        /* \"contracts/Airworthiness.sol\":2514:2735  function isCertified(uint256 applicationId) external view returns (bool) {... */\n    tag_18:\n        /* \"contracts/Airworthiness.sol\":2581:2585  bool */\n      0x00\n        /* \"contracts/Airworthiness.sol\":2598:2621  Application storage app */\n      dup1\n        /* \"contracts/Airworthiness.sol\":2624:2636  applications */\n      0x01\n        /* \"contracts/Airworthiness.sol\":2624:2651  applications[applicationId] */\n      0x00\n        /* \"contracts/Airworthiness.sol\":2637:2650  applicationId */\n      dup5\n        /* \"contracts/Airworthiness.sol\":2624:2651  applications[applicationId] */\n      dup2\n      mstore\n      0x20\n      add\n      swap1\n      dup2\n      mstore\n      0x20\n      add\n      0x00\n      keccak256\n        /* \"contracts/Airworthiness.sol\":2598:2651  Application storage app = applications[applicationId] */\n      swap1\n      pop\n        /* \"contracts/Airworthiness.sol\":2679:2680  0 */\n      0x00\n        /* \"contracts/Airworthiness.sol\":2669:2672  app */\n      dup2\n        /* \"contracts/Airworthiness.sol\":2669:2675  app.id */\n      0x00\n      add\n      sload\n        /* \"contracts/Airworthiness.sol\":2669:2680  app.id != 0 */\n      eq\n      iszero\n        /* \"contracts/Airworthiness.sol\":2669:2727  app.id != 0 && app.status == CertificationStatus.Certified */\n      dup1\n      iszero\n      tag_62\n      jumpi\n      pop\n        /* \"contracts/Airworthiness.sol\":2698:2727  CertificationStatus.Certified */\n      0x01\n        /* \"contracts/Airworthiness.sol\":2684:2727  app.status == CertificationStatus.Certified */\n      0x02\n      dup2\n      gt\n      iszero\n      tag_63\n      jumpi\n      tag_64\n      tag_51\n      jump\t// in\n    tag_64:\n    tag_63:\n        /* \"contracts/Airworthiness.sol\":2684:2687  app */\n      dup2\n        /* \"contracts/Airworthiness.sol\":2684:2694  app.status */\n      0x04\n      add\n      0x00\n      swap1\n      sload\n      swap1\n      0x0100\n      exp\n      swap1\n      div\n      0xff\n      and\n        /* \"contracts/Airworthiness.sol\":2684:2727  app.status == CertificationStatus.Certified */\n      0x02\n      dup2\n      gt\n      iszero\n      tag_65\n      jumpi\n      tag_66\n      tag_51\n      jump\t// in\n    tag_66:\n    tag_65:\n      eq\n        /* \"contracts/Airworthiness.sol\":2669:2727  app.id != 0 && app.status == CertificationStatus.Certified */\n    tag_62:\n        /* \"contracts/Airworthiness.sol\":2662:2727  return app.id != 0 && app.status == CertificationStatus.Certified */\n      swap2\n      pop\n      pop\n        /* \"contracts/Airworthiness.sol\":2514:2735  function isCertified(uint256 applicationId) external view returns (bool) {... */\n      swap2\n      swap1\n      pop\n      jump\t// out\n        /* \"contracts/Airworthiness.sol\":1121:1796  function submitApplication(address uavNFTAddress, uint256 uavTokenId, string memory ipfsHashDocuments) external {... */\n    tag_24:\n        /* \"contracts/Airworthiness.sol\":1307:1345  UAVPassportNFTInterface uavPassportNFT */\n      0x00\n        /* \"contracts/Airworthiness.sol\":1372:1385  uavNFTAddress */\n      dup4\n        /* \"contracts/Airworthiness.sol\":1307:1386  UAVPassportNFTInterface uavPassportNFT = UAVPassportNFTInterface(uavNFTAddress) */\n      swap1\n      pop\n        /* \"contracts/Airworthiness.sol\":1474:1484  msg.sender */\n      caller\n        /* \"contracts/Airworthiness.sol\":1436:1484  uavPassportNFT.ownerOf(uavTokenId) == msg.sender */\n      0xffffffffffffffffffffffffffffffffffffffff\n      and\n        /* \"contracts/Airworthiness.sol\":1436:1450  uavPassportNFT */\n      dup2\n        /* \"contracts/Airworthiness.sol\":1436:1458  uavPassportNFT.ownerOf */\n      0xffffffffffffffffffffffffffffffffffffffff\n      and\n      0x6352211e\n        /* \"contracts/Airworthiness.sol\":1459:1469  uavTokenId */\n      dup6\n        /* \"contracts/Airworthiness.sol\":1436:1470  uavPassportNFT.ownerOf(uavTokenId) */\n      mload(0x40)\n      dup3\n      0xffffffff\n      and\n      0xe0\n      shl\n      dup2\n      mstore\n      0x04\n      add\n      tag_68\n      swap2\n      swap1\n      tag_35\n      jump\t// in\n    tag_68:\n      0x20\n      mload(0x40)\n      dup1\n      dup4\n      sub\n      dup2\n      dup7\n      gas\n      staticcall\n      iszero\n      dup1\n      iszero\n      tag_70\n      jumpi\n      returndatasize\n      0x00\n      dup1\n      returndatacopy\n      revert(0x00, returndatasize)\n    tag_70:\n      pop\n      pop\n      pop\n      pop\n      mload(0x40)\n      returndatasize\n      not(0x1f)\n      0x1f\n      dup3\n      add\n      and\n      dup3\n      add\n      dup1\n      0x40\n      mstore\n      pop\n      dup2\n      add\n      swap1\n      tag_71\n      swap2\n      swap1\n      tag_72\n      jump\t// in\n    tag_71:\n        /* \"contracts/Airworthiness.sol\":1436:1484  uavPassportNFT.ownerOf(uavTokenId) == msg.sender */\n      0xffffffffffffffffffffffffffffffffffffffff\n      and\n      eq\n        /* \"contracts/Airworthiness.sol\":1428:1537  require(uavPassportNFT.ownerOf(uavTokenId) == msg.sender, \"Caller does not own the specified UAVPassportNFT\") */\n      tag_73\n      jumpi\n      mload(0x40)\n      0x08c379a000000000000000000000000000000000000000000000000000000000\n      dup2\n      mstore\n      0x04\n      add\n      tag_74\n      swap1\n      tag_75\n      jump\t// in\n    tag_74:\n      mload(0x40)\n      dup1\n      swap2\n      sub\n      swap1\n      revert\n    tag_73:\n        /* \"contracts/Airworthiness.sol\":1550:1568  applicationCounter */\n      0x00\n      dup1\n        /* \"contracts/Airworthiness.sol\":1550:1570  applicationCounter++ */\n      dup2\n      sload\n      dup1\n      swap3\n      swap2\n      swap1\n      tag_76\n      swap1\n      tag_77\n      jump\t// in\n    tag_76:\n      swap2\n      swap1\n      pop\n      sstore\n      pop\n        /* \"contracts/Airworthiness.sol\":1616:1722  Application(applicationCounter, uavNFTAddress, uavTokenId, ipfsHashDocuments, CertificationStatus.Pending) */\n      mload(0x40)\n      dup1\n      0xa0\n      add\n      0x40\n      mstore\n      dup1\n        /* \"contracts/Airworthiness.sol\":1628:1646  applicationCounter */\n      sload(0x00)\n        /* \"contracts/Airworthiness.sol\":1616:1722  Application(applicationCounter, uavNFTAddress, uavTokenId, ipfsHashDocuments, CertificationStatus.Pending) */\n      dup2\n      mstore\n      0x20\n      add\n        /* \"contracts/Airworthiness.sol\":1648:1661  uavNFTAddress */\n      dup6\n        /* \"contracts/Airworthiness.sol\":1616:1722  Application(applicationCounter, uavNFTAddress, uavTokenId, ipfsHashDocuments, CertificationStatus.Pending) */\n      0xffffffffffffffffffffffffffffffffffffffff\n      and\n      dup2\n      mstore\n      0x20\n      add\n        /* \"contracts/Airworthiness.sol\":1663:1673  uavTokenId */\n      dup5\n        /* \"contracts/Airworthiness.sol\":1616:1722  Application(applicationCounter, uavNFTAddress, uavTokenId, ipfsHashDocuments, CertificationStatus.Pending) */\n      dup2\n      mstore\n      0x20\n      add\n        /* \"contracts/Airworthiness.sol\":1675:1692  ipfsHashDocuments */\n      dup4\n        /* \"contracts/Airworthiness.sol\":1616:1722  Application(applicationCounter, uavNFTAddress, uavTokenId, ipfsHashDocuments, CertificationStatus.Pending) */\n      dup2\n      mstore\n      0x20\n      add\n        /* \"contracts/Airworthiness.sol\":1694:1721  CertificationStatus.Pending */\n      0x00\n        /* \"contracts/Airworthiness.sol\":1616:1722  Application(applicationCounter, uavNFTAddress, uavTokenId, ipfsHashDocuments, CertificationStatus.Pending) */\n      0x02\n      dup2\n      gt\n      iszero\n      tag_78\n      jumpi\n      tag_79\n      tag_51\n      jump\t// in\n    tag_79:\n    tag_78:\n      dup2\n      mstore\n      pop\n        /* \"contracts/Airworthiness.sol\":1581:1593  applications */\n      0x01\n        /* \"contracts/Airworthiness.sol\":1581:1613  applications[applicationCounter] */\n      0x00\n        /* \"contracts/Airworthiness.sol\":1594:1612  applicationCounter */\n      dup1\n      sload\n        /* \"contracts/Airworthiness.sol\":1581:1613  applications[applicationCounter] */\n      dup2\n      mstore\n      0x20\n      add\n      swap1\n      dup2\n      mstore\n      0x20\n      add\n      0x00\n      keccak256\n        /* \"contracts/Airworthiness.sol\":1581:1722  applications[applicationCounter] = Application(applicationCounter, uavNFTAddress, uavTokenId, ipfsHashDocuments, CertificationStatus.Pending) */\n      0x00\n      dup3\n      add\n      mload\n      dup2\n      0x00\n      add\n      sstore\n      0x20\n      dup3\n      add\n      mload\n      dup2\n      0x01\n      add\n      exp(0x0100, 0x00)\n      dup2\n      sload\n      dup2\n      0xffffffffffffffffffffffffffffffffffffffff\n      mul\n      not\n      and\n      swap1\n      dup4\n      0xffffffffffffffffffffffffffffffffffffffff\n      and\n      mul\n      or\n      swap1\n      sstore\n      pop\n      0x40\n      dup3\n      add\n      mload\n      dup2\n      0x02\n      add\n      sstore\n      0x60\n      dup3\n      add\n      mload\n      dup2\n      0x03\n      add\n      swap1\n      dup2\n      tag_80\n      swap2\n      swap1\n      tag_81\n      jump\t// in\n    tag_80:\n      pop\n      0x80\n      dup3\n      add\n      mload\n      dup2\n      0x04\n      add\n      exp(0x0100, 0x00)\n      dup2\n      sload\n      dup2\n      0xff\n      mul\n      not\n      and\n      swap1\n      dup4\n      0x02\n      dup2\n      gt\n      iszero\n      tag_82\n      jumpi\n      tag_83\n      tag_51\n      jump\t// in\n    tag_83:\n    tag_82:\n      mul\n      or\n      swap1\n      sstore\n      pop\n      swap1\n      pop\n      pop\n        /* \"contracts/Airworthiness.sol\":1769:1787  applicationCounter */\n      sload(0x00)\n        /* \"contracts/Airworthiness.sol\":1748:1788  ApplicationSubmitted(applicationCounter) */\n      0x4b6126472f7a5c1a21fe858797a6bb6ed361c62b74d480965163d30d68576d4f\n      mload(0x40)\n      mload(0x40)\n      dup1\n      swap2\n      sub\n      swap1\n      log2\n        /* \"contracts/Airworthiness.sol\":1233:1796  {... */\n      pop\n        /* \"contracts/Airworthiness.sol\":1121:1796  function submitApplication(address uavNFTAddress, uint256 uavTokenId, string memory ipfsHashDocuments) external {... */\n      pop\n      pop\n      pop\n      jump\t// out\n        /* \"contracts/Airworthiness.sol\":1804:2004  function completeInspection(uint256 applicationId, string memory inspectionReportHash) external onlyRegulatoryAuthority {... */\n    tag_27:\n        /* \"contracts/Airworthiness.sol\":1036:1055  regulatoryAuthority */\n      0x02\n      0x00\n      swap1\n      sload\n      swap1\n      0x0100\n      exp\n      swap1\n      div\n      0xffffffffffffffffffffffffffffffffffffffff\n      and\n        /* \"contracts/Airworthiness.sol\":1022:1055  msg.sender == regulatoryAuthority */\n      0xffffffffffffffffffffffffffffffffffffffff\n      and\n        /* \"contracts/Airworthiness.sol\":1022:1032  msg.sender */\n      caller\n        /* \"contracts/Airworthiness.sol\":1022:1055  msg.sender == regulatoryAuthority */\n      0xffffffffffffffffffffffffffffffffffffffff\n      and\n      eq\n        /* \"contracts/Airworthiness.sol\":1014:1093  require(msg.sender == regulatoryAuthority, \"Only regulatory authority allowed\") */\n      tag_85\n      jumpi\n      mload(0x40)\n      0x08c379a000000000000000000000000000000000000000000000000000000000\n      dup2\n      mstore\n      0x04\n      add\n      tag_86\n      swap1\n      tag_44\n      jump\t// in\n    tag_86:\n      mload(0x40)\n      dup1\n      swap2\n      sub\n      swap1\n      revert\n    tag_85:\n        /* \"contracts/Airworthiness.sol\":1960:1973  applicationId */\n      dup2\n        /* \"contracts/Airworthiness.sol\":1940:1996  InspectionCompleted(applicationId, inspectionReportHash) */\n      0xb0e6959ce3e34736661108dd9cfba0a1ebca72401d9f0b81b731a4448eaddcce\n        /* \"contracts/Airworthiness.sol\":1975:1995  inspectionReportHash */\n      dup3\n        /* \"contracts/Airworthiness.sol\":1940:1996  InspectionCompleted(applicationId, inspectionReportHash) */\n      mload(0x40)\n      tag_88\n      swap2\n      swap1\n      tag_60\n      jump\t// in\n    tag_88:\n      mload(0x40)\n      dup1\n      swap2\n      sub\n      swap1\n      log2\n        /* \"contracts/Airworthiness.sol\":1804:2004  function completeInspection(uint256 applicationId, string memory inspectionReportHash) external onlyRegulatoryAuthority {... */\n      pop\n      pop\n      jump\t// out\n        /* \"contracts/Airworthiness.sol\":558:592  address public regulatoryAuthority */\n    tag_29:\n      0x02\n      0x00\n      swap1\n      sload\n      swap1\n      0x0100\n      exp\n      swap1\n      div\n      0xffffffffffffffffffffffffffffffffffffffff\n      and\n      dup2\n      jump\t// out\n        /* \"contracts/Airworthiness.sol\":460:493  uint256 public applicationCounter */\n    tag_33:\n      sload(0x00)\n      dup2\n      jump\t// out\n        /* \"contracts/Airworthiness.sol\":500:551  mapping(uint256 => Application) public applications */\n    tag_38:\n      mstore(0x20, 0x01)\n      dup1\n      0x00\n      mstore\n      keccak256(0x00, 0x40)\n      0x00\n      swap2\n      pop\n      swap1\n      pop\n      dup1\n      0x00\n      add\n      sload\n      swap1\n      dup1\n      0x01\n      add\n      0x00\n      swap1\n      sload\n      swap1\n      0x0100\n      exp\n      swap1\n      div\n      0xffffffffffffffffffffffffffffffffffffffff\n      and\n      swap1\n      dup1\n      0x02\n      add\n      sload\n      swap1\n      dup1\n      0x03\n      add\n      dup1\n      sload\n      tag_89\n      swap1\n      tag_90\n      jump\t// in\n    tag_89:\n      dup1\n      0x1f\n      add\n      0x20\n      dup1\n      swap2\n      div\n      mul\n      0x20\n      add\n      mload(0x40)\n      swap1\n      dup2\n      add\n      0x40\n      mstore\n      dup1\n      swap3\n      swap2\n      swap1\n      dup2\n      dup2\n      mstore\n      0x20\n      add\n      dup3\n      dup1\n      sload\n      tag_91\n      swap1\n      tag_90\n      jump\t// in\n    tag_91:\n      dup1\n      iszero\n      tag_92\n      jumpi\n      dup1\n      0x1f\n      lt\n      tag_93\n      jumpi\n      0x0100\n      dup1\n      dup4\n      sload\n      div\n      mul\n      dup4\n      mstore\n      swap2\n      0x20\n      add\n      swap2\n      jump(tag_92)\n    tag_93:\n      dup3\n      add\n      swap2\n      swap1\n      0x00\n      mstore\n      keccak256(0x00, 0x20)\n      swap1\n    tag_94:\n      dup2\n      sload\n      dup2\n      mstore\n      swap1\n      0x01\n      add\n      swap1\n      0x20\n      add\n      dup1\n      dup4\n      gt\n      tag_94\n      jumpi\n      dup3\n      swap1\n      sub\n      0x1f\n      and\n      dup3\n      add\n      swap2\n    tag_92:\n      pop\n      pop\n      pop\n      pop\n      pop\n      swap1\n      dup1\n      0x04\n      add\n      0x00\n      swap1\n      sload\n      swap1\n      0x0100\n      exp\n      swap1\n      div\n      0xff\n      and\n      swap1\n      pop\n      dup6\n      jump\t// out\n        /* \"#utility.yul\":7:82   */\n    tag_95:\n        /* \"#utility.yul\":40:46   */\n      0x00\n        /* \"#utility.yul\":73:75   */\n      0x40\n        /* \"#utility.yul\":67:76   */\n      mload\n        /* \"#utility.yul\":57:76   */\n      swap1\n      pop\n        /* \"#utility.yul\":7:82   */\n      swap1\n      jump\t// out\n        /* \"#utility.yul\":88:205   */\n    tag_96:\n        /* \"#utility.yul\":197:198   */\n      0x00\n        /* \"#utility.yul\":194:195   */\n      dup1\n        /* \"#utility.yul\":187:199   */\n      revert\n        /* \"#utility.yul\":211:328   */\n    tag_97:\n        /* \"#utility.yul\":320:321   */\n      0x00\n        /* \"#utility.yul\":317:318   */\n      dup1\n        /* \"#utility.yul\":310:322   */\n      revert\n        /* \"#utility.yul\":334:411   */\n    tag_98:\n        /* \"#utility.yul\":371:378   */\n      0x00\n        /* \"#utility.yul\":400:405   */\n      dup2\n        /* \"#utility.yul\":389:405   */\n      swap1\n      pop\n        /* \"#utility.yul\":334:411   */\n      swap2\n      swap1\n      pop\n      jump\t// out\n        /* \"#utility.yul\":417:539   */\n    tag_99:\n        /* \"#utility.yul\":490:514   */\n      tag_159\n        /* \"#utility.yul\":508:513   */\n      dup2\n        /* \"#utility.yul\":490:514   */\n      tag_98\n      jump\t// in\n    tag_159:\n        /* \"#utility.yul\":483:488   */\n      dup2\n        /* \"#utility.yul\":480:515   */\n      eq\n        /* \"#utility.yul\":470:533   */\n      tag_160\n      jumpi\n        /* \"#utility.yul\":529:530   */\n      0x00\n        /* \"#utility.yul\":526:527   */\n      dup1\n        /* \"#utility.yul\":519:531   */\n      revert\n        /* \"#utility.yul\":470:533   */\n    tag_160:\n        /* \"#utility.yul\":417:539   */\n      pop\n      jump\t// out\n        /* \"#utility.yul\":545:684   */\n    tag_100:\n        /* \"#utility.yul\":591:596   */\n      0x00\n        /* \"#utility.yul\":629:635   */\n      dup2\n        /* \"#utility.yul\":616:636   */\n      calldataload\n        /* \"#utility.yul\":607:636   */\n      swap1\n      pop\n        /* \"#utility.yul\":645:678   */\n      tag_162\n        /* \"#utility.yul\":672:677   */\n      dup2\n        /* \"#utility.yul\":645:678   */\n      tag_99\n      jump\t// in\n    tag_162:\n        /* \"#utility.yul\":545:684   */\n      swap3\n      swap2\n      pop\n      pop\n      jump\t// out\n        /* \"#utility.yul\":690:807   */\n    tag_101:\n        /* \"#utility.yul\":799:800   */\n      0x00\n        /* \"#utility.yul\":796:797   */\n      dup1\n        /* \"#utility.yul\":789:801   */\n      revert\n        /* \"#utility.yul\":813:930   */\n    tag_102:\n        /* \"#utility.yul\":922:923   */\n      0x00\n        /* \"#utility.yul\":919:920   */\n      dup1\n        /* \"#utility.yul\":912:924   */\n      revert\n        /* \"#utility.yul\":936:1038   */\n    tag_103:\n        /* \"#utility.yul\":977:983   */\n      0x00\n        /* \"#utility.yul\":1028:1030   */\n      0x1f\n        /* \"#utility.yul\":1024:1031   */\n      not\n        /* \"#utility.yul\":1019:1021   */\n      0x1f\n        /* \"#utility.yul\":1012:1017   */\n      dup4\n        /* \"#utility.yul\":1008:1022   */\n      add\n        /* \"#utility.yul\":1004:1032   */\n      and\n        /* \"#utility.yul\":994:1032   */\n      swap1\n      pop\n        /* \"#utility.yul\":936:1038   */\n      swap2\n      swap1\n      pop\n      jump\t// out\n        /* \"#utility.yul\":1044:1224   */\n    tag_104:\n        /* \"#utility.yul\":1092:1169   */\n      0x4e487b7100000000000000000000000000000000000000000000000000000000\n        /* \"#utility.yul\":1089:1090   */\n      0x00\n        /* \"#utility.yul\":1082:1170   */\n      mstore\n        /* \"#utility.yul\":1189:1193   */\n      0x41\n        /* \"#utility.yul\":1186:1187   */\n      0x04\n        /* \"#utility.yul\":1179:1194   */\n      mstore\n        /* \"#utility.yul\":1213:1217   */\n      0x24\n        /* \"#utility.yul\":1210:1211   */\n      0x00\n        /* \"#utility.yul\":1203:1218   */\n      revert\n        /* \"#utility.yul\":1230:1511   */\n    tag_105:\n        /* \"#utility.yul\":1313:1340   */\n      tag_168\n        /* \"#utility.yul\":1335:1339   */\n      dup3\n        /* \"#utility.yul\":1313:1340   */\n      tag_103\n      jump\t// in\n    tag_168:\n        /* \"#utility.yul\":1305:1311   */\n      dup2\n        /* \"#utility.yul\":1301:1341   */\n      add\n        /* \"#utility.yul\":1443:1449   */\n      dup2\n        /* \"#utility.yul\":1431:1441   */\n      dup2\n        /* \"#utility.yul\":1428:1450   */\n      lt\n        /* \"#utility.yul\":1407:1425   */\n      0xffffffffffffffff\n        /* \"#utility.yul\":1395:1405   */\n      dup3\n        /* \"#utility.yul\":1392:1426   */\n      gt\n        /* \"#utility.yul\":1389:1451   */\n      or\n        /* \"#utility.yul\":1386:1474   */\n      iszero\n      tag_169\n      jumpi\n        /* \"#utility.yul\":1454:1472   */\n      tag_170\n      tag_104\n      jump\t// in\n    tag_170:\n        /* \"#utility.yul\":1386:1474   */\n    tag_169:\n        /* \"#utility.yul\":1494:1504   */\n      dup1\n        /* \"#utility.yul\":1490:1492   */\n      0x40\n        /* \"#utility.yul\":1483:1505   */\n      mstore\n        /* \"#utility.yul\":1273:1511   */\n      pop\n        /* \"#utility.yul\":1230:1511   */\n      pop\n      pop\n      jump\t// out\n        /* \"#utility.yul\":1517:1646   */\n    tag_106:\n        /* \"#utility.yul\":1551:1557   */\n      0x00\n        /* \"#utility.yul\":1578:1598   */\n      tag_172\n      tag_95\n      jump\t// in\n    tag_172:\n        /* \"#utility.yul\":1568:1598   */\n      swap1\n      pop\n        /* \"#utility.yul\":1607:1640   */\n      tag_173\n        /* \"#utility.yul\":1635:1639   */\n      dup3\n        /* \"#utility.yul\":1627:1633   */\n      dup3\n        /* \"#utility.yul\":1607:1640   */\n      tag_105\n      jump\t// in\n    tag_173:\n        /* \"#utility.yul\":1517:1646   */\n      swap2\n      swap1\n      pop\n      jump\t// out\n        /* \"#utility.yul\":1652:1960   */\n    tag_107:\n        /* \"#utility.yul\":1714:1718   */\n      0x00\n        /* \"#utility.yul\":1804:1822   */\n      0xffffffffffffffff\n        /* \"#utility.yul\":1796:1802   */\n      dup3\n        /* \"#utility.yul\":1793:1823   */\n      gt\n        /* \"#utility.yul\":1790:1846   */\n      iszero\n      tag_175\n      jumpi\n        /* \"#utility.yul\":1826:1844   */\n      tag_176\n      tag_104\n      jump\t// in\n    tag_176:\n        /* \"#utility.yul\":1790:1846   */\n    tag_175:\n        /* \"#utility.yul\":1864:1893   */\n      tag_177\n        /* \"#utility.yul\":1886:1892   */\n      dup3\n        /* \"#utility.yul\":1864:1893   */\n      tag_103\n      jump\t// in\n    tag_177:\n        /* \"#utility.yul\":1856:1893   */\n      swap1\n      pop\n        /* \"#utility.yul\":1948:1952   */\n      0x20\n        /* \"#utility.yul\":1942:1946   */\n      dup2\n        /* \"#utility.yul\":1938:1953   */\n      add\n        /* \"#utility.yul\":1930:1953   */\n      swap1\n      pop\n        /* \"#utility.yul\":1652:1960   */\n      swap2\n      swap1\n      pop\n      jump\t// out\n        /* \"#utility.yul\":1966:2114   */\n    tag_108:\n        /* \"#utility.yul\":2064:2070   */\n      dup3\n        /* \"#utility.yul\":2059:2062   */\n      dup2\n        /* \"#utility.yul\":2054:2057   */\n      dup4\n        /* \"#utility.yul\":2041:2071   */\n      calldatacopy\n        /* \"#utility.yul\":2105:2106   */\n      0x00\n        /* \"#utility.yul\":2096:2102   */\n      dup4\n        /* \"#utility.yul\":2091:2094   */\n      dup4\n        /* \"#utility.yul\":2087:2103   */\n      add\n        /* \"#utility.yul\":2080:2107   */\n      mstore\n        /* \"#utility.yul\":1966:2114   */\n      pop\n      pop\n      pop\n      jump\t// out\n        /* \"#utility.yul\":2120:2545   */\n    tag_109:\n        /* \"#utility.yul\":2198:2203   */\n      0x00\n        /* \"#utility.yul\":2223:2289   */\n      tag_180\n        /* \"#utility.yul\":2239:2288   */\n      tag_181\n        /* \"#utility.yul\":2281:2287   */\n      dup5\n        /* \"#utility.yul\":2239:2288   */\n      tag_107\n      jump\t// in\n    tag_181:\n        /* \"#utility.yul\":2223:2289   */\n      tag_106\n      jump\t// in\n    tag_180:\n        /* \"#utility.yul\":2214:2289   */\n      swap1\n      pop\n        /* \"#utility.yul\":2312:2318   */\n      dup3\n        /* \"#utility.yul\":2305:2310   */\n      dup2\n        /* \"#utility.yul\":2298:2319   */\n      mstore\n        /* \"#utility.yul\":2350:2354   */\n      0x20\n        /* \"#utility.yul\":2343:2348   */\n      dup2\n        /* \"#utility.yul\":2339:2355   */\n      add\n        /* \"#utility.yul\":2388:2391   */\n      dup5\n        /* \"#utility.yul\":2379:2385   */\n      dup5\n        /* \"#utility.yul\":2374:2377   */\n      dup5\n        /* \"#utility.yul\":2370:2386   */\n      add\n        /* \"#utility.yul\":2367:2392   */\n      gt\n        /* \"#utility.yul\":2364:2476   */\n      iszero\n      tag_182\n      jumpi\n        /* \"#utility.yul\":2395:2474   */\n      tag_183\n      tag_102\n      jump\t// in\n    tag_183:\n        /* \"#utility.yul\":2364:2476   */\n    tag_182:\n        /* \"#utility.yul\":2485:2539   */\n      tag_184\n        /* \"#utility.yul\":2532:2538   */\n      dup5\n        /* \"#utility.yul\":2527:2530   */\n      dup3\n        /* \"#utility.yul\":2522:2525   */\n      dup6\n        /* \"#utility.yul\":2485:2539   */\n      tag_108\n      jump\t// in\n    tag_184:\n        /* \"#utility.yul\":2204:2545   */\n      pop\n        /* \"#utility.yul\":2120:2545   */\n      swap4\n      swap3\n      pop\n      pop\n      pop\n      jump\t// out\n        /* \"#utility.yul\":2565:2905   */\n    tag_110:\n        /* \"#utility.yul\":2621:2626   */\n      0x00\n        /* \"#utility.yul\":2670:2673   */\n      dup3\n        /* \"#utility.yul\":2663:2667   */\n      0x1f\n        /* \"#utility.yul\":2655:2661   */\n      dup4\n        /* \"#utility.yul\":2651:2668   */\n      add\n        /* \"#utility.yul\":2647:2674   */\n      slt\n        /* \"#utility.yul\":2637:2759   */\n      tag_186\n      jumpi\n        /* \"#utility.yul\":2678:2757   */\n      tag_187\n      tag_101\n      jump\t// in\n    tag_187:\n        /* \"#utility.yul\":2637:2759   */\n    tag_186:\n        /* \"#utility.yul\":2795:2801   */\n      dup2\n        /* \"#utility.yul\":2782:2802   */\n      calldataload\n        /* \"#utility.yul\":2820:2899   */\n      tag_188\n        /* \"#utility.yul\":2895:2898   */\n      dup5\n        /* \"#utility.yul\":2887:2893   */\n      dup3\n        /* \"#utility.yul\":2880:2884   */\n      0x20\n        /* \"#utility.yul\":2872:2878   */\n      dup7\n        /* \"#utility.yul\":2868:2885   */\n      add\n        /* \"#utility.yul\":2820:2899   */\n      tag_109\n      jump\t// in\n    tag_188:\n        /* \"#utility.yul\":2811:2899   */\n      swap2\n      pop\n        /* \"#utility.yul\":2627:2905   */\n      pop\n        /* \"#utility.yul\":2565:2905   */\n      swap3\n      swap2\n      pop\n      pop\n      jump\t// out\n        /* \"#utility.yul\":2911:3565   */\n    tag_13:\n        /* \"#utility.yul\":2989:2995   */\n      0x00\n        /* \"#utility.yul\":2997:3003   */\n      dup1\n        /* \"#utility.yul\":3046:3048   */\n      0x40\n        /* \"#utility.yul\":3034:3043   */\n      dup4\n        /* \"#utility.yul\":3025:3032   */\n      dup6\n        /* \"#utility.yul\":3021:3044   */\n      sub\n        /* \"#utility.yul\":3017:3049   */\n      slt\n        /* \"#utility.yul\":3014:3133   */\n      iszero\n      tag_190\n      jumpi\n        /* \"#utility.yul\":3052:3131   */\n      tag_191\n      tag_96\n      jump\t// in\n    tag_191:\n        /* \"#utility.yul\":3014:3133   */\n    tag_190:\n        /* \"#utility.yul\":3172:3173   */\n      0x00\n        /* \"#utility.yul\":3197:3250   */\n      tag_192\n        /* \"#utility.yul\":3242:3249   */\n      dup6\n        /* \"#utility.yul\":3233:3239   */\n      dup3\n        /* \"#utility.yul\":3222:3231   */\n      dup7\n        /* \"#utility.yul\":3218:3240   */\n      add\n        /* \"#utility.yul\":3197:3250   */\n      tag_100\n      jump\t// in\n    tag_192:\n        /* \"#utility.yul\":3187:3250   */\n      swap3\n      pop\n        /* \"#utility.yul\":3143:3260   */\n      pop\n        /* \"#utility.yul\":3327:3329   */\n      0x20\n        /* \"#utility.yul\":3316:3325   */\n      dup4\n        /* \"#utility.yul\":3312:3330   */\n      add\n        /* \"#utility.yul\":3299:3331   */\n      calldataload\n        /* \"#utility.yul\":3358:3376   */\n      0xffffffffffffffff\n        /* \"#utility.yul\":3350:3356   */\n      dup2\n        /* \"#utility.yul\":3347:3377   */\n      gt\n        /* \"#utility.yul\":3344:3461   */\n      iszero\n      tag_193\n      jumpi\n        /* \"#utility.yul\":3380:3459   */\n      tag_194\n      tag_97\n      jump\t// in\n    tag_194:\n        /* \"#utility.yul\":3344:3461   */\n    tag_193:\n        /* \"#utility.yul\":3485:3548   */\n      tag_195\n        /* \"#utility.yul\":3540:3547   */\n      dup6\n        /* \"#utility.yul\":3531:3537   */\n      dup3\n        /* \"#utility.yul\":3520:3529   */\n      dup7\n        /* \"#utility.yul\":3516:3538   */\n      add\n        /* \"#utility.yul\":3485:3548   */\n      tag_110\n      jump\t// in\n    tag_195:\n        /* \"#utility.yul\":3475:3548   */\n      swap2\n      pop\n        /* \"#utility.yul\":3270:3558   */\n      pop\n        /* \"#utility.yul\":2911:3565   */\n      swap3\n      pop\n      swap3\n      swap1\n      pop\n      jump\t// out\n        /* \"#utility.yul\":3571:3900   */\n    tag_17:\n        /* \"#utility.yul\":3630:3636   */\n      0x00\n        /* \"#utility.yul\":3679:3681   */\n      0x20\n        /* \"#utility.yul\":3667:3676   */\n      dup3\n        /* \"#utility.yul\":3658:3665   */\n      dup5\n        /* \"#utility.yul\":3654:3677   */\n      sub\n        /* \"#utility.yul\":3650:3682   */\n      slt\n        /* \"#utility.yul\":3647:3766   */\n      iszero\n      tag_197\n      jumpi\n        /* \"#utility.yul\":3685:3764   */\n      tag_198\n      tag_96\n      jump\t// in\n    tag_198:\n        /* \"#utility.yul\":3647:3766   */\n    tag_197:\n        /* \"#utility.yul\":3805:3806   */\n      0x00\n        /* \"#utility.yul\":3830:3883   */\n      tag_199\n        /* \"#utility.yul\":3875:3882   */\n      dup5\n        /* \"#utility.yul\":3866:3872   */\n      dup3\n        /* \"#utility.yul\":3855:3864   */\n      dup6\n        /* \"#utility.yul\":3851:3873   */\n      add\n        /* \"#utility.yul\":3830:3883   */\n      tag_100\n      jump\t// in\n    tag_199:\n        /* \"#utility.yul\":3820:3883   */\n      swap2\n      pop\n        /* \"#utility.yul\":3776:3893   */\n      pop\n        /* \"#utility.yul\":3571:3900   */\n      swap3\n      swap2\n      pop\n      pop\n      jump\t// out\n        /* \"#utility.yul\":3906:3996   */\n    tag_111:\n        /* \"#utility.yul\":3940:3947   */\n      0x00\n        /* \"#utility.yul\":3983:3988   */\n      dup2\n        /* \"#utility.yul\":3976:3989   */\n      iszero\n        /* \"#utility.yul\":3969:3990   */\n      iszero\n        /* \"#utility.yul\":3958:3990   */\n      swap1\n      pop\n        /* \"#utility.yul\":3906:3996   */\n      swap2\n      swap1\n      pop\n      jump\t// out\n        /* \"#utility.yul\":4002:4111   */\n    tag_112:\n        /* \"#utility.yul\":4083:4104   */\n      tag_202\n        /* \"#utility.yul\":4098:4103   */\n      dup2\n        /* \"#utility.yul\":4083:4104   */\n      tag_111\n      jump\t// in\n    tag_202:\n        /* \"#utility.yul\":4078:4081   */\n      dup3\n        /* \"#utility.yul\":4071:4105   */\n      mstore\n        /* \"#utility.yul\":4002:4111   */\n      pop\n      pop\n      jump\t// out\n        /* \"#utility.yul\":4117:4327   */\n    tag_20:\n        /* \"#utility.yul\":4204:4208   */\n      0x00\n        /* \"#utility.yul\":4242:4244   */\n      0x20\n        /* \"#utility.yul\":4231:4240   */\n      dup3\n        /* \"#utility.yul\":4227:4245   */\n      add\n        /* \"#utility.yul\":4219:4245   */\n      swap1\n      pop\n        /* \"#utility.yul\":4255:4320   */\n      tag_204\n        /* \"#utility.yul\":4317:4318   */\n      0x00\n        /* \"#utility.yul\":4306:4315   */\n      dup4\n        /* \"#utility.yul\":4302:4319   */\n      add\n        /* \"#utility.yul\":4293:4299   */\n      dup5\n        /* \"#utility.yul\":4255:4320   */\n      tag_112\n      jump\t// in\n    tag_204:\n        /* \"#utility.yul\":4117:4327   */\n      swap3\n      swap2\n      pop\n      pop\n      jump\t// out\n        /* \"#utility.yul\":4333:4459   */\n    tag_113:\n        /* \"#utility.yul\":4370:4377   */\n      0x00\n        /* \"#utility.yul\":4410:4452   */\n      0xffffffffffffffffffffffffffffffffffffffff\n        /* \"#utility.yul\":4403:4408   */\n      dup3\n        /* \"#utility.yul\":4399:4453   */\n      and\n        /* \"#utility.yul\":4388:4453   */\n      swap1\n      pop\n        /* \"#utility.yul\":4333:4459   */\n      swap2\n      swap1\n      pop\n      jump\t// out\n        /* \"#utility.yul\":4465:4561   */\n    tag_114:\n        /* \"#utility.yul\":4502:4509   */\n      0x00\n        /* \"#utility.yul\":4531:4555   */\n      tag_207\n        /* \"#utility.yul\":4549:4554   */\n      dup3\n        /* \"#utility.yul\":4531:4555   */\n      tag_113\n      jump\t// in\n    tag_207:\n        /* \"#utility.yul\":4520:4555   */\n      swap1\n      pop\n        /* \"#utility.yul\":4465:4561   */\n      swap2\n      swap1\n      pop\n      jump\t// out\n        /* \"#utility.yul\":4567:4689   */\n    tag_115:\n        /* \"#utility.yul\":4640:4664   */\n      tag_209\n        /* \"#utility.yul\":4658:4663   */\n      dup2\n        /* \"#utility.yul\":4640:4664   */\n      tag_114\n      jump\t// in\n    tag_209:\n        /* \"#utility.yul\":4633:4638   */\n      dup2\n        /* \"#utility.yul\":4630:4665   */\n      eq\n        /* \"#utility.yul\":4620:4683   */\n      tag_210\n      jumpi\n        /* \"#utility.yul\":4679:4680   */\n      0x00\n        /* \"#utility.yul\":4676:4677   */\n      dup1\n        /* \"#utility.yul\":4669:4681   */\n      revert\n        /* \"#utility.yul\":4620:4683   */\n    tag_210:\n        /* \"#utility.yul\":4567:4689   */\n      pop\n      jump\t// out\n        /* \"#utility.yul\":4695:4834   */\n    tag_116:\n        /* \"#utility.yul\":4741:4746   */\n      0x00\n        /* \"#utility.yul\":4779:4785   */\n      dup2\n        /* \"#utility.yul\":4766:4786   */\n      calldataload\n        /* \"#utility.yul\":4757:4786   */\n      swap1\n      pop\n        /* \"#utility.yul\":4795:4828   */\n      tag_212\n        /* \"#utility.yul\":4822:4827   */\n      dup2\n        /* \"#utility.yul\":4795:4828   */\n      tag_115\n      jump\t// in\n    tag_212:\n        /* \"#utility.yul\":4695:4834   */\n      swap3\n      swap2\n      pop\n      pop\n      jump\t// out\n        /* \"#utility.yul\":4840:5639   */\n    tag_23:\n        /* \"#utility.yul\":4927:4933   */\n      0x00\n        /* \"#utility.yul\":4935:4941   */\n      dup1\n        /* \"#utility.yul\":4943:4949   */\n      0x00\n        /* \"#utility.yul\":4992:4994   */\n      0x60\n        /* \"#utility.yul\":4980:4989   */\n      dup5\n        /* \"#utility.yul\":4971:4978   */\n      dup7\n        /* \"#utility.yul\":4967:4990   */\n      sub\n        /* \"#utility.yul\":4963:4995   */\n      slt\n        /* \"#utility.yul\":4960:5079   */\n      iszero\n      tag_214\n      jumpi\n        /* \"#utility.yul\":4998:5077   */\n      tag_215\n      tag_96\n      jump\t// in\n    tag_215:\n        /* \"#utility.yul\":4960:5079   */\n    tag_214:\n        /* \"#utility.yul\":5118:5119   */\n      0x00\n        /* \"#utility.yul\":5143:5196   */\n      tag_216\n        /* \"#utility.yul\":5188:5195   */\n      dup7\n        /* \"#utility.yul\":5179:5185   */\n      dup3\n        /* \"#utility.yul\":5168:5177   */\n      dup8\n        /* \"#utility.yul\":5164:5186   */\n      add\n        /* \"#utility.yul\":5143:5196   */\n      tag_116\n      jump\t// in\n    tag_216:\n        /* \"#utility.yul\":5133:5196   */\n      swap4\n      pop\n        /* \"#utility.yul\":5089:5206   */\n      pop\n        /* \"#utility.yul\":5245:5247   */\n      0x20\n        /* \"#utility.yul\":5271:5324   */\n      tag_217\n        /* \"#utility.yul\":5316:5323   */\n      dup7\n        /* \"#utility.yul\":5307:5313   */\n      dup3\n        /* \"#utility.yul\":5296:5305   */\n      dup8\n        /* \"#utility.yul\":5292:5314   */\n      add\n        /* \"#utility.yul\":5271:5324   */\n      tag_100\n      jump\t// in\n    tag_217:\n        /* \"#utility.yul\":5261:5324   */\n      swap3\n      pop\n        /* \"#utility.yul\":5216:5334   */\n      pop\n        /* \"#utility.yul\":5401:5403   */\n      0x40\n        /* \"#utility.yul\":5390:5399   */\n      dup5\n        /* \"#utility.yul\":5386:5404   */\n      add\n        /* \"#utility.yul\":5373:5405   */\n      calldataload\n        /* \"#utility.yul\":5432:5450   */\n      0xffffffffffffffff\n        /* \"#utility.yul\":5424:5430   */\n      dup2\n        /* \"#utility.yul\":5421:5451   */\n      gt\n        /* \"#utility.yul\":5418:5535   */\n      iszero\n      tag_218\n      jumpi\n        /* \"#utility.yul\":5454:5533   */\n      tag_219\n      tag_97\n      jump\t// in\n    tag_219:\n        /* \"#utility.yul\":5418:5535   */\n    tag_218:\n        /* \"#utility.yul\":5559:5622   */\n      tag_220\n        /* \"#utility.yul\":5614:5621   */\n      dup7\n        /* \"#utility.yul\":5605:5611   */\n      dup3\n        /* \"#utility.yul\":5594:5603   */\n      dup8\n        /* \"#utility.yul\":5590:5612   */\n      add\n        /* \"#utility.yul\":5559:5622   */\n      tag_110\n      jump\t// in\n    tag_220:\n        /* \"#utility.yul\":5549:5622   */\n      swap2\n      pop\n        /* \"#utility.yul\":5344:5632   */\n      pop\n        /* \"#utility.yul\":4840:5639   */\n      swap3\n      pop\n      swap3\n      pop\n      swap3\n      jump\t// out\n        /* \"#utility.yul\":5645:5763   */\n    tag_117:\n        /* \"#utility.yul\":5732:5756   */\n      tag_222\n        /* \"#utility.yul\":5750:5755   */\n      dup2\n        /* \"#utility.yul\":5732:5756   */\n      tag_114\n      jump\t// in\n    tag_222:\n        /* \"#utility.yul\":5727:5730   */\n      dup3\n        /* \"#utility.yul\":5720:5757   */\n      mstore\n        /* \"#utility.yul\":5645:5763   */\n      pop\n      pop\n      jump\t// out\n        /* \"#utility.yul\":5769:5991   */\n    tag_31:\n        /* \"#utility.yul\":5862:5866   */\n      0x00\n        /* \"#utility.yul\":5900:5902   */\n      0x20\n        /* \"#utility.yul\":5889:5898   */\n      dup3\n        /* \"#utility.yul\":5885:5903   */\n      add\n        /* \"#utility.yul\":5877:5903   */\n      swap1\n      pop\n        /* \"#utility.yul\":5913:5984   */\n      tag_224\n        /* \"#utility.yul\":5981:5982   */\n      0x00\n        /* \"#utility.yul\":5970:5979   */\n      dup4\n        /* \"#utility.yul\":5966:5983   */\n      add\n        /* \"#utility.yul\":5957:5963   */\n      dup5\n        /* \"#utility.yul\":5913:5984   */\n      tag_117\n      jump\t// in\n    tag_224:\n        /* \"#utility.yul\":5769:5991   */\n      swap3\n      swap2\n      pop\n      pop\n      jump\t// out\n        /* \"#utility.yul\":5997:6115   */\n    tag_118:\n        /* \"#utility.yul\":6084:6108   */\n      tag_226\n        /* \"#utility.yul\":6102:6107   */\n      dup2\n        /* \"#utility.yul\":6084:6108   */\n      tag_98\n      jump\t// in\n    tag_226:\n        /* \"#utility.yul\":6079:6082   */\n      dup3\n        /* \"#utility.yul\":6072:6109   */\n      mstore\n        /* \"#utility.yul\":5997:6115   */\n      pop\n      pop\n      jump\t// out\n        /* \"#utility.yul\":6121:6343   */\n    tag_35:\n        /* \"#utility.yul\":6214:6218   */\n      0x00\n        /* \"#utility.yul\":6252:6254   */\n      0x20\n        /* \"#utility.yul\":6241:6250   */\n      dup3\n        /* \"#utility.yul\":6237:6255   */\n      add\n        /* \"#utility.yul\":6229:6255   */\n      swap1\n      pop\n        /* \"#utility.yul\":6265:6336   */\n      tag_228\n        /* \"#utility.yul\":6333:6334   */\n      0x00\n        /* \"#utility.yul\":6322:6331   */\n      dup4\n        /* \"#utility.yul\":6318:6335   */\n      add\n        /* \"#utility.yul\":6309:6315   */\n      dup5\n        /* \"#utility.yul\":6265:6336   */\n      tag_118\n      jump\t// in\n    tag_228:\n        /* \"#utility.yul\":6121:6343   */\n      swap3\n      swap2\n      pop\n      pop\n      jump\t// out\n        /* \"#utility.yul\":6349:6448   */\n    tag_119:\n        /* \"#utility.yul\":6401:6407   */\n      0x00\n        /* \"#utility.yul\":6435:6440   */\n      dup2\n        /* \"#utility.yul\":6429:6441   */\n      mload\n        /* \"#utility.yul\":6419:6441   */\n      swap1\n      pop\n        /* \"#utility.yul\":6349:6448   */\n      swap2\n      swap1\n      pop\n      jump\t// out\n        /* \"#utility.yul\":6454:6623   */\n    tag_120:\n        /* \"#utility.yul\":6538:6549   */\n      0x00\n        /* \"#utility.yul\":6572:6578   */\n      dup3\n        /* \"#utility.yul\":6567:6570   */\n      dup3\n        /* \"#utility.yul\":6560:6579   */\n      mstore\n        /* \"#utility.yul\":6612:6616   */\n      0x20\n        /* \"#utility.yul\":6607:6610   */\n      dup3\n        /* \"#utility.yul\":6603:6617   */\n      add\n        /* \"#utility.yul\":6588:6617   */\n      swap1\n      pop\n        /* \"#utility.yul\":6454:6623   */\n      swap3\n      swap2\n      pop\n      pop\n      jump\t// out\n        /* \"#utility.yul\":6629:6768   */\n    tag_121:\n        /* \"#utility.yul\":6718:6724   */\n      dup3\n        /* \"#utility.yul\":6713:6716   */\n      dup2\n        /* \"#utility.yul\":6708:6711   */\n      dup4\n        /* \"#utility.yul\":6702:6725   */\n      mcopy\n        /* \"#utility.yul\":6759:6760   */\n      0x00\n        /* \"#utility.yul\":6750:6756   */\n      dup4\n        /* \"#utility.yul\":6745:6748   */\n      dup4\n        /* \"#utility.yul\":6741:6757   */\n      add\n        /* \"#utility.yul\":6734:6761   */\n      mstore\n        /* \"#utility.yul\":6629:6768   */\n      pop\n      pop\n      pop\n      jump\t// out\n        /* \"#utility.yul\":6774:7151   */\n    tag_122:\n        /* \"#utility.yul\":6862:6865   */\n      0x00\n        /* \"#utility.yul\":6890:6929   */\n      tag_233\n        /* \"#utility.yul\":6923:6928   */\n      dup3\n        /* \"#utility.yul\":6890:6929   */\n      tag_119\n      jump\t// in\n    tag_233:\n        /* \"#utility.yul\":6945:7016   */\n      tag_234\n        /* \"#utility.yul\":7009:7015   */\n      dup2\n        /* \"#utility.yul\":7004:7007   */\n      dup6\n        /* \"#utility.yul\":6945:7016   */\n      tag_120\n      jump\t// in\n    tag_234:\n        /* \"#utility.yul\":6938:7016   */\n      swap4\n      pop\n        /* \"#utility.yul\":7025:7090   */\n      tag_235\n        /* \"#utility.yul\":7083:7089   */\n      dup2\n        /* \"#utility.yul\":7078:7081   */\n      dup6\n        /* \"#utility.yul\":7071:7075   */\n      0x20\n        /* \"#utility.yul\":7064:7069   */\n      dup7\n        /* \"#utility.yul\":7060:7076   */\n      add\n        /* \"#utility.yul\":7025:7090   */\n      tag_121\n      jump\t// in\n    tag_235:\n        /* \"#utility.yul\":7115:7144   */\n      tag_236\n        /* \"#utility.yul\":7137:7143   */\n      dup2\n        /* \"#utility.yul\":7115:7144   */\n      tag_103\n      jump\t// in\n    tag_236:\n        /* \"#utility.yul\":7110:7113   */\n      dup5\n        /* \"#utility.yul\":7106:7145   */\n      add\n        /* \"#utility.yul\":7099:7145   */\n      swap2\n      pop\n        /* \"#utility.yul\":6866:7151   */\n      pop\n        /* \"#utility.yul\":6774:7151   */\n      swap3\n      swap2\n      pop\n      pop\n      jump\t// out\n        /* \"#utility.yul\":7157:7337   */\n    tag_51:\n        /* \"#utility.yul\":7205:7282   */\n      0x4e487b7100000000000000000000000000000000000000000000000000000000\n        /* \"#utility.yul\":7202:7203   */\n      0x00\n        /* \"#utility.yul\":7195:7283   */\n      mstore\n        /* \"#utility.yul\":7302:7306   */\n      0x21\n        /* \"#utility.yul\":7299:7300   */\n      0x04\n        /* \"#utility.yul\":7292:7307   */\n      mstore\n        /* \"#utility.yul\":7326:7330   */\n      0x24\n        /* \"#utility.yul\":7323:7324   */\n      0x00\n        /* \"#utility.yul\":7316:7331   */\n      revert\n        /* \"#utility.yul\":7343:7470   */\n    tag_123:\n        /* \"#utility.yul\":7438:7439   */\n      0x03\n        /* \"#utility.yul\":7431:7436   */\n      dup2\n        /* \"#utility.yul\":7428:7440   */\n      lt\n        /* \"#utility.yul\":7418:7464   */\n      tag_239\n      jumpi\n        /* \"#utility.yul\":7444:7462   */\n      tag_240\n      tag_51\n      jump\t// in\n    tag_240:\n        /* \"#utility.yul\":7418:7464   */\n    tag_239:\n        /* \"#utility.yul\":7343:7470   */\n      pop\n      jump\t// out\n        /* \"#utility.yul\":7476:7631   */\n    tag_124:\n        /* \"#utility.yul\":7535:7542   */\n      0x00\n        /* \"#utility.yul\":7564:7569   */\n      dup2\n        /* \"#utility.yul\":7553:7569   */\n      swap1\n      pop\n        /* \"#utility.yul\":7570:7625   */\n      tag_242\n        /* \"#utility.yul\":7619:7624   */\n      dup3\n        /* \"#utility.yul\":7570:7625   */\n      tag_123\n      jump\t// in\n    tag_242:\n        /* \"#utility.yul\":7476:7631   */\n      swap2\n      swap1\n      pop\n      jump\t// out\n        /* \"#utility.yul\":7637:7792   */\n    tag_125:\n        /* \"#utility.yul\":7707:7716   */\n      0x00\n        /* \"#utility.yul\":7740:7786   */\n      tag_244\n        /* \"#utility.yul\":7780:7785   */\n      dup3\n        /* \"#utility.yul\":7740:7786   */\n      tag_124\n      jump\t// in\n    tag_244:\n        /* \"#utility.yul\":7727:7786   */\n      swap1\n      pop\n        /* \"#utility.yul\":7637:7792   */\n      swap2\n      swap1\n      pop\n      jump\t// out\n        /* \"#utility.yul\":7798:7969   */\n    tag_126:\n        /* \"#utility.yul\":7905:7962   */\n      tag_246\n        /* \"#utility.yul\":7956:7961   */\n      dup2\n        /* \"#utility.yul\":7905:7962   */\n      tag_125\n      jump\t// in\n    tag_246:\n        /* \"#utility.yul\":7900:7903   */\n      dup3\n        /* \"#utility.yul\":7893:7963   */\n      mstore\n        /* \"#utility.yul\":7798:7969   */\n      pop\n      pop\n      jump\t// out\n        /* \"#utility.yul\":7975:8770   */\n    tag_40:\n        /* \"#utility.yul\":8220:8224   */\n      0x00\n        /* \"#utility.yul\":8258:8261   */\n      0xa0\n        /* \"#utility.yul\":8247:8256   */\n      dup3\n        /* \"#utility.yul\":8243:8262   */\n      add\n        /* \"#utility.yul\":8235:8262   */\n      swap1\n      pop\n        /* \"#utility.yul\":8272:8343   */\n      tag_248\n        /* \"#utility.yul\":8340:8341   */\n      0x00\n        /* \"#utility.yul\":8329:8338   */\n      dup4\n        /* \"#utility.yul\":8325:8342   */\n      add\n        /* \"#utility.yul\":8316:8322   */\n      dup9\n        /* \"#utility.yul\":8272:8343   */\n      tag_118\n      jump\t// in\n    tag_248:\n        /* \"#utility.yul\":8353:8425   */\n      tag_249\n        /* \"#utility.yul\":8421:8423   */\n      0x20\n        /* \"#utility.yul\":8410:8419   */\n      dup4\n        /* \"#utility.yul\":8406:8424   */\n      add\n        /* \"#utility.yul\":8397:8403   */\n      dup8\n        /* \"#utility.yul\":8353:8425   */\n      tag_117\n      jump\t// in\n    tag_249:\n        /* \"#utility.yul\":8435:8507   */\n      tag_250\n        /* \"#utility.yul\":8503:8505   */\n      0x40\n        /* \"#utility.yul\":8492:8501   */\n      dup4\n        /* \"#utility.yul\":8488:8506   */\n      add\n        /* \"#utility.yul\":8479:8485   */\n      dup7\n        /* \"#utility.yul\":8435:8507   */\n      tag_118\n      jump\t// in\n    tag_250:\n        /* \"#utility.yul\":8554:8563   */\n      dup2\n        /* \"#utility.yul\":8548:8552   */\n      dup2\n        /* \"#utility.yul\":8544:8564   */\n      sub\n        /* \"#utility.yul\":8539:8541   */\n      0x60\n        /* \"#utility.yul\":8528:8537   */\n      dup4\n        /* \"#utility.yul\":8524:8542   */\n      add\n        /* \"#utility.yul\":8517:8565   */\n      mstore\n        /* \"#utility.yul\":8582:8660   */\n      tag_251\n        /* \"#utility.yul\":8655:8659   */\n      dup2\n        /* \"#utility.yul\":8646:8652   */\n      dup6\n        /* \"#utility.yul\":8582:8660   */\n      tag_122\n      jump\t// in\n    tag_251:\n        /* \"#utility.yul\":8574:8660   */\n      swap1\n      pop\n        /* \"#utility.yul\":8670:8763   */\n      tag_252\n        /* \"#utility.yul\":8758:8761   */\n      0x80\n        /* \"#utility.yul\":8747:8756   */\n      dup4\n        /* \"#utility.yul\":8743:8762   */\n      add\n        /* \"#utility.yul\":8734:8740   */\n      dup5\n        /* \"#utility.yul\":8670:8763   */\n      tag_126\n      jump\t// in\n    tag_252:\n        /* \"#utility.yul\":7975:8770   */\n      swap7\n      swap6\n      pop\n      pop\n      pop\n      pop\n      pop\n      pop\n      jump\t// out\n        /* \"#utility.yul\":8776:8996   */\n    tag_127:\n        /* \"#utility.yul\":8916:8950   */\n      0x4f6e6c7920726567756c61746f727920617574686f7269747920616c6c6f7765\n        /* \"#utility.yul\":8912:8913   */\n      0x00\n        /* \"#utility.yul\":8904:8910   */\n      dup3\n        /* \"#utility.yul\":8900:8914   */\n      add\n        /* \"#utility.yul\":8893:8951   */\n      mstore\n        /* \"#utility.yul\":8985:8988   */\n      0x6400000000000000000000000000000000000000000000000000000000000000\n        /* \"#utility.yul\":8980:8982   */\n      0x20\n        /* \"#utility.yul\":8972:8978   */\n      dup3\n        /* \"#utility.yul\":8968:8983   */\n      add\n        /* \"#utility.yul\":8961:8989   */\n      mstore\n        /* \"#utility.yul\":8776:8996   */\n      pop\n      jump\t// out\n        /* \"#utility.yul\":9002:9368   */\n    tag_128:\n        /* \"#utility.yul\":9144:9147   */\n      0x00\n        /* \"#utility.yul\":9165:9232   */\n      tag_255\n        /* \"#utility.yul\":9229:9231   */\n      0x21\n        /* \"#utility.yul\":9224:9227   */\n      dup4\n        /* \"#utility.yul\":9165:9232   */\n      tag_120\n      jump\t// in\n    tag_255:\n        /* \"#utility.yul\":9158:9232   */\n      swap2\n      pop\n        /* \"#utility.yul\":9241:9334   */\n      tag_256\n        /* \"#utility.yul\":9330:9333   */\n      dup3\n        /* \"#utility.yul\":9241:9334   */\n      tag_127\n      jump\t// in\n    tag_256:\n        /* \"#utility.yul\":9359:9361   */\n      0x40\n        /* \"#utility.yul\":9354:9357   */\n      dup3\n        /* \"#utility.yul\":9350:9362   */\n      add\n        /* \"#utility.yul\":9343:9362   */\n      swap1\n      pop\n        /* \"#utility.yul\":9002:9368   */\n      swap2\n      swap1\n      pop\n      jump\t// out\n        /* \"#utility.yul\":9374:9793   */\n    tag_44:\n        /* \"#utility.yul\":9540:9544   */\n      0x00\n        /* \"#utility.yul\":9578:9580   */\n      0x20\n        /* \"#utility.yul\":9567:9576   */\n      dup3\n        /* \"#utility.yul\":9563:9581   */\n      add\n        /* \"#utility.yul\":9555:9581   */\n      swap1\n      pop\n        /* \"#utility.yul\":9627:9636   */\n      dup2\n        /* \"#utility.yul\":9621:9625   */\n      dup2\n        /* \"#utility.yul\":9617:9637   */\n      sub\n        /* \"#utility.yul\":9613:9614   */\n      0x00\n        /* \"#utility.yul\":9602:9611   */\n      dup4\n        /* \"#utility.yul\":9598:9615   */\n      add\n        /* \"#utility.yul\":9591:9638   */\n      mstore\n        /* \"#utility.yul\":9655:9786   */\n      tag_258\n        /* \"#utility.yul\":9781:9785   */\n      dup2\n        /* \"#utility.yul\":9655:9786   */\n      tag_128\n      jump\t// in\n    tag_258:\n        /* \"#utility.yul\":9647:9786   */\n      swap1\n      pop\n        /* \"#utility.yul\":9374:9793   */\n      swap2\n      swap1\n      pop\n      jump\t// out\n        /* \"#utility.yul\":9799:9975   */\n    tag_129:\n        /* \"#utility.yul\":9939:9967   */\n      0x4170706c69636174696f6e20646f6573206e6f74206578697374000000000000\n        /* \"#utility.yul\":9935:9936   */\n      0x00\n        /* \"#utility.yul\":9927:9933   */\n      dup3\n        /* \"#utility.yul\":9923:9937   */\n      add\n        /* \"#utility.yul\":9916:9968   */\n      mstore\n        /* \"#utility.yul\":9799:9975   */\n      pop\n      jump\t// out\n        /* \"#utility.yul\":9981:10347   */\n    tag_130:\n        /* \"#utility.yul\":10123:10126   */\n      0x00\n        /* \"#utility.yul\":10144:10211   */\n      tag_261\n        /* \"#utility.yul\":10208:10210   */\n      0x1a\n        /* \"#utility.yul\":10203:10206   */\n      dup4\n        /* \"#utility.yul\":10144:10211   */\n      tag_120\n      jump\t// in\n    tag_261:\n        /* \"#utility.yul\":10137:10211   */\n      swap2\n      pop\n        /* \"#utility.yul\":10220:10313   */\n      tag_262\n        /* \"#utility.yul\":10309:10312   */\n      dup3\n        /* \"#utility.yul\":10220:10313   */\n      tag_129\n      jump\t// in\n    tag_262:\n        /* \"#utility.yul\":10338:10340   */\n      0x20\n        /* \"#utility.yul\":10333:10336   */\n      dup3\n        /* \"#utility.yul\":10329:10341   */\n      add\n        /* \"#utility.yul\":10322:10341   */\n      swap1\n      pop\n        /* \"#utility.yul\":9981:10347   */\n      swap2\n      swap1\n      pop\n      jump\t// out\n        /* \"#utility.yul\":10353:10772   */\n    tag_48:\n        /* \"#utility.yul\":10519:10523   */\n      0x00\n        /* \"#utility.yul\":10557:10559   */\n      0x20\n        /* \"#utility.yul\":10546:10555   */\n      dup3\n        /* \"#utility.yul\":10542:10560   */\n      add\n        /* \"#utility.yul\":10534:10560   */\n      swap1\n      pop\n        /* \"#utility.yul\":10606:10615   */\n      dup2\n        /* \"#utility.yul\":10600:10604   */\n      dup2\n        /* \"#utility.yul\":10596:10616   */\n      sub\n        /* \"#utility.yul\":10592:10593   */\n      0x00\n        /* \"#utility.yul\":10581:10590   */\n      dup4\n        /* \"#utility.yul\":10577:10594   */\n      add\n        /* \"#utility.yul\":10570:10617   */\n      mstore\n        /* \"#utility.yul\":10634:10765   */\n      tag_264\n        /* \"#utility.yul\":10760:10764   */\n      dup2\n        /* \"#utility.yul\":10634:10765   */\n      tag_130\n      jump\t// in\n    tag_264:\n        /* \"#utility.yul\":10626:10765   */\n      swap1\n      pop\n        /* \"#utility.yul\":10353:10772   */\n      swap2\n      swap1\n      pop\n      jump\t// out\n        /* \"#utility.yul\":10778:10954   */\n    tag_131:\n        /* \"#utility.yul\":10918:10946   */\n      0x4170706c69636174696f6e206973206e6f742070656e64696e67000000000000\n        /* \"#utility.yul\":10914:10915   */\n      0x00\n        /* \"#utility.yul\":10906:10912   */\n      dup3\n        /* \"#utility.yul\":10902:10916   */\n      add\n        /* \"#utility.yul\":10895:10947   */\n      mstore\n        /* \"#utility.yul\":10778:10954   */\n      pop\n      jump\t// out\n        /* \"#utility.yul\":10960:11326   */\n    tag_132:\n        /* \"#utility.yul\":11102:11105   */\n      0x00\n        /* \"#utility.yul\":11123:11190   */\n      tag_267\n        /* \"#utility.yul\":11187:11189   */\n      0x1a\n        /* \"#utility.yul\":11182:11185   */\n      dup4\n        /* \"#utility.yul\":11123:11190   */\n      tag_120\n      jump\t// in\n    tag_267:\n        /* \"#utility.yul\":11116:11190   */\n      swap2\n      pop\n        /* \"#utility.yul\":11199:11292   */\n      tag_268\n        /* \"#utility.yul\":11288:11291   */\n      dup3\n        /* \"#utility.yul\":11199:11292   */\n      tag_131\n      jump\t// in\n    tag_268:\n        /* \"#utility.yul\":11317:11319   */\n      0x20\n        /* \"#utility.yul\":11312:11315   */\n      dup3\n        /* \"#utility.yul\":11308:11320   */\n      add\n        /* \"#utility.yul\":11301:11320   */\n      swap1\n      pop\n        /* \"#utility.yul\":10960:11326   */\n      swap2\n      swap1\n      pop\n      jump\t// out\n        /* \"#utility.yul\":11332:11751   */\n    tag_56:\n        /* \"#utility.yul\":11498:11502   */\n      0x00\n        /* \"#utility.yul\":11536:11538   */\n      0x20\n        /* \"#utility.yul\":11525:11534   */\n      dup3\n        /* \"#utility.yul\":11521:11539   */\n      add\n        /* \"#utility.yul\":11513:11539   */\n      swap1\n      pop\n        /* \"#utility.yul\":11585:11594   */\n      dup2\n        /* \"#utility.yul\":11579:11583   */\n      dup2\n        /* \"#utility.yul\":11575:11595   */\n      sub\n        /* \"#utility.yul\":11571:11572   */\n      0x00\n        /* \"#utility.yul\":11560:11569   */\n      dup4\n        /* \"#utility.yul\":11556:11573   */\n      add\n        /* \"#utility.yul\":11549:11596   */\n      mstore\n        /* \"#utility.yul\":11613:11744   */\n      tag_270\n        /* \"#utility.yul\":11739:11743   */\n      dup2\n        /* \"#utility.yul\":11613:11744   */\n      tag_132\n      jump\t// in\n    tag_270:\n        /* \"#utility.yul\":11605:11744   */\n      swap1\n      pop\n        /* \"#utility.yul\":11332:11751   */\n      swap2\n      swap1\n      pop\n      jump\t// out\n        /* \"#utility.yul\":11757:12070   */\n    tag_60:\n        /* \"#utility.yul\":11870:11874   */\n      0x00\n        /* \"#utility.yul\":11908:11910   */\n      0x20\n        /* \"#utility.yul\":11897:11906   */\n      dup3\n        /* \"#utility.yul\":11893:11911   */\n      add\n        /* \"#utility.yul\":11885:11911   */\n      swap1\n      pop\n        /* \"#utility.yul\":11957:11966   */\n      dup2\n        /* \"#utility.yul\":11951:11955   */\n      dup2\n        /* \"#utility.yul\":11947:11967   */\n      sub\n        /* \"#utility.yul\":11943:11944   */\n      0x00\n        /* \"#utility.yul\":11932:11941   */\n      dup4\n        /* \"#utility.yul\":11928:11945   */\n      add\n        /* \"#utility.yul\":11921:11968   */\n      mstore\n        /* \"#utility.yul\":11985:12063   */\n      tag_272\n        /* \"#utility.yul\":12058:12062   */\n      dup2\n        /* \"#utility.yul\":12049:12055   */\n      dup5\n        /* \"#utility.yul\":11985:12063   */\n      tag_122\n      jump\t// in\n    tag_272:\n        /* \"#utility.yul\":11977:12063   */\n      swap1\n      pop\n        /* \"#utility.yul\":11757:12070   */\n      swap3\n      swap2\n      pop\n      pop\n      jump\t// out\n        /* \"#utility.yul\":12076:12219   */\n    tag_133:\n        /* \"#utility.yul\":12133:12138   */\n      0x00\n        /* \"#utility.yul\":12164:12170   */\n      dup2\n        /* \"#utility.yul\":12158:12171   */\n      mload\n        /* \"#utility.yul\":12149:12171   */\n      swap1\n      pop\n        /* \"#utility.yul\":12180:12213   */\n      tag_274\n        /* \"#utility.yul\":12207:12212   */\n      dup2\n        /* \"#utility.yul\":12180:12213   */\n      tag_115\n      jump\t// in\n    tag_274:\n        /* \"#utility.yul\":12076:12219   */\n      swap3\n      swap2\n      pop\n      pop\n      jump\t// out\n        /* \"#utility.yul\":12225:12576   */\n    tag_72:\n        /* \"#utility.yul\":12295:12301   */\n      0x00\n        /* \"#utility.yul\":12344:12346   */\n      0x20\n        /* \"#utility.yul\":12332:12341   */\n      dup3\n        /* \"#utility.yul\":12323:12330   */\n      dup5\n        /* \"#utility.yul\":12319:12342   */\n      sub\n        /* \"#utility.yul\":12315:12347   */\n      slt\n        /* \"#utility.yul\":12312:12431   */\n      iszero\n      tag_276\n      jumpi\n        /* \"#utility.yul\":12350:12429   */\n      tag_277\n      tag_96\n      jump\t// in\n    tag_277:\n        /* \"#utility.yul\":12312:12431   */\n    tag_276:\n        /* \"#utility.yul\":12470:12471   */\n      0x00\n        /* \"#utility.yul\":12495:12559   */\n      tag_278\n        /* \"#utility.yul\":12551:12558   */\n      dup5\n        /* \"#utility.yul\":12542:12548   */\n      dup3\n        /* \"#utility.yul\":12531:12540   */\n      dup6\n        /* \"#utility.yul\":12527:12549   */\n      add\n        /* \"#utility.yul\":12495:12559   */\n      tag_133\n      jump\t// in\n    tag_278:\n        /* \"#utility.yul\":12485:12559   */\n      swap2\n      pop\n        /* \"#utility.yul\":12441:12569   */\n      pop\n        /* \"#utility.yul\":12225:12576   */\n      swap3\n      swap2\n      pop\n      pop\n      jump\t// out\n        /* \"#utility.yul\":12582:12817   */\n    tag_134:\n        /* \"#utility.yul\":12722:12756   */\n      0x43616c6c657220646f6573206e6f74206f776e20746865207370656369666965\n        /* \"#utility.yul\":12718:12719   */\n      0x00\n        /* \"#utility.yul\":12710:12716   */\n      dup3\n        /* \"#utility.yul\":12706:12720   */\n      add\n        /* \"#utility.yul\":12699:12757   */\n      mstore\n        /* \"#utility.yul\":12791:12809   */\n      0x642055415650617373706f72744e465400000000000000000000000000000000\n        /* \"#utility.yul\":12786:12788   */\n      0x20\n        /* \"#utility.yul\":12778:12784   */\n      dup3\n        /* \"#utility.yul\":12774:12789   */\n      add\n        /* \"#utility.yul\":12767:12810   */\n      mstore\n        /* \"#utility.yul\":12582:12817   */\n      pop\n      jump\t// out\n        /* \"#utility.yul\":12823:13189   */\n    tag_135:\n        /* \"#utility.yul\":12965:12968   */\n      0x00\n        /* \"#utility.yul\":12986:13053   */\n      tag_281\n        /* \"#utility.yul\":13050:13052   */\n      0x30\n        /* \"#utility.yul\":13045:13048   */\n      dup4\n        /* \"#utility.yul\":12986:13053   */\n      tag_120\n      jump\t// in\n    tag_281:\n        /* \"#utility.yul\":12979:13053   */\n      swap2\n      pop\n        /* \"#utility.yul\":13062:13155   */\n      tag_282\n        /* \"#utility.yul\":13151:13154   */\n      dup3\n        /* \"#utility.yul\":13062:13155   */\n      tag_134\n      jump\t// in\n    tag_282:\n        /* \"#utility.yul\":13180:13182   */\n      0x40\n        /* \"#utility.yul\":13175:13178   */\n      dup3\n        /* \"#utility.yul\":13171:13183   */\n      add\n        /* \"#utility.yul\":13164:13183   */\n      swap1\n      pop\n        /* \"#utility.yul\":12823:13189   */\n      swap2\n      swap1\n      pop\n      jump\t// out\n        /* \"#utility.yul\":13195:13614   */\n    tag_75:\n        /* \"#utility.yul\":13361:13365   */\n      0x00\n        /* \"#utility.yul\":13399:13401   */\n      0x20\n        /* \"#utility.yul\":13388:13397   */\n      dup3\n        /* \"#utility.yul\":13384:13402   */\n      add\n        /* \"#utility.yul\":13376:13402   */\n      swap1\n      pop\n        /* \"#utility.yul\":13448:13457   */\n      dup2\n        /* \"#utility.yul\":13442:13446   */\n      dup2\n        /* \"#utility.yul\":13438:13458   */\n      sub\n        /* \"#utility.yul\":13434:13435   */\n      0x00\n        /* \"#utility.yul\":13423:13432   */\n      dup4\n        /* \"#utility.yul\":13419:13436   */\n      add\n        /* \"#utility.yul\":13412:13459   */\n      mstore\n        /* \"#utility.yul\":13476:13607   */\n      tag_284\n        /* \"#utility.yul\":13602:13606   */\n      dup2\n        /* \"#utility.yul\":13476:13607   */\n      tag_135\n      jump\t// in\n    tag_284:\n        /* \"#utility.yul\":13468:13607   */\n      swap1\n      pop\n        /* \"#utility.yul\":13195:13614   */\n      swap2\n      swap1\n      pop\n      jump\t// out\n        /* \"#utility.yul\":13620:13800   */\n    tag_136:\n        /* \"#utility.yul\":13668:13745   */\n      0x4e487b7100000000000000000000000000000000000000000000000000000000\n        /* \"#utility.yul\":13665:13666   */\n      0x00\n        /* \"#utility.yul\":13658:13746   */\n      mstore\n        /* \"#utility.yul\":13765:13769   */\n      0x11\n        /* \"#utility.yul\":13762:13763   */\n      0x04\n        /* \"#utility.yul\":13755:13770   */\n      mstore\n        /* \"#utility.yul\":13789:13793   */\n      0x24\n        /* \"#utility.yul\":13786:13787   */\n      0x00\n        /* \"#utility.yul\":13779:13794   */\n      revert\n        /* \"#utility.yul\":13806:14039   */\n    tag_77:\n        /* \"#utility.yul\":13845:13848   */\n      0x00\n        /* \"#utility.yul\":13868:13892   */\n      tag_287\n        /* \"#utility.yul\":13886:13891   */\n      dup3\n        /* \"#utility.yul\":13868:13892   */\n      tag_98\n      jump\t// in\n    tag_287:\n        /* \"#utility.yul\":13859:13892   */\n      swap2\n      pop\n        /* \"#utility.yul\":13914:13980   */\n      0xffffffffffffffffffffffffffffffffffffffffffffffffffffffffffffffff\n        /* \"#utility.yul\":13907:13912   */\n      dup3\n        /* \"#utility.yul\":13904:13981   */\n      sub\n        /* \"#utility.yul\":13901:14004   */\n      tag_288\n      jumpi\n        /* \"#utility.yul\":13984:14002   */\n      tag_289\n      tag_136\n      jump\t// in\n    tag_289:\n        /* \"#utility.yul\":13901:14004   */\n    tag_288:\n        /* \"#utility.yul\":14031:14032   */\n      0x01\n        /* \"#utility.yul\":14024:14029   */\n      dup3\n        /* \"#utility.yul\":14020:14033   */\n      add\n        /* \"#utility.yul\":14013:14033   */\n      swap1\n      pop\n        /* \"#utility.yul\":13806:14039   */\n      swap2\n      swap1\n      pop\n      jump\t// out\n        /* \"#utility.yul\":14045:14225   */\n    tag_137:\n        /* \"#utility.yul\":14093:14170   */\n      0x4e487b7100000000000000000000000000000000000000000000000000000000\n        /* \"#utility.yul\":14090:14091   */\n      0x00\n        /* \"#utility.yul\":14083:14171   */\n      mstore\n        /* \"#utility.yul\":14190:14194   */\n      0x22\n        /* \"#utility.yul\":14187:14188   */\n      0x04\n        /* \"#utility.yul\":14180:14195   */\n      mstore\n        /* \"#utility.yul\":14214:14218   */\n      0x24\n        /* \"#utility.yul\":14211:14212   */\n      0x00\n        /* \"#utility.yul\":14204:14219   */\n      revert\n        /* \"#utility.yul\":14231:14551   */\n    tag_90:\n        /* \"#utility.yul\":14275:14281   */\n      0x00\n        /* \"#utility.yul\":14312:14313   */\n      0x02\n        /* \"#utility.yul\":14306:14310   */\n      dup3\n        /* \"#utility.yul\":14302:14314   */\n      div\n        /* \"#utility.yul\":14292:14314   */\n      swap1\n      pop\n        /* \"#utility.yul\":14359:14360   */\n      0x01\n        /* \"#utility.yul\":14353:14357   */\n      dup3\n        /* \"#utility.yul\":14349:14361   */\n      and\n        /* \"#utility.yul\":14380:14398   */\n      dup1\n        /* \"#utility.yul\":14370:14451   */\n      tag_292\n      jumpi\n        /* \"#utility.yul\":14436:14440   */\n      0x7f\n        /* \"#utility.yul\":14428:14434   */\n      dup3\n        /* \"#utility.yul\":14424:14441   */\n      and\n        /* \"#utility.yul\":14414:14441   */\n      swap2\n      pop\n        /* \"#utility.yul\":14370:14451   */\n    tag_292:\n        /* \"#utility.yul\":14498:14500   */\n      0x20\n        /* \"#utility.yul\":14490:14496   */\n      dup3\n        /* \"#utility.yul\":14487:14501   */\n      lt\n        /* \"#utility.yul\":14467:14485   */\n      dup2\n        /* \"#utility.yul\":14464:14502   */\n      sub\n        /* \"#utility.yul\":14461:14545   */\n      tag_293\n      jumpi\n        /* \"#utility.yul\":14517:14535   */\n      tag_294\n      tag_137\n      jump\t// in\n    tag_294:\n        /* \"#utility.yul\":14461:14545   */\n    tag_293:\n        /* \"#utility.yul\":14282:14551   */\n      pop\n        /* \"#utility.yul\":14231:14551   */\n      swap2\n      swap1\n      pop\n      jump\t// out\n        /* \"#utility.yul\":14557:14698   */\n    tag_138:\n        /* \"#utility.yul\":14606:14610   */\n      0x00\n        /* \"#utility.yul\":14629:14632   */\n      dup2\n        /* \"#utility.yul\":14621:14632   */\n      swap1\n      pop\n        /* \"#utility.yul\":14652:14655   */\n      dup2\n        /* \"#utility.yul\":14649:14650   */\n      0x00\n        /* \"#utility.yul\":14642:14656   */\n      mstore\n        /* \"#utility.yul\":14686:14690   */\n      0x20\n        /* \"#utility.yul\":14683:14684   */\n      0x00\n        /* \"#utility.yul\":14673:14691   */\n      keccak256\n        /* \"#utility.yul\":14665:14691   */\n      swap1\n      pop\n        /* \"#utility.yul\":14557:14698   */\n      swap2\n      swap1\n      pop\n      jump\t// out\n        /* \"#utility.yul\":14704:14797   */\n    tag_139:\n        /* \"#utility.yul\":14741:14747   */\n      0x00\n        /* \"#utility.yul\":14788:14790   */\n      0x20\n        /* \"#utility.yul\":14783:14785   */\n      0x1f\n        /* \"#utility.yul\":14776:14781   */\n      dup4\n        /* \"#utility.yul\":14772:14786   */\n      add\n        /* \"#utility.yul\":14768:14791   */\n      div\n        /* \"#utility.yul\":14758:14791   */\n      swap1\n      pop\n        /* \"#utility.yul\":14704:14797   */\n      swap2\n      swap1\n      pop\n      jump\t// out\n        /* \"#utility.yul\":14803:14910   */\n    tag_140:\n        /* \"#utility.yul\":14847:14855   */\n      0x00\n        /* \"#utility.yul\":14897:14902   */\n      dup3\n        /* \"#utility.yul\":14891:14895   */\n      dup3\n        /* \"#utility.yul\":14887:14903   */\n      shl\n        /* \"#utility.yul\":14866:14903   */\n      swap1\n      pop\n        /* \"#utility.yul\":14803:14910   */\n      swap3\n      swap2\n      pop\n      pop\n      jump\t// out\n        /* \"#utility.yul\":14916:15309   */\n    tag_141:\n        /* \"#utility.yul\":14985:14991   */\n      0x00\n        /* \"#utility.yul\":15035:15036   */\n      0x08\n        /* \"#utility.yul\":15023:15033   */\n      dup4\n        /* \"#utility.yul\":15019:15037   */\n      mul\n        /* \"#utility.yul\":15058:15155   */\n      tag_299\n        /* \"#utility.yul\":15088:15154   */\n      0xffffffffffffffffffffffffffffffffffffffffffffffffffffffffffffffff\n        /* \"#utility.yul\":15077:15086   */\n      dup3\n        /* \"#utility.yul\":15058:15155   */\n      tag_140\n      jump\t// in\n    tag_299:\n        /* \"#utility.yul\":15176:15215   */\n      tag_300\n        /* \"#utility.yul\":15206:15214   */\n      dup7\n        /* \"#utility.yul\":15195:15204   */\n      dup4\n        /* \"#utility.yul\":15176:15215   */\n      tag_140\n      jump\t// in\n    tag_300:\n        /* \"#utility.yul\":15164:15215   */\n      swap6\n      pop\n        /* \"#utility.yul\":15248:15252   */\n      dup1\n        /* \"#utility.yul\":15244:15253   */\n      not\n        /* \"#utility.yul\":15237:15242   */\n      dup5\n        /* \"#utility.yul\":15233:15254   */\n      and\n        /* \"#utility.yul\":15224:15254   */\n      swap4\n      pop\n        /* \"#utility.yul\":15297:15301   */\n      dup1\n        /* \"#utility.yul\":15287:15295   */\n      dup7\n        /* \"#utility.yul\":15283:15302   */\n      and\n        /* \"#utility.yul\":15276:15281   */\n      dup5\n        /* \"#utility.yul\":15273:15303   */\n      or\n        /* \"#utility.yul\":15263:15303   */\n      swap3\n      pop\n        /* \"#utility.yul\":14992:15309   */\n      pop\n      pop\n        /* \"#utility.yul\":14916:15309   */\n      swap4\n      swap3\n      pop\n      pop\n      pop\n      jump\t// out\n        /* \"#utility.yul\":15315:15375   */\n    tag_142:\n        /* \"#utility.yul\":15343:15346   */\n      0x00\n        /* \"#utility.yul\":15364:15369   */\n      dup2\n        /* \"#utility.yul\":15357:15369   */\n      swap1\n      pop\n        /* \"#utility.yul\":15315:15375   */\n      swap2\n      swap1\n      pop\n      jump\t// out\n        /* \"#utility.yul\":15381:15523   */\n    tag_143:\n        /* \"#utility.yul\":15431:15440   */\n      0x00\n        /* \"#utility.yul\":15464:15517   */\n      tag_303\n        /* \"#utility.yul\":15482:15516   */\n      tag_304\n        /* \"#utility.yul\":15491:15515   */\n      tag_305\n        /* \"#utility.yul\":15509:15514   */\n      dup5\n        /* \"#utility.yul\":15491:15515   */\n      tag_98\n      jump\t// in\n    tag_305:\n        /* \"#utility.yul\":15482:15516   */\n      tag_142\n      jump\t// in\n    tag_304:\n        /* \"#utility.yul\":15464:15517   */\n      tag_98\n      jump\t// in\n    tag_303:\n        /* \"#utility.yul\":15451:15517   */\n      swap1\n      pop\n        /* \"#utility.yul\":15381:15523   */\n      swap2\n      swap1\n      pop\n      jump\t// out\n        /* \"#utility.yul\":15529:15604   */\n    tag_144:\n        /* \"#utility.yul\":15572:15575   */\n      0x00\n        /* \"#utility.yul\":15593:15598   */\n      dup2\n        /* \"#utility.yul\":15586:15598   */\n      swap1\n      pop\n        /* \"#utility.yul\":15529:15604   */\n      swap2\n      swap1\n      pop\n      jump\t// out\n        /* \"#utility.yul\":15610:15879   */\n    tag_145:\n        /* \"#utility.yul\":15720:15759   */\n      tag_308\n        /* \"#utility.yul\":15751:15758   */\n      dup4\n        /* \"#utility.yul\":15720:15759   */\n      tag_143\n      jump\t// in\n    tag_308:\n        /* \"#utility.yul\":15781:15872   */\n      tag_309\n        /* \"#utility.yul\":15830:15871   */\n      tag_310\n        /* \"#utility.yul\":15854:15870   */\n      dup3\n        /* \"#utility.yul\":15830:15871   */\n      tag_144\n      jump\t// in\n    tag_310:\n        /* \"#utility.yul\":15822:15828   */\n      dup5\n        /* \"#utility.yul\":15815:15819   */\n      dup5\n        /* \"#utility.yul\":15809:15820   */\n      sload\n        /* \"#utility.yul\":15781:15872   */\n      tag_141\n      jump\t// in\n    tag_309:\n        /* \"#utility.yul\":15775:15779   */\n      dup3\n        /* \"#utility.yul\":15768:15873   */\n      sstore\n        /* \"#utility.yul\":15686:15879   */\n      pop\n        /* \"#utility.yul\":15610:15879   */\n      pop\n      pop\n      pop\n      jump\t// out\n        /* \"#utility.yul\":15885:15958   */\n    tag_146:\n        /* \"#utility.yul\":15930:15933   */\n      0x00\n        /* \"#utility.yul\":15885:15958   */\n      swap1\n      jump\t// out\n        /* \"#utility.yul\":15964:16153   */\n    tag_147:\n        /* \"#utility.yul\":16041:16073   */\n      tag_313\n      tag_146\n      jump\t// in\n    tag_313:\n        /* \"#utility.yul\":16082:16147   */\n      tag_314\n        /* \"#utility.yul\":16140:16146   */\n      dup2\n        /* \"#utility.yul\":16132:16138   */\n      dup5\n        /* \"#utility.yul\":16126:16130   */\n      dup5\n        /* \"#utility.yul\":16082:16147   */\n      tag_145\n      jump\t// in\n    tag_314:\n        /* \"#utility.yul\":16017:16153   */\n      pop\n        /* \"#utility.yul\":15964:16153   */\n      pop\n      pop\n      jump\t// out\n        /* \"#utility.yul\":16159:16345   */\n    tag_148:\n        /* \"#utility.yul\":16219:16339   */\n    tag_316:\n        /* \"#utility.yul\":16236:16239   */\n      dup2\n        /* \"#utility.yul\":16229:16234   */\n      dup2\n        /* \"#utility.yul\":16226:16240   */\n      lt\n        /* \"#utility.yul\":16219:16339   */\n      iszero\n      tag_318\n      jumpi\n        /* \"#utility.yul\":16290:16329   */\n      tag_319\n        /* \"#utility.yul\":16327:16328   */\n      0x00\n        /* \"#utility.yul\":16320:16325   */\n      dup3\n        /* \"#utility.yul\":16290:16329   */\n      tag_147\n      jump\t// in\n    tag_319:\n        /* \"#utility.yul\":16263:16264   */\n      0x01\n        /* \"#utility.yul\":16256:16261   */\n      dup2\n        /* \"#utility.yul\":16252:16265   */\n      add\n        /* \"#utility.yul\":16243:16265   */\n      swap1\n      pop\n        /* \"#utility.yul\":16219:16339   */\n      jump(tag_316)\n    tag_318:\n        /* \"#utility.yul\":16159:16345   */\n      pop\n      pop\n      jump\t// out\n        /* \"#utility.yul\":16351:16894   */\n    tag_149:\n        /* \"#utility.yul\":16452:16454   */\n      0x1f\n        /* \"#utility.yul\":16447:16450   */\n      dup3\n        /* \"#utility.yul\":16444:16455   */\n      gt\n        /* \"#utility.yul\":16441:16887   */\n      iszero\n      tag_321\n      jumpi\n        /* \"#utility.yul\":16486:16524   */\n      tag_322\n        /* \"#utility.yul\":16518:16523   */\n      dup2\n        /* \"#utility.yul\":16486:16524   */\n      tag_138\n      jump\t// in\n    tag_322:\n        /* \"#utility.yul\":16570:16599   */\n      tag_323\n        /* \"#utility.yul\":16588:16598   */\n      dup5\n        /* \"#utility.yul\":16570:16599   */\n      tag_139\n      jump\t// in\n    tag_323:\n        /* \"#utility.yul\":16560:16568   */\n      dup2\n        /* \"#utility.yul\":16556:16600   */\n      add\n        /* \"#utility.yul\":16753:16755   */\n      0x20\n        /* \"#utility.yul\":16741:16751   */\n      dup6\n        /* \"#utility.yul\":16738:16756   */\n      lt\n        /* \"#utility.yul\":16735:16784   */\n      iszero\n      tag_324\n      jumpi\n        /* \"#utility.yul\":16774:16782   */\n      dup2\n        /* \"#utility.yul\":16759:16782   */\n      swap1\n      pop\n        /* \"#utility.yul\":16735:16784   */\n    tag_324:\n        /* \"#utility.yul\":16797:16877   */\n      tag_325\n        /* \"#utility.yul\":16853:16875   */\n      tag_326\n        /* \"#utility.yul\":16871:16874   */\n      dup6\n        /* \"#utility.yul\":16853:16875   */\n      tag_139\n      jump\t// in\n    tag_326:\n        /* \"#utility.yul\":16843:16851   */\n      dup4\n        /* \"#utility.yul\":16839:16876   */\n      add\n        /* \"#utility.yul\":16826:16837   */\n      dup3\n        /* \"#utility.yul\":16797:16877   */\n      tag_148\n      jump\t// in\n    tag_325:\n        /* \"#utility.yul\":16456:16887   */\n      pop\n      pop\n        /* \"#utility.yul\":16441:16887   */\n    tag_321:\n        /* \"#utility.yul\":16351:16894   */\n      pop\n      pop\n      pop\n      jump\t// out\n        /* \"#utility.yul\":16900:17017   */\n    tag_150:\n        /* \"#utility.yul\":16954:16962   */\n      0x00\n        /* \"#utility.yul\":17004:17009   */\n      dup3\n        /* \"#utility.yul\":16998:17002   */\n      dup3\n        /* \"#utility.yul\":16994:17010   */\n      shr\n        /* \"#utility.yul\":16973:17010   */\n      swap1\n      pop\n        /* \"#utility.yul\":16900:17017   */\n      swap3\n      swap2\n      pop\n      pop\n      jump\t// out\n        /* \"#utility.yul\":17023:17192   */\n    tag_151:\n        /* \"#utility.yul\":17067:17073   */\n      0x00\n        /* \"#utility.yul\":17100:17151   */\n      tag_329\n        /* \"#utility.yul\":17148:17149   */\n      0x00\n        /* \"#utility.yul\":17144:17150   */\n      not\n        /* \"#utility.yul\":17136:17141   */\n      dup5\n        /* \"#utility.yul\":17133:17134   */\n      0x08\n        /* \"#utility.yul\":17129:17142   */\n      mul\n        /* \"#utility.yul\":17100:17151   */\n      tag_150\n      jump\t// in\n    tag_329:\n        /* \"#utility.yul\":17096:17152   */\n      not\n        /* \"#utility.yul\":17181:17185   */\n      dup1\n        /* \"#utility.yul\":17175:17179   */\n      dup4\n        /* \"#utility.yul\":17171:17186   */\n      and\n        /* \"#utility.yul\":17161:17186   */\n      swap2\n      pop\n        /* \"#utility.yul\":17074:17192   */\n      pop\n        /* \"#utility.yul\":17023:17192   */\n      swap3\n      swap2\n      pop\n      pop\n      jump\t// out\n        /* \"#utility.yul\":17197:17492   */\n    tag_152:\n        /* \"#utility.yul\":17273:17277   */\n      0x00\n        /* \"#utility.yul\":17419:17448   */\n      tag_331\n        /* \"#utility.yul\":17444:17447   */\n      dup4\n        /* \"#utility.yul\":17438:17442   */\n      dup4\n        /* \"#utility.yul\":17419:17448   */\n      tag_151\n      jump\t// in\n    tag_331:\n        /* \"#utility.yul\":17411:17448   */\n      swap2\n      pop\n        /* \"#utility.yul\":17481:17484   */\n      dup3\n        /* \"#utility.yul\":17478:17479   */\n      0x02\n        /* \"#utility.yul\":17474:17485   */\n      mul\n        /* \"#utility.yul\":17468:17472   */\n      dup3\n        /* \"#utility.yul\":17465:17486   */\n      or\n        /* \"#utility.yul\":17457:17486   */\n      swap1\n      pop\n        /* \"#utility.yul\":17197:17492   */\n      swap3\n      swap2\n      pop\n      pop\n      jump\t// out\n        /* \"#utility.yul\":17497:18892   */\n    tag_81:\n        /* \"#utility.yul\":17614:17651   */\n      tag_333\n        /* \"#utility.yul\":17647:17650   */\n      dup3\n        /* \"#utility.yul\":17614:17651   */\n      tag_119\n      jump\t// in\n    tag_333:\n        /* \"#utility.yul\":17716:17734   */\n      0xffffffffffffffff\n        /* \"#utility.yul\":17708:17714   */\n      dup2\n        /* \"#utility.yul\":17705:17735   */\n      gt\n        /* \"#utility.yul\":17702:17758   */\n      iszero\n      tag_334\n      jumpi\n        /* \"#utility.yul\":17738:17756   */\n      tag_335\n      tag_104\n      jump\t// in\n    tag_335:\n        /* \"#utility.yul\":17702:17758   */\n    tag_334:\n        /* \"#utility.yul\":17782:17820   */\n      tag_336\n        /* \"#utility.yul\":17814:17818   */\n      dup3\n        /* \"#utility.yul\":17808:17819   */\n      sload\n        /* \"#utility.yul\":17782:17820   */\n      tag_90\n      jump\t// in\n    tag_336:\n        /* \"#utility.yul\":17867:17934   */\n      tag_337\n        /* \"#utility.yul\":17927:17933   */\n      dup3\n        /* \"#utility.yul\":17919:17925   */\n      dup3\n        /* \"#utility.yul\":17913:17917   */\n      dup6\n        /* \"#utility.yul\":17867:17934   */\n      tag_149\n      jump\t// in\n    tag_337:\n        /* \"#utility.yul\":17961:17962   */\n      0x00\n        /* \"#utility.yul\":17985:17989   */\n      0x20\n        /* \"#utility.yul\":17972:17989   */\n      swap1\n      pop\n        /* \"#utility.yul\":18017:18019   */\n      0x1f\n        /* \"#utility.yul\":18009:18015   */\n      dup4\n        /* \"#utility.yul\":18006:18020   */\n      gt\n        /* \"#utility.yul\":18034:18035   */\n      0x01\n        /* \"#utility.yul\":18029:18647   */\n      dup2\n      eq\n      tag_339\n      jumpi\n        /* \"#utility.yul\":18691:18692   */\n      0x00\n        /* \"#utility.yul\":18708:18714   */\n      dup5\n        /* \"#utility.yul\":18705:18782   */\n      iszero\n      tag_340\n      jumpi\n        /* \"#utility.yul\":18757:18766   */\n      dup3\n        /* \"#utility.yul\":18752:18755   */\n      dup8\n        /* \"#utility.yul\":18748:18767   */\n      add\n        /* \"#utility.yul\":18742:18768   */\n      mload\n        /* \"#utility.yul\":18733:18768   */\n      swap1\n      pop\n        /* \"#utility.yul\":18705:18782   */\n    tag_340:\n        /* \"#utility.yul\":18808:18875   */\n      tag_341\n        /* \"#utility.yul\":18868:18874   */\n      dup6\n        /* \"#utility.yul\":18861:18866   */\n      dup3\n        /* \"#utility.yul\":18808:18875   */\n      tag_152\n      jump\t// in\n    tag_341:\n        /* \"#utility.yul\":18802:18806   */\n      dup7\n        /* \"#utility.yul\":18795:18876   */\n      sstore\n        /* \"#utility.yul\":18664:18886   */\n      pop\n        /* \"#utility.yul\":17999:18886   */\n      jump(tag_338)\n        /* \"#utility.yul\":18029:18647   */\n    tag_339:\n        /* \"#utility.yul\":18081:18085   */\n      0x1f\n        /* \"#utility.yul\":18077:18086   */\n      not\n        /* \"#utility.yul\":18069:18075   */\n      dup5\n        /* \"#utility.yul\":18065:18087   */\n      and\n        /* \"#utility.yul\":18115:18152   */\n      tag_342\n        /* \"#utility.yul\":18147:18151   */\n      dup7\n        /* \"#utility.yul\":18115:18152   */\n      tag_138\n      jump\t// in\n    tag_342:\n        /* \"#utility.yul\":18174:18175   */\n      0x00\n        /* \"#utility.yul\":18188:18396   */\n    tag_343:\n        /* \"#utility.yul\":18202:18209   */\n      dup3\n        /* \"#utility.yul\":18199:18200   */\n      dup2\n        /* \"#utility.yul\":18196:18210   */\n      lt\n        /* \"#utility.yul\":18188:18396   */\n      iszero\n      tag_345\n      jumpi\n        /* \"#utility.yul\":18281:18290   */\n      dup5\n        /* \"#utility.yul\":18276:18279   */\n      dup10\n        /* \"#utility.yul\":18272:18291   */\n      add\n        /* \"#utility.yul\":18266:18292   */\n      mload\n        /* \"#utility.yul\":18258:18264   */\n      dup3\n        /* \"#utility.yul\":18251:18293   */\n      sstore\n        /* \"#utility.yul\":18332:18333   */\n      0x01\n        /* \"#utility.yul\":18324:18330   */\n      dup3\n        /* \"#utility.yul\":18320:18334   */\n      add\n        /* \"#utility.yul\":18310:18334   */\n      swap2\n      pop\n        /* \"#utility.yul\":18379:18381   */\n      0x20\n        /* \"#utility.yul\":18368:18377   */\n      dup6\n        /* \"#utility.yul\":18364:18382   */\n      add\n        /* \"#utility.yul\":18351:18382   */\n      swap5\n      pop\n        /* \"#utility.yul\":18225:18229   */\n      0x20\n        /* \"#utility.yul\":18222:18223   */\n      dup2\n        /* \"#utility.yul\":18218:18230   */\n      add\n        /* \"#utility.yul\":18213:18230   */\n      swap1\n      pop\n        /* \"#utility.yul\":18188:18396   */\n      jump(tag_343)\n    tag_345:\n        /* \"#utility.yul\":18424:18430   */\n      dup7\n        /* \"#utility.yul\":18415:18422   */\n      dup4\n        /* \"#utility.yul\":18412:18431   */\n      lt\n        /* \"#utility.yul\":18409:18588   */\n      iszero\n      tag_346\n      jumpi\n        /* \"#utility.yul\":18482:18491   */\n      dup5\n        /* \"#utility.yul\":18477:18480   */\n      dup10\n        /* \"#utility.yul\":18473:18492   */\n      add\n        /* \"#utility.yul\":18467:18493   */\n      mload\n        /* \"#utility.yul\":18525:18573   */\n      tag_347\n        /* \"#utility.yul\":18567:18571   */\n      0x1f\n        /* \"#utility.yul\":18559:18565   */\n      dup10\n        /* \"#utility.yul\":18555:18572   */\n      and\n        /* \"#utility.yul\":18544:18553   */\n      dup3\n        /* \"#utility.yul\":18525:18573   */\n      tag_151\n      jump\t// in\n    tag_347:\n        /* \"#utility.yul\":18517:18523   */\n      dup4\n        /* \"#utility.yul\":18510:18574   */\n      sstore\n        /* \"#utility.yul\":18432:18588   */\n      pop\n        /* \"#utility.yul\":18409:18588   */\n    tag_346:\n        /* \"#utility.yul\":18634:18635   */\n      0x01\n        /* \"#utility.yul\":18630:18631   */\n      0x02\n        /* \"#utility.yul\":18622:18628   */\n      dup9\n        /* \"#utility.yul\":18618:18632   */\n      mul\n        /* \"#utility.yul\":18614:18636   */\n      add\n        /* \"#utility.yul\":18608:18612   */\n      dup9\n        /* \"#utility.yul\":18601:18637   */\n      sstore\n        /* \"#utility.yul\":18036:18647   */\n      pop\n      pop\n      pop\n        /* \"#utility.yul\":17999:18886   */\n    tag_338:\n      pop\n        /* \"#utility.yul\":17589:18892   */\n      pop\n      pop\n      pop\n        /* \"#utility.yul\":17497:18892   */\n      pop\n      pop\n      jump\t// out\n\n    auxdata: 0xa2646970667358221220daad3e3a760b66e4b456f1d21563c20cef587e5a5b9e6f3037db3c1c20eeeb6264736f6c634300081a0033\n}\n",
				"bytecode": {
					"linkReferences": {},
					"object": "608060405234801561000f575f80fd5b506040516112ef3803806112ef833981810160405281019061003191906100d5565b8060025f6101000a81548173ffffffffffffffffffffffffffffffffffffffff021916908373ffffffffffffffffffffffffffffffffffffffff16021790555050610100565b5f80fd5b5f73ffffffffffffffffffffffffffffffffffffffff82169050919050565b5f6100a48261007b565b9050919050565b6100b48161009a565b81146100be575f80fd5b50565b5f815190506100cf816100ab565b92915050565b5f602082840312156100ea576100e9610077565b5b5f6100f7848285016100c1565b91505092915050565b6111e28061010d5f395ff3fe608060405234801561000f575f80fd5b506004361061007b575f3560e01c806353e500831161005957806353e50083146100e75780637925132d14610103578063db144d0114610121578063dfefadff1461013f5761007b565b80630c816de41461007f5780634f82ff411461009b578063500a90cc146100cb575b5f80fd5b6100996004803603810190610094919061092b565b610173565b005b6100b560048036038101906100b09190610985565b61033a565b6040516100c291906109ca565b60405180910390f35b6100e560048036038101906100e09190610a3d565b61039e565b005b61010160048036038101906100fc919061092b565b6105d3565b005b61010b61069e565b6040516101189190610ab8565b60405180910390f35b6101296106c3565b6040516101369190610ae0565b60405180910390f35b61015960048036038101906101549190610985565b6106c8565b60405161016a959493929190610bcc565b60405180910390f35b60025f9054906101000a900473ffffffffffffffffffffffffffffffffffffffff1673ffffffffffffffffffffffffffffffffffffffff163373ffffffffffffffffffffffffffffffffffffffff1614610202576040517f08c379a00000000000000000000000000000000000000000000000000000000081526004016101f990610c94565b60405180910390fd5b5f60015f8481526020019081526020015f2090505f815f01540361025b576040517f08c379a000000000000000000000000000000000000000000000000000000000815260040161025290610cfc565b60405180910390fd5b5f600281111561026e5761026d610b59565b5b816004015f9054906101000a900460ff16600281111561029157610290610b59565b5b146102d1576040517f08c379a00000000000000000000000000000000000000000000000000000000081526004016102c890610d64565b60405180910390fd5b6001816004015f6101000a81548160ff021916908360028111156102f8576102f7610b59565b5b0217905550827f82e047af96f6b7e5a52ea238aee0ca4188211301535ddf1fe126e140df6421b48360405161032d9190610d82565b60405180910390a2505050565b5f8060015f8481526020019081526020015f2090505f815f01541415801561039657506001600281111561037157610370610b59565b5b816004015f9054906101000a900460ff16600281111561039457610393610b59565b5b145b915050919050565b5f8390503373ffffffffffffffffffffffffffffffffffffffff168173ffffffffffffffffffffffffffffffffffffffff16636352211e856040518263ffffffff1660e01b81526004016103f29190610ae0565b602060405180830381865afa15801561040d573d5f803e3d5ffd5b505050506040513d601f19601f820116820180604052508101906104319190610db6565b73ffffffffffffffffffffffffffffffffffffffff1614610487576040517f08c379a000000000000000000000000000000000000000000000000000000000815260040161047e90610e51565b60405180910390fd5b5f8081548092919061049890610e9c565b91905055506040518060a001604052805f5481526020018573ffffffffffffffffffffffffffffffffffffffff1681526020018481526020018381526020015f60028111156104ea576104e9610b59565b5b81525060015f805481526020019081526020015f205f820151815f01556020820151816001015f6101000a81548173ffffffffffffffffffffffffffffffffffffffff021916908373ffffffffffffffffffffffffffffffffffffffff16021790555060408201518160020155606082015181600301908161056c91906110dd565b506080820151816004015f6101000a81548160ff0219169083600281111561059757610596610b59565b5b02179055509050505f547f4b6126472f7a5c1a21fe858797a6bb6ed361c62b74d480965163d30d68576d4f60405160405180910390a250505050565b60025f9054906101000a900473ffffffffffffffffffffffffffffffffffffffff1673ffffffffffffffffffffffffffffffffffffffff163373ffffffffffffffffffffffffffffffffffffffff1614610662576040517f08c379a000000000000000000000000000000000000000000000000000000000815260040161065990610c94565b60405180910390fd5b817fb0e6959ce3e34736661108dd9cfba0a1ebca72401d9f0b81b731a4448eaddcce826040516106929190610d82565b60405180910390a25050565b60025f9054906101000a900473ffffffffffffffffffffffffffffffffffffffff1681565b5f5481565b6001602052805f5260405f205f91509050805f015490806001015f9054906101000a900473ffffffffffffffffffffffffffffffffffffffff169080600201549080600301805461071890610f10565b80601f016020809104026020016040519081016040528092919081815260200182805461074490610f10565b801561078f5780601f106107665761010080835404028352916020019161078f565b820191905f5260205f20905b81548152906001019060200180831161077257829003601f168201915b505050505090806004015f9054906101000a900460ff16905085565b5f604051905090565b5f80fd5b5f80fd5b5f819050919050565b6107ce816107bc565b81146107d8575f80fd5b50565b5f813590506107e9816107c5565b92915050565b5f80fd5b5f80fd5b5f601f19601f8301169050919050565b7f4e487b71000000000000000000000000000000000000000000000000000000005f52604160045260245ffd5b61083d826107f7565b810181811067ffffffffffffffff8211171561085c5761085b610807565b5b80604052505050565b5f61086e6107ab565b905061087a8282610834565b919050565b5f67ffffffffffffffff82111561089957610898610807565b5b6108a2826107f7565b9050602081019050919050565b828183375f83830152505050565b5f6108cf6108ca8461087f565b610865565b9050828152602081018484840111156108eb576108ea6107f3565b5b6108f68482856108af565b509392505050565b5f82601f830112610912576109116107ef565b5b81356109228482602086016108bd565b91505092915050565b5f8060408385031215610941576109406107b4565b5b5f61094e858286016107db565b925050602083013567ffffffffffffffff81111561096f5761096e6107b8565b5b61097b858286016108fe565b9150509250929050565b5f6020828403121561099a576109996107b4565b5b5f6109a7848285016107db565b91505092915050565b5f8115159050919050565b6109c4816109b0565b82525050565b5f6020820190506109dd5f8301846109bb565b92915050565b5f73ffffffffffffffffffffffffffffffffffffffff82169050919050565b5f610a0c826109e3565b9050919050565b610a1c81610a02565b8114610a26575f80fd5b50565b5f81359050610a3781610a13565b92915050565b5f805f60608486031215610a5457610a536107b4565b5b5f610a6186828701610a29565b9350506020610a72868287016107db565b925050604084013567ffffffffffffffff811115610a9357610a926107b8565b5b610a9f868287016108fe565b9150509250925092565b610ab281610a02565b82525050565b5f602082019050610acb5f830184610aa9565b92915050565b610ada816107bc565b82525050565b5f602082019050610af35f830184610ad1565b92915050565b5f81519050919050565b5f82825260208201905092915050565b8281835e5f83830152505050565b5f610b2b82610af9565b610b358185610b03565b9350610b45818560208601610b13565b610b4e816107f7565b840191505092915050565b7f4e487b71000000000000000000000000000000000000000000000000000000005f52602160045260245ffd5b60038110610b9757610b96610b59565b5b50565b5f819050610ba782610b86565b919050565b5f610bb682610b9a565b9050919050565b610bc681610bac565b82525050565b5f60a082019050610bdf5f830188610ad1565b610bec6020830187610aa9565b610bf96040830186610ad1565b8181036060830152610c0b8185610b21565b9050610c1a6080830184610bbd565b9695505050505050565b7f4f6e6c7920726567756c61746f727920617574686f7269747920616c6c6f77655f8201527f6400000000000000000000000000000000000000000000000000000000000000602082015250565b5f610c7e602183610b03565b9150610c8982610c24565b604082019050919050565b5f6020820190508181035f830152610cab81610c72565b9050919050565b7f4170706c69636174696f6e20646f6573206e6f742065786973740000000000005f82015250565b5f610ce6601a83610b03565b9150610cf182610cb2565b602082019050919050565b5f6020820190508181035f830152610d1381610cda565b9050919050565b7f4170706c69636174696f6e206973206e6f742070656e64696e670000000000005f82015250565b5f610d4e601a83610b03565b9150610d5982610d1a565b602082019050919050565b5f6020820190508181035f830152610d7b81610d42565b9050919050565b5f6020820190508181035f830152610d9a8184610b21565b905092915050565b5f81519050610db081610a13565b92915050565b5f60208284031215610dcb57610dca6107b4565b5b5f610dd884828501610da2565b91505092915050565b7f43616c6c657220646f6573206e6f74206f776e207468652073706563696669655f8201527f642055415650617373706f72744e465400000000000000000000000000000000602082015250565b5f610e3b603083610b03565b9150610e4682610de1565b604082019050919050565b5f6020820190508181035f830152610e6881610e2f565b9050919050565b7f4e487b71000000000000000000000000000000000000000000000000000000005f52601160045260245ffd5b5f610ea6826107bc565b91507fffffffffffffffffffffffffffffffffffffffffffffffffffffffffffffffff8203610ed857610ed7610e6f565b5b600182019050919050565b7f4e487b71000000000000000000000000000000000000000000000000000000005f52602260045260245ffd5b5f6002820490506001821680610f2757607f821691505b602082108103610f3a57610f39610ee3565b5b50919050565b5f819050815f5260205f209050919050565b5f6020601f8301049050919050565b5f82821b905092915050565b5f60088302610f9c7fffffffffffffffffffffffffffffffffffffffffffffffffffffffffffffffff82610f61565b610fa68683610f61565b95508019841693508086168417925050509392505050565b5f819050919050565b5f610fe1610fdc610fd7846107bc565b610fbe565b6107bc565b9050919050565b5f819050919050565b610ffa83610fc7565b61100e61100682610fe8565b848454610f6d565b825550505050565b5f90565b611022611016565b61102d818484610ff1565b505050565b5b81811015611050576110455f8261101a565b600181019050611033565b5050565b601f8211156110955761106681610f40565b61106f84610f52565b8101602085101561107e578190505b61109261108a85610f52565b830182611032565b50505b505050565b5f82821c905092915050565b5f6110b55f198460080261109a565b1980831691505092915050565b5f6110cd83836110a6565b9150826002028217905092915050565b6110e682610af9565b67ffffffffffffffff8111156110ff576110fe610807565b5b6111098254610f10565b611114828285611054565b5f60209050601f831160018114611145575f8415611133578287015190505b61113d85826110c2565b8655506111a4565b601f19841661115386610f40565b5f5b8281101561117a57848901518255600182019150602085019450602081019050611155565b868310156111975784890151611193601f8916826110a6565b8355505b6001600288020188555050505b50505050505056fea2646970667358221220daad3e3a760b66e4b456f1d21563c20cef587e5a5b9e6f3037db3c1c20eeeb6264736f6c634300081a0033",
					"opcodes": "PUSH1 0x80 PUSH1 0x40 MSTORE CALLVALUE DUP1 ISZERO PUSH2 0xF JUMPI PUSH0 DUP1 REVERT JUMPDEST POP PUSH1 0x40 MLOAD PUSH2 0x12EF CODESIZE SUB DUP1 PUSH2 0x12EF DUP4 CODECOPY DUP2 DUP2 ADD PUSH1 0x40 MSTORE DUP2 ADD SWAP1 PUSH2 0x31 SWAP2 SWAP1 PUSH2 0xD5 JUMP JUMPDEST DUP1 PUSH1 0x2 PUSH0 PUSH2 0x100 EXP DUP2 SLOAD DUP2 PUSH20 0xFFFFFFFFFFFFFFFFFFFFFFFFFFFFFFFFFFFFFFFF MUL NOT AND SWAP1 DUP4 PUSH20 0xFFFFFFFFFFFFFFFFFFFFFFFFFFFFFFFFFFFFFFFF AND MUL OR SWAP1 SSTORE POP POP PUSH2 0x100 JUMP JUMPDEST PUSH0 DUP1 REVERT JUMPDEST PUSH0 PUSH20 0xFFFFFFFFFFFFFFFFFFFFFFFFFFFFFFFFFFFFFFFF DUP3 AND SWAP1 POP SWAP2 SWAP1 POP JUMP JUMPDEST PUSH0 PUSH2 0xA4 DUP3 PUSH2 0x7B JUMP JUMPDEST SWAP1 POP SWAP2 SWAP1 POP JUMP JUMPDEST PUSH2 0xB4 DUP2 PUSH2 0x9A JUMP JUMPDEST DUP2 EQ PUSH2 0xBE JUMPI PUSH0 DUP1 REVERT JUMPDEST POP JUMP JUMPDEST PUSH0 DUP2 MLOAD SWAP1 POP PUSH2 0xCF DUP2 PUSH2 0xAB JUMP JUMPDEST SWAP3 SWAP2 POP POP JUMP JUMPDEST PUSH0 PUSH1 0x20 DUP3 DUP5 SUB SLT ISZERO PUSH2 0xEA JUMPI PUSH2 0xE9 PUSH2 0x77 JUMP JUMPDEST JUMPDEST PUSH0 PUSH2 0xF7 DUP5 DUP3 DUP6 ADD PUSH2 0xC1 JUMP JUMPDEST SWAP2 POP POP SWAP3 SWAP2 POP POP JUMP JUMPDEST PUSH2 0x11E2 DUP1 PUSH2 0x10D PUSH0 CODECOPY PUSH0 RETURN INVALID PUSH1 0x80 PUSH1 0x40 MSTORE CALLVALUE DUP1 ISZERO PUSH2 0xF JUMPI PUSH0 DUP1 REVERT JUMPDEST POP PUSH1 0x4 CALLDATASIZE LT PUSH2 0x7B JUMPI PUSH0 CALLDATALOAD PUSH1 0xE0 SHR DUP1 PUSH4 0x53E50083 GT PUSH2 0x59 JUMPI DUP1 PUSH4 0x53E50083 EQ PUSH2 0xE7 JUMPI DUP1 PUSH4 0x7925132D EQ PUSH2 0x103 JUMPI DUP1 PUSH4 0xDB144D01 EQ PUSH2 0x121 JUMPI DUP1 PUSH4 0xDFEFADFF EQ PUSH2 0x13F JUMPI PUSH2 0x7B JUMP JUMPDEST DUP1 PUSH4 0xC816DE4 EQ PUSH2 0x7F JUMPI DUP1 PUSH4 0x4F82FF41 EQ PUSH2 0x9B JUMPI DUP1 PUSH4 0x500A90CC EQ PUSH2 0xCB JUMPI JUMPDEST PUSH0 DUP1 REVERT JUMPDEST PUSH2 0x99 PUSH1 0x4 DUP1 CALLDATASIZE SUB DUP2 ADD SWAP1 PUSH2 0x94 SWAP2 SWAP1 PUSH2 0x92B JUMP JUMPDEST PUSH2 0x173 JUMP JUMPDEST STOP JUMPDEST PUSH2 0xB5 PUSH1 0x4 DUP1 CALLDATASIZE SUB DUP2 ADD SWAP1 PUSH2 0xB0 SWAP2 SWAP1 PUSH2 0x985 JUMP JUMPDEST PUSH2 0x33A JUMP JUMPDEST PUSH1 0x40 MLOAD PUSH2 0xC2 SWAP2 SWAP1 PUSH2 0x9CA JUMP JUMPDEST PUSH1 0x40 MLOAD DUP1 SWAP2 SUB SWAP1 RETURN JUMPDEST PUSH2 0xE5 PUSH1 0x4 DUP1 CALLDATASIZE SUB DUP2 ADD SWAP1 PUSH2 0xE0 SWAP2 SWAP1 PUSH2 0xA3D JUMP JUMPDEST PUSH2 0x39E JUMP JUMPDEST STOP JUMPDEST PUSH2 0x101 PUSH1 0x4 DUP1 CALLDATASIZE SUB DUP2 ADD SWAP1 PUSH2 0xFC SWAP2 SWAP1 PUSH2 0x92B JUMP JUMPDEST PUSH2 0x5D3 JUMP JUMPDEST STOP JUMPDEST PUSH2 0x10B PUSH2 0x69E JUMP JUMPDEST PUSH1 0x40 MLOAD PUSH2 0x118 SWAP2 SWAP1 PUSH2 0xAB8 JUMP JUMPDEST PUSH1 0x40 MLOAD DUP1 SWAP2 SUB SWAP1 RETURN JUMPDEST PUSH2 0x129 PUSH2 0x6C3 JUMP JUMPDEST PUSH1 0x40 MLOAD PUSH2 0x136 SWAP2 SWAP1 PUSH2 0xAE0 JUMP JUMPDEST PUSH1 0x40 MLOAD DUP1 SWAP2 SUB SWAP1 RETURN JUMPDEST PUSH2 0x159 PUSH1 0x4 DUP1 CALLDATASIZE SUB DUP2 ADD SWAP1 PUSH2 0x154 SWAP2 SWAP1 PUSH2 0x985 JUMP JUMPDEST PUSH2 0x6C8 JUMP JUMPDEST PUSH1 0x40 MLOAD PUSH2 0x16A SWAP6 SWAP5 SWAP4 SWAP3 SWAP2 SWAP1 PUSH2 0xBCC JUMP JUMPDEST PUSH1 0x40 MLOAD DUP1 SWAP2 SUB SWAP1 RETURN JUMPDEST PUSH1 0x2 PUSH0 SWAP1 SLOAD SWAP1 PUSH2 0x100 EXP SWAP1 DIV PUSH20 0xFFFFFFFFFFFFFFFFFFFFFFFFFFFFFFFFFFFFFFFF AND PUSH20 0xFFFFFFFFFFFFFFFFFFFFFFFFFFFFFFFFFFFFFFFF AND CALLER PUSH20 0xFFFFFFFFFFFFFFFFFFFFFFFFFFFFFFFFFFFFFFFF AND EQ PUSH2 0x202 JUMPI PUSH1 0x40 MLOAD PUSH32 0x8C379A000000000000000000000000000000000000000000000000000000000 DUP2 MSTORE PUSH1 0x4 ADD PUSH2 0x1F9 SWAP1 PUSH2 0xC94 JUMP JUMPDEST PUSH1 0x40 MLOAD DUP1 SWAP2 SUB SWAP1 REVERT JUMPDEST PUSH0 PUSH1 0x1 PUSH0 DUP5 DUP2 MSTORE PUSH1 0x20 ADD SWAP1 DUP2 MSTORE PUSH1 0x20 ADD PUSH0 KECCAK256 SWAP1 POP PUSH0 DUP2 PUSH0 ADD SLOAD SUB PUSH2 0x25B JUMPI PUSH1 0x40 MLOAD PUSH32 0x8C379A000000000000000000000000000000000000000000000000000000000 DUP2 MSTORE PUSH1 0x4 ADD PUSH2 0x252 SWAP1 PUSH2 0xCFC JUMP JUMPDEST PUSH1 0x40 MLOAD DUP1 SWAP2 SUB SWAP1 REVERT JUMPDEST PUSH0 PUSH1 0x2 DUP2 GT ISZERO PUSH2 0x26E JUMPI PUSH2 0x26D PUSH2 0xB59 JUMP JUMPDEST JUMPDEST DUP2 PUSH1 0x4 ADD PUSH0 SWAP1 SLOAD SWAP1 PUSH2 0x100 EXP SWAP1 DIV PUSH1 0xFF AND PUSH1 0x2 DUP2 GT ISZERO PUSH2 0x291 JUMPI PUSH2 0x290 PUSH2 0xB59 JUMP JUMPDEST JUMPDEST EQ PUSH2 0x2D1 JUMPI PUSH1 0x40 MLOAD PUSH32 0x8C379A000000000000000000000000000000000000000000000000000000000 DUP2 MSTORE PUSH1 0x4 ADD PUSH2 0x2C8 SWAP1 PUSH2 0xD64 JUMP JUMPDEST PUSH1 0x40 MLOAD DUP1 SWAP2 SUB SWAP1 REVERT JUMPDEST PUSH1 0x1 DUP2 PUSH1 0x4 ADD PUSH0 PUSH2 0x100 EXP DUP2 SLOAD DUP2 PUSH1 0xFF MUL NOT AND SWAP1 DUP4 PUSH1 0x2 DUP2 GT ISZERO PUSH2 0x2F8 JUMPI PUSH2 0x2F7 PUSH2 0xB59 JUMP JUMPDEST JUMPDEST MUL OR SWAP1 SSTORE POP DUP3 PUSH32 0x82E047AF96F6B7E5A52EA238AEE0CA4188211301535DDF1FE126E140DF6421B4 DUP4 PUSH1 0x40 MLOAD PUSH2 0x32D SWAP2 SWAP1 PUSH2 0xD82 JUMP JUMPDEST PUSH1 0x40 MLOAD DUP1 SWAP2 SUB SWAP1 LOG2 POP POP POP JUMP JUMPDEST PUSH0 DUP1 PUSH1 0x1 PUSH0 DUP5 DUP2 MSTORE PUSH1 0x20 ADD SWAP1 DUP2 MSTORE PUSH1 0x20 ADD PUSH0 KECCAK256 SWAP1 POP PUSH0 DUP2 PUSH0 ADD SLOAD EQ ISZERO DUP1 ISZERO PUSH2 0x396 JUMPI POP PUSH1 0x1 PUSH1 0x2 DUP2 GT ISZERO PUSH2 0x371 JUMPI PUSH2 0x370 PUSH2 0xB59 JUMP JUMPDEST JUMPDEST DUP2 PUSH1 0x4 ADD PUSH0 SWAP1 SLOAD SWAP1 PUSH2 0x100 EXP SWAP1 DIV PUSH1 0xFF AND PUSH1 0x2 DUP2 GT ISZERO PUSH2 0x394 JUMPI PUSH2 0x393 PUSH2 0xB59 JUMP JUMPDEST JUMPDEST EQ JUMPDEST SWAP2 POP POP SWAP2 SWAP1 POP JUMP JUMPDEST PUSH0 DUP4 SWAP1 POP CALLER PUSH20 0xFFFFFFFFFFFFFFFFFFFFFFFFFFFFFFFFFFFFFFFF AND DUP2 PUSH20 0xFFFFFFFFFFFFFFFFFFFFFFFFFFFFFFFFFFFFFFFF AND PUSH4 0x6352211E DUP6 PUSH1 0x40 MLOAD DUP3 PUSH4 0xFFFFFFFF AND PUSH1 0xE0 SHL DUP2 MSTORE PUSH1 0x4 ADD PUSH2 0x3F2 SWAP2 SWAP1 PUSH2 0xAE0 JUMP JUMPDEST PUSH1 0x20 PUSH1 0x40 MLOAD DUP1 DUP4 SUB DUP2 DUP7 GAS STATICCALL ISZERO DUP1 ISZERO PUSH2 0x40D JUMPI RETURNDATASIZE PUSH0 DUP1 RETURNDATACOPY RETURNDATASIZE PUSH0 REVERT JUMPDEST POP POP POP POP PUSH1 0x40 MLOAD RETURNDATASIZE PUSH1 0x1F NOT PUSH1 0x1F DUP3 ADD AND DUP3 ADD DUP1 PUSH1 0x40 MSTORE POP DUP2 ADD SWAP1 PUSH2 0x431 SWAP2 SWAP1 PUSH2 0xDB6 JUMP JUMPDEST PUSH20 0xFFFFFFFFFFFFFFFFFFFFFFFFFFFFFFFFFFFFFFFF AND EQ PUSH2 0x487 JUMPI PUSH1 0x40 MLOAD PUSH32 0x8C379A000000000000000000000000000000000000000000000000000000000 DUP2 MSTORE PUSH1 0x4 ADD PUSH2 0x47E SWAP1 PUSH2 0xE51 JUMP JUMPDEST PUSH1 0x40 MLOAD DUP1 SWAP2 SUB SWAP1 REVERT JUMPDEST PUSH0 DUP1 DUP2 SLOAD DUP1 SWAP3 SWAP2 SWAP1 PUSH2 0x498 SWAP1 PUSH2 0xE9C JUMP JUMPDEST SWAP2 SWAP1 POP SSTORE POP PUSH1 0x40 MLOAD DUP1 PUSH1 0xA0 ADD PUSH1 0x40 MSTORE DUP1 PUSH0 SLOAD DUP2 MSTORE PUSH1 0x20 ADD DUP6 PUSH20 0xFFFFFFFFFFFFFFFFFFFFFFFFFFFFFFFFFFFFFFFF AND DUP2 MSTORE PUSH1 0x20 ADD DUP5 DUP2 MSTORE PUSH1 0x20 ADD DUP4 DUP2 MSTORE PUSH1 0x20 ADD PUSH0 PUSH1 0x2 DUP2 GT ISZERO PUSH2 0x4EA JUMPI PUSH2 0x4E9 PUSH2 0xB59 JUMP JUMPDEST JUMPDEST DUP2 MSTORE POP PUSH1 0x1 PUSH0 DUP1 SLOAD DUP2 MSTORE PUSH1 0x20 ADD SWAP1 DUP2 MSTORE PUSH1 0x20 ADD PUSH0 KECCAK256 PUSH0 DUP3 ADD MLOAD DUP2 PUSH0 ADD SSTORE PUSH1 0x20 DUP3 ADD MLOAD DUP2 PUSH1 0x1 ADD PUSH0 PUSH2 0x100 EXP DUP2 SLOAD DUP2 PUSH20 0xFFFFFFFFFFFFFFFFFFFFFFFFFFFFFFFFFFFFFFFF MUL NOT AND SWAP1 DUP4 PUSH20 0xFFFFFFFFFFFFFFFFFFFFFFFFFFFFFFFFFFFFFFFF AND MUL OR SWAP1 SSTORE POP PUSH1 0x40 DUP3 ADD MLOAD DUP2 PUSH1 0x2 ADD SSTORE PUSH1 0x60 DUP3 ADD MLOAD DUP2 PUSH1 0x3 ADD SWAP1 DUP2 PUSH2 0x56C SWAP2 SWAP1 PUSH2 0x10DD JUMP JUMPDEST POP PUSH1 0x80 DUP3 ADD MLOAD DUP2 PUSH1 0x4 ADD PUSH0 PUSH2 0x100 EXP DUP2 SLOAD DUP2 PUSH1 0xFF MUL NOT AND SWAP1 DUP4 PUSH1 0x2 DUP2 GT ISZERO PUSH2 0x597 JUMPI PUSH2 0x596 PUSH2 0xB59 JUMP JUMPDEST JUMPDEST MUL OR SWAP1 SSTORE POP SWAP1 POP POP PUSH0 SLOAD PUSH32 0x4B6126472F7A5C1A21FE858797A6BB6ED361C62B74D480965163D30D68576D4F PUSH1 0x40 MLOAD PUSH1 0x40 MLOAD DUP1 SWAP2 SUB SWAP1 LOG2 POP POP POP POP JUMP JUMPDEST PUSH1 0x2 PUSH0 SWAP1 SLOAD SWAP1 PUSH2 0x100 EXP SWAP1 DIV PUSH20 0xFFFFFFFFFFFFFFFFFFFFFFFFFFFFFFFFFFFFFFFF AND PUSH20 0xFFFFFFFFFFFFFFFFFFFFFFFFFFFFFFFFFFFFFFFF AND CALLER PUSH20 0xFFFFFFFFFFFFFFFFFFFFFFFFFFFFFFFFFFFFFFFF AND EQ PUSH2 0x662 JUMPI PUSH1 0x40 MLOAD PUSH32 0x8C379A000000000000000000000000000000000000000000000000000000000 DUP2 MSTORE PUSH1 0x4 ADD PUSH2 0x659 SWAP1 PUSH2 0xC94 JUMP JUMPDEST PUSH1 0x40 MLOAD DUP1 SWAP2 SUB SWAP1 REVERT JUMPDEST DUP2 PUSH32 0xB0E6959CE3E34736661108DD9CFBA0A1EBCA72401D9F0B81B731A4448EADDCCE DUP3 PUSH1 0x40 MLOAD PUSH2 0x692 SWAP2 SWAP1 PUSH2 0xD82 JUMP JUMPDEST PUSH1 0x40 MLOAD DUP1 SWAP2 SUB SWAP1 LOG2 POP POP JUMP JUMPDEST PUSH1 0x2 PUSH0 SWAP1 SLOAD SWAP1 PUSH2 0x100 EXP SWAP1 DIV PUSH20 0xFFFFFFFFFFFFFFFFFFFFFFFFFFFFFFFFFFFFFFFF AND DUP2 JUMP JUMPDEST PUSH0 SLOAD DUP2 JUMP JUMPDEST PUSH1 0x1 PUSH1 0x20 MSTORE DUP1 PUSH0 MSTORE PUSH1 0x40 PUSH0 KECCAK256 PUSH0 SWAP2 POP SWAP1 POP DUP1 PUSH0 ADD SLOAD SWAP1 DUP1 PUSH1 0x1 ADD PUSH0 SWAP1 SLOAD SWAP1 PUSH2 0x100 EXP SWAP1 DIV PUSH20 0xFFFFFFFFFFFFFFFFFFFFFFFFFFFFFFFFFFFFFFFF AND SWAP1 DUP1 PUSH1 0x2 ADD SLOAD SWAP1 DUP1 PUSH1 0x3 ADD DUP1 SLOAD PUSH2 0x718 SWAP1 PUSH2 0xF10 JUMP JUMPDEST DUP1 PUSH1 0x1F ADD PUSH1 0x20 DUP1 SWAP2 DIV MUL PUSH1 0x20 ADD PUSH1 0x40 MLOAD SWAP1 DUP2 ADD PUSH1 0x40 MSTORE DUP1 SWAP3 SWAP2 SWAP1 DUP2 DUP2 MSTORE PUSH1 0x20 ADD DUP3 DUP1 SLOAD PUSH2 0x744 SWAP1 PUSH2 0xF10 JUMP JUMPDEST DUP1 ISZERO PUSH2 0x78F JUMPI DUP1 PUSH1 0x1F LT PUSH2 0x766 JUMPI PUSH2 0x100 DUP1 DUP4 SLOAD DIV MUL DUP4 MSTORE SWAP2 PUSH1 0x20 ADD SWAP2 PUSH2 0x78F JUMP JUMPDEST DUP3 ADD SWAP2 SWAP1 PUSH0 MSTORE PUSH1 0x20 PUSH0 KECCAK256 SWAP1 JUMPDEST DUP2 SLOAD DUP2 MSTORE SWAP1 PUSH1 0x1 ADD SWAP1 PUSH1 0x20 ADD DUP1 DUP4 GT PUSH2 0x772 JUMPI DUP3 SWAP1 SUB PUSH1 0x1F AND DUP3 ADD SWAP2 JUMPDEST POP POP POP POP POP SWAP1 DUP1 PUSH1 0x4 ADD PUSH0 SWAP1 SLOAD SWAP1 PUSH2 0x100 EXP SWAP1 DIV PUSH1 0xFF AND SWAP1 POP DUP6 JUMP JUMPDEST PUSH0 PUSH1 0x40 MLOAD SWAP1 POP SWAP1 JUMP JUMPDEST PUSH0 DUP1 REVERT JUMPDEST PUSH0 DUP1 REVERT JUMPDEST PUSH0 DUP2 SWAP1 POP SWAP2 SWAP1 POP JUMP JUMPDEST PUSH2 0x7CE DUP2 PUSH2 0x7BC JUMP JUMPDEST DUP2 EQ PUSH2 0x7D8 JUMPI PUSH0 DUP1 REVERT JUMPDEST POP JUMP JUMPDEST PUSH0 DUP2 CALLDATALOAD SWAP1 POP PUSH2 0x7E9 DUP2 PUSH2 0x7C5 JUMP JUMPDEST SWAP3 SWAP2 POP POP JUMP JUMPDEST PUSH0 DUP1 REVERT JUMPDEST PUSH0 DUP1 REVERT JUMPDEST PUSH0 PUSH1 0x1F NOT PUSH1 0x1F DUP4 ADD AND SWAP1 POP SWAP2 SWAP1 POP JUMP JUMPDEST PUSH32 0x4E487B7100000000000000000000000000000000000000000000000000000000 PUSH0 MSTORE PUSH1 0x41 PUSH1 0x4 MSTORE PUSH1 0x24 PUSH0 REVERT JUMPDEST PUSH2 0x83D DUP3 PUSH2 0x7F7 JUMP JUMPDEST DUP2 ADD DUP2 DUP2 LT PUSH8 0xFFFFFFFFFFFFFFFF DUP3 GT OR ISZERO PUSH2 0x85C JUMPI PUSH2 0x85B PUSH2 0x807 JUMP JUMPDEST JUMPDEST DUP1 PUSH1 0x40 MSTORE POP POP POP JUMP JUMPDEST PUSH0 PUSH2 0x86E PUSH2 0x7AB JUMP JUMPDEST SWAP1 POP PUSH2 0x87A DUP3 DUP3 PUSH2 0x834 JUMP JUMPDEST SWAP2 SWAP1 POP JUMP JUMPDEST PUSH0 PUSH8 0xFFFFFFFFFFFFFFFF DUP3 GT ISZERO PUSH2 0x899 JUMPI PUSH2 0x898 PUSH2 0x807 JUMP JUMPDEST JUMPDEST PUSH2 0x8A2 DUP3 PUSH2 0x7F7 JUMP JUMPDEST SWAP1 POP PUSH1 0x20 DUP2 ADD SWAP1 POP SWAP2 SWAP1 POP JUMP JUMPDEST DUP3 DUP2 DUP4 CALLDATACOPY PUSH0 DUP4 DUP4 ADD MSTORE POP POP POP JUMP JUMPDEST PUSH0 PUSH2 0x8CF PUSH2 0x8CA DUP5 PUSH2 0x87F JUMP JUMPDEST PUSH2 0x865 JUMP JUMPDEST SWAP1 POP DUP3 DUP2 MSTORE PUSH1 0x20 DUP2 ADD DUP5 DUP5 DUP5 ADD GT ISZERO PUSH2 0x8EB JUMPI PUSH2 0x8EA PUSH2 0x7F3 JUMP JUMPDEST JUMPDEST PUSH2 0x8F6 DUP5 DUP3 DUP6 PUSH2 0x8AF JUMP JUMPDEST POP SWAP4 SWAP3 POP POP POP JUMP JUMPDEST PUSH0 DUP3 PUSH1 0x1F DUP4 ADD SLT PUSH2 0x912 JUMPI PUSH2 0x911 PUSH2 0x7EF JUMP JUMPDEST JUMPDEST DUP2 CALLDATALOAD PUSH2 0x922 DUP5 DUP3 PUSH1 0x20 DUP7 ADD PUSH2 0x8BD JUMP JUMPDEST SWAP2 POP POP SWAP3 SWAP2 POP POP JUMP JUMPDEST PUSH0 DUP1 PUSH1 0x40 DUP4 DUP6 SUB SLT ISZERO PUSH2 0x941 JUMPI PUSH2 0x940 PUSH2 0x7B4 JUMP JUMPDEST JUMPDEST PUSH0 PUSH2 0x94E DUP6 DUP3 DUP7 ADD PUSH2 0x7DB JUMP JUMPDEST SWAP3 POP POP PUSH1 0x20 DUP4 ADD CALLDATALOAD PUSH8 0xFFFFFFFFFFFFFFFF DUP2 GT ISZERO PUSH2 0x96F JUMPI PUSH2 0x96E PUSH2 0x7B8 JUMP JUMPDEST JUMPDEST PUSH2 0x97B DUP6 DUP3 DUP7 ADD PUSH2 0x8FE JUMP JUMPDEST SWAP2 POP POP SWAP3 POP SWAP3 SWAP1 POP JUMP JUMPDEST PUSH0 PUSH1 0x20 DUP3 DUP5 SUB SLT ISZERO PUSH2 0x99A JUMPI PUSH2 0x999 PUSH2 0x7B4 JUMP JUMPDEST JUMPDEST PUSH0 PUSH2 0x9A7 DUP5 DUP3 DUP6 ADD PUSH2 0x7DB JUMP JUMPDEST SWAP2 POP POP SWAP3 SWAP2 POP POP JUMP JUMPDEST PUSH0 DUP2 ISZERO ISZERO SWAP1 POP SWAP2 SWAP1 POP JUMP JUMPDEST PUSH2 0x9C4 DUP2 PUSH2 0x9B0 JUMP JUMPDEST DUP3 MSTORE POP POP JUMP JUMPDEST PUSH0 PUSH1 0x20 DUP3 ADD SWAP1 POP PUSH2 0x9DD PUSH0 DUP4 ADD DUP5 PUSH2 0x9BB JUMP JUMPDEST SWAP3 SWAP2 POP POP JUMP JUMPDEST PUSH0 PUSH20 0xFFFFFFFFFFFFFFFFFFFFFFFFFFFFFFFFFFFFFFFF DUP3 AND SWAP1 POP SWAP2 SWAP1 POP JUMP JUMPDEST PUSH0 PUSH2 0xA0C DUP3 PUSH2 0x9E3 JUMP JUMPDEST SWAP1 POP SWAP2 SWAP1 POP JUMP JUMPDEST PUSH2 0xA1C DUP2 PUSH2 0xA02 JUMP JUMPDEST DUP2 EQ PUSH2 0xA26 JUMPI PUSH0 DUP1 REVERT JUMPDEST POP JUMP JUMPDEST PUSH0 DUP2 CALLDATALOAD SWAP1 POP PUSH2 0xA37 DUP2 PUSH2 0xA13 JUMP JUMPDEST SWAP3 SWAP2 POP POP JUMP JUMPDEST PUSH0 DUP1 PUSH0 PUSH1 0x60 DUP5 DUP7 SUB SLT ISZERO PUSH2 0xA54 JUMPI PUSH2 0xA53 PUSH2 0x7B4 JUMP JUMPDEST JUMPDEST PUSH0 PUSH2 0xA61 DUP7 DUP3 DUP8 ADD PUSH2 0xA29 JUMP JUMPDEST SWAP4 POP POP PUSH1 0x20 PUSH2 0xA72 DUP7 DUP3 DUP8 ADD PUSH2 0x7DB JUMP JUMPDEST SWAP3 POP POP PUSH1 0x40 DUP5 ADD CALLDATALOAD PUSH8 0xFFFFFFFFFFFFFFFF DUP2 GT ISZERO PUSH2 0xA93 JUMPI PUSH2 0xA92 PUSH2 0x7B8 JUMP JUMPDEST JUMPDEST PUSH2 0xA9F DUP7 DUP3 DUP8 ADD PUSH2 0x8FE JUMP JUMPDEST SWAP2 POP POP SWAP3 POP SWAP3 POP SWAP3 JUMP JUMPDEST PUSH2 0xAB2 DUP2 PUSH2 0xA02 JUMP JUMPDEST DUP3 MSTORE POP POP JUMP JUMPDEST PUSH0 PUSH1 0x20 DUP3 ADD SWAP1 POP PUSH2 0xACB PUSH0 DUP4 ADD DUP5 PUSH2 0xAA9 JUMP JUMPDEST SWAP3 SWAP2 POP POP JUMP JUMPDEST PUSH2 0xADA DUP2 PUSH2 0x7BC JUMP JUMPDEST DUP3 MSTORE POP POP JUMP JUMPDEST PUSH0 PUSH1 0x20 DUP3 ADD SWAP1 POP PUSH2 0xAF3 PUSH0 DUP4 ADD DUP5 PUSH2 0xAD1 JUMP JUMPDEST SWAP3 SWAP2 POP POP JUMP JUMPDEST PUSH0 DUP2 MLOAD SWAP1 POP SWAP2 SWAP1 POP JUMP JUMPDEST PUSH0 DUP3 DUP3 MSTORE PUSH1 0x20 DUP3 ADD SWAP1 POP SWAP3 SWAP2 POP POP JUMP JUMPDEST DUP3 DUP2 DUP4 MCOPY PUSH0 DUP4 DUP4 ADD MSTORE POP POP POP JUMP JUMPDEST PUSH0 PUSH2 0xB2B DUP3 PUSH2 0xAF9 JUMP JUMPDEST PUSH2 0xB35 DUP2 DUP6 PUSH2 0xB03 JUMP JUMPDEST SWAP4 POP PUSH2 0xB45 DUP2 DUP6 PUSH1 0x20 DUP7 ADD PUSH2 0xB13 JUMP JUMPDEST PUSH2 0xB4E DUP2 PUSH2 0x7F7 JUMP JUMPDEST DUP5 ADD SWAP2 POP POP SWAP3 SWAP2 POP POP JUMP JUMPDEST PUSH32 0x4E487B7100000000000000000000000000000000000000000000000000000000 PUSH0 MSTORE PUSH1 0x21 PUSH1 0x4 MSTORE PUSH1 0x24 PUSH0 REVERT JUMPDEST PUSH1 0x3 DUP2 LT PUSH2 0xB97 JUMPI PUSH2 0xB96 PUSH2 0xB59 JUMP JUMPDEST JUMPDEST POP JUMP JUMPDEST PUSH0 DUP2 SWAP1 POP PUSH2 0xBA7 DUP3 PUSH2 0xB86 JUMP JUMPDEST SWAP2 SWAP1 POP JUMP JUMPDEST PUSH0 PUSH2 0xBB6 DUP3 PUSH2 0xB9A JUMP JUMPDEST SWAP1 POP SWAP2 SWAP1 POP JUMP JUMPDEST PUSH2 0xBC6 DUP2 PUSH2 0xBAC JUMP JUMPDEST DUP3 MSTORE POP POP JUMP JUMPDEST PUSH0 PUSH1 0xA0 DUP3 ADD SWAP1 POP PUSH2 0xBDF PUSH0 DUP4 ADD DUP9 PUSH2 0xAD1 JUMP JUMPDEST PUSH2 0xBEC PUSH1 0x20 DUP4 ADD DUP8 PUSH2 0xAA9 JUMP JUMPDEST PUSH2 0xBF9 PUSH1 0x40 DUP4 ADD DUP7 PUSH2 0xAD1 JUMP JUMPDEST DUP2 DUP2 SUB PUSH1 0x60 DUP4 ADD MSTORE PUSH2 0xC0B DUP2 DUP6 PUSH2 0xB21 JUMP JUMPDEST SWAP1 POP PUSH2 0xC1A PUSH1 0x80 DUP4 ADD DUP5 PUSH2 0xBBD JUMP JUMPDEST SWAP7 SWAP6 POP POP POP POP POP POP JUMP JUMPDEST PUSH32 0x4F6E6C7920726567756C61746F727920617574686F7269747920616C6C6F7765 PUSH0 DUP3 ADD MSTORE PUSH32 0x6400000000000000000000000000000000000000000000000000000000000000 PUSH1 0x20 DUP3 ADD MSTORE POP JUMP JUMPDEST PUSH0 PUSH2 0xC7E PUSH1 0x21 DUP4 PUSH2 0xB03 JUMP JUMPDEST SWAP2 POP PUSH2 0xC89 DUP3 PUSH2 0xC24 JUMP JUMPDEST PUSH1 0x40 DUP3 ADD SWAP1 POP SWAP2 SWAP1 POP JUMP JUMPDEST PUSH0 PUSH1 0x20 DUP3 ADD SWAP1 POP DUP2 DUP2 SUB PUSH0 DUP4 ADD MSTORE PUSH2 0xCAB DUP2 PUSH2 0xC72 JUMP JUMPDEST SWAP1 POP SWAP2 SWAP1 POP JUMP JUMPDEST PUSH32 0x4170706C69636174696F6E20646F6573206E6F74206578697374000000000000 PUSH0 DUP3 ADD MSTORE POP JUMP JUMPDEST PUSH0 PUSH2 0xCE6 PUSH1 0x1A DUP4 PUSH2 0xB03 JUMP JUMPDEST SWAP2 POP PUSH2 0xCF1 DUP3 PUSH2 0xCB2 JUMP JUMPDEST PUSH1 0x20 DUP3 ADD SWAP1 POP SWAP2 SWAP1 POP JUMP JUMPDEST PUSH0 PUSH1 0x20 DUP3 ADD SWAP1 POP DUP2 DUP2 SUB PUSH0 DUP4 ADD MSTORE PUSH2 0xD13 DUP2 PUSH2 0xCDA JUMP JUMPDEST SWAP1 POP SWAP2 SWAP1 POP JUMP JUMPDEST PUSH32 0x4170706C69636174696F6E206973206E6F742070656E64696E67000000000000 PUSH0 DUP3 ADD MSTORE POP JUMP JUMPDEST PUSH0 PUSH2 0xD4E PUSH1 0x1A DUP4 PUSH2 0xB03 JUMP JUMPDEST SWAP2 POP PUSH2 0xD59 DUP3 PUSH2 0xD1A JUMP JUMPDEST PUSH1 0x20 DUP3 ADD SWAP1 POP SWAP2 SWAP1 POP JUMP JUMPDEST PUSH0 PUSH1 0x20 DUP3 ADD SWAP1 POP DUP2 DUP2 SUB PUSH0 DUP4 ADD MSTORE PUSH2 0xD7B DUP2 PUSH2 0xD42 JUMP JUMPDEST SWAP1 POP SWAP2 SWAP1 POP JUMP JUMPDEST PUSH0 PUSH1 0x20 DUP3 ADD SWAP1 POP DUP2 DUP2 SUB PUSH0 DUP4 ADD MSTORE PUSH2 0xD9A DUP2 DUP5 PUSH2 0xB21 JUMP JUMPDEST SWAP1 POP SWAP3 SWAP2 POP POP JUMP JUMPDEST PUSH0 DUP2 MLOAD SWAP1 POP PUSH2 0xDB0 DUP2 PUSH2 0xA13 JUMP JUMPDEST SWAP3 SWAP2 POP POP JUMP JUMPDEST PUSH0 PUSH1 0x20 DUP3 DUP5 SUB SLT ISZERO PUSH2 0xDCB JUMPI PUSH2 0xDCA PUSH2 0x7B4 JUMP JUMPDEST JUMPDEST PUSH0 PUSH2 0xDD8 DUP5 DUP3 DUP6 ADD PUSH2 0xDA2 JUMP JUMPDEST SWAP2 POP POP SWAP3 SWAP2 POP POP JUMP JUMPDEST PUSH32 0x43616C6C657220646F6573206E6F74206F776E20746865207370656369666965 PUSH0 DUP3 ADD MSTORE PUSH32 0x642055415650617373706F72744E465400000000000000000000000000000000 PUSH1 0x20 DUP3 ADD MSTORE POP JUMP JUMPDEST PUSH0 PUSH2 0xE3B PUSH1 0x30 DUP4 PUSH2 0xB03 JUMP JUMPDEST SWAP2 POP PUSH2 0xE46 DUP3 PUSH2 0xDE1 JUMP JUMPDEST PUSH1 0x40 DUP3 ADD SWAP1 POP SWAP2 SWAP1 POP JUMP JUMPDEST PUSH0 PUSH1 0x20 DUP3 ADD SWAP1 POP DUP2 DUP2 SUB PUSH0 DUP4 ADD MSTORE PUSH2 0xE68 DUP2 PUSH2 0xE2F JUMP JUMPDEST SWAP1 POP SWAP2 SWAP1 POP JUMP JUMPDEST PUSH32 0x4E487B7100000000000000000000000000000000000000000000000000000000 PUSH0 MSTORE PUSH1 0x11 PUSH1 0x4 MSTORE PUSH1 0x24 PUSH0 REVERT JUMPDEST PUSH0 PUSH2 0xEA6 DUP3 PUSH2 0x7BC JUMP JUMPDEST SWAP2 POP PUSH32 0xFFFFFFFFFFFFFFFFFFFFFFFFFFFFFFFFFFFFFFFFFFFFFFFFFFFFFFFFFFFFFFFF DUP3 SUB PUSH2 0xED8 JUMPI PUSH2 0xED7 PUSH2 0xE6F JUMP JUMPDEST JUMPDEST PUSH1 0x1 DUP3 ADD SWAP1 POP SWAP2 SWAP1 POP JUMP JUMPDEST PUSH32 0x4E487B7100000000000000000000000000000000000000000000000000000000 PUSH0 MSTORE PUSH1 0x22 PUSH1 0x4 MSTORE PUSH1 0x24 PUSH0 REVERT JUMPDEST PUSH0 PUSH1 0x2 DUP3 DIV SWAP1 POP PUSH1 0x1 DUP3 AND DUP1 PUSH2 0xF27 JUMPI PUSH1 0x7F DUP3 AND SWAP2 POP JUMPDEST PUSH1 0x20 DUP3 LT DUP2 SUB PUSH2 0xF3A JUMPI PUSH2 0xF39 PUSH2 0xEE3 JUMP JUMPDEST JUMPDEST POP SWAP2 SWAP1 POP JUMP JUMPDEST PUSH0 DUP2 SWAP1 POP DUP2 PUSH0 MSTORE PUSH1 0x20 PUSH0 KECCAK256 SWAP1 POP SWAP2 SWAP1 POP JUMP JUMPDEST PUSH0 PUSH1 0x20 PUSH1 0x1F DUP4 ADD DIV SWAP1 POP SWAP2 SWAP1 POP JUMP JUMPDEST PUSH0 DUP3 DUP3 SHL SWAP1 POP SWAP3 SWAP2 POP POP JUMP JUMPDEST PUSH0 PUSH1 0x8 DUP4 MUL PUSH2 0xF9C PUSH32 0xFFFFFFFFFFFFFFFFFFFFFFFFFFFFFFFFFFFFFFFFFFFFFFFFFFFFFFFFFFFFFFFF DUP3 PUSH2 0xF61 JUMP JUMPDEST PUSH2 0xFA6 DUP7 DUP4 PUSH2 0xF61 JUMP JUMPDEST SWAP6 POP DUP1 NOT DUP5 AND SWAP4 POP DUP1 DUP7 AND DUP5 OR SWAP3 POP POP POP SWAP4 SWAP3 POP POP POP JUMP JUMPDEST PUSH0 DUP2 SWAP1 POP SWAP2 SWAP1 POP JUMP JUMPDEST PUSH0 PUSH2 0xFE1 PUSH2 0xFDC PUSH2 0xFD7 DUP5 PUSH2 0x7BC JUMP JUMPDEST PUSH2 0xFBE JUMP JUMPDEST PUSH2 0x7BC JUMP JUMPDEST SWAP1 POP SWAP2 SWAP1 POP JUMP JUMPDEST PUSH0 DUP2 SWAP1 POP SWAP2 SWAP1 POP JUMP JUMPDEST PUSH2 0xFFA DUP4 PUSH2 0xFC7 JUMP JUMPDEST PUSH2 0x100E PUSH2 0x1006 DUP3 PUSH2 0xFE8 JUMP JUMPDEST DUP5 DUP5 SLOAD PUSH2 0xF6D JUMP JUMPDEST DUP3 SSTORE POP POP POP POP JUMP JUMPDEST PUSH0 SWAP1 JUMP JUMPDEST PUSH2 0x1022 PUSH2 0x1016 JUMP JUMPDEST PUSH2 0x102D DUP2 DUP5 DUP5 PUSH2 0xFF1 JUMP JUMPDEST POP POP POP JUMP JUMPDEST JUMPDEST DUP2 DUP2 LT ISZERO PUSH2 0x1050 JUMPI PUSH2 0x1045 PUSH0 DUP3 PUSH2 0x101A JUMP JUMPDEST PUSH1 0x1 DUP2 ADD SWAP1 POP PUSH2 0x1033 JUMP JUMPDEST POP POP JUMP JUMPDEST PUSH1 0x1F DUP3 GT ISZERO PUSH2 0x1095 JUMPI PUSH2 0x1066 DUP2 PUSH2 0xF40 JUMP JUMPDEST PUSH2 0x106F DUP5 PUSH2 0xF52 JUMP JUMPDEST DUP2 ADD PUSH1 0x20 DUP6 LT ISZERO PUSH2 0x107E JUMPI DUP2 SWAP1 POP JUMPDEST PUSH2 0x1092 PUSH2 0x108A DUP6 PUSH2 0xF52 JUMP JUMPDEST DUP4 ADD DUP3 PUSH2 0x1032 JUMP JUMPDEST POP POP JUMPDEST POP POP POP JUMP JUMPDEST PUSH0 DUP3 DUP3 SHR SWAP1 POP SWAP3 SWAP2 POP POP JUMP JUMPDEST PUSH0 PUSH2 0x10B5 PUSH0 NOT DUP5 PUSH1 0x8 MUL PUSH2 0x109A JUMP JUMPDEST NOT DUP1 DUP4 AND SWAP2 POP POP SWAP3 SWAP2 POP POP JUMP JUMPDEST PUSH0 PUSH2 0x10CD DUP4 DUP4 PUSH2 0x10A6 JUMP JUMPDEST SWAP2 POP DUP3 PUSH1 0x2 MUL DUP3 OR SWAP1 POP SWAP3 SWAP2 POP POP JUMP JUMPDEST PUSH2 0x10E6 DUP3 PUSH2 0xAF9 JUMP JUMPDEST PUSH8 0xFFFFFFFFFFFFFFFF DUP2 GT ISZERO PUSH2 0x10FF JUMPI PUSH2 0x10FE PUSH2 0x807 JUMP JUMPDEST JUMPDEST PUSH2 0x1109 DUP3 SLOAD PUSH2 0xF10 JUMP JUMPDEST PUSH2 0x1114 DUP3 DUP3 DUP6 PUSH2 0x1054 JUMP JUMPDEST PUSH0 PUSH1 0x20 SWAP1 POP PUSH1 0x1F DUP4 GT PUSH1 0x1 DUP2 EQ PUSH2 0x1145 JUMPI PUSH0 DUP5 ISZERO PUSH2 0x1133 JUMPI DUP3 DUP8 ADD MLOAD SWAP1 POP JUMPDEST PUSH2 0x113D DUP6 DUP3 PUSH2 0x10C2 JUMP JUMPDEST DUP7 SSTORE POP PUSH2 0x11A4 JUMP JUMPDEST PUSH1 0x1F NOT DUP5 AND PUSH2 0x1153 DUP7 PUSH2 0xF40 JUMP JUMPDEST PUSH0 JUMPDEST DUP3 DUP2 LT ISZERO PUSH2 0x117A JUMPI DUP5 DUP10 ADD MLOAD DUP3 SSTORE PUSH1 0x1 DUP3 ADD SWAP2 POP PUSH1 0x20 DUP6 ADD SWAP5 POP PUSH1 0x20 DUP2 ADD SWAP1 POP PUSH2 0x1155 JUMP JUMPDEST DUP7 DUP4 LT ISZERO PUSH2 0x1197 JUMPI DUP5 DUP10 ADD MLOAD PUSH2 0x1193 PUSH1 0x1F DUP10 AND DUP3 PUSH2 0x10A6 JUMP JUMPDEST DUP4 SSTORE POP JUMPDEST PUSH1 0x1 PUSH1 0x2 DUP9 MUL ADD DUP9 SSTORE POP POP POP JUMPDEST POP POP POP POP POP POP JUMP INVALID LOG2 PUSH5 0x6970667358 0x22 SLT KECCAK256 0xDA 0xAD RETURNDATACOPY GASPRICE PUSH23 0xB66E4B456F1D21563C20CEF587E5A5B9E6F3037DB3C1C KECCAK256 0xEE 0xEB PUSH3 0x64736F PUSH13 0x634300081A0033000000000000 "
				},
				"gasEstimates": {
					"creation": {
						"codeDepositCost": "915600",
						"executionCost": "infinite",
						"totalCost": "infinite"
					},
					"external": {
						"applicationCounter()": "2468",
						"applications(uint256)": "infinite",
						"completeInspection(uint256,string)": "infinite",
						"isCertified(uint256)": "5048",
						"issueCertificate(uint256,string)": "infinite",
						"regulatoryAuthority()": "2530",
						"submitApplication(address,uint256,string)": "infinite"
					}
				},
				"methodIdentifiers": {
					"applicationCounter()": "db144d01",
					"applications(uint256)": "dfefadff",
					"completeInspection(uint256,string)": "53e50083",
					"isCertified(uint256)": "4f82ff41",
					"issueCertificate(uint256,string)": "0c816de4",
					"regulatoryAuthority()": "7925132d",
					"submitApplication(address,uint256,string)": "500a90cc"
				}
			},
			"storageLayout": {
				"storage": [
					{
						"astId": 27,
						"contract": "contracts/Airworthiness.sol:Airworthiness",
						"label": "applicationCounter",
						"offset": 0,
						"slot": "0",
						"type": "t_uint256"
					},
					{
						"astId": 32,
						"contract": "contracts/Airworthiness.sol:Airworthiness",
						"label": "applications",
						"offset": 0,
						"slot": "1",
						"type": "t_mapping(t_uint256,t_struct(Application)25_storage)"
					},
					{
						"astId": 34,
						"contract": "contracts/Airworthiness.sol:Airworthiness",
						"label": "regulatoryAuthority",
						"offset": 0,
						"slot": "2",
						"type": "t_address"
					}
				],
				"types": {
					"t_address": {
						"encoding": "inplace",
						"label": "address",
						"numberOfBytes": "20"
					},
					"t_enum(CertificationStatus)13": {
						"encoding": "inplace",
						"label": "enum Airworthiness.CertificationStatus",
						"numberOfBytes": "1"
					},
					"t_mapping(t_uint256,t_struct(Application)25_storage)": {
						"encoding": "mapping",
						"key": "t_uint256",
						"label": "mapping(uint256 => struct Airworthiness.Application)",
						"numberOfBytes": "32",
						"value": "t_struct(Application)25_storage"
					},
					"t_string_storage": {
						"encoding": "bytes",
						"label": "string",
						"numberOfBytes": "32"
					},
					"t_struct(Application)25_storage": {
						"encoding": "inplace",
						"label": "struct Airworthiness.Application",
						"members": [
							{
								"astId": 15,
								"contract": "contracts/Airworthiness.sol:Airworthiness",
								"label": "id",
								"offset": 0,
								"slot": "0",
								"type": "t_uint256"
							},
							{
								"astId": 17,
								"contract": "contracts/Airworthiness.sol:Airworthiness",
								"label": "uavTokenAddress",
								"offset": 0,
								"slot": "1",
								"type": "t_address"
							},
							{
								"astId": 19,
								"contract": "contracts/Airworthiness.sol:Airworthiness",
								"label": "uavTokenId",
								"offset": 0,
								"slot": "2",
								"type": "t_uint256"
							},
							{
								"astId": 21,
								"contract": "contracts/Airworthiness.sol:Airworthiness",
								"label": "ipfsHashDocuments",
								"offset": 0,
								"slot": "3",
								"type": "t_string_storage"
							},
							{
								"astId": 24,
								"contract": "contracts/Airworthiness.sol:Airworthiness",
								"label": "status",
								"offset": 0,
								"slot": "4",
								"type": "t_enum(CertificationStatus)13"
							}
						],
						"numberOfBytes": "160"
					},
					"t_uint256": {
						"encoding": "inplace",
						"label": "uint256",
						"numberOfBytes": "32"
					}
				}
			},
			"userdoc": {
				"kind": "user",
				"methods": {},
				"version": 1
			}
		}
	}
}