{
	"data": {
		"bytecode": {
			"linkReferences": {},
			"object": "608060405234801561000f575f80fd5b506040518060400160405280600b81526020017f55415650617373706f72740000000000000000000000000000000000000000008152506040518060400160405280600481526020017f5541565000000000000000000000000000000000000000000000000000000000815250815f908161008a9190610457565b50806001908161009a9190610457565b5050505f6007819055506100b65f801b336100bc60201b60201c565b50610526565b5f6100cd83836101b260201b60201c565b6101a857600160065f8581526020019081526020015f205f015f8473ffffffffffffffffffffffffffffffffffffffff1673ffffffffffffffffffffffffffffffffffffffff1681526020019081526020015f205f6101000a81548160ff02191690831515021790555061014561021660201b60201c565b73ffffffffffffffffffffffffffffffffffffffff168273ffffffffffffffffffffffffffffffffffffffff16847f2f8788117e7eff1d82e926ec794901d17c78024a50270940304540a733656f0d60405160405180910390a4600190506101ac565b5f90505b92915050565b5f60065f8481526020019081526020015f205f015f8373ffffffffffffffffffffffffffffffffffffffff1673ffffffffffffffffffffffffffffffffffffffff1681526020019081526020015f205f9054906101000a900460ff16905092915050565b5f33905090565b5f81519050919050565b7f4e487b71000000000000000000000000000000000000000000000000000000005f52604160045260245ffd5b7f4e487b71000000000000000000000000000000000000000000000000000000005f52602260045260245ffd5b5f600282049050600182168061029857607f821691505b6020821081036102ab576102aa610254565b5b50919050565b5f819050815f5260205f209050919050565b5f6020601f8301049050919050565b5f82821b905092915050565b5f6008830261030d7fffffffffffffffffffffffffffffffffffffffffffffffffffffffffffffffff826102d2565b61031786836102d2565b95508019841693508086168417925050509392505050565b5f819050919050565b5f819050919050565b5f61035b6103566103518461032f565b610338565b61032f565b9050919050565b5f819050919050565b61037483610341565b61038861038082610362565b8484546102de565b825550505050565b5f90565b61039c610390565b6103a781848461036b565b505050565b5b818110156103ca576103bf5f82610394565b6001810190506103ad565b5050565b601f82111561040f576103e0816102b1565b6103e9846102c3565b810160208510156103f8578190505b61040c610404856102c3565b8301826103ac565b50505b505050565b5f82821c905092915050565b5f61042f5f1984600802610414565b1980831691505092915050565b5f6104478383610420565b9150826002028217905092915050565b6104608261021d565b67ffffffffffffffff81111561047957610478610227565b5b6104838254610281565b61048e8282856103ce565b5f60209050601f8311600181146104bf575f84156104ad578287015190505b6104b7858261043c565b86555061051e565b601f1984166104cd866102b1565b5f5b828110156104f4578489015182556001820191506020850194506020810190506104cf565b86831015610511578489015161050d601f891682610420565b8355505b6001600288020188555050505b505050505050565b614921806105335f395ff3fe608060405234801561000f575f80fd5b5060043610610225575f3560e01c806373e94ce01161012e578063b88d4fde116100b6578063d3929d411161007a578063d3929d41146106c0578063d547741f146106dc578063dd57a349146106f8578063e985e9c514610714578063fa245be31461074457610225565b8063b88d4fde146105f1578063c1780b011461060d578063c6f6caf614610642578063c87b56dd14610672578063d082e381146106a257610225565b806395d89b41116100fd57806395d89b411461054b578063965288b014610569578063a217fddf14610587578063a22cb465146105a5578063b1295c58146105c157610225565b806373e94ce01461049d57806379757f59146104cf5780638628d7ce146104ff57806391d148541461051b57610225565b80632f2ff15d116101b157806353c8388e1161018057806353c8388e146103e95780635f283686146104055780635f8a5afa146104215780636352211e1461043d57806370a082311461046d57610225565b80632f2ff15d1461037757806336568abe1461039357806342842e0e146103af5780634a3fba0e146103cb57610225565b8063150b7a02116101f8578063150b7a02146102c3578063238be283146102f357806323b872dd1461030f578063248a9ca31461032b57806326defa731461035b57610225565b806301ffc9a71461022957806306fdde0314610259578063081812fc14610277578063095ea7b3146102a7575b5f80fd5b610243600480360381019061023e9190613364565b610774565b60405161025091906133a9565b60405180910390f35b610261610785565b60405161026e9190613432565b60405180910390f35b610291600480360381019061028c9190613485565b610814565b60405161029e91906134ef565b60405180910390f35b6102c160048036038101906102bc9190613532565b61082f565b005b6102dd60048036038101906102d891906135d1565b610845565b6040516102ea9190613664565b60405180910390f35b61030d6004803603810190610308919061367d565b610859565b005b610329600480360381019061032491906136cd565b610c25565b005b61034560048036038101906103409190613750565b610d24565b604051610352919061378a565b60405180910390f35b610375600480360381019061037091906137a3565b610d41565b005b610391600480360381019061038c91906137ce565b610db9565b005b6103ad60048036038101906103a891906137ce565b610ddb565b005b6103c960048036038101906103c491906136cd565b610e56565b005b6103d3610e75565b6040516103e0919061378a565b60405180910390f35b61040360048036038101906103fe9190613934565b610e99565b005b61041f600480360381019061041a919061398e565b610f72565b005b61043b600480360381019061043691906137a3565b61118f565b005b61045760048036038101906104529190613485565b611207565b60405161046491906134ef565b60405180910390f35b610487600480360381019061048291906137a3565b611218565b6040516104949190613a39565b60405180910390f35b6104b760048036038101906104b29190613a52565b6112ce565b6040516104c693929190613b03565b60405180910390f35b6104e960048036038101906104e49190613485565b611339565b6040516104f69190613c2b565b60405180910390f35b61051960048036038101906105149190613934565b611589565b005b610535600480360381019061053091906137ce565b611676565b60405161054291906133a9565b60405180910390f35b6105536116da565b6040516105609190613432565b60405180910390f35b61057161176a565b60405161057e919061378a565b60405180910390f35b61058f61178e565b60405161059c919061378a565b60405180910390f35b6105bf60048036038101906105ba9190613c75565b611794565b005b6105db60048036038101906105d69190613485565b6117aa565b6040516105e89190613daa565b60405180910390f35b61060b60048036038101906106069190613e68565b6118f7565b005b61062760048036038101906106229190613485565b61191c565b60405161063996959493929190613ee8565b60405180910390f35b61065c60048036038101906106579190613a52565b611a9e565b6040516106699190613432565b60405180910390f35b61068c60048036038101906106879190613485565b611b4f565b6040516106999190613432565b60405180910390f35b6106aa611bb5565b6040516106b79190613a39565b60405180910390f35b6106da60048036038101906106d59190613532565b611bbb565b005b6106f660048036038101906106f191906137ce565b611d1a565b005b610712600480360381019061070d9190613934565b611d3c565b005b61072e60048036038101906107299190613f55565b611e6a565b60405161073b91906133a9565b60405180910390f35b61075e60048036038101906107599190613485565b611ef8565b60405161076b919061404e565b60405180910390f35b5f61077e82612025565b9050919050565b60605f80546107939061409b565b80601f01602080910402602001604051908101604052809291908181526020018280546107bf9061409b565b801561080a5780601f106107e15761010080835404028352916020019161080a565b820191905f5260205f20905b8154815290600101906020018083116107ed57829003601f168201915b5050505050905090565b5f61081e8261209e565b5061082882612124565b9050919050565b610841828261083c61215d565b612164565b5050565b5f63150b7a0260e01b905095945050505050565b6108837fd565e3fc066df348a5cbc05a8d6323e00552838041cea2d84cc59876ba37735d33611676565b6108c2576040517f08c379a00000000000000000000000000000000000000000000000000000000081526004016108b990614115565b60405180910390fd5b6108cb83612176565b61090a576040517f08c379a00000000000000000000000000000000000000000000000000000000081526004016109019061417d565b60405180910390fd5b5f8290503373ffffffffffffffffffffffffffffffffffffffff168173ffffffffffffffffffffffffffffffffffffffff16636352211e846040518263ffffffff1660e01b815260040161095e9190613a39565b602060405180830381865afa158015610979573d5f803e3d5ffd5b505050506040513d601f19601f8201168201806040525081019061099d91906141af565b73ffffffffffffffffffffffffffffffffffffffff16146109f3576040517f08c379a00000000000000000000000000000000000000000000000000000000081526004016109ea9061424a565b60405180910390fd5b5f8173ffffffffffffffffffffffffffffffffffffffff1663dff2293a846040518263ffffffff1660e01b8152600401610a2d9190613a39565b602060405180830381865afa158015610a48573d5f803e3d5ffd5b505050506040513d601f19601f82011682018060405250810190610a6c919061428b565b90508173ffffffffffffffffffffffffffffffffffffffff166342842e0e3330866040518463ffffffff1660e01b8152600401610aab939291906142b6565b5f604051808303815f87803b158015610ac2575f80fd5b505af1158015610ad4573d5f803e3d5ffd5b5050505060095f8681526020019081526020015f2060405180606001604052808673ffffffffffffffffffffffffffffffffffffffff168152602001858152602001836002811115610b2957610b28613a90565b5b815250908060018154018082558091505060019003905f5260205f2090600302015f909190919091505f820151815f015f6101000a81548173ffffffffffffffffffffffffffffffffffffffff021916908373ffffffffffffffffffffffffffffffffffffffff160217905550602082015181600101556040820151816002015f6101000a81548160ff02191690836002811115610bca57610bc9613a90565b5b02179055505050806002811115610be457610be3613a90565b5b857f80a96b91f839e6654acde12e0c9562594c967a1b7255ef9b23b54e0e7bfa18dc8686604051610c169291906142eb565b60405180910390a35050505050565b5f73ffffffffffffffffffffffffffffffffffffffff168273ffffffffffffffffffffffffffffffffffffffff1603610c95575f6040517f64a0ae92000000000000000000000000000000000000000000000000000000008152600401610c8c91906134ef565b60405180910390fd5b5f610ca88383610ca361215d565b6121b6565b90508373ffffffffffffffffffffffffffffffffffffffff168173ffffffffffffffffffffffffffffffffffffffff1614610d1e578382826040517f64283d7b000000000000000000000000000000000000000000000000000000008152600401610d1593929190614312565b60405180910390fd5b50505050565b5f60065f8381526020019081526020015f20600101549050919050565b610d4d5f801b33611676565b610d8c576040517f08c379a0000000000000000000000000000000000000000000000000000000008152600401610d8390614391565b60405180910390fd5b610db67fd565e3fc066df348a5cbc05a8d6323e00552838041cea2d84cc59876ba37735d82610db9565b50565b610dc282610d24565b610dcb816123c1565b610dd583836123d5565b50505050565b610de361215d565b73ffffffffffffffffffffffffffffffffffffffff168173ffffffffffffffffffffffffffffffffffffffff1614610e47576040517f6697b23200000000000000000000000000000000000000000000000000000000815260040160405180910390fd5b610e5182826124bf565b505050565b610e7083838360405180602001604052805f8152506118f7565b505050565b7fd565e3fc066df348a5cbc05a8d6323e00552838041cea2d84cc59876ba37735d81565b3373ffffffffffffffffffffffffffffffffffffffff16610eb983611207565b73ffffffffffffffffffffffffffffffffffffffff1614610f0f576040517f08c379a0000000000000000000000000000000000000000000000000000000008152600401610f06906143f9565b60405180910390fd5b5f60085f8481526020019081526020015f20905081816004019081610f3491906145b4565b50827f459157ba24c7ab9878b165ef465fa6ae2ab42bcd8445f576be378768b0c4730983604051610f659190613432565b60405180910390a2505050565b610f9c7feefb95e842a3287179d933b4460be539a1d5af11aa8b325bb45c5c8dc92de4ed33611676565b610fdb576040517f08c379a0000000000000000000000000000000000000000000000000000000008152600401610fd2906146cd565b60405180910390fd5b60075f815480929190610fed90614718565b91905055505f600754905061100233826125a9565b6040518060c001604052808281526020018681526020018573ffffffffffffffffffffffffffffffffffffffff1681526020018481526020018381526020013373ffffffffffffffffffffffffffffffffffffffff1681525060085f8381526020019081526020015f205f820151815f0155602082015181600101908161108991906145b4565b506040820151816002015f6101000a81548173ffffffffffffffffffffffffffffffffffffffff021916908373ffffffffffffffffffffffffffffffffffffffff1602179055506060820151816003015560808201518160040190816110ef91906145b4565b5060a0820151816005015f6101000a81548173ffffffffffffffffffffffffffffffffffffffff021916908373ffffffffffffffffffffffffffffffffffffffff1602179055509050503373ffffffffffffffffffffffffffffffffffffffff16817f9b5fbb2e4f522648771879ada6f05836798579c652fdb89ce8a0335f001d8024846040516111809190613432565b60405180910390a35050505050565b61119b5f801b33611676565b6111da576040517f08c379a00000000000000000000000000000000000000000000000000000000081526004016111d190614391565b60405180910390fd5b6112047feefb95e842a3287179d933b4460be539a1d5af11aa8b325bb45c5c8dc92de4ed82610db9565b50565b5f6112118261209e565b9050919050565b5f8073ffffffffffffffffffffffffffffffffffffffff168273ffffffffffffffffffffffffffffffffffffffff1603611289575f6040517f89c62b6400000000000000000000000000000000000000000000000000000000815260040161128091906134ef565b60405180910390fd5b60035f8373ffffffffffffffffffffffffffffffffffffffff1673ffffffffffffffffffffffffffffffffffffffff1681526020019081526020015f20549050919050565b6009602052815f5260405f2081815481106112e7575f80fd5b905f5260205f2090600302015f9150915050805f015f9054906101000a900473ffffffffffffffffffffffffffffffffffffffff1690806001015490806002015f9054906101000a900460ff16905083565b6113416132a0565b61134a82612176565b611389576040517f08c379a00000000000000000000000000000000000000000000000000000000081526004016113809061417d565b60405180910390fd5b60085f8381526020019081526020015f206040518060c00160405290815f82015481526020016001820180546113be9061409b565b80601f01602080910402602001604051908101604052809291908181526020018280546113ea9061409b565b80156114355780601f1061140c57610100808354040283529160200191611435565b820191905f5260205f20905b81548152906001019060200180831161141857829003601f168201915b50505050508152602001600282015f9054906101000a900473ffffffffffffffffffffffffffffffffffffffff1673ffffffffffffffffffffffffffffffffffffffff1673ffffffffffffffffffffffffffffffffffffffff168152602001600382015481526020016004820180546114ad9061409b565b80601f01602080910402602001604051908101604052809291908181526020018280546114d99061409b565b80156115245780601f106114fb57610100808354040283529160200191611524565b820191905f5260205f20905b81548152906001019060200180831161150757829003601f168201915b50505050508152602001600582015f9054906101000a900473ffffffffffffffffffffffffffffffffffffffff1673ffffffffffffffffffffffffffffffffffffffff1673ffffffffffffffffffffffffffffffffffffffff16815250509050919050565b6115b37fd565e3fc066df348a5cbc05a8d6323e00552838041cea2d84cc59876ba37735d33611676565b6115f2576040517f08c379a00000000000000000000000000000000000000000000000000000000081526004016115e990614115565b60405180910390fd5b6115fb82612176565b61163a576040517f08c379a00000000000000000000000000000000000000000000000000000000081526004016116319061417d565b60405180910390fd5b817ffa82d15d0816dc04b54d3319824a9438726f348a6d9df86085fab8b3e3f48ae28260405161166a9190613432565b60405180910390a25050565b5f60065f8481526020019081526020015f205f015f8373ffffffffffffffffffffffffffffffffffffffff1673ffffffffffffffffffffffffffffffffffffffff1681526020019081526020015f205f9054906101000a900460ff16905092915050565b6060600180546116e99061409b565b80601f01602080910402602001604051908101604052809291908181526020018280546117159061409b565b80156117605780601f1061173757610100808354040283529160200191611760565b820191905f5260205f20905b81548152906001019060200180831161174357829003601f168201915b5050505050905090565b7feefb95e842a3287179d933b4460be539a1d5af11aa8b325bb45c5c8dc92de4ed81565b5f801b81565b6117a661179f61215d565b83836125c6565b5050565b60606117b582612176565b6117f4576040517f08c379a00000000000000000000000000000000000000000000000000000000081526004016117eb9061417d565b60405180910390fd5b60095f8381526020019081526020015f20805480602002602001604051908101604052809291908181526020015f905b828210156118ec578382905f5260205f2090600302016040518060600160405290815f82015f9054906101000a900473ffffffffffffffffffffffffffffffffffffffff1673ffffffffffffffffffffffffffffffffffffffff1673ffffffffffffffffffffffffffffffffffffffff16815260200160018201548152602001600282015f9054906101000a900460ff1660028111156118c7576118c6613a90565b5b60028111156118d9576118d8613a90565b5b8152505081526020019060010190611824565b505050509050919050565b611902848484610c25565b61191661190d61215d565b8585858561272f565b50505050565b6008602052805f5260405f205f91509050805f0154908060010180546119419061409b565b80601f016020809104026020016040519081016040528092919081815260200182805461196d9061409b565b80156119b85780601f1061198f576101008083540402835291602001916119b8565b820191905f5260205f20905b81548152906001019060200180831161199b57829003601f168201915b505050505090806002015f9054906101000a900473ffffffffffffffffffffffffffffffffffffffff16908060030154908060040180546119f89061409b565b80601f0160208091040260200160405190810160405280929190818152602001828054611a249061409b565b8015611a6f5780601f10611a4657610100808354040283529160200191611a6f565b820191905f5260205f20905b815481529060010190602001808311611a5257829003601f168201915b505050505090806005015f9054906101000a900473ffffffffffffffffffffffffffffffffffffffff16905086565b600a602052815f5260405f208181548110611ab7575f80fd5b905f5260205f20015f91509150508054611ad09061409b565b80601f0160208091040260200160405190810160405280929190818152602001828054611afc9061409b565b8015611b475780601f10611b1e57610100808354040283529160200191611b47565b820191905f5260205f20905b815481529060010190602001808311611b2a57829003601f168201915b505050505081565b6060611b5a8261209e565b505f611b646128db565b90505f815111611b825760405180602001604052805f815250611bad565b80611b8c846128f1565b604051602001611b9d929190614799565b6040516020818303038152906040525b915050919050565b60075481565b3373ffffffffffffffffffffffffffffffffffffffff16611bdb82611207565b73ffffffffffffffffffffffffffffffffffffffff1614611c31576040517f08c379a0000000000000000000000000000000000000000000000000000000008152600401611c28906143f9565b60405180910390fd5b611c3c3383836129bb565b5f60085f8381526020019081526020015f2090505f816005015f9054906101000a900473ffffffffffffffffffffffffffffffffffffffff16905083826005015f6101000a81548173ffffffffffffffffffffffffffffffffffffffff021916908373ffffffffffffffffffffffffffffffffffffffff1602179055508373ffffffffffffffffffffffffffffffffffffffff168173ffffffffffffffffffffffffffffffffffffffff16847f16b85f49bf01212961345d3016c9a531894accf62eb7680f2045d79185cc0ec060405160405180910390a450505050565b611d2382610d24565b611d2c816123c1565b611d3683836124bf565b50505050565b611d667fd565e3fc066df348a5cbc05a8d6323e00552838041cea2d84cc59876ba37735d33611676565b611da5576040517f08c379a0000000000000000000000000000000000000000000000000000000008152600401611d9c90614115565b60405180910390fd5b611dae82612176565b611ded576040517f08c379a0000000000000000000000000000000000000000000000000000000008152600401611de49061417d565b60405180910390fd5b600a5f8381526020019081526020015f2081908060018154018082558091505060019003905f5260205f20015f909190919091509081611e2d91906145b4565b50817fe18a30c15741cee8fb7c9f43d2bb233858135f68591e5ecd01cc3da82b18a0cd82604051611e5e9190613432565b60405180910390a25050565b5f60055f8473ffffffffffffffffffffffffffffffffffffffff1673ffffffffffffffffffffffffffffffffffffffff1681526020019081526020015f205f8373ffffffffffffffffffffffffffffffffffffffff1673ffffffffffffffffffffffffffffffffffffffff1681526020019081526020015f205f9054906101000a900460ff16905092915050565b6060611f0382612176565b611f42576040517f08c379a0000000000000000000000000000000000000000000000000000000008152600401611f399061417d565b60405180910390fd5b600a5f8381526020019081526020015f20805480602002602001604051908101604052809291908181526020015f905b8282101561201a578382905f5260205f20018054611f8f9061409b565b80601f0160208091040260200160405190810160405280929190818152602001828054611fbb9061409b565b80156120065780601f10611fdd57610100808354040283529160200191612006565b820191905f5260205f20905b815481529060010190602001808311611fe957829003601f168201915b505050505081526020019060010190611f72565b505050509050919050565b5f7f7965db0b000000000000000000000000000000000000000000000000000000007bffffffffffffffffffffffffffffffffffffffffffffffffffffffff1916827bffffffffffffffffffffffffffffffffffffffffffffffffffffffff19161480612097575061209682612b23565b5b9050919050565b5f806120a983612c04565b90505f73ffffffffffffffffffffffffffffffffffffffff168173ffffffffffffffffffffffffffffffffffffffff160361211b57826040517f7e2732890000000000000000000000000000000000000000000000000000000081526004016121129190613a39565b60405180910390fd5b80915050919050565b5f60045f8381526020019081526020015f205f9054906101000a900473ffffffffffffffffffffffffffffffffffffffff169050919050565b5f33905090565b6121718383836001612c3d565b505050565b5f8073ffffffffffffffffffffffffffffffffffffffff1661219783612c04565b73ffffffffffffffffffffffffffffffffffffffff1614159050919050565b5f806121c184612c04565b90505f73ffffffffffffffffffffffffffffffffffffffff168373ffffffffffffffffffffffffffffffffffffffff161461220257612201818486612dfc565b5b5f73ffffffffffffffffffffffffffffffffffffffff168173ffffffffffffffffffffffffffffffffffffffff161461228d576122415f855f80612c3d565b600160035f8373ffffffffffffffffffffffffffffffffffffffff1673ffffffffffffffffffffffffffffffffffffffff1681526020019081526020015f205f82825403925050819055505b5f73ffffffffffffffffffffffffffffffffffffffff168573ffffffffffffffffffffffffffffffffffffffff161461230c57600160035f8773ffffffffffffffffffffffffffffffffffffffff1673ffffffffffffffffffffffffffffffffffffffff1681526020019081526020015f205f82825401925050819055505b8460025f8681526020019081526020015f205f6101000a81548173ffffffffffffffffffffffffffffffffffffffff021916908373ffffffffffffffffffffffffffffffffffffffff160217905550838573ffffffffffffffffffffffffffffffffffffffff168273ffffffffffffffffffffffffffffffffffffffff167fddf252ad1be2c89b69c2b068fc378daa952ba7f163c4a11628f55a4df523b3ef60405160405180910390a4809150509392505050565b6123d2816123cd61215d565b612ebf565b50565b5f6123e08383611676565b6124b557600160065f8581526020019081526020015f205f015f8473ffffffffffffffffffffffffffffffffffffffff1673ffffffffffffffffffffffffffffffffffffffff1681526020019081526020015f205f6101000a81548160ff02191690831515021790555061245261215d565b73ffffffffffffffffffffffffffffffffffffffff168273ffffffffffffffffffffffffffffffffffffffff16847f2f8788117e7eff1d82e926ec794901d17c78024a50270940304540a733656f0d60405160405180910390a4600190506124b9565b5f90505b92915050565b5f6124ca8383611676565b1561259f575f60065f8581526020019081526020015f205f015f8473ffffffffffffffffffffffffffffffffffffffff1673ffffffffffffffffffffffffffffffffffffffff1681526020019081526020015f205f6101000a81548160ff02191690831515021790555061253c61215d565b73ffffffffffffffffffffffffffffffffffffffff168273ffffffffffffffffffffffffffffffffffffffff16847ff6391f5c32d9c69d2a47ea670b442974b53935d1edc7fd64eb21e047a839171b60405160405180910390a4600190506125a3565b5f90505b92915050565b6125c2828260405180602001604052805f815250612f10565b5050565b5f73ffffffffffffffffffffffffffffffffffffffff168273ffffffffffffffffffffffffffffffffffffffff160361263657816040517f5b08ba1800000000000000000000000000000000000000000000000000000000815260040161262d91906134ef565b60405180910390fd5b8060055f8573ffffffffffffffffffffffffffffffffffffffff1673ffffffffffffffffffffffffffffffffffffffff1681526020019081526020015f205f8473ffffffffffffffffffffffffffffffffffffffff1673ffffffffffffffffffffffffffffffffffffffff1681526020019081526020015f205f6101000a81548160ff0219169083151502179055508173ffffffffffffffffffffffffffffffffffffffff168373ffffffffffffffffffffffffffffffffffffffff167f17307eab39ab6107e8899845ad3d59bd9653f200f220920489ca2b5937696c318360405161272291906133a9565b60405180910390a3505050565b5f8373ffffffffffffffffffffffffffffffffffffffff163b11156128d4578273ffffffffffffffffffffffffffffffffffffffff1663150b7a02868685856040518563ffffffff1660e01b815260040161278d949392919061480e565b6020604051808303815f875af19250505080156127c857506040513d601f19601f820116820180604052508101906127c5919061486c565b60015b612849573d805f81146127f6576040519150601f19603f3d011682016040523d82523d5f602084013e6127fb565b606091505b505f81510361284157836040517f64a0ae9200000000000000000000000000000000000000000000000000000000815260040161283891906134ef565b60405180910390fd5b805181602001fd5b63150b7a0260e01b7bffffffffffffffffffffffffffffffffffffffffffffffffffffffff1916817bffffffffffffffffffffffffffffffffffffffffffffffffffffffff1916146128d257836040517f64a0ae920000000000000000000000000000000000000000000000000000000081526004016128c991906134ef565b60405180910390fd5b505b5050505050565b606060405180602001604052805f815250905090565b60605f60016128ff84612f33565b0190505f8167ffffffffffffffff81111561291d5761291c613810565b5b6040519080825280601f01601f19166020018201604052801561294f5781602001600182028036833780820191505090505b5090505f82602001820190505b6001156129b0578080600190039150507f3031323334353637383961626364656600000000000000000000000000000000600a86061a8153600a85816129a5576129a4614897565b5b0494505f850361295c575b819350505050919050565b5f73ffffffffffffffffffffffffffffffffffffffff168273ffffffffffffffffffffffffffffffffffffffff1603612a2b575f6040517f64a0ae92000000000000000000000000000000000000000000000000000000008152600401612a2291906134ef565b60405180910390fd5b5f612a3783835f6121b6565b90505f73ffffffffffffffffffffffffffffffffffffffff168173ffffffffffffffffffffffffffffffffffffffff1603612aa957816040517f7e273289000000000000000000000000000000000000000000000000000000008152600401612aa09190613a39565b60405180910390fd5b8373ffffffffffffffffffffffffffffffffffffffff168173ffffffffffffffffffffffffffffffffffffffff1614612b1d578382826040517f64283d7b000000000000000000000000000000000000000000000000000000008152600401612b1493929190614312565b60405180910390fd5b50505050565b5f7f80ac58cd000000000000000000000000000000000000000000000000000000007bffffffffffffffffffffffffffffffffffffffffffffffffffffffff1916827bffffffffffffffffffffffffffffffffffffffffffffffffffffffff19161480612bed57507f5b5e139f000000000000000000000000000000000000000000000000000000007bffffffffffffffffffffffffffffffffffffffffffffffffffffffff1916827bffffffffffffffffffffffffffffffffffffffffffffffffffffffff1916145b80612bfd5750612bfc82613084565b5b9050919050565b5f60025f8381526020019081526020015f205f9054906101000a900473ffffffffffffffffffffffffffffffffffffffff169050919050565b8080612c7557505f73ffffffffffffffffffffffffffffffffffffffff168273ffffffffffffffffffffffffffffffffffffffff1614155b15612da7575f612c848461209e565b90505f73ffffffffffffffffffffffffffffffffffffffff168373ffffffffffffffffffffffffffffffffffffffff1614158015612cee57508273ffffffffffffffffffffffffffffffffffffffff168173ffffffffffffffffffffffffffffffffffffffff1614155b8015612d015750612cff8184611e6a565b155b15612d4357826040517fa9fbf51f000000000000000000000000000000000000000000000000000000008152600401612d3a91906134ef565b60405180910390fd5b8115612da557838573ffffffffffffffffffffffffffffffffffffffff168273ffffffffffffffffffffffffffffffffffffffff167f8c5be1e5ebec7d5bd14f71427d1e84f3dd0314c0f7b2291e5b200ac8c7c3b92560405160405180910390a45b505b8360045f8581526020019081526020015f205f6101000a81548173ffffffffffffffffffffffffffffffffffffffff021916908373ffffffffffffffffffffffffffffffffffffffff16021790555050505050565b612e078383836130ed565b612eba575f73ffffffffffffffffffffffffffffffffffffffff168373ffffffffffffffffffffffffffffffffffffffff1603612e7b57806040517f7e273289000000000000000000000000000000000000000000000000000000008152600401612e729190613a39565b60405180910390fd5b81816040517f177e802f000000000000000000000000000000000000000000000000000000008152600401612eb19291906142eb565b60405180910390fd5b505050565b612ec98282611676565b612f0c5780826040517fe2517d3f000000000000000000000000000000000000000000000000000000008152600401612f039291906148c4565b60405180910390fd5b5050565b612f1a83836131ad565b612f2e612f2561215d565b5f85858561272f565b505050565b5f805f90507a184f03e93ff9f4daa797ed6e38ed64bf6a1f0100000000000000008310612f8f577a184f03e93ff9f4daa797ed6e38ed64bf6a1f0100000000000000008381612f8557612f84614897565b5b0492506040810190505b6d04ee2d6d415b85acef81000000008310612fcc576d04ee2d6d415b85acef81000000008381612fc257612fc1614897565b5b0492506020810190505b662386f26fc100008310612ffb57662386f26fc100008381612ff157612ff0614897565b5b0492506010810190505b6305f5e1008310613024576305f5e100838161301a57613019614897565b5b0492506008810190505b612710831061304957612710838161303f5761303e614897565b5b0492506004810190505b6064831061306c576064838161306257613061614897565b5b0492506002810190505b600a831061307b576001810190505b80915050919050565b5f7f01ffc9a7000000000000000000000000000000000000000000000000000000007bffffffffffffffffffffffffffffffffffffffffffffffffffffffff1916827bffffffffffffffffffffffffffffffffffffffffffffffffffffffff1916149050919050565b5f8073ffffffffffffffffffffffffffffffffffffffff168373ffffffffffffffffffffffffffffffffffffffff16141580156131a457508273ffffffffffffffffffffffffffffffffffffffff168473ffffffffffffffffffffffffffffffffffffffff16148061316557506131648484611e6a565b5b806131a357508273ffffffffffffffffffffffffffffffffffffffff1661318b83612124565b73ffffffffffffffffffffffffffffffffffffffff16145b5b90509392505050565b5f73ffffffffffffffffffffffffffffffffffffffff168273ffffffffffffffffffffffffffffffffffffffff160361321d575f6040517f64a0ae9200000000000000000000000000000000000000000000000000000000815260040161321491906134ef565b60405180910390fd5b5f61322983835f6121b6565b90505f73ffffffffffffffffffffffffffffffffffffffff168173ffffffffffffffffffffffffffffffffffffffff161461329b575f6040517f73c6ac6e00000000000000000000000000000000000000000000000000000000815260040161329291906134ef565b60405180910390fd5b505050565b6040518060c001604052805f8152602001606081526020015f73ffffffffffffffffffffffffffffffffffffffff1681526020015f8152602001606081526020015f73ffffffffffffffffffffffffffffffffffffffff1681525090565b5f604051905090565b5f80fd5b5f80fd5b5f7fffffffff0000000000000000000000000000000000000000000000000000000082169050919050565b6133438161330f565b811461334d575f80fd5b50565b5f8135905061335e8161333a565b92915050565b5f6020828403121561337957613378613307565b5b5f61338684828501613350565b91505092915050565b5f8115159050919050565b6133a38161338f565b82525050565b5f6020820190506133bc5f83018461339a565b92915050565b5f81519050919050565b5f82825260208201905092915050565b8281835e5f83830152505050565b5f601f19601f8301169050919050565b5f613404826133c2565b61340e81856133cc565b935061341e8185602086016133dc565b613427816133ea565b840191505092915050565b5f6020820190508181035f83015261344a81846133fa565b905092915050565b5f819050919050565b61346481613452565b811461346e575f80fd5b50565b5f8135905061347f8161345b565b92915050565b5f6020828403121561349a57613499613307565b5b5f6134a784828501613471565b91505092915050565b5f73ffffffffffffffffffffffffffffffffffffffff82169050919050565b5f6134d9826134b0565b9050919050565b6134e9816134cf565b82525050565b5f6020820190506135025f8301846134e0565b92915050565b613511816134cf565b811461351b575f80fd5b50565b5f8135905061352c81613508565b92915050565b5f806040838503121561354857613547613307565b5b5f6135558582860161351e565b925050602061356685828601613471565b9150509250929050565b5f80fd5b5f80fd5b5f80fd5b5f8083601f84011261359157613590613570565b5b8235905067ffffffffffffffff8111156135ae576135ad613574565b5b6020830191508360018202830111156135ca576135c9613578565b5b9250929050565b5f805f805f608086880312156135ea576135e9613307565b5b5f6135f78882890161351e565b95505060206136088882890161351e565b945050604061361988828901613471565b935050606086013567ffffffffffffffff81111561363a5761363961330b565b5b6136468882890161357c565b92509250509295509295909350565b61365e8161330f565b82525050565b5f6020820190506136775f830184613655565b92915050565b5f805f6060848603121561369457613693613307565b5b5f6136a186828701613471565b93505060206136b28682870161351e565b92505060406136c386828701613471565b9150509250925092565b5f805f606084860312156136e4576136e3613307565b5b5f6136f18682870161351e565b93505060206137028682870161351e565b925050604061371386828701613471565b9150509250925092565b5f819050919050565b61372f8161371d565b8114613739575f80fd5b50565b5f8135905061374a81613726565b92915050565b5f6020828403121561376557613764613307565b5b5f6137728482850161373c565b91505092915050565b6137848161371d565b82525050565b5f60208201905061379d5f83018461377b565b92915050565b5f602082840312156137b8576137b7613307565b5b5f6137c58482850161351e565b91505092915050565b5f80604083850312156137e4576137e3613307565b5b5f6137f18582860161373c565b92505060206138028582860161351e565b9150509250929050565b5f80fd5b7f4e487b71000000000000000000000000000000000000000000000000000000005f52604160045260245ffd5b613846826133ea565b810181811067ffffffffffffffff8211171561386557613864613810565b5b80604052505050565b5f6138776132fe565b9050613883828261383d565b919050565b5f67ffffffffffffffff8211156138a2576138a1613810565b5b6138ab826133ea565b9050602081019050919050565b828183375f83830152505050565b5f6138d86138d384613888565b61386e565b9050828152602081018484840111156138f4576138f361380c565b5b6138ff8482856138b8565b509392505050565b5f82601f83011261391b5761391a613570565b5b813561392b8482602086016138c6565b91505092915050565b5f806040838503121561394a57613949613307565b5b5f61395785828601613471565b925050602083013567ffffffffffffffff8111156139785761397761330b565b5b61398485828601613907565b9150509250929050565b5f805f80608085870312156139a6576139a5613307565b5b5f85013567ffffffffffffffff8111156139c3576139c261330b565b5b6139cf87828801613907565b94505060206139e08782880161351e565b93505060406139f187828801613471565b925050606085013567ffffffffffffffff811115613a1257613a1161330b565b5b613a1e87828801613907565b91505092959194509250565b613a3381613452565b82525050565b5f602082019050613a4c5f830184613a2a565b92915050565b5f8060408385031215613a6857613a67613307565b5b5f613a7585828601613471565b9250506020613a8685828601613471565b9150509250929050565b7f4e487b71000000000000000000000000000000000000000000000000000000005f52602160045260245ffd5b60038110613ace57613acd613a90565b5b50565b5f819050613ade82613abd565b919050565b5f613aed82613ad1565b9050919050565b613afd81613ae3565b82525050565b5f606082019050613b165f8301866134e0565b613b236020830185613a2a565b613b306040830184613af4565b949350505050565b613b4181613452565b82525050565b5f82825260208201905092915050565b5f613b61826133c2565b613b6b8185613b47565b9350613b7b8185602086016133dc565b613b84816133ea565b840191505092915050565b613b98816134cf565b82525050565b5f60c083015f830151613bb35f860182613b38565b5060208301518482036020860152613bcb8282613b57565b9150506040830151613be06040860182613b8f565b506060830151613bf36060860182613b38565b5060808301518482036080860152613c0b8282613b57565b91505060a0830151613c2060a0860182613b8f565b508091505092915050565b5f6020820190508181035f830152613c438184613b9e565b905092915050565b613c548161338f565b8114613c5e575f80fd5b50565b5f81359050613c6f81613c4b565b92915050565b5f8060408385031215613c8b57613c8a613307565b5b5f613c988582860161351e565b9250506020613ca985828601613c61565b9150509250929050565b5f81519050919050565b5f82825260208201905092915050565b5f819050602082019050919050565b613ce581613ae3565b82525050565b606082015f820151613cff5f850182613b8f565b506020820151613d126020850182613b38565b506040820151613d256040850182613cdc565b50505050565b5f613d368383613ceb565b60608301905092915050565b5f602082019050919050565b5f613d5882613cb3565b613d628185613cbd565b9350613d6d83613ccd565b805f5b83811015613d9d578151613d848882613d2b565b9750613d8f83613d42565b925050600181019050613d70565b5085935050505092915050565b5f6020820190508181035f830152613dc28184613d4e565b905092915050565b5f67ffffffffffffffff821115613de457613de3613810565b5b613ded826133ea565b9050602081019050919050565b5f613e0c613e0784613dca565b61386e565b905082815260208101848484011115613e2857613e2761380c565b5b613e338482856138b8565b509392505050565b5f82601f830112613e4f57613e4e613570565b5b8135613e5f848260208601613dfa565b91505092915050565b5f805f8060808587031215613e8057613e7f613307565b5b5f613e8d8782880161351e565b9450506020613e9e8782880161351e565b9350506040613eaf87828801613471565b925050606085013567ffffffffffffffff811115613ed057613ecf61330b565b5b613edc87828801613e3b565b91505092959194509250565b5f60c082019050613efb5f830189613a2a565b8181036020830152613f0d81886133fa565b9050613f1c60408301876134e0565b613f296060830186613a2a565b8181036080830152613f3b81856133fa565b9050613f4a60a08301846134e0565b979650505050505050565b5f8060408385031215613f6b57613f6a613307565b5b5f613f788582860161351e565b9250506020613f898582860161351e565b9150509250929050565b5f81519050919050565b5f82825260208201905092915050565b5f819050602082019050919050565b5f613fc78383613b57565b905092915050565b5f602082019050919050565b5f613fe582613f93565b613fef8185613f9d565b93508360208202850161400185613fad565b805f5b8581101561403c578484038952815161401d8582613fbc565b945061402883613fcf565b925060208a01995050600181019050614004565b50829750879550505050505092915050565b5f6020820190508181035f8301526140668184613fdb565b905092915050565b7f4e487b71000000000000000000000000000000000000000000000000000000005f52602260045260245ffd5b5f60028204905060018216806140b257607f821691505b6020821081036140c5576140c461406e565b5b50919050565b7f43616c6c6572206973206e6f7420616e20617574686f726974790000000000005f82015250565b5f6140ff601a836133cc565b915061410a826140cb565b602082019050919050565b5f6020820190508181035f83015261412c816140f3565b9050919050565b7f55415620746f6b656e20646f6573206e6f7420657869737400000000000000005f82015250565b5f6141676018836133cc565b915061417282614133565b602082019050919050565b5f6020820190508181035f8301526141948161415b565b9050919050565b5f815190506141a981613508565b92915050565b5f602082840312156141c4576141c3613307565b5b5f6141d18482850161419b565b91505092915050565b7f43616c6c6572206973206e6f7420746865206f776e6572206f662074686520435f8201527f657274696669636174654e465400000000000000000000000000000000000000602082015250565b5f614234602d836133cc565b915061423f826141da565b604082019050919050565b5f6020820190508181035f83015261426181614228565b9050919050565b60038110614274575f80fd5b50565b5f8151905061428581614268565b92915050565b5f602082840312156142a05761429f613307565b5b5f6142ad84828501614277565b91505092915050565b5f6060820190506142c95f8301866134e0565b6142d660208301856134e0565b6142e36040830184613a2a565b949350505050565b5f6040820190506142fe5f8301856134e0565b61430b6020830184613a2a565b9392505050565b5f6060820190506143255f8301866134e0565b6143326020830185613a2a565b61433f60408301846134e0565b949350505050565b7f43616c6c6572206973206e6f742061646d696e000000000000000000000000005f82015250565b5f61437b6013836133cc565b915061438682614347565b602082019050919050565b5f6020820190508181035f8301526143a88161436f565b9050919050565b7f43616c6c6572206973206e6f7420746865206f776e65720000000000000000005f82015250565b5f6143e36017836133cc565b91506143ee826143af565b602082019050919050565b5f6020820190508181035f830152614410816143d7565b9050919050565b5f819050815f5260205f209050919050565b5f6020601f8301049050919050565b5f82821b905092915050565b5f600883026144737fffffffffffffffffffffffffffffffffffffffffffffffffffffffffffffffff82614438565b61447d8683614438565b95508019841693508086168417925050509392505050565b5f819050919050565b5f6144b86144b36144ae84613452565b614495565b613452565b9050919050565b5f819050919050565b6144d18361449e565b6144e56144dd826144bf565b848454614444565b825550505050565b5f90565b6144f96144ed565b6145048184846144c8565b505050565b5b818110156145275761451c5f826144f1565b60018101905061450a565b5050565b601f82111561456c5761453d81614417565b61454684614429565b81016020851015614555578190505b61456961456185614429565b830182614509565b50505b505050565b5f82821c905092915050565b5f61458c5f1984600802614571565b1980831691505092915050565b5f6145a4838361457d565b9150826002028217905092915050565b6145bd826133c2565b67ffffffffffffffff8111156145d6576145d5613810565b5b6145e0825461409b565b6145eb82828561452b565b5f60209050601f83116001811461461c575f841561460a578287015190505b6146148582614599565b86555061467b565b601f19841661462a86614417565b5f5b828110156146515784890151825560018201915060208501945060208101905061462c565b8683101561466e578489015161466a601f89168261457d565b8355505b6001600288020188555050505b505050505050565b7f43616c6c6572206973206e6f742061206d616e756661637475726572000000005f82015250565b5f6146b7601c836133cc565b91506146c282614683565b602082019050919050565b5f6020820190508181035f8301526146e4816146ab565b9050919050565b7f4e487b71000000000000000000000000000000000000000000000000000000005f52601160045260245ffd5b5f61472282613452565b91507fffffffffffffffffffffffffffffffffffffffffffffffffffffffffffffffff8203614754576147536146eb565b5b600182019050919050565b5f81905092915050565b5f614773826133c2565b61477d818561475f565b935061478d8185602086016133dc565b80840191505092915050565b5f6147a48285614769565b91506147b08284614769565b91508190509392505050565b5f81519050919050565b5f82825260208201905092915050565b5f6147e0826147bc565b6147ea81856147c6565b93506147fa8185602086016133dc565b614803816133ea565b840191505092915050565b5f6080820190506148215f8301876134e0565b61482e60208301866134e0565b61483b6040830185613a2a565b818103606083015261484d81846147d6565b905095945050505050565b5f815190506148668161333a565b92915050565b5f6020828403121561488157614880613307565b5b5f61488e84828501614858565b91505092915050565b7f4e487b71000000000000000000000000000000000000000000000000000000005f52601260045260245ffd5b5f6040820190506148d75f8301856134e0565b6148e4602083018461377b565b939250505056fea264697066735822122059a7dbf52830281a15749333c43b1f0e284494ca62fb19de69ca449487d0741764736f6c634300081a0033",
			"opcodes": "PUSH1 0x80 PUSH1 0x40 MSTORE CALLVALUE DUP1 ISZERO PUSH2 0xF JUMPI PUSH0 DUP1 REVERT JUMPDEST POP PUSH1 0x40 MLOAD DUP1 PUSH1 0x40 ADD PUSH1 0x40 MSTORE DUP1 PUSH1 0xB DUP2 MSTORE PUSH1 0x20 ADD PUSH32 0x55415650617373706F7274000000000000000000000000000000000000000000 DUP2 MSTORE POP PUSH1 0x40 MLOAD DUP1 PUSH1 0x40 ADD PUSH1 0x40 MSTORE DUP1 PUSH1 0x4 DUP2 MSTORE PUSH1 0x20 ADD PUSH32 0x5541565000000000000000000000000000000000000000000000000000000000 DUP2 MSTORE POP DUP2 PUSH0 SWAP1 DUP2 PUSH2 0x8A SWAP2 SWAP1 PUSH2 0x457 JUMP JUMPDEST POP DUP1 PUSH1 0x1 SWAP1 DUP2 PUSH2 0x9A SWAP2 SWAP1 PUSH2 0x457 JUMP JUMPDEST POP POP POP PUSH0 PUSH1 0x7 DUP2 SWAP1 SSTORE POP PUSH2 0xB6 PUSH0 DUP1 SHL CALLER PUSH2 0xBC PUSH1 0x20 SHL PUSH1 0x20 SHR JUMP JUMPDEST POP PUSH2 0x526 JUMP JUMPDEST PUSH0 PUSH2 0xCD DUP4 DUP4 PUSH2 0x1B2 PUSH1 0x20 SHL PUSH1 0x20 SHR JUMP JUMPDEST PUSH2 0x1A8 JUMPI PUSH1 0x1 PUSH1 0x6 PUSH0 DUP6 DUP2 MSTORE PUSH1 0x20 ADD SWAP1 DUP2 MSTORE PUSH1 0x20 ADD PUSH0 KECCAK256 PUSH0 ADD PUSH0 DUP5 PUSH20 0xFFFFFFFFFFFFFFFFFFFFFFFFFFFFFFFFFFFFFFFF AND PUSH20 0xFFFFFFFFFFFFFFFFFFFFFFFFFFFFFFFFFFFFFFFF AND DUP2 MSTORE PUSH1 0x20 ADD SWAP1 DUP2 MSTORE PUSH1 0x20 ADD PUSH0 KECCAK256 PUSH0 PUSH2 0x100 EXP DUP2 SLOAD DUP2 PUSH1 0xFF MUL NOT AND SWAP1 DUP4 ISZERO ISZERO MUL OR SWAP1 SSTORE POP PUSH2 0x145 PUSH2 0x216 PUSH1 0x20 SHL PUSH1 0x20 SHR JUMP JUMPDEST PUSH20 0xFFFFFFFFFFFFFFFFFFFFFFFFFFFFFFFFFFFFFFFF AND DUP3 PUSH20 0xFFFFFFFFFFFFFFFFFFFFFFFFFFFFFFFFFFFFFFFF AND DUP5 PUSH32 0x2F8788117E7EFF1D82E926EC794901D17C78024A50270940304540A733656F0D PUSH1 0x40 MLOAD PUSH1 0x40 MLOAD DUP1 SWAP2 SUB SWAP1 LOG4 PUSH1 0x1 SWAP1 POP PUSH2 0x1AC JUMP JUMPDEST PUSH0 SWAP1 POP JUMPDEST SWAP3 SWAP2 POP POP JUMP JUMPDEST PUSH0 PUSH1 0x6 PUSH0 DUP5 DUP2 MSTORE PUSH1 0x20 ADD SWAP1 DUP2 MSTORE PUSH1 0x20 ADD PUSH0 KECCAK256 PUSH0 ADD PUSH0 DUP4 PUSH20 0xFFFFFFFFFFFFFFFFFFFFFFFFFFFFFFFFFFFFFFFF AND PUSH20 0xFFFFFFFFFFFFFFFFFFFFFFFFFFFFFFFFFFFFFFFF AND DUP2 MSTORE PUSH1 0x20 ADD SWAP1 DUP2 MSTORE PUSH1 0x20 ADD PUSH0 KECCAK256 PUSH0 SWAP1 SLOAD SWAP1 PUSH2 0x100 EXP SWAP1 DIV PUSH1 0xFF AND SWAP1 POP SWAP3 SWAP2 POP POP JUMP JUMPDEST PUSH0 CALLER SWAP1 POP SWAP1 JUMP JUMPDEST PUSH0 DUP2 MLOAD SWAP1 POP SWAP2 SWAP1 POP JUMP JUMPDEST PUSH32 0x4E487B7100000000000000000000000000000000000000000000000000000000 PUSH0 MSTORE PUSH1 0x41 PUSH1 0x4 MSTORE PUSH1 0x24 PUSH0 REVERT JUMPDEST PUSH32 0x4E487B7100000000000000000000000000000000000000000000000000000000 PUSH0 MSTORE PUSH1 0x22 PUSH1 0x4 MSTORE PUSH1 0x24 PUSH0 REVERT JUMPDEST PUSH0 PUSH1 0x2 DUP3 DIV SWAP1 POP PUSH1 0x1 DUP3 AND DUP1 PUSH2 0x298 JUMPI PUSH1 0x7F DUP3 AND SWAP2 POP JUMPDEST PUSH1 0x20 DUP3 LT DUP2 SUB PUSH2 0x2AB JUMPI PUSH2 0x2AA PUSH2 0x254 JUMP JUMPDEST JUMPDEST POP SWAP2 SWAP1 POP JUMP JUMPDEST PUSH0 DUP2 SWAP1 POP DUP2 PUSH0 MSTORE PUSH1 0x20 PUSH0 KECCAK256 SWAP1 POP SWAP2 SWAP1 POP JUMP JUMPDEST PUSH0 PUSH1 0x20 PUSH1 0x1F DUP4 ADD DIV SWAP1 POP SWAP2 SWAP1 POP JUMP JUMPDEST PUSH0 DUP3 DUP3 SHL SWAP1 POP SWAP3 SWAP2 POP POP JUMP JUMPDEST PUSH0 PUSH1 0x8 DUP4 MUL PUSH2 0x30D PUSH32 0xFFFFFFFFFFFFFFFFFFFFFFFFFFFFFFFFFFFFFFFFFFFFFFFFFFFFFFFFFFFFFFFF DUP3 PUSH2 0x2D2 JUMP JUMPDEST PUSH2 0x317 DUP7 DUP4 PUSH2 0x2D2 JUMP JUMPDEST SWAP6 POP DUP1 NOT DUP5 AND SWAP4 POP DUP1 DUP7 AND DUP5 OR SWAP3 POP POP POP SWAP4 SWAP3 POP POP POP JUMP JUMPDEST PUSH0 DUP2 SWAP1 POP SWAP2 SWAP1 POP JUMP JUMPDEST PUSH0 DUP2 SWAP1 POP SWAP2 SWAP1 POP JUMP JUMPDEST PUSH0 PUSH2 0x35B PUSH2 0x356 PUSH2 0x351 DUP5 PUSH2 0x32F JUMP JUMPDEST PUSH2 0x338 JUMP JUMPDEST PUSH2 0x32F JUMP JUMPDEST SWAP1 POP SWAP2 SWAP1 POP JUMP JUMPDEST PUSH0 DUP2 SWAP1 POP SWAP2 SWAP1 POP JUMP JUMPDEST PUSH2 0x374 DUP4 PUSH2 0x341 JUMP JUMPDEST PUSH2 0x388 PUSH2 0x380 DUP3 PUSH2 0x362 JUMP JUMPDEST DUP5 DUP5 SLOAD PUSH2 0x2DE JUMP JUMPDEST DUP3 SSTORE POP POP POP POP JUMP JUMPDEST PUSH0 SWAP1 JUMP JUMPDEST PUSH2 0x39C PUSH2 0x390 JUMP JUMPDEST PUSH2 0x3A7 DUP2 DUP5 DUP5 PUSH2 0x36B JUMP JUMPDEST POP POP POP JUMP JUMPDEST JUMPDEST DUP2 DUP2 LT ISZERO PUSH2 0x3CA JUMPI PUSH2 0x3BF PUSH0 DUP3 PUSH2 0x394 JUMP JUMPDEST PUSH1 0x1 DUP2 ADD SWAP1 POP PUSH2 0x3AD JUMP JUMPDEST POP POP JUMP JUMPDEST PUSH1 0x1F DUP3 GT ISZERO PUSH2 0x40F JUMPI PUSH2 0x3E0 DUP2 PUSH2 0x2B1 JUMP JUMPDEST PUSH2 0x3E9 DUP5 PUSH2 0x2C3 JUMP JUMPDEST DUP2 ADD PUSH1 0x20 DUP6 LT ISZERO PUSH2 0x3F8 JUMPI DUP2 SWAP1 POP JUMPDEST PUSH2 0x40C PUSH2 0x404 DUP6 PUSH2 0x2C3 JUMP JUMPDEST DUP4 ADD DUP3 PUSH2 0x3AC JUMP JUMPDEST POP POP JUMPDEST POP POP POP JUMP JUMPDEST PUSH0 DUP3 DUP3 SHR SWAP1 POP SWAP3 SWAP2 POP POP JUMP JUMPDEST PUSH0 PUSH2 0x42F PUSH0 NOT DUP5 PUSH1 0x8 MUL PUSH2 0x414 JUMP JUMPDEST NOT DUP1 DUP4 AND SWAP2 POP POP SWAP3 SWAP2 POP POP JUMP JUMPDEST PUSH0 PUSH2 0x447 DUP4 DUP4 PUSH2 0x420 JUMP JUMPDEST SWAP2 POP DUP3 PUSH1 0x2 MUL DUP3 OR SWAP1 POP SWAP3 SWAP2 POP POP JUMP JUMPDEST PUSH2 0x460 DUP3 PUSH2 0x21D JUMP JUMPDEST PUSH8 0xFFFFFFFFFFFFFFFF DUP2 GT ISZERO PUSH2 0x479 JUMPI PUSH2 0x478 PUSH2 0x227 JUMP JUMPDEST JUMPDEST PUSH2 0x483 DUP3 SLOAD PUSH2 0x281 JUMP JUMPDEST PUSH2 0x48E DUP3 DUP3 DUP6 PUSH2 0x3CE JUMP JUMPDEST PUSH0 PUSH1 0x20 SWAP1 POP PUSH1 0x1F DUP4 GT PUSH1 0x1 DUP2 EQ PUSH2 0x4BF JUMPI PUSH0 DUP5 ISZERO PUSH2 0x4AD JUMPI DUP3 DUP8 ADD MLOAD SWAP1 POP JUMPDEST PUSH2 0x4B7 DUP6 DUP3 PUSH2 0x43C JUMP JUMPDEST DUP7 SSTORE POP PUSH2 0x51E JUMP JUMPDEST PUSH1 0x1F NOT DUP5 AND PUSH2 0x4CD DUP7 PUSH2 0x2B1 JUMP JUMPDEST PUSH0 JUMPDEST DUP3 DUP2 LT ISZERO PUSH2 0x4F4 JUMPI DUP5 DUP10 ADD MLOAD DUP3 SSTORE PUSH1 0x1 DUP3 ADD SWAP2 POP PUSH1 0x20 DUP6 ADD SWAP5 POP PUSH1 0x20 DUP2 ADD SWAP1 POP PUSH2 0x4CF JUMP JUMPDEST DUP7 DUP4 LT ISZERO PUSH2 0x511 JUMPI DUP5 DUP10 ADD MLOAD PUSH2 0x50D PUSH1 0x1F DUP10 AND DUP3 PUSH2 0x420 JUMP JUMPDEST DUP4 SSTORE POP JUMPDEST PUSH1 0x1 PUSH1 0x2 DUP9 MUL ADD DUP9 SSTORE POP POP POP JUMPDEST POP POP POP POP POP POP JUMP JUMPDEST PUSH2 0x4921 DUP1 PUSH2 0x533 PUSH0 CODECOPY PUSH0 RETURN INVALID PUSH1 0x80 PUSH1 0x40 MSTORE CALLVALUE DUP1 ISZERO PUSH2 0xF JUMPI PUSH0 DUP1 REVERT JUMPDEST POP PUSH1 0x4 CALLDATASIZE LT PUSH2 0x225 JUMPI PUSH0 CALLDATALOAD PUSH1 0xE0 SHR DUP1 PUSH4 0x73E94CE0 GT PUSH2 0x12E JUMPI DUP1 PUSH4 0xB88D4FDE GT PUSH2 0xB6 JUMPI DUP1 PUSH4 0xD3929D41 GT PUSH2 0x7A JUMPI DUP1 PUSH4 0xD3929D41 EQ PUSH2 0x6C0 JUMPI DUP1 PUSH4 0xD547741F EQ PUSH2 0x6DC JUMPI DUP1 PUSH4 0xDD57A349 EQ PUSH2 0x6F8 JUMPI DUP1 PUSH4 0xE985E9C5 EQ PUSH2 0x714 JUMPI DUP1 PUSH4 0xFA245BE3 EQ PUSH2 0x744 JUMPI PUSH2 0x225 JUMP JUMPDEST DUP1 PUSH4 0xB88D4FDE EQ PUSH2 0x5F1 JUMPI DUP1 PUSH4 0xC1780B01 EQ PUSH2 0x60D JUMPI DUP1 PUSH4 0xC6F6CAF6 EQ PUSH2 0x642 JUMPI DUP1 PUSH4 0xC87B56DD EQ PUSH2 0x672 JUMPI DUP1 PUSH4 0xD082E381 EQ PUSH2 0x6A2 JUMPI PUSH2 0x225 JUMP JUMPDEST DUP1 PUSH4 0x95D89B41 GT PUSH2 0xFD JUMPI DUP1 PUSH4 0x95D89B41 EQ PUSH2 0x54B JUMPI DUP1 PUSH4 0x965288B0 EQ PUSH2 0x569 JUMPI DUP1 PUSH4 0xA217FDDF EQ PUSH2 0x587 JUMPI DUP1 PUSH4 0xA22CB465 EQ PUSH2 0x5A5 JUMPI DUP1 PUSH4 0xB1295C58 EQ PUSH2 0x5C1 JUMPI PUSH2 0x225 JUMP JUMPDEST DUP1 PUSH4 0x73E94CE0 EQ PUSH2 0x49D JUMPI DUP1 PUSH4 0x79757F59 EQ PUSH2 0x4CF JUMPI DUP1 PUSH4 0x8628D7CE EQ PUSH2 0x4FF JUMPI DUP1 PUSH4 0x91D14854 EQ PUSH2 0x51B JUMPI PUSH2 0x225 JUMP JUMPDEST DUP1 PUSH4 0x2F2FF15D GT PUSH2 0x1B1 JUMPI DUP1 PUSH4 0x53C8388E GT PUSH2 0x180 JUMPI DUP1 PUSH4 0x53C8388E EQ PUSH2 0x3E9 JUMPI DUP1 PUSH4 0x5F283686 EQ PUSH2 0x405 JUMPI DUP1 PUSH4 0x5F8A5AFA EQ PUSH2 0x421 JUMPI DUP1 PUSH4 0x6352211E EQ PUSH2 0x43D JUMPI DUP1 PUSH4 0x70A08231 EQ PUSH2 0x46D JUMPI PUSH2 0x225 JUMP JUMPDEST DUP1 PUSH4 0x2F2FF15D EQ PUSH2 0x377 JUMPI DUP1 PUSH4 0x36568ABE EQ PUSH2 0x393 JUMPI DUP1 PUSH4 0x42842E0E EQ PUSH2 0x3AF JUMPI DUP1 PUSH4 0x4A3FBA0E EQ PUSH2 0x3CB JUMPI PUSH2 0x225 JUMP JUMPDEST DUP1 PUSH4 0x150B7A02 GT PUSH2 0x1F8 JUMPI DUP1 PUSH4 0x150B7A02 EQ PUSH2 0x2C3 JUMPI DUP1 PUSH4 0x238BE283 EQ PUSH2 0x2F3 JUMPI DUP1 PUSH4 0x23B872DD EQ PUSH2 0x30F JUMPI DUP1 PUSH4 0x248A9CA3 EQ PUSH2 0x32B JUMPI DUP1 PUSH4 0x26DEFA73 EQ PUSH2 0x35B JUMPI PUSH2 0x225 JUMP JUMPDEST DUP1 PUSH4 0x1FFC9A7 EQ PUSH2 0x229 JUMPI DUP1 PUSH4 0x6FDDE03 EQ PUSH2 0x259 JUMPI DUP1 PUSH4 0x81812FC EQ PUSH2 0x277 JUMPI DUP1 PUSH4 0x95EA7B3 EQ PUSH2 0x2A7 JUMPI JUMPDEST PUSH0 DUP1 REVERT JUMPDEST PUSH2 0x243 PUSH1 0x4 DUP1 CALLDATASIZE SUB DUP2 ADD SWAP1 PUSH2 0x23E SWAP2 SWAP1 PUSH2 0x3364 JUMP JUMPDEST PUSH2 0x774 JUMP JUMPDEST PUSH1 0x40 MLOAD PUSH2 0x250 SWAP2 SWAP1 PUSH2 0x33A9 JUMP JUMPDEST PUSH1 0x40 MLOAD DUP1 SWAP2 SUB SWAP1 RETURN JUMPDEST PUSH2 0x261 PUSH2 0x785 JUMP JUMPDEST PUSH1 0x40 MLOAD PUSH2 0x26E SWAP2 SWAP1 PUSH2 0x3432 JUMP JUMPDEST PUSH1 0x40 MLOAD DUP1 SWAP2 SUB SWAP1 RETURN JUMPDEST PUSH2 0x291 PUSH1 0x4 DUP1 CALLDATASIZE SUB DUP2 ADD SWAP1 PUSH2 0x28C SWAP2 SWAP1 PUSH2 0x3485 JUMP JUMPDEST PUSH2 0x814 JUMP JUMPDEST PUSH1 0x40 MLOAD PUSH2 0x29E SWAP2 SWAP1 PUSH2 0x34EF JUMP JUMPDEST PUSH1 0x40 MLOAD DUP1 SWAP2 SUB SWAP1 RETURN JUMPDEST PUSH2 0x2C1 PUSH1 0x4 DUP1 CALLDATASIZE SUB DUP2 ADD SWAP1 PUSH2 0x2BC SWAP2 SWAP1 PUSH2 0x3532 JUMP JUMPDEST PUSH2 0x82F JUMP JUMPDEST STOP JUMPDEST PUSH2 0x2DD PUSH1 0x4 DUP1 CALLDATASIZE SUB DUP2 ADD SWAP1 PUSH2 0x2D8 SWAP2 SWAP1 PUSH2 0x35D1 JUMP JUMPDEST PUSH2 0x845 JUMP JUMPDEST PUSH1 0x40 MLOAD PUSH2 0x2EA SWAP2 SWAP1 PUSH2 0x3664 JUMP JUMPDEST PUSH1 0x40 MLOAD DUP1 SWAP2 SUB SWAP1 RETURN JUMPDEST PUSH2 0x30D PUSH1 0x4 DUP1 CALLDATASIZE SUB DUP2 ADD SWAP1 PUSH2 0x308 SWAP2 SWAP1 PUSH2 0x367D JUMP JUMPDEST PUSH2 0x859 JUMP JUMPDEST STOP JUMPDEST PUSH2 0x329 PUSH1 0x4 DUP1 CALLDATASIZE SUB DUP2 ADD SWAP1 PUSH2 0x324 SWAP2 SWAP1 PUSH2 0x36CD JUMP JUMPDEST PUSH2 0xC25 JUMP JUMPDEST STOP JUMPDEST PUSH2 0x345 PUSH1 0x4 DUP1 CALLDATASIZE SUB DUP2 ADD SWAP1 PUSH2 0x340 SWAP2 SWAP1 PUSH2 0x3750 JUMP JUMPDEST PUSH2 0xD24 JUMP JUMPDEST PUSH1 0x40 MLOAD PUSH2 0x352 SWAP2 SWAP1 PUSH2 0x378A JUMP JUMPDEST PUSH1 0x40 MLOAD DUP1 SWAP2 SUB SWAP1 RETURN JUMPDEST PUSH2 0x375 PUSH1 0x4 DUP1 CALLDATASIZE SUB DUP2 ADD SWAP1 PUSH2 0x370 SWAP2 SWAP1 PUSH2 0x37A3 JUMP JUMPDEST PUSH2 0xD41 JUMP JUMPDEST STOP JUMPDEST PUSH2 0x391 PUSH1 0x4 DUP1 CALLDATASIZE SUB DUP2 ADD SWAP1 PUSH2 0x38C SWAP2 SWAP1 PUSH2 0x37CE JUMP JUMPDEST PUSH2 0xDB9 JUMP JUMPDEST STOP JUMPDEST PUSH2 0x3AD PUSH1 0x4 DUP1 CALLDATASIZE SUB DUP2 ADD SWAP1 PUSH2 0x3A8 SWAP2 SWAP1 PUSH2 0x37CE JUMP JUMPDEST PUSH2 0xDDB JUMP JUMPDEST STOP JUMPDEST PUSH2 0x3C9 PUSH1 0x4 DUP1 CALLDATASIZE SUB DUP2 ADD SWAP1 PUSH2 0x3C4 SWAP2 SWAP1 PUSH2 0x36CD JUMP JUMPDEST PUSH2 0xE56 JUMP JUMPDEST STOP JUMPDEST PUSH2 0x3D3 PUSH2 0xE75 JUMP JUMPDEST PUSH1 0x40 MLOAD PUSH2 0x3E0 SWAP2 SWAP1 PUSH2 0x378A JUMP JUMPDEST PUSH1 0x40 MLOAD DUP1 SWAP2 SUB SWAP1 RETURN JUMPDEST PUSH2 0x403 PUSH1 0x4 DUP1 CALLDATASIZE SUB DUP2 ADD SWAP1 PUSH2 0x3FE SWAP2 SWAP1 PUSH2 0x3934 JUMP JUMPDEST PUSH2 0xE99 JUMP JUMPDEST STOP JUMPDEST PUSH2 0x41F PUSH1 0x4 DUP1 CALLDATASIZE SUB DUP2 ADD SWAP1 PUSH2 0x41A SWAP2 SWAP1 PUSH2 0x398E JUMP JUMPDEST PUSH2 0xF72 JUMP JUMPDEST STOP JUMPDEST PUSH2 0x43B PUSH1 0x4 DUP1 CALLDATASIZE SUB DUP2 ADD SWAP1 PUSH2 0x436 SWAP2 SWAP1 PUSH2 0x37A3 JUMP JUMPDEST PUSH2 0x118F JUMP JUMPDEST STOP JUMPDEST PUSH2 0x457 PUSH1 0x4 DUP1 CALLDATASIZE SUB DUP2 ADD SWAP1 PUSH2 0x452 SWAP2 SWAP1 PUSH2 0x3485 JUMP JUMPDEST PUSH2 0x1207 JUMP JUMPDEST PUSH1 0x40 MLOAD PUSH2 0x464 SWAP2 SWAP1 PUSH2 0x34EF JUMP JUMPDEST PUSH1 0x40 MLOAD DUP1 SWAP2 SUB SWAP1 RETURN JUMPDEST PUSH2 0x487 PUSH1 0x4 DUP1 CALLDATASIZE SUB DUP2 ADD SWAP1 PUSH2 0x482 SWAP2 SWAP1 PUSH2 0x37A3 JUMP JUMPDEST PUSH2 0x1218 JUMP JUMPDEST PUSH1 0x40 MLOAD PUSH2 0x494 SWAP2 SWAP1 PUSH2 0x3A39 JUMP JUMPDEST PUSH1 0x40 MLOAD DUP1 SWAP2 SUB SWAP1 RETURN JUMPDEST PUSH2 0x4B7 PUSH1 0x4 DUP1 CALLDATASIZE SUB DUP2 ADD SWAP1 PUSH2 0x4B2 SWAP2 SWAP1 PUSH2 0x3A52 JUMP JUMPDEST PUSH2 0x12CE JUMP JUMPDEST PUSH1 0x40 MLOAD PUSH2 0x4C6 SWAP4 SWAP3 SWAP2 SWAP1 PUSH2 0x3B03 JUMP JUMPDEST PUSH1 0x40 MLOAD DUP1 SWAP2 SUB SWAP1 RETURN JUMPDEST PUSH2 0x4E9 PUSH1 0x4 DUP1 CALLDATASIZE SUB DUP2 ADD SWAP1 PUSH2 0x4E4 SWAP2 SWAP1 PUSH2 0x3485 JUMP JUMPDEST PUSH2 0x1339 JUMP JUMPDEST PUSH1 0x40 MLOAD PUSH2 0x4F6 SWAP2 SWAP1 PUSH2 0x3C2B JUMP JUMPDEST PUSH1 0x40 MLOAD DUP1 SWAP2 SUB SWAP1 RETURN JUMPDEST PUSH2 0x519 PUSH1 0x4 DUP1 CALLDATASIZE SUB DUP2 ADD SWAP1 PUSH2 0x514 SWAP2 SWAP1 PUSH2 0x3934 JUMP JUMPDEST PUSH2 0x1589 JUMP JUMPDEST STOP JUMPDEST PUSH2 0x535 PUSH1 0x4 DUP1 CALLDATASIZE SUB DUP2 ADD SWAP1 PUSH2 0x530 SWAP2 SWAP1 PUSH2 0x37CE JUMP JUMPDEST PUSH2 0x1676 JUMP JUMPDEST PUSH1 0x40 MLOAD PUSH2 0x542 SWAP2 SWAP1 PUSH2 0x33A9 JUMP JUMPDEST PUSH1 0x40 MLOAD DUP1 SWAP2 SUB SWAP1 RETURN JUMPDEST PUSH2 0x553 PUSH2 0x16DA JUMP JUMPDEST PUSH1 0x40 MLOAD PUSH2 0x560 SWAP2 SWAP1 PUSH2 0x3432 JUMP JUMPDEST PUSH1 0x40 MLOAD DUP1 SWAP2 SUB SWAP1 RETURN JUMPDEST PUSH2 0x571 PUSH2 0x176A JUMP JUMPDEST PUSH1 0x40 MLOAD PUSH2 0x57E SWAP2 SWAP1 PUSH2 0x378A JUMP JUMPDEST PUSH1 0x40 MLOAD DUP1 SWAP2 SUB SWAP1 RETURN JUMPDEST PUSH2 0x58F PUSH2 0x178E JUMP JUMPDEST PUSH1 0x40 MLOAD PUSH2 0x59C SWAP2 SWAP1 PUSH2 0x378A JUMP JUMPDEST PUSH1 0x40 MLOAD DUP1 SWAP2 SUB SWAP1 RETURN JUMPDEST PUSH2 0x5BF PUSH1 0x4 DUP1 CALLDATASIZE SUB DUP2 ADD SWAP1 PUSH2 0x5BA SWAP2 SWAP1 PUSH2 0x3C75 JUMP JUMPDEST PUSH2 0x1794 JUMP JUMPDEST STOP JUMPDEST PUSH2 0x5DB PUSH1 0x4 DUP1 CALLDATASIZE SUB DUP2 ADD SWAP1 PUSH2 0x5D6 SWAP2 SWAP1 PUSH2 0x3485 JUMP JUMPDEST PUSH2 0x17AA JUMP JUMPDEST PUSH1 0x40 MLOAD PUSH2 0x5E8 SWAP2 SWAP1 PUSH2 0x3DAA JUMP JUMPDEST PUSH1 0x40 MLOAD DUP1 SWAP2 SUB SWAP1 RETURN JUMPDEST PUSH2 0x60B PUSH1 0x4 DUP1 CALLDATASIZE SUB DUP2 ADD SWAP1 PUSH2 0x606 SWAP2 SWAP1 PUSH2 0x3E68 JUMP JUMPDEST PUSH2 0x18F7 JUMP JUMPDEST STOP JUMPDEST PUSH2 0x627 PUSH1 0x4 DUP1 CALLDATASIZE SUB DUP2 ADD SWAP1 PUSH2 0x622 SWAP2 SWAP1 PUSH2 0x3485 JUMP JUMPDEST PUSH2 0x191C JUMP JUMPDEST PUSH1 0x40 MLOAD PUSH2 0x639 SWAP7 SWAP6 SWAP5 SWAP4 SWAP3 SWAP2 SWAP1 PUSH2 0x3EE8 JUMP JUMPDEST PUSH1 0x40 MLOAD DUP1 SWAP2 SUB SWAP1 RETURN JUMPDEST PUSH2 0x65C PUSH1 0x4 DUP1 CALLDATASIZE SUB DUP2 ADD SWAP1 PUSH2 0x657 SWAP2 SWAP1 PUSH2 0x3A52 JUMP JUMPDEST PUSH2 0x1A9E JUMP JUMPDEST PUSH1 0x40 MLOAD PUSH2 0x669 SWAP2 SWAP1 PUSH2 0x3432 JUMP JUMPDEST PUSH1 0x40 MLOAD DUP1 SWAP2 SUB SWAP1 RETURN JUMPDEST PUSH2 0x68C PUSH1 0x4 DUP1 CALLDATASIZE SUB DUP2 ADD SWAP1 PUSH2 0x687 SWAP2 SWAP1 PUSH2 0x3485 JUMP JUMPDEST PUSH2 0x1B4F JUMP JUMPDEST PUSH1 0x40 MLOAD PUSH2 0x699 SWAP2 SWAP1 PUSH2 0x3432 JUMP JUMPDEST PUSH1 0x40 MLOAD DUP1 SWAP2 SUB SWAP1 RETURN JUMPDEST PUSH2 0x6AA PUSH2 0x1BB5 JUMP JUMPDEST PUSH1 0x40 MLOAD PUSH2 0x6B7 SWAP2 SWAP1 PUSH2 0x3A39 JUMP JUMPDEST PUSH1 0x40 MLOAD DUP1 SWAP2 SUB SWAP1 RETURN JUMPDEST PUSH2 0x6DA PUSH1 0x4 DUP1 CALLDATASIZE SUB DUP2 ADD SWAP1 PUSH2 0x6D5 SWAP2 SWAP1 PUSH2 0x3532 JUMP JUMPDEST PUSH2 0x1BBB JUMP JUMPDEST STOP JUMPDEST PUSH2 0x6F6 PUSH1 0x4 DUP1 CALLDATASIZE SUB DUP2 ADD SWAP1 PUSH2 0x6F1 SWAP2 SWAP1 PUSH2 0x37CE JUMP JUMPDEST PUSH2 0x1D1A JUMP JUMPDEST STOP JUMPDEST PUSH2 0x712 PUSH1 0x4 DUP1 CALLDATASIZE SUB DUP2 ADD SWAP1 PUSH2 0x70D SWAP2 SWAP1 PUSH2 0x3934 JUMP JUMPDEST PUSH2 0x1D3C JUMP JUMPDEST STOP JUMPDEST PUSH2 0x72E PUSH1 0x4 DUP1 CALLDATASIZE SUB DUP2 ADD SWAP1 PUSH2 0x729 SWAP2 SWAP1 PUSH2 0x3F55 JUMP JUMPDEST PUSH2 0x1E6A JUMP JUMPDEST PUSH1 0x40 MLOAD PUSH2 0x73B SWAP2 SWAP1 PUSH2 0x33A9 JUMP JUMPDEST PUSH1 0x40 MLOAD DUP1 SWAP2 SUB SWAP1 RETURN JUMPDEST PUSH2 0x75E PUSH1 0x4 DUP1 CALLDATASIZE SUB DUP2 ADD SWAP1 PUSH2 0x759 SWAP2 SWAP1 PUSH2 0x3485 JUMP JUMPDEST PUSH2 0x1EF8 JUMP JUMPDEST PUSH1 0x40 MLOAD PUSH2 0x76B SWAP2 SWAP1 PUSH2 0x404E JUMP JUMPDEST PUSH1 0x40 MLOAD DUP1 SWAP2 SUB SWAP1 RETURN JUMPDEST PUSH0 PUSH2 0x77E DUP3 PUSH2 0x2025 JUMP JUMPDEST SWAP1 POP SWAP2 SWAP1 POP JUMP JUMPDEST PUSH1 0x60 PUSH0 DUP1 SLOAD PUSH2 0x793 SWAP1 PUSH2 0x409B JUMP JUMPDEST DUP1 PUSH1 0x1F ADD PUSH1 0x20 DUP1 SWAP2 DIV MUL PUSH1 0x20 ADD PUSH1 0x40 MLOAD SWAP1 DUP2 ADD PUSH1 0x40 MSTORE DUP1 SWAP3 SWAP2 SWAP1 DUP2 DUP2 MSTORE PUSH1 0x20 ADD DUP3 DUP1 SLOAD PUSH2 0x7BF SWAP1 PUSH2 0x409B JUMP JUMPDEST DUP1 ISZERO PUSH2 0x80A JUMPI DUP1 PUSH1 0x1F LT PUSH2 0x7E1 JUMPI PUSH2 0x100 DUP1 DUP4 SLOAD DIV MUL DUP4 MSTORE SWAP2 PUSH1 0x20 ADD SWAP2 PUSH2 0x80A JUMP JUMPDEST DUP3 ADD SWAP2 SWAP1 PUSH0 MSTORE PUSH1 0x20 PUSH0 KECCAK256 SWAP1 JUMPDEST DUP2 SLOAD DUP2 MSTORE SWAP1 PUSH1 0x1 ADD SWAP1 PUSH1 0x20 ADD DUP1 DUP4 GT PUSH2 0x7ED JUMPI DUP3 SWAP1 SUB PUSH1 0x1F AND DUP3 ADD SWAP2 JUMPDEST POP POP POP POP POP SWAP1 POP SWAP1 JUMP JUMPDEST PUSH0 PUSH2 0x81E DUP3 PUSH2 0x209E JUMP JUMPDEST POP PUSH2 0x828 DUP3 PUSH2 0x2124 JUMP JUMPDEST SWAP1 POP SWAP2 SWAP1 POP JUMP JUMPDEST PUSH2 0x841 DUP3 DUP3 PUSH2 0x83C PUSH2 0x215D JUMP JUMPDEST PUSH2 0x2164 JUMP JUMPDEST POP POP JUMP JUMPDEST PUSH0 PUSH4 0x150B7A02 PUSH1 0xE0 SHL SWAP1 POP SWAP6 SWAP5 POP POP POP POP POP JUMP JUMPDEST PUSH2 0x883 PUSH32 0xD565E3FC066DF348A5CBC05A8D6323E00552838041CEA2D84CC59876BA37735D CALLER PUSH2 0x1676 JUMP JUMPDEST PUSH2 0x8C2 JUMPI PUSH1 0x40 MLOAD PUSH32 0x8C379A000000000000000000000000000000000000000000000000000000000 DUP2 MSTORE PUSH1 0x4 ADD PUSH2 0x8B9 SWAP1 PUSH2 0x4115 JUMP JUMPDEST PUSH1 0x40 MLOAD DUP1 SWAP2 SUB SWAP1 REVERT JUMPDEST PUSH2 0x8CB DUP4 PUSH2 0x2176 JUMP JUMPDEST PUSH2 0x90A JUMPI PUSH1 0x40 MLOAD PUSH32 0x8C379A000000000000000000000000000000000000000000000000000000000 DUP2 MSTORE PUSH1 0x4 ADD PUSH2 0x901 SWAP1 PUSH2 0x417D JUMP JUMPDEST PUSH1 0x40 MLOAD DUP1 SWAP2 SUB SWAP1 REVERT JUMPDEST PUSH0 DUP3 SWAP1 POP CALLER PUSH20 0xFFFFFFFFFFFFFFFFFFFFFFFFFFFFFFFFFFFFFFFF AND DUP2 PUSH20 0xFFFFFFFFFFFFFFFFFFFFFFFFFFFFFFFFFFFFFFFF AND PUSH4 0x6352211E DUP5 PUSH1 0x40 MLOAD DUP3 PUSH4 0xFFFFFFFF AND PUSH1 0xE0 SHL DUP2 MSTORE PUSH1 0x4 ADD PUSH2 0x95E SWAP2 SWAP1 PUSH2 0x3A39 JUMP JUMPDEST PUSH1 0x20 PUSH1 0x40 MLOAD DUP1 DUP4 SUB DUP2 DUP7 GAS STATICCALL ISZERO DUP1 ISZERO PUSH2 0x979 JUMPI RETURNDATASIZE PUSH0 DUP1 RETURNDATACOPY RETURNDATASIZE PUSH0 REVERT JUMPDEST POP POP POP POP PUSH1 0x40 MLOAD RETURNDATASIZE PUSH1 0x1F NOT PUSH1 0x1F DUP3 ADD AND DUP3 ADD DUP1 PUSH1 0x40 MSTORE POP DUP2 ADD SWAP1 PUSH2 0x99D SWAP2 SWAP1 PUSH2 0x41AF JUMP JUMPDEST PUSH20 0xFFFFFFFFFFFFFFFFFFFFFFFFFFFFFFFFFFFFFFFF AND EQ PUSH2 0x9F3 JUMPI PUSH1 0x40 MLOAD PUSH32 0x8C379A000000000000000000000000000000000000000000000000000000000 DUP2 MSTORE PUSH1 0x4 ADD PUSH2 0x9EA SWAP1 PUSH2 0x424A JUMP JUMPDEST PUSH1 0x40 MLOAD DUP1 SWAP2 SUB SWAP1 REVERT JUMPDEST PUSH0 DUP2 PUSH20 0xFFFFFFFFFFFFFFFFFFFFFFFFFFFFFFFFFFFFFFFF AND PUSH4 0xDFF2293A DUP5 PUSH1 0x40 MLOAD DUP3 PUSH4 0xFFFFFFFF AND PUSH1 0xE0 SHL DUP2 MSTORE PUSH1 0x4 ADD PUSH2 0xA2D SWAP2 SWAP1 PUSH2 0x3A39 JUMP JUMPDEST PUSH1 0x20 PUSH1 0x40 MLOAD DUP1 DUP4 SUB DUP2 DUP7 GAS STATICCALL ISZERO DUP1 ISZERO PUSH2 0xA48 JUMPI RETURNDATASIZE PUSH0 DUP1 RETURNDATACOPY RETURNDATASIZE PUSH0 REVERT JUMPDEST POP POP POP POP PUSH1 0x40 MLOAD RETURNDATASIZE PUSH1 0x1F NOT PUSH1 0x1F DUP3 ADD AND DUP3 ADD DUP1 PUSH1 0x40 MSTORE POP DUP2 ADD SWAP1 PUSH2 0xA6C SWAP2 SWAP1 PUSH2 0x428B JUMP JUMPDEST SWAP1 POP DUP2 PUSH20 0xFFFFFFFFFFFFFFFFFFFFFFFFFFFFFFFFFFFFFFFF AND PUSH4 0x42842E0E CALLER ADDRESS DUP7 PUSH1 0x40 MLOAD DUP5 PUSH4 0xFFFFFFFF AND PUSH1 0xE0 SHL DUP2 MSTORE PUSH1 0x4 ADD PUSH2 0xAAB SWAP4 SWAP3 SWAP2 SWAP1 PUSH2 0x42B6 JUMP JUMPDEST PUSH0 PUSH1 0x40 MLOAD DUP1 DUP4 SUB DUP2 PUSH0 DUP8 DUP1 EXTCODESIZE ISZERO DUP1 ISZERO PUSH2 0xAC2 JUMPI PUSH0 DUP1 REVERT JUMPDEST POP GAS CALL ISZERO DUP1 ISZERO PUSH2 0xAD4 JUMPI RETURNDATASIZE PUSH0 DUP1 RETURNDATACOPY RETURNDATASIZE PUSH0 REVERT JUMPDEST POP POP POP POP PUSH1 0x9 PUSH0 DUP7 DUP2 MSTORE PUSH1 0x20 ADD SWAP1 DUP2 MSTORE PUSH1 0x20 ADD PUSH0 KECCAK256 PUSH1 0x40 MLOAD DUP1 PUSH1 0x60 ADD PUSH1 0x40 MSTORE DUP1 DUP7 PUSH20 0xFFFFFFFFFFFFFFFFFFFFFFFFFFFFFFFFFFFFFFFF AND DUP2 MSTORE PUSH1 0x20 ADD DUP6 DUP2 MSTORE PUSH1 0x20 ADD DUP4 PUSH1 0x2 DUP2 GT ISZERO PUSH2 0xB29 JUMPI PUSH2 0xB28 PUSH2 0x3A90 JUMP JUMPDEST JUMPDEST DUP2 MSTORE POP SWAP1 DUP1 PUSH1 0x1 DUP2 SLOAD ADD DUP1 DUP3 SSTORE DUP1 SWAP2 POP POP PUSH1 0x1 SWAP1 SUB SWAP1 PUSH0 MSTORE PUSH1 0x20 PUSH0 KECCAK256 SWAP1 PUSH1 0x3 MUL ADD PUSH0 SWAP1 SWAP2 SWAP1 SWAP2 SWAP1 SWAP2 POP PUSH0 DUP3 ADD MLOAD DUP2 PUSH0 ADD PUSH0 PUSH2 0x100 EXP DUP2 SLOAD DUP2 PUSH20 0xFFFFFFFFFFFFFFFFFFFFFFFFFFFFFFFFFFFFFFFF MUL NOT AND SWAP1 DUP4 PUSH20 0xFFFFFFFFFFFFFFFFFFFFFFFFFFFFFFFFFFFFFFFF AND MUL OR SWAP1 SSTORE POP PUSH1 0x20 DUP3 ADD MLOAD DUP2 PUSH1 0x1 ADD SSTORE PUSH1 0x40 DUP3 ADD MLOAD DUP2 PUSH1 0x2 ADD PUSH0 PUSH2 0x100 EXP DUP2 SLOAD DUP2 PUSH1 0xFF MUL NOT AND SWAP1 DUP4 PUSH1 0x2 DUP2 GT ISZERO PUSH2 0xBCA JUMPI PUSH2 0xBC9 PUSH2 0x3A90 JUMP JUMPDEST JUMPDEST MUL OR SWAP1 SSTORE POP POP POP DUP1 PUSH1 0x2 DUP2 GT ISZERO PUSH2 0xBE4 JUMPI PUSH2 0xBE3 PUSH2 0x3A90 JUMP JUMPDEST JUMPDEST DUP6 PUSH32 0x80A96B91F839E6654ACDE12E0C9562594C967A1B7255EF9B23B54E0E7BFA18DC DUP7 DUP7 PUSH1 0x40 MLOAD PUSH2 0xC16 SWAP3 SWAP2 SWAP1 PUSH2 0x42EB JUMP JUMPDEST PUSH1 0x40 MLOAD DUP1 SWAP2 SUB SWAP1 LOG3 POP POP POP POP POP JUMP JUMPDEST PUSH0 PUSH20 0xFFFFFFFFFFFFFFFFFFFFFFFFFFFFFFFFFFFFFFFF AND DUP3 PUSH20 0xFFFFFFFFFFFFFFFFFFFFFFFFFFFFFFFFFFFFFFFF AND SUB PUSH2 0xC95 JUMPI PUSH0 PUSH1 0x40 MLOAD PUSH32 0x64A0AE9200000000000000000000000000000000000000000000000000000000 DUP2 MSTORE PUSH1 0x4 ADD PUSH2 0xC8C SWAP2 SWAP1 PUSH2 0x34EF JUMP JUMPDEST PUSH1 0x40 MLOAD DUP1 SWAP2 SUB SWAP1 REVERT JUMPDEST PUSH0 PUSH2 0xCA8 DUP4 DUP4 PUSH2 0xCA3 PUSH2 0x215D JUMP JUMPDEST PUSH2 0x21B6 JUMP JUMPDEST SWAP1 POP DUP4 PUSH20 0xFFFFFFFFFFFFFFFFFFFFFFFFFFFFFFFFFFFFFFFF AND DUP2 PUSH20 0xFFFFFFFFFFFFFFFFFFFFFFFFFFFFFFFFFFFFFFFF AND EQ PUSH2 0xD1E JUMPI DUP4 DUP3 DUP3 PUSH1 0x40 MLOAD PUSH32 0x64283D7B00000000000000000000000000000000000000000000000000000000 DUP2 MSTORE PUSH1 0x4 ADD PUSH2 0xD15 SWAP4 SWAP3 SWAP2 SWAP1 PUSH2 0x4312 JUMP JUMPDEST PUSH1 0x40 MLOAD DUP1 SWAP2 SUB SWAP1 REVERT JUMPDEST POP POP POP POP JUMP JUMPDEST PUSH0 PUSH1 0x6 PUSH0 DUP4 DUP2 MSTORE PUSH1 0x20 ADD SWAP1 DUP2 MSTORE PUSH1 0x20 ADD PUSH0 KECCAK256 PUSH1 0x1 ADD SLOAD SWAP1 POP SWAP2 SWAP1 POP JUMP JUMPDEST PUSH2 0xD4D PUSH0 DUP1 SHL CALLER PUSH2 0x1676 JUMP JUMPDEST PUSH2 0xD8C JUMPI PUSH1 0x40 MLOAD PUSH32 0x8C379A000000000000000000000000000000000000000000000000000000000 DUP2 MSTORE PUSH1 0x4 ADD PUSH2 0xD83 SWAP1 PUSH2 0x4391 JUMP JUMPDEST PUSH1 0x40 MLOAD DUP1 SWAP2 SUB SWAP1 REVERT JUMPDEST PUSH2 0xDB6 PUSH32 0xD565E3FC066DF348A5CBC05A8D6323E00552838041CEA2D84CC59876BA37735D DUP3 PUSH2 0xDB9 JUMP JUMPDEST POP JUMP JUMPDEST PUSH2 0xDC2 DUP3 PUSH2 0xD24 JUMP JUMPDEST PUSH2 0xDCB DUP2 PUSH2 0x23C1 JUMP JUMPDEST PUSH2 0xDD5 DUP4 DUP4 PUSH2 0x23D5 JUMP JUMPDEST POP POP POP POP JUMP JUMPDEST PUSH2 0xDE3 PUSH2 0x215D JUMP JUMPDEST PUSH20 0xFFFFFFFFFFFFFFFFFFFFFFFFFFFFFFFFFFFFFFFF AND DUP2 PUSH20 0xFFFFFFFFFFFFFFFFFFFFFFFFFFFFFFFFFFFFFFFF AND EQ PUSH2 0xE47 JUMPI PUSH1 0x40 MLOAD PUSH32 0x6697B23200000000000000000000000000000000000000000000000000000000 DUP2 MSTORE PUSH1 0x4 ADD PUSH1 0x40 MLOAD DUP1 SWAP2 SUB SWAP1 REVERT JUMPDEST PUSH2 0xE51 DUP3 DUP3 PUSH2 0x24BF JUMP JUMPDEST POP POP POP JUMP JUMPDEST PUSH2 0xE70 DUP4 DUP4 DUP4 PUSH1 0x40 MLOAD DUP1 PUSH1 0x20 ADD PUSH1 0x40 MSTORE DUP1 PUSH0 DUP2 MSTORE POP PUSH2 0x18F7 JUMP JUMPDEST POP POP POP JUMP JUMPDEST PUSH32 0xD565E3FC066DF348A5CBC05A8D6323E00552838041CEA2D84CC59876BA37735D DUP2 JUMP JUMPDEST CALLER PUSH20 0xFFFFFFFFFFFFFFFFFFFFFFFFFFFFFFFFFFFFFFFF AND PUSH2 0xEB9 DUP4 PUSH2 0x1207 JUMP JUMPDEST PUSH20 0xFFFFFFFFFFFFFFFFFFFFFFFFFFFFFFFFFFFFFFFF AND EQ PUSH2 0xF0F JUMPI PUSH1 0x40 MLOAD PUSH32 0x8C379A000000000000000000000000000000000000000000000000000000000 DUP2 MSTORE PUSH1 0x4 ADD PUSH2 0xF06 SWAP1 PUSH2 0x43F9 JUMP JUMPDEST PUSH1 0x40 MLOAD DUP1 SWAP2 SUB SWAP1 REVERT JUMPDEST PUSH0 PUSH1 0x8 PUSH0 DUP5 DUP2 MSTORE PUSH1 0x20 ADD SWAP1 DUP2 MSTORE PUSH1 0x20 ADD PUSH0 KECCAK256 SWAP1 POP DUP2 DUP2 PUSH1 0x4 ADD SWAP1 DUP2 PUSH2 0xF34 SWAP2 SWAP1 PUSH2 0x45B4 JUMP JUMPDEST POP DUP3 PUSH32 0x459157BA24C7AB9878B165EF465FA6AE2AB42BCD8445F576BE378768B0C47309 DUP4 PUSH1 0x40 MLOAD PUSH2 0xF65 SWAP2 SWAP1 PUSH2 0x3432 JUMP JUMPDEST PUSH1 0x40 MLOAD DUP1 SWAP2 SUB SWAP1 LOG2 POP POP POP JUMP JUMPDEST PUSH2 0xF9C PUSH32 0xEEFB95E842A3287179D933B4460BE539A1D5AF11AA8B325BB45C5C8DC92DE4ED CALLER PUSH2 0x1676 JUMP JUMPDEST PUSH2 0xFDB JUMPI PUSH1 0x40 MLOAD PUSH32 0x8C379A000000000000000000000000000000000000000000000000000000000 DUP2 MSTORE PUSH1 0x4 ADD PUSH2 0xFD2 SWAP1 PUSH2 0x46CD JUMP JUMPDEST PUSH1 0x40 MLOAD DUP1 SWAP2 SUB SWAP1 REVERT JUMPDEST PUSH1 0x7 PUSH0 DUP2 SLOAD DUP1 SWAP3 SWAP2 SWAP1 PUSH2 0xFED SWAP1 PUSH2 0x4718 JUMP JUMPDEST SWAP2 SWAP1 POP SSTORE POP PUSH0 PUSH1 0x7 SLOAD SWAP1 POP PUSH2 0x1002 CALLER DUP3 PUSH2 0x25A9 JUMP JUMPDEST PUSH1 0x40 MLOAD DUP1 PUSH1 0xC0 ADD PUSH1 0x40 MSTORE DUP1 DUP3 DUP2 MSTORE PUSH1 0x20 ADD DUP7 DUP2 MSTORE PUSH1 0x20 ADD DUP6 PUSH20 0xFFFFFFFFFFFFFFFFFFFFFFFFFFFFFFFFFFFFFFFF AND DUP2 MSTORE PUSH1 0x20 ADD DUP5 DUP2 MSTORE PUSH1 0x20 ADD DUP4 DUP2 MSTORE PUSH1 0x20 ADD CALLER PUSH20 0xFFFFFFFFFFFFFFFFFFFFFFFFFFFFFFFFFFFFFFFF AND DUP2 MSTORE POP PUSH1 0x8 PUSH0 DUP4 DUP2 MSTORE PUSH1 0x20 ADD SWAP1 DUP2 MSTORE PUSH1 0x20 ADD PUSH0 KECCAK256 PUSH0 DUP3 ADD MLOAD DUP2 PUSH0 ADD SSTORE PUSH1 0x20 DUP3 ADD MLOAD DUP2 PUSH1 0x1 ADD SWAP1 DUP2 PUSH2 0x1089 SWAP2 SWAP1 PUSH2 0x45B4 JUMP JUMPDEST POP PUSH1 0x40 DUP3 ADD MLOAD DUP2 PUSH1 0x2 ADD PUSH0 PUSH2 0x100 EXP DUP2 SLOAD DUP2 PUSH20 0xFFFFFFFFFFFFFFFFFFFFFFFFFFFFFFFFFFFFFFFF MUL NOT AND SWAP1 DUP4 PUSH20 0xFFFFFFFFFFFFFFFFFFFFFFFFFFFFFFFFFFFFFFFF AND MUL OR SWAP1 SSTORE POP PUSH1 0x60 DUP3 ADD MLOAD DUP2 PUSH1 0x3 ADD SSTORE PUSH1 0x80 DUP3 ADD MLOAD DUP2 PUSH1 0x4 ADD SWAP1 DUP2 PUSH2 0x10EF SWAP2 SWAP1 PUSH2 0x45B4 JUMP JUMPDEST POP PUSH1 0xA0 DUP3 ADD MLOAD DUP2 PUSH1 0x5 ADD PUSH0 PUSH2 0x100 EXP DUP2 SLOAD DUP2 PUSH20 0xFFFFFFFFFFFFFFFFFFFFFFFFFFFFFFFFFFFFFFFF MUL NOT AND SWAP1 DUP4 PUSH20 0xFFFFFFFFFFFFFFFFFFFFFFFFFFFFFFFFFFFFFFFF AND MUL OR SWAP1 SSTORE POP SWAP1 POP POP CALLER PUSH20 0xFFFFFFFFFFFFFFFFFFFFFFFFFFFFFFFFFFFFFFFF AND DUP2 PUSH32 0x9B5FBB2E4F522648771879ADA6F05836798579C652FDB89CE8A0335F001D8024 DUP5 PUSH1 0x40 MLOAD PUSH2 0x1180 SWAP2 SWAP1 PUSH2 0x3432 JUMP JUMPDEST PUSH1 0x40 MLOAD DUP1 SWAP2 SUB SWAP1 LOG3 POP POP POP POP POP JUMP JUMPDEST PUSH2 0x119B PUSH0 DUP1 SHL CALLER PUSH2 0x1676 JUMP JUMPDEST PUSH2 0x11DA JUMPI PUSH1 0x40 MLOAD PUSH32 0x8C379A000000000000000000000000000000000000000000000000000000000 DUP2 MSTORE PUSH1 0x4 ADD PUSH2 0x11D1 SWAP1 PUSH2 0x4391 JUMP JUMPDEST PUSH1 0x40 MLOAD DUP1 SWAP2 SUB SWAP1 REVERT JUMPDEST PUSH2 0x1204 PUSH32 0xEEFB95E842A3287179D933B4460BE539A1D5AF11AA8B325BB45C5C8DC92DE4ED DUP3 PUSH2 0xDB9 JUMP JUMPDEST POP JUMP JUMPDEST PUSH0 PUSH2 0x1211 DUP3 PUSH2 0x209E JUMP JUMPDEST SWAP1 POP SWAP2 SWAP1 POP JUMP JUMPDEST PUSH0 DUP1 PUSH20 0xFFFFFFFFFFFFFFFFFFFFFFFFFFFFFFFFFFFFFFFF AND DUP3 PUSH20 0xFFFFFFFFFFFFFFFFFFFFFFFFFFFFFFFFFFFFFFFF AND SUB PUSH2 0x1289 JUMPI PUSH0 PUSH1 0x40 MLOAD PUSH32 0x89C62B6400000000000000000000000000000000000000000000000000000000 DUP2 MSTORE PUSH1 0x4 ADD PUSH2 0x1280 SWAP2 SWAP1 PUSH2 0x34EF JUMP JUMPDEST PUSH1 0x40 MLOAD DUP1 SWAP2 SUB SWAP1 REVERT JUMPDEST PUSH1 0x3 PUSH0 DUP4 PUSH20 0xFFFFFFFFFFFFFFFFFFFFFFFFFFFFFFFFFFFFFFFF AND PUSH20 0xFFFFFFFFFFFFFFFFFFFFFFFFFFFFFFFFFFFFFFFF AND DUP2 MSTORE PUSH1 0x20 ADD SWAP1 DUP2 MSTORE PUSH1 0x20 ADD PUSH0 KECCAK256 SLOAD SWAP1 POP SWAP2 SWAP1 POP JUMP JUMPDEST PUSH1 0x9 PUSH1 0x20 MSTORE DUP2 PUSH0 MSTORE PUSH1 0x40 PUSH0 KECCAK256 DUP2 DUP2 SLOAD DUP2 LT PUSH2 0x12E7 JUMPI PUSH0 DUP1 REVERT JUMPDEST SWAP1 PUSH0 MSTORE PUSH1 0x20 PUSH0 KECCAK256 SWAP1 PUSH1 0x3 MUL ADD PUSH0 SWAP2 POP SWAP2 POP POP DUP1 PUSH0 ADD PUSH0 SWAP1 SLOAD SWAP1 PUSH2 0x100 EXP SWAP1 DIV PUSH20 0xFFFFFFFFFFFFFFFFFFFFFFFFFFFFFFFFFFFFFFFF AND SWAP1 DUP1 PUSH1 0x1 ADD SLOAD SWAP1 DUP1 PUSH1 0x2 ADD PUSH0 SWAP1 SLOAD SWAP1 PUSH2 0x100 EXP SWAP1 DIV PUSH1 0xFF AND SWAP1 POP DUP4 JUMP JUMPDEST PUSH2 0x1341 PUSH2 0x32A0 JUMP JUMPDEST PUSH2 0x134A DUP3 PUSH2 0x2176 JUMP JUMPDEST PUSH2 0x1389 JUMPI PUSH1 0x40 MLOAD PUSH32 0x8C379A000000000000000000000000000000000000000000000000000000000 DUP2 MSTORE PUSH1 0x4 ADD PUSH2 0x1380 SWAP1 PUSH2 0x417D JUMP JUMPDEST PUSH1 0x40 MLOAD DUP1 SWAP2 SUB SWAP1 REVERT JUMPDEST PUSH1 0x8 PUSH0 DUP4 DUP2 MSTORE PUSH1 0x20 ADD SWAP1 DUP2 MSTORE PUSH1 0x20 ADD PUSH0 KECCAK256 PUSH1 0x40 MLOAD DUP1 PUSH1 0xC0 ADD PUSH1 0x40 MSTORE SWAP1 DUP2 PUSH0 DUP3 ADD SLOAD DUP2 MSTORE PUSH1 0x20 ADD PUSH1 0x1 DUP3 ADD DUP1 SLOAD PUSH2 0x13BE SWAP1 PUSH2 0x409B JUMP JUMPDEST DUP1 PUSH1 0x1F ADD PUSH1 0x20 DUP1 SWAP2 DIV MUL PUSH1 0x20 ADD PUSH1 0x40 MLOAD SWAP1 DUP2 ADD PUSH1 0x40 MSTORE DUP1 SWAP3 SWAP2 SWAP1 DUP2 DUP2 MSTORE PUSH1 0x20 ADD DUP3 DUP1 SLOAD PUSH2 0x13EA SWAP1 PUSH2 0x409B JUMP JUMPDEST DUP1 ISZERO PUSH2 0x1435 JUMPI DUP1 PUSH1 0x1F LT PUSH2 0x140C JUMPI PUSH2 0x100 DUP1 DUP4 SLOAD DIV MUL DUP4 MSTORE SWAP2 PUSH1 0x20 ADD SWAP2 PUSH2 0x1435 JUMP JUMPDEST DUP3 ADD SWAP2 SWAP1 PUSH0 MSTORE PUSH1 0x20 PUSH0 KECCAK256 SWAP1 JUMPDEST DUP2 SLOAD DUP2 MSTORE SWAP1 PUSH1 0x1 ADD SWAP1 PUSH1 0x20 ADD DUP1 DUP4 GT PUSH2 0x1418 JUMPI DUP3 SWAP1 SUB PUSH1 0x1F AND DUP3 ADD SWAP2 JUMPDEST POP POP POP POP POP DUP2 MSTORE PUSH1 0x20 ADD PUSH1 0x2 DUP3 ADD PUSH0 SWAP1 SLOAD SWAP1 PUSH2 0x100 EXP SWAP1 DIV PUSH20 0xFFFFFFFFFFFFFFFFFFFFFFFFFFFFFFFFFFFFFFFF AND PUSH20 0xFFFFFFFFFFFFFFFFFFFFFFFFFFFFFFFFFFFFFFFF AND PUSH20 0xFFFFFFFFFFFFFFFFFFFFFFFFFFFFFFFFFFFFFFFF AND DUP2 MSTORE PUSH1 0x20 ADD PUSH1 0x3 DUP3 ADD SLOAD DUP2 MSTORE PUSH1 0x20 ADD PUSH1 0x4 DUP3 ADD DUP1 SLOAD PUSH2 0x14AD SWAP1 PUSH2 0x409B JUMP JUMPDEST DUP1 PUSH1 0x1F ADD PUSH1 0x20 DUP1 SWAP2 DIV MUL PUSH1 0x20 ADD PUSH1 0x40 MLOAD SWAP1 DUP2 ADD PUSH1 0x40 MSTORE DUP1 SWAP3 SWAP2 SWAP1 DUP2 DUP2 MSTORE PUSH1 0x20 ADD DUP3 DUP1 SLOAD PUSH2 0x14D9 SWAP1 PUSH2 0x409B JUMP JUMPDEST DUP1 ISZERO PUSH2 0x1524 JUMPI DUP1 PUSH1 0x1F LT PUSH2 0x14FB JUMPI PUSH2 0x100 DUP1 DUP4 SLOAD DIV MUL DUP4 MSTORE SWAP2 PUSH1 0x20 ADD SWAP2 PUSH2 0x1524 JUMP JUMPDEST DUP3 ADD SWAP2 SWAP1 PUSH0 MSTORE PUSH1 0x20 PUSH0 KECCAK256 SWAP1 JUMPDEST DUP2 SLOAD DUP2 MSTORE SWAP1 PUSH1 0x1 ADD SWAP1 PUSH1 0x20 ADD DUP1 DUP4 GT PUSH2 0x1507 JUMPI DUP3 SWAP1 SUB PUSH1 0x1F AND DUP3 ADD SWAP2 JUMPDEST POP POP POP POP POP DUP2 MSTORE PUSH1 0x20 ADD PUSH1 0x5 DUP3 ADD PUSH0 SWAP1 SLOAD SWAP1 PUSH2 0x100 EXP SWAP1 DIV PUSH20 0xFFFFFFFFFFFFFFFFFFFFFFFFFFFFFFFFFFFFFFFF AND PUSH20 0xFFFFFFFFFFFFFFFFFFFFFFFFFFFFFFFFFFFFFFFF AND PUSH20 0xFFFFFFFFFFFFFFFFFFFFFFFFFFFFFFFFFFFFFFFF AND DUP2 MSTORE POP POP SWAP1 POP SWAP2 SWAP1 POP JUMP JUMPDEST PUSH2 0x15B3 PUSH32 0xD565E3FC066DF348A5CBC05A8D6323E00552838041CEA2D84CC59876BA37735D CALLER PUSH2 0x1676 JUMP JUMPDEST PUSH2 0x15F2 JUMPI PUSH1 0x40 MLOAD PUSH32 0x8C379A000000000000000000000000000000000000000000000000000000000 DUP2 MSTORE PUSH1 0x4 ADD PUSH2 0x15E9 SWAP1 PUSH2 0x4115 JUMP JUMPDEST PUSH1 0x40 MLOAD DUP1 SWAP2 SUB SWAP1 REVERT JUMPDEST PUSH2 0x15FB DUP3 PUSH2 0x2176 JUMP JUMPDEST PUSH2 0x163A JUMPI PUSH1 0x40 MLOAD PUSH32 0x8C379A000000000000000000000000000000000000000000000000000000000 DUP2 MSTORE PUSH1 0x4 ADD PUSH2 0x1631 SWAP1 PUSH2 0x417D JUMP JUMPDEST PUSH1 0x40 MLOAD DUP1 SWAP2 SUB SWAP1 REVERT JUMPDEST DUP2 PUSH32 0xFA82D15D0816DC04B54D3319824A9438726F348A6D9DF86085FAB8B3E3F48AE2 DUP3 PUSH1 0x40 MLOAD PUSH2 0x166A SWAP2 SWAP1 PUSH2 0x3432 JUMP JUMPDEST PUSH1 0x40 MLOAD DUP1 SWAP2 SUB SWAP1 LOG2 POP POP JUMP JUMPDEST PUSH0 PUSH1 0x6 PUSH0 DUP5 DUP2 MSTORE PUSH1 0x20 ADD SWAP1 DUP2 MSTORE PUSH1 0x20 ADD PUSH0 KECCAK256 PUSH0 ADD PUSH0 DUP4 PUSH20 0xFFFFFFFFFFFFFFFFFFFFFFFFFFFFFFFFFFFFFFFF AND PUSH20 0xFFFFFFFFFFFFFFFFFFFFFFFFFFFFFFFFFFFFFFFF AND DUP2 MSTORE PUSH1 0x20 ADD SWAP1 DUP2 MSTORE PUSH1 0x20 ADD PUSH0 KECCAK256 PUSH0 SWAP1 SLOAD SWAP1 PUSH2 0x100 EXP SWAP1 DIV PUSH1 0xFF AND SWAP1 POP SWAP3 SWAP2 POP POP JUMP JUMPDEST PUSH1 0x60 PUSH1 0x1 DUP1 SLOAD PUSH2 0x16E9 SWAP1 PUSH2 0x409B JUMP JUMPDEST DUP1 PUSH1 0x1F ADD PUSH1 0x20 DUP1 SWAP2 DIV MUL PUSH1 0x20 ADD PUSH1 0x40 MLOAD SWAP1 DUP2 ADD PUSH1 0x40 MSTORE DUP1 SWAP3 SWAP2 SWAP1 DUP2 DUP2 MSTORE PUSH1 0x20 ADD DUP3 DUP1 SLOAD PUSH2 0x1715 SWAP1 PUSH2 0x409B JUMP JUMPDEST DUP1 ISZERO PUSH2 0x1760 JUMPI DUP1 PUSH1 0x1F LT PUSH2 0x1737 JUMPI PUSH2 0x100 DUP1 DUP4 SLOAD DIV MUL DUP4 MSTORE SWAP2 PUSH1 0x20 ADD SWAP2 PUSH2 0x1760 JUMP JUMPDEST DUP3 ADD SWAP2 SWAP1 PUSH0 MSTORE PUSH1 0x20 PUSH0 KECCAK256 SWAP1 JUMPDEST DUP2 SLOAD DUP2 MSTORE SWAP1 PUSH1 0x1 ADD SWAP1 PUSH1 0x20 ADD DUP1 DUP4 GT PUSH2 0x1743 JUMPI DUP3 SWAP1 SUB PUSH1 0x1F AND DUP3 ADD SWAP2 JUMPDEST POP POP POP POP POP SWAP1 POP SWAP1 JUMP JUMPDEST PUSH32 0xEEFB95E842A3287179D933B4460BE539A1D5AF11AA8B325BB45C5C8DC92DE4ED DUP2 JUMP JUMPDEST PUSH0 DUP1 SHL DUP2 JUMP JUMPDEST PUSH2 0x17A6 PUSH2 0x179F PUSH2 0x215D JUMP JUMPDEST DUP4 DUP4 PUSH2 0x25C6 JUMP JUMPDEST POP POP JUMP JUMPDEST PUSH1 0x60 PUSH2 0x17B5 DUP3 PUSH2 0x2176 JUMP JUMPDEST PUSH2 0x17F4 JUMPI PUSH1 0x40 MLOAD PUSH32 0x8C379A000000000000000000000000000000000000000000000000000000000 DUP2 MSTORE PUSH1 0x4 ADD PUSH2 0x17EB SWAP1 PUSH2 0x417D JUMP JUMPDEST PUSH1 0x40 MLOAD DUP1 SWAP2 SUB SWAP1 REVERT JUMPDEST PUSH1 0x9 PUSH0 DUP4 DUP2 MSTORE PUSH1 0x20 ADD SWAP1 DUP2 MSTORE PUSH1 0x20 ADD PUSH0 KECCAK256 DUP1 SLOAD DUP1 PUSH1 0x20 MUL PUSH1 0x20 ADD PUSH1 0x40 MLOAD SWAP1 DUP2 ADD PUSH1 0x40 MSTORE DUP1 SWAP3 SWAP2 SWAP1 DUP2 DUP2 MSTORE PUSH1 0x20 ADD PUSH0 SWAP1 JUMPDEST DUP3 DUP3 LT ISZERO PUSH2 0x18EC JUMPI DUP4 DUP3 SWAP1 PUSH0 MSTORE PUSH1 0x20 PUSH0 KECCAK256 SWAP1 PUSH1 0x3 MUL ADD PUSH1 0x40 MLOAD DUP1 PUSH1 0x60 ADD PUSH1 0x40 MSTORE SWAP1 DUP2 PUSH0 DUP3 ADD PUSH0 SWAP1 SLOAD SWAP1 PUSH2 0x100 EXP SWAP1 DIV PUSH20 0xFFFFFFFFFFFFFFFFFFFFFFFFFFFFFFFFFFFFFFFF AND PUSH20 0xFFFFFFFFFFFFFFFFFFFFFFFFFFFFFFFFFFFFFFFF AND PUSH20 0xFFFFFFFFFFFFFFFFFFFFFFFFFFFFFFFFFFFFFFFF AND DUP2 MSTORE PUSH1 0x20 ADD PUSH1 0x1 DUP3 ADD SLOAD DUP2 MSTORE PUSH1 0x20 ADD PUSH1 0x2 DUP3 ADD PUSH0 SWAP1 SLOAD SWAP1 PUSH2 0x100 EXP SWAP1 DIV PUSH1 0xFF AND PUSH1 0x2 DUP2 GT ISZERO PUSH2 0x18C7 JUMPI PUSH2 0x18C6 PUSH2 0x3A90 JUMP JUMPDEST JUMPDEST PUSH1 0x2 DUP2 GT ISZERO PUSH2 0x18D9 JUMPI PUSH2 0x18D8 PUSH2 0x3A90 JUMP JUMPDEST JUMPDEST DUP2 MSTORE POP POP DUP2 MSTORE PUSH1 0x20 ADD SWAP1 PUSH1 0x1 ADD SWAP1 PUSH2 0x1824 JUMP JUMPDEST POP POP POP POP SWAP1 POP SWAP2 SWAP1 POP JUMP JUMPDEST PUSH2 0x1902 DUP5 DUP5 DUP5 PUSH2 0xC25 JUMP JUMPDEST PUSH2 0x1916 PUSH2 0x190D PUSH2 0x215D JUMP JUMPDEST DUP6 DUP6 DUP6 DUP6 PUSH2 0x272F JUMP JUMPDEST POP POP POP POP JUMP JUMPDEST PUSH1 0x8 PUSH1 0x20 MSTORE DUP1 PUSH0 MSTORE PUSH1 0x40 PUSH0 KECCAK256 PUSH0 SWAP2 POP SWAP1 POP DUP1 PUSH0 ADD SLOAD SWAP1 DUP1 PUSH1 0x1 ADD DUP1 SLOAD PUSH2 0x1941 SWAP1 PUSH2 0x409B JUMP JUMPDEST DUP1 PUSH1 0x1F ADD PUSH1 0x20 DUP1 SWAP2 DIV MUL PUSH1 0x20 ADD PUSH1 0x40 MLOAD SWAP1 DUP2 ADD PUSH1 0x40 MSTORE DUP1 SWAP3 SWAP2 SWAP1 DUP2 DUP2 MSTORE PUSH1 0x20 ADD DUP3 DUP1 SLOAD PUSH2 0x196D SWAP1 PUSH2 0x409B JUMP JUMPDEST DUP1 ISZERO PUSH2 0x19B8 JUMPI DUP1 PUSH1 0x1F LT PUSH2 0x198F JUMPI PUSH2 0x100 DUP1 DUP4 SLOAD DIV MUL DUP4 MSTORE SWAP2 PUSH1 0x20 ADD SWAP2 PUSH2 0x19B8 JUMP JUMPDEST DUP3 ADD SWAP2 SWAP1 PUSH0 MSTORE PUSH1 0x20 PUSH0 KECCAK256 SWAP1 JUMPDEST DUP2 SLOAD DUP2 MSTORE SWAP1 PUSH1 0x1 ADD SWAP1 PUSH1 0x20 ADD DUP1 DUP4 GT PUSH2 0x199B JUMPI DUP3 SWAP1 SUB PUSH1 0x1F AND DUP3 ADD SWAP2 JUMPDEST POP POP POP POP POP SWAP1 DUP1 PUSH1 0x2 ADD PUSH0 SWAP1 SLOAD SWAP1 PUSH2 0x100 EXP SWAP1 DIV PUSH20 0xFFFFFFFFFFFFFFFFFFFFFFFFFFFFFFFFFFFFFFFF AND SWAP1 DUP1 PUSH1 0x3 ADD SLOAD SWAP1 DUP1 PUSH1 0x4 ADD DUP1 SLOAD PUSH2 0x19F8 SWAP1 PUSH2 0x409B JUMP JUMPDEST DUP1 PUSH1 0x1F ADD PUSH1 0x20 DUP1 SWAP2 DIV MUL PUSH1 0x20 ADD PUSH1 0x40 MLOAD SWAP1 DUP2 ADD PUSH1 0x40 MSTORE DUP1 SWAP3 SWAP2 SWAP1 DUP2 DUP2 MSTORE PUSH1 0x20 ADD DUP3 DUP1 SLOAD PUSH2 0x1A24 SWAP1 PUSH2 0x409B JUMP JUMPDEST DUP1 ISZERO PUSH2 0x1A6F JUMPI DUP1 PUSH1 0x1F LT PUSH2 0x1A46 JUMPI PUSH2 0x100 DUP1 DUP4 SLOAD DIV MUL DUP4 MSTORE SWAP2 PUSH1 0x20 ADD SWAP2 PUSH2 0x1A6F JUMP JUMPDEST DUP3 ADD SWAP2 SWAP1 PUSH0 MSTORE PUSH1 0x20 PUSH0 KECCAK256 SWAP1 JUMPDEST DUP2 SLOAD DUP2 MSTORE SWAP1 PUSH1 0x1 ADD SWAP1 PUSH1 0x20 ADD DUP1 DUP4 GT PUSH2 0x1A52 JUMPI DUP3 SWAP1 SUB PUSH1 0x1F AND DUP3 ADD SWAP2 JUMPDEST POP POP POP POP POP SWAP1 DUP1 PUSH1 0x5 ADD PUSH0 SWAP1 SLOAD SWAP1 PUSH2 0x100 EXP SWAP1 DIV PUSH20 0xFFFFFFFFFFFFFFFFFFFFFFFFFFFFFFFFFFFFFFFF AND SWAP1 POP DUP7 JUMP JUMPDEST PUSH1 0xA PUSH1 0x20 MSTORE DUP2 PUSH0 MSTORE PUSH1 0x40 PUSH0 KECCAK256 DUP2 DUP2 SLOAD DUP2 LT PUSH2 0x1AB7 JUMPI PUSH0 DUP1 REVERT JUMPDEST SWAP1 PUSH0 MSTORE PUSH1 0x20 PUSH0 KECCAK256 ADD PUSH0 SWAP2 POP SWAP2 POP POP DUP1 SLOAD PUSH2 0x1AD0 SWAP1 PUSH2 0x409B JUMP JUMPDEST DUP1 PUSH1 0x1F ADD PUSH1 0x20 DUP1 SWAP2 DIV MUL PUSH1 0x20 ADD PUSH1 0x40 MLOAD SWAP1 DUP2 ADD PUSH1 0x40 MSTORE DUP1 SWAP3 SWAP2 SWAP1 DUP2 DUP2 MSTORE PUSH1 0x20 ADD DUP3 DUP1 SLOAD PUSH2 0x1AFC SWAP1 PUSH2 0x409B JUMP JUMPDEST DUP1 ISZERO PUSH2 0x1B47 JUMPI DUP1 PUSH1 0x1F LT PUSH2 0x1B1E JUMPI PUSH2 0x100 DUP1 DUP4 SLOAD DIV MUL DUP4 MSTORE SWAP2 PUSH1 0x20 ADD SWAP2 PUSH2 0x1B47 JUMP JUMPDEST DUP3 ADD SWAP2 SWAP1 PUSH0 MSTORE PUSH1 0x20 PUSH0 KECCAK256 SWAP1 JUMPDEST DUP2 SLOAD DUP2 MSTORE SWAP1 PUSH1 0x1 ADD SWAP1 PUSH1 0x20 ADD DUP1 DUP4 GT PUSH2 0x1B2A JUMPI DUP3 SWAP1 SUB PUSH1 0x1F AND DUP3 ADD SWAP2 JUMPDEST POP POP POP POP POP DUP2 JUMP JUMPDEST PUSH1 0x60 PUSH2 0x1B5A DUP3 PUSH2 0x209E JUMP JUMPDEST POP PUSH0 PUSH2 0x1B64 PUSH2 0x28DB JUMP JUMPDEST SWAP1 POP PUSH0 DUP2 MLOAD GT PUSH2 0x1B82 JUMPI PUSH1 0x40 MLOAD DUP1 PUSH1 0x20 ADD PUSH1 0x40 MSTORE DUP1 PUSH0 DUP2 MSTORE POP PUSH2 0x1BAD JUMP JUMPDEST DUP1 PUSH2 0x1B8C DUP5 PUSH2 0x28F1 JUMP JUMPDEST PUSH1 0x40 MLOAD PUSH1 0x20 ADD PUSH2 0x1B9D SWAP3 SWAP2 SWAP1 PUSH2 0x4799 JUMP JUMPDEST PUSH1 0x40 MLOAD PUSH1 0x20 DUP2 DUP4 SUB SUB DUP2 MSTORE SWAP1 PUSH1 0x40 MSTORE JUMPDEST SWAP2 POP POP SWAP2 SWAP1 POP JUMP JUMPDEST PUSH1 0x7 SLOAD DUP2 JUMP JUMPDEST CALLER PUSH20 0xFFFFFFFFFFFFFFFFFFFFFFFFFFFFFFFFFFFFFFFF AND PUSH2 0x1BDB DUP3 PUSH2 0x1207 JUMP JUMPDEST PUSH20 0xFFFFFFFFFFFFFFFFFFFFFFFFFFFFFFFFFFFFFFFF AND EQ PUSH2 0x1C31 JUMPI PUSH1 0x40 MLOAD PUSH32 0x8C379A000000000000000000000000000000000000000000000000000000000 DUP2 MSTORE PUSH1 0x4 ADD PUSH2 0x1C28 SWAP1 PUSH2 0x43F9 JUMP JUMPDEST PUSH1 0x40 MLOAD DUP1 SWAP2 SUB SWAP1 REVERT JUMPDEST PUSH2 0x1C3C CALLER DUP4 DUP4 PUSH2 0x29BB JUMP JUMPDEST PUSH0 PUSH1 0x8 PUSH0 DUP4 DUP2 MSTORE PUSH1 0x20 ADD SWAP1 DUP2 MSTORE PUSH1 0x20 ADD PUSH0 KECCAK256 SWAP1 POP PUSH0 DUP2 PUSH1 0x5 ADD PUSH0 SWAP1 SLOAD SWAP1 PUSH2 0x100 EXP SWAP1 DIV PUSH20 0xFFFFFFFFFFFFFFFFFFFFFFFFFFFFFFFFFFFFFFFF AND SWAP1 POP DUP4 DUP3 PUSH1 0x5 ADD PUSH0 PUSH2 0x100 EXP DUP2 SLOAD DUP2 PUSH20 0xFFFFFFFFFFFFFFFFFFFFFFFFFFFFFFFFFFFFFFFF MUL NOT AND SWAP1 DUP4 PUSH20 0xFFFFFFFFFFFFFFFFFFFFFFFFFFFFFFFFFFFFFFFF AND MUL OR SWAP1 SSTORE POP DUP4 PUSH20 0xFFFFFFFFFFFFFFFFFFFFFFFFFFFFFFFFFFFFFFFF AND DUP2 PUSH20 0xFFFFFFFFFFFFFFFFFFFFFFFFFFFFFFFFFFFFFFFF AND DUP5 PUSH32 0x16B85F49BF01212961345D3016C9A531894ACCF62EB7680F2045D79185CC0EC0 PUSH1 0x40 MLOAD PUSH1 0x40 MLOAD DUP1 SWAP2 SUB SWAP1 LOG4 POP POP POP POP JUMP JUMPDEST PUSH2 0x1D23 DUP3 PUSH2 0xD24 JUMP JUMPDEST PUSH2 0x1D2C DUP2 PUSH2 0x23C1 JUMP JUMPDEST PUSH2 0x1D36 DUP4 DUP4 PUSH2 0x24BF JUMP JUMPDEST POP POP POP POP JUMP JUMPDEST PUSH2 0x1D66 PUSH32 0xD565E3FC066DF348A5CBC05A8D6323E00552838041CEA2D84CC59876BA37735D CALLER PUSH2 0x1676 JUMP JUMPDEST PUSH2 0x1DA5 JUMPI PUSH1 0x40 MLOAD PUSH32 0x8C379A000000000000000000000000000000000000000000000000000000000 DUP2 MSTORE PUSH1 0x4 ADD PUSH2 0x1D9C SWAP1 PUSH2 0x4115 JUMP JUMPDEST PUSH1 0x40 MLOAD DUP1 SWAP2 SUB SWAP1 REVERT JUMPDEST PUSH2 0x1DAE DUP3 PUSH2 0x2176 JUMP JUMPDEST PUSH2 0x1DED JUMPI PUSH1 0x40 MLOAD PUSH32 0x8C379A000000000000000000000000000000000000000000000000000000000 DUP2 MSTORE PUSH1 0x4 ADD PUSH2 0x1DE4 SWAP1 PUSH2 0x417D JUMP JUMPDEST PUSH1 0x40 MLOAD DUP1 SWAP2 SUB SWAP1 REVERT JUMPDEST PUSH1 0xA PUSH0 DUP4 DUP2 MSTORE PUSH1 0x20 ADD SWAP1 DUP2 MSTORE PUSH1 0x20 ADD PUSH0 KECCAK256 DUP2 SWAP1 DUP1 PUSH1 0x1 DUP2 SLOAD ADD DUP1 DUP3 SSTORE DUP1 SWAP2 POP POP PUSH1 0x1 SWAP1 SUB SWAP1 PUSH0 MSTORE PUSH1 0x20 PUSH0 KECCAK256 ADD PUSH0 SWAP1 SWAP2 SWAP1 SWAP2 SWAP1 SWAP2 POP SWAP1 DUP2 PUSH2 0x1E2D SWAP2 SWAP1 PUSH2 0x45B4 JUMP JUMPDEST POP DUP2 PUSH32 0xE18A30C15741CEE8FB7C9F43D2BB233858135F68591E5ECD01CC3DA82B18A0CD DUP3 PUSH1 0x40 MLOAD PUSH2 0x1E5E SWAP2 SWAP1 PUSH2 0x3432 JUMP JUMPDEST PUSH1 0x40 MLOAD DUP1 SWAP2 SUB SWAP1 LOG2 POP POP JUMP JUMPDEST PUSH0 PUSH1 0x5 PUSH0 DUP5 PUSH20 0xFFFFFFFFFFFFFFFFFFFFFFFFFFFFFFFFFFFFFFFF AND PUSH20 0xFFFFFFFFFFFFFFFFFFFFFFFFFFFFFFFFFFFFFFFF AND DUP2 MSTORE PUSH1 0x20 ADD SWAP1 DUP2 MSTORE PUSH1 0x20 ADD PUSH0 KECCAK256 PUSH0 DUP4 PUSH20 0xFFFFFFFFFFFFFFFFFFFFFFFFFFFFFFFFFFFFFFFF AND PUSH20 0xFFFFFFFFFFFFFFFFFFFFFFFFFFFFFFFFFFFFFFFF AND DUP2 MSTORE PUSH1 0x20 ADD SWAP1 DUP2 MSTORE PUSH1 0x20 ADD PUSH0 KECCAK256 PUSH0 SWAP1 SLOAD SWAP1 PUSH2 0x100 EXP SWAP1 DIV PUSH1 0xFF AND SWAP1 POP SWAP3 SWAP2 POP POP JUMP JUMPDEST PUSH1 0x60 PUSH2 0x1F03 DUP3 PUSH2 0x2176 JUMP JUMPDEST PUSH2 0x1F42 JUMPI PUSH1 0x40 MLOAD PUSH32 0x8C379A000000000000000000000000000000000000000000000000000000000 DUP2 MSTORE PUSH1 0x4 ADD PUSH2 0x1F39 SWAP1 PUSH2 0x417D JUMP JUMPDEST PUSH1 0x40 MLOAD DUP1 SWAP2 SUB SWAP1 REVERT JUMPDEST PUSH1 0xA PUSH0 DUP4 DUP2 MSTORE PUSH1 0x20 ADD SWAP1 DUP2 MSTORE PUSH1 0x20 ADD PUSH0 KECCAK256 DUP1 SLOAD DUP1 PUSH1 0x20 MUL PUSH1 0x20 ADD PUSH1 0x40 MLOAD SWAP1 DUP2 ADD PUSH1 0x40 MSTORE DUP1 SWAP3 SWAP2 SWAP1 DUP2 DUP2 MSTORE PUSH1 0x20 ADD PUSH0 SWAP1 JUMPDEST DUP3 DUP3 LT ISZERO PUSH2 0x201A JUMPI DUP4 DUP3 SWAP1 PUSH0 MSTORE PUSH1 0x20 PUSH0 KECCAK256 ADD DUP1 SLOAD PUSH2 0x1F8F SWAP1 PUSH2 0x409B JUMP JUMPDEST DUP1 PUSH1 0x1F ADD PUSH1 0x20 DUP1 SWAP2 DIV MUL PUSH1 0x20 ADD PUSH1 0x40 MLOAD SWAP1 DUP2 ADD PUSH1 0x40 MSTORE DUP1 SWAP3 SWAP2 SWAP1 DUP2 DUP2 MSTORE PUSH1 0x20 ADD DUP3 DUP1 SLOAD PUSH2 0x1FBB SWAP1 PUSH2 0x409B JUMP JUMPDEST DUP1 ISZERO PUSH2 0x2006 JUMPI DUP1 PUSH1 0x1F LT PUSH2 0x1FDD JUMPI PUSH2 0x100 DUP1 DUP4 SLOAD DIV MUL DUP4 MSTORE SWAP2 PUSH1 0x20 ADD SWAP2 PUSH2 0x2006 JUMP JUMPDEST DUP3 ADD SWAP2 SWAP1 PUSH0 MSTORE PUSH1 0x20 PUSH0 KECCAK256 SWAP1 JUMPDEST DUP2 SLOAD DUP2 MSTORE SWAP1 PUSH1 0x1 ADD SWAP1 PUSH1 0x20 ADD DUP1 DUP4 GT PUSH2 0x1FE9 JUMPI DUP3 SWAP1 SUB PUSH1 0x1F AND DUP3 ADD SWAP2 JUMPDEST POP POP POP POP POP DUP2 MSTORE PUSH1 0x20 ADD SWAP1 PUSH1 0x1 ADD SWAP1 PUSH2 0x1F72 JUMP JUMPDEST POP POP POP POP SWAP1 POP SWAP2 SWAP1 POP JUMP JUMPDEST PUSH0 PUSH32 0x7965DB0B00000000000000000000000000000000000000000000000000000000 PUSH28 0xFFFFFFFFFFFFFFFFFFFFFFFFFFFFFFFFFFFFFFFFFFFFFFFFFFFFFFFF NOT AND DUP3 PUSH28 0xFFFFFFFFFFFFFFFFFFFFFFFFFFFFFFFFFFFFFFFFFFFFFFFFFFFFFFFF NOT AND EQ DUP1 PUSH2 0x2097 JUMPI POP PUSH2 0x2096 DUP3 PUSH2 0x2B23 JUMP JUMPDEST JUMPDEST SWAP1 POP SWAP2 SWAP1 POP JUMP JUMPDEST PUSH0 DUP1 PUSH2 0x20A9 DUP4 PUSH2 0x2C04 JUMP JUMPDEST SWAP1 POP PUSH0 PUSH20 0xFFFFFFFFFFFFFFFFFFFFFFFFFFFFFFFFFFFFFFFF AND DUP2 PUSH20 0xFFFFFFFFFFFFFFFFFFFFFFFFFFFFFFFFFFFFFFFF AND SUB PUSH2 0x211B JUMPI DUP3 PUSH1 0x40 MLOAD PUSH32 0x7E27328900000000000000000000000000000000000000000000000000000000 DUP2 MSTORE PUSH1 0x4 ADD PUSH2 0x2112 SWAP2 SWAP1 PUSH2 0x3A39 JUMP JUMPDEST PUSH1 0x40 MLOAD DUP1 SWAP2 SUB SWAP1 REVERT JUMPDEST DUP1 SWAP2 POP POP SWAP2 SWAP1 POP JUMP JUMPDEST PUSH0 PUSH1 0x4 PUSH0 DUP4 DUP2 MSTORE PUSH1 0x20 ADD SWAP1 DUP2 MSTORE PUSH1 0x20 ADD PUSH0 KECCAK256 PUSH0 SWAP1 SLOAD SWAP1 PUSH2 0x100 EXP SWAP1 DIV PUSH20 0xFFFFFFFFFFFFFFFFFFFFFFFFFFFFFFFFFFFFFFFF AND SWAP1 POP SWAP2 SWAP1 POP JUMP JUMPDEST PUSH0 CALLER SWAP1 POP SWAP1 JUMP JUMPDEST PUSH2 0x2171 DUP4 DUP4 DUP4 PUSH1 0x1 PUSH2 0x2C3D JUMP JUMPDEST POP POP POP JUMP JUMPDEST PUSH0 DUP1 PUSH20 0xFFFFFFFFFFFFFFFFFFFFFFFFFFFFFFFFFFFFFFFF AND PUSH2 0x2197 DUP4 PUSH2 0x2C04 JUMP JUMPDEST PUSH20 0xFFFFFFFFFFFFFFFFFFFFFFFFFFFFFFFFFFFFFFFF AND EQ ISZERO SWAP1 POP SWAP2 SWAP1 POP JUMP JUMPDEST PUSH0 DUP1 PUSH2 0x21C1 DUP5 PUSH2 0x2C04 JUMP JUMPDEST SWAP1 POP PUSH0 PUSH20 0xFFFFFFFFFFFFFFFFFFFFFFFFFFFFFFFFFFFFFFFF AND DUP4 PUSH20 0xFFFFFFFFFFFFFFFFFFFFFFFFFFFFFFFFFFFFFFFF AND EQ PUSH2 0x2202 JUMPI PUSH2 0x2201 DUP2 DUP5 DUP7 PUSH2 0x2DFC JUMP JUMPDEST JUMPDEST PUSH0 PUSH20 0xFFFFFFFFFFFFFFFFFFFFFFFFFFFFFFFFFFFFFFFF AND DUP2 PUSH20 0xFFFFFFFFFFFFFFFFFFFFFFFFFFFFFFFFFFFFFFFF AND EQ PUSH2 0x228D JUMPI PUSH2 0x2241 PUSH0 DUP6 PUSH0 DUP1 PUSH2 0x2C3D JUMP JUMPDEST PUSH1 0x1 PUSH1 0x3 PUSH0 DUP4 PUSH20 0xFFFFFFFFFFFFFFFFFFFFFFFFFFFFFFFFFFFFFFFF AND PUSH20 0xFFFFFFFFFFFFFFFFFFFFFFFFFFFFFFFFFFFFFFFF AND DUP2 MSTORE PUSH1 0x20 ADD SWAP1 DUP2 MSTORE PUSH1 0x20 ADD PUSH0 KECCAK256 PUSH0 DUP3 DUP3 SLOAD SUB SWAP3 POP POP DUP2 SWAP1 SSTORE POP JUMPDEST PUSH0 PUSH20 0xFFFFFFFFFFFFFFFFFFFFFFFFFFFFFFFFFFFFFFFF AND DUP6 PUSH20 0xFFFFFFFFFFFFFFFFFFFFFFFFFFFFFFFFFFFFFFFF AND EQ PUSH2 0x230C JUMPI PUSH1 0x1 PUSH1 0x3 PUSH0 DUP8 PUSH20 0xFFFFFFFFFFFFFFFFFFFFFFFFFFFFFFFFFFFFFFFF AND PUSH20 0xFFFFFFFFFFFFFFFFFFFFFFFFFFFFFFFFFFFFFFFF AND DUP2 MSTORE PUSH1 0x20 ADD SWAP1 DUP2 MSTORE PUSH1 0x20 ADD PUSH0 KECCAK256 PUSH0 DUP3 DUP3 SLOAD ADD SWAP3 POP POP DUP2 SWAP1 SSTORE POP JUMPDEST DUP5 PUSH1 0x2 PUSH0 DUP7 DUP2 MSTORE PUSH1 0x20 ADD SWAP1 DUP2 MSTORE PUSH1 0x20 ADD PUSH0 KECCAK256 PUSH0 PUSH2 0x100 EXP DUP2 SLOAD DUP2 PUSH20 0xFFFFFFFFFFFFFFFFFFFFFFFFFFFFFFFFFFFFFFFF MUL NOT AND SWAP1 DUP4 PUSH20 0xFFFFFFFFFFFFFFFFFFFFFFFFFFFFFFFFFFFFFFFF AND MUL OR SWAP1 SSTORE POP DUP4 DUP6 PUSH20 0xFFFFFFFFFFFFFFFFFFFFFFFFFFFFFFFFFFFFFFFF AND DUP3 PUSH20 0xFFFFFFFFFFFFFFFFFFFFFFFFFFFFFFFFFFFFFFFF AND PUSH32 0xDDF252AD1BE2C89B69C2B068FC378DAA952BA7F163C4A11628F55A4DF523B3EF PUSH1 0x40 MLOAD PUSH1 0x40 MLOAD DUP1 SWAP2 SUB SWAP1 LOG4 DUP1 SWAP2 POP POP SWAP4 SWAP3 POP POP POP JUMP JUMPDEST PUSH2 0x23D2 DUP2 PUSH2 0x23CD PUSH2 0x215D JUMP JUMPDEST PUSH2 0x2EBF JUMP JUMPDEST POP JUMP JUMPDEST PUSH0 PUSH2 0x23E0 DUP4 DUP4 PUSH2 0x1676 JUMP JUMPDEST PUSH2 0x24B5 JUMPI PUSH1 0x1 PUSH1 0x6 PUSH0 DUP6 DUP2 MSTORE PUSH1 0x20 ADD SWAP1 DUP2 MSTORE PUSH1 0x20 ADD PUSH0 KECCAK256 PUSH0 ADD PUSH0 DUP5 PUSH20 0xFFFFFFFFFFFFFFFFFFFFFFFFFFFFFFFFFFFFFFFF AND PUSH20 0xFFFFFFFFFFFFFFFFFFFFFFFFFFFFFFFFFFFFFFFF AND DUP2 MSTORE PUSH1 0x20 ADD SWAP1 DUP2 MSTORE PUSH1 0x20 ADD PUSH0 KECCAK256 PUSH0 PUSH2 0x100 EXP DUP2 SLOAD DUP2 PUSH1 0xFF MUL NOT AND SWAP1 DUP4 ISZERO ISZERO MUL OR SWAP1 SSTORE POP PUSH2 0x2452 PUSH2 0x215D JUMP JUMPDEST PUSH20 0xFFFFFFFFFFFFFFFFFFFFFFFFFFFFFFFFFFFFFFFF AND DUP3 PUSH20 0xFFFFFFFFFFFFFFFFFFFFFFFFFFFFFFFFFFFFFFFF AND DUP5 PUSH32 0x2F8788117E7EFF1D82E926EC794901D17C78024A50270940304540A733656F0D PUSH1 0x40 MLOAD PUSH1 0x40 MLOAD DUP1 SWAP2 SUB SWAP1 LOG4 PUSH1 0x1 SWAP1 POP PUSH2 0x24B9 JUMP JUMPDEST PUSH0 SWAP1 POP JUMPDEST SWAP3 SWAP2 POP POP JUMP JUMPDEST PUSH0 PUSH2 0x24CA DUP4 DUP4 PUSH2 0x1676 JUMP JUMPDEST ISZERO PUSH2 0x259F JUMPI PUSH0 PUSH1 0x6 PUSH0 DUP6 DUP2 MSTORE PUSH1 0x20 ADD SWAP1 DUP2 MSTORE PUSH1 0x20 ADD PUSH0 KECCAK256 PUSH0 ADD PUSH0 DUP5 PUSH20 0xFFFFFFFFFFFFFFFFFFFFFFFFFFFFFFFFFFFFFFFF AND PUSH20 0xFFFFFFFFFFFFFFFFFFFFFFFFFFFFFFFFFFFFFFFF AND DUP2 MSTORE PUSH1 0x20 ADD SWAP1 DUP2 MSTORE PUSH1 0x20 ADD PUSH0 KECCAK256 PUSH0 PUSH2 0x100 EXP DUP2 SLOAD DUP2 PUSH1 0xFF MUL NOT AND SWAP1 DUP4 ISZERO ISZERO MUL OR SWAP1 SSTORE POP PUSH2 0x253C PUSH2 0x215D JUMP JUMPDEST PUSH20 0xFFFFFFFFFFFFFFFFFFFFFFFFFFFFFFFFFFFFFFFF AND DUP3 PUSH20 0xFFFFFFFFFFFFFFFFFFFFFFFFFFFFFFFFFFFFFFFF AND DUP5 PUSH32 0xF6391F5C32D9C69D2A47EA670B442974B53935D1EDC7FD64EB21E047A839171B PUSH1 0x40 MLOAD PUSH1 0x40 MLOAD DUP1 SWAP2 SUB SWAP1 LOG4 PUSH1 0x1 SWAP1 POP PUSH2 0x25A3 JUMP JUMPDEST PUSH0 SWAP1 POP JUMPDEST SWAP3 SWAP2 POP POP JUMP JUMPDEST PUSH2 0x25C2 DUP3 DUP3 PUSH1 0x40 MLOAD DUP1 PUSH1 0x20 ADD PUSH1 0x40 MSTORE DUP1 PUSH0 DUP2 MSTORE POP PUSH2 0x2F10 JUMP JUMPDEST POP POP JUMP JUMPDEST PUSH0 PUSH20 0xFFFFFFFFFFFFFFFFFFFFFFFFFFFFFFFFFFFFFFFF AND DUP3 PUSH20 0xFFFFFFFFFFFFFFFFFFFFFFFFFFFFFFFFFFFFFFFF AND SUB PUSH2 0x2636 JUMPI DUP2 PUSH1 0x40 MLOAD PUSH32 0x5B08BA1800000000000000000000000000000000000000000000000000000000 DUP2 MSTORE PUSH1 0x4 ADD PUSH2 0x262D SWAP2 SWAP1 PUSH2 0x34EF JUMP JUMPDEST PUSH1 0x40 MLOAD DUP1 SWAP2 SUB SWAP1 REVERT JUMPDEST DUP1 PUSH1 0x5 PUSH0 DUP6 PUSH20 0xFFFFFFFFFFFFFFFFFFFFFFFFFFFFFFFFFFFFFFFF AND PUSH20 0xFFFFFFFFFFFFFFFFFFFFFFFFFFFFFFFFFFFFFFFF AND DUP2 MSTORE PUSH1 0x20 ADD SWAP1 DUP2 MSTORE PUSH1 0x20 ADD PUSH0 KECCAK256 PUSH0 DUP5 PUSH20 0xFFFFFFFFFFFFFFFFFFFFFFFFFFFFFFFFFFFFFFFF AND PUSH20 0xFFFFFFFFFFFFFFFFFFFFFFFFFFFFFFFFFFFFFFFF AND DUP2 MSTORE PUSH1 0x20 ADD SWAP1 DUP2 MSTORE PUSH1 0x20 ADD PUSH0 KECCAK256 PUSH0 PUSH2 0x100 EXP DUP2 SLOAD DUP2 PUSH1 0xFF MUL NOT AND SWAP1 DUP4 ISZERO ISZERO MUL OR SWAP1 SSTORE POP DUP2 PUSH20 0xFFFFFFFFFFFFFFFFFFFFFFFFFFFFFFFFFFFFFFFF AND DUP4 PUSH20 0xFFFFFFFFFFFFFFFFFFFFFFFFFFFFFFFFFFFFFFFF AND PUSH32 0x17307EAB39AB6107E8899845AD3D59BD9653F200F220920489CA2B5937696C31 DUP4 PUSH1 0x40 MLOAD PUSH2 0x2722 SWAP2 SWAP1 PUSH2 0x33A9 JUMP JUMPDEST PUSH1 0x40 MLOAD DUP1 SWAP2 SUB SWAP1 LOG3 POP POP POP JUMP JUMPDEST PUSH0 DUP4 PUSH20 0xFFFFFFFFFFFFFFFFFFFFFFFFFFFFFFFFFFFFFFFF AND EXTCODESIZE GT ISZERO PUSH2 0x28D4 JUMPI DUP3 PUSH20 0xFFFFFFFFFFFFFFFFFFFFFFFFFFFFFFFFFFFFFFFF AND PUSH4 0x150B7A02 DUP7 DUP7 DUP6 DUP6 PUSH1 0x40 MLOAD DUP6 PUSH4 0xFFFFFFFF AND PUSH1 0xE0 SHL DUP2 MSTORE PUSH1 0x4 ADD PUSH2 0x278D SWAP5 SWAP4 SWAP3 SWAP2 SWAP1 PUSH2 0x480E JUMP JUMPDEST PUSH1 0x20 PUSH1 0x40 MLOAD DUP1 DUP4 SUB DUP2 PUSH0 DUP8 GAS CALL SWAP3 POP POP POP DUP1 ISZERO PUSH2 0x27C8 JUMPI POP PUSH1 0x40 MLOAD RETURNDATASIZE PUSH1 0x1F NOT PUSH1 0x1F DUP3 ADD AND DUP3 ADD DUP1 PUSH1 0x40 MSTORE POP DUP2 ADD SWAP1 PUSH2 0x27C5 SWAP2 SWAP1 PUSH2 0x486C JUMP JUMPDEST PUSH1 0x1 JUMPDEST PUSH2 0x2849 JUMPI RETURNDATASIZE DUP1 PUSH0 DUP2 EQ PUSH2 0x27F6 JUMPI PUSH1 0x40 MLOAD SWAP2 POP PUSH1 0x1F NOT PUSH1 0x3F RETURNDATASIZE ADD AND DUP3 ADD PUSH1 0x40 MSTORE RETURNDATASIZE DUP3 MSTORE RETURNDATASIZE PUSH0 PUSH1 0x20 DUP5 ADD RETURNDATACOPY PUSH2 0x27FB JUMP JUMPDEST PUSH1 0x60 SWAP2 POP JUMPDEST POP PUSH0 DUP2 MLOAD SUB PUSH2 0x2841 JUMPI DUP4 PUSH1 0x40 MLOAD PUSH32 0x64A0AE9200000000000000000000000000000000000000000000000000000000 DUP2 MSTORE PUSH1 0x4 ADD PUSH2 0x2838 SWAP2 SWAP1 PUSH2 0x34EF JUMP JUMPDEST PUSH1 0x40 MLOAD DUP1 SWAP2 SUB SWAP1 REVERT JUMPDEST DUP1 MLOAD DUP2 PUSH1 0x20 ADD REVERT JUMPDEST PUSH4 0x150B7A02 PUSH1 0xE0 SHL PUSH28 0xFFFFFFFFFFFFFFFFFFFFFFFFFFFFFFFFFFFFFFFFFFFFFFFFFFFFFFFF NOT AND DUP2 PUSH28 0xFFFFFFFFFFFFFFFFFFFFFFFFFFFFFFFFFFFFFFFFFFFFFFFFFFFFFFFF NOT AND EQ PUSH2 0x28D2 JUMPI DUP4 PUSH1 0x40 MLOAD PUSH32 0x64A0AE9200000000000000000000000000000000000000000000000000000000 DUP2 MSTORE PUSH1 0x4 ADD PUSH2 0x28C9 SWAP2 SWAP1 PUSH2 0x34EF JUMP JUMPDEST PUSH1 0x40 MLOAD DUP1 SWAP2 SUB SWAP1 REVERT JUMPDEST POP JUMPDEST POP POP POP POP POP JUMP JUMPDEST PUSH1 0x60 PUSH1 0x40 MLOAD DUP1 PUSH1 0x20 ADD PUSH1 0x40 MSTORE DUP1 PUSH0 DUP2 MSTORE POP SWAP1 POP SWAP1 JUMP JUMPDEST PUSH1 0x60 PUSH0 PUSH1 0x1 PUSH2 0x28FF DUP5 PUSH2 0x2F33 JUMP JUMPDEST ADD SWAP1 POP PUSH0 DUP2 PUSH8 0xFFFFFFFFFFFFFFFF DUP2 GT ISZERO PUSH2 0x291D JUMPI PUSH2 0x291C PUSH2 0x3810 JUMP JUMPDEST JUMPDEST PUSH1 0x40 MLOAD SWAP1 DUP1 DUP3 MSTORE DUP1 PUSH1 0x1F ADD PUSH1 0x1F NOT AND PUSH1 0x20 ADD DUP3 ADD PUSH1 0x40 MSTORE DUP1 ISZERO PUSH2 0x294F JUMPI DUP2 PUSH1 0x20 ADD PUSH1 0x1 DUP3 MUL DUP1 CALLDATASIZE DUP4 CALLDATACOPY DUP1 DUP3 ADD SWAP2 POP POP SWAP1 POP JUMPDEST POP SWAP1 POP PUSH0 DUP3 PUSH1 0x20 ADD DUP3 ADD SWAP1 POP JUMPDEST PUSH1 0x1 ISZERO PUSH2 0x29B0 JUMPI DUP1 DUP1 PUSH1 0x1 SWAP1 SUB SWAP2 POP POP PUSH32 0x3031323334353637383961626364656600000000000000000000000000000000 PUSH1 0xA DUP7 MOD BYTE DUP2 MSTORE8 PUSH1 0xA DUP6 DUP2 PUSH2 0x29A5 JUMPI PUSH2 0x29A4 PUSH2 0x4897 JUMP JUMPDEST JUMPDEST DIV SWAP5 POP PUSH0 DUP6 SUB PUSH2 0x295C JUMPI JUMPDEST DUP2 SWAP4 POP POP POP POP SWAP2 SWAP1 POP JUMP JUMPDEST PUSH0 PUSH20 0xFFFFFFFFFFFFFFFFFFFFFFFFFFFFFFFFFFFFFFFF AND DUP3 PUSH20 0xFFFFFFFFFFFFFFFFFFFFFFFFFFFFFFFFFFFFFFFF AND SUB PUSH2 0x2A2B JUMPI PUSH0 PUSH1 0x40 MLOAD PUSH32 0x64A0AE9200000000000000000000000000000000000000000000000000000000 DUP2 MSTORE PUSH1 0x4 ADD PUSH2 0x2A22 SWAP2 SWAP1 PUSH2 0x34EF JUMP JUMPDEST PUSH1 0x40 MLOAD DUP1 SWAP2 SUB SWAP1 REVERT JUMPDEST PUSH0 PUSH2 0x2A37 DUP4 DUP4 PUSH0 PUSH2 0x21B6 JUMP JUMPDEST SWAP1 POP PUSH0 PUSH20 0xFFFFFFFFFFFFFFFFFFFFFFFFFFFFFFFFFFFFFFFF AND DUP2 PUSH20 0xFFFFFFFFFFFFFFFFFFFFFFFFFFFFFFFFFFFFFFFF AND SUB PUSH2 0x2AA9 JUMPI DUP2 PUSH1 0x40 MLOAD PUSH32 0x7E27328900000000000000000000000000000000000000000000000000000000 DUP2 MSTORE PUSH1 0x4 ADD PUSH2 0x2AA0 SWAP2 SWAP1 PUSH2 0x3A39 JUMP JUMPDEST PUSH1 0x40 MLOAD DUP1 SWAP2 SUB SWAP1 REVERT JUMPDEST DUP4 PUSH20 0xFFFFFFFFFFFFFFFFFFFFFFFFFFFFFFFFFFFFFFFF AND DUP2 PUSH20 0xFFFFFFFFFFFFFFFFFFFFFFFFFFFFFFFFFFFFFFFF AND EQ PUSH2 0x2B1D JUMPI DUP4 DUP3 DUP3 PUSH1 0x40 MLOAD PUSH32 0x64283D7B00000000000000000000000000000000000000000000000000000000 DUP2 MSTORE PUSH1 0x4 ADD PUSH2 0x2B14 SWAP4 SWAP3 SWAP2 SWAP1 PUSH2 0x4312 JUMP JUMPDEST PUSH1 0x40 MLOAD DUP1 SWAP2 SUB SWAP1 REVERT JUMPDEST POP POP POP POP JUMP JUMPDEST PUSH0 PUSH32 0x80AC58CD00000000000000000000000000000000000000000000000000000000 PUSH28 0xFFFFFFFFFFFFFFFFFFFFFFFFFFFFFFFFFFFFFFFFFFFFFFFFFFFFFFFF NOT AND DUP3 PUSH28 0xFFFFFFFFFFFFFFFFFFFFFFFFFFFFFFFFFFFFFFFFFFFFFFFFFFFFFFFF NOT AND EQ DUP1 PUSH2 0x2BED JUMPI POP PUSH32 0x5B5E139F00000000000000000000000000000000000000000000000000000000 PUSH28 0xFFFFFFFFFFFFFFFFFFFFFFFFFFFFFFFFFFFFFFFFFFFFFFFFFFFFFFFF NOT AND DUP3 PUSH28 0xFFFFFFFFFFFFFFFFFFFFFFFFFFFFFFFFFFFFFFFFFFFFFFFFFFFFFFFF NOT AND EQ JUMPDEST DUP1 PUSH2 0x2BFD JUMPI POP PUSH2 0x2BFC DUP3 PUSH2 0x3084 JUMP JUMPDEST JUMPDEST SWAP1 POP SWAP2 SWAP1 POP JUMP JUMPDEST PUSH0 PUSH1 0x2 PUSH0 DUP4 DUP2 MSTORE PUSH1 0x20 ADD SWAP1 DUP2 MSTORE PUSH1 0x20 ADD PUSH0 KECCAK256 PUSH0 SWAP1 SLOAD SWAP1 PUSH2 0x100 EXP SWAP1 DIV PUSH20 0xFFFFFFFFFFFFFFFFFFFFFFFFFFFFFFFFFFFFFFFF AND SWAP1 POP SWAP2 SWAP1 POP JUMP JUMPDEST DUP1 DUP1 PUSH2 0x2C75 JUMPI POP PUSH0 PUSH20 0xFFFFFFFFFFFFFFFFFFFFFFFFFFFFFFFFFFFFFFFF AND DUP3 PUSH20 0xFFFFFFFFFFFFFFFFFFFFFFFFFFFFFFFFFFFFFFFF AND EQ ISZERO JUMPDEST ISZERO PUSH2 0x2DA7 JUMPI PUSH0 PUSH2 0x2C84 DUP5 PUSH2 0x209E JUMP JUMPDEST SWAP1 POP PUSH0 PUSH20 0xFFFFFFFFFFFFFFFFFFFFFFFFFFFFFFFFFFFFFFFF AND DUP4 PUSH20 0xFFFFFFFFFFFFFFFFFFFFFFFFFFFFFFFFFFFFFFFF AND EQ ISZERO DUP1 ISZERO PUSH2 0x2CEE JUMPI POP DUP3 PUSH20 0xFFFFFFFFFFFFFFFFFFFFFFFFFFFFFFFFFFFFFFFF AND DUP2 PUSH20 0xFFFFFFFFFFFFFFFFFFFFFFFFFFFFFFFFFFFFFFFF AND EQ ISZERO JUMPDEST DUP1 ISZERO PUSH2 0x2D01 JUMPI POP PUSH2 0x2CFF DUP2 DUP5 PUSH2 0x1E6A JUMP JUMPDEST ISZERO JUMPDEST ISZERO PUSH2 0x2D43 JUMPI DUP3 PUSH1 0x40 MLOAD PUSH32 0xA9FBF51F00000000000000000000000000000000000000000000000000000000 DUP2 MSTORE PUSH1 0x4 ADD PUSH2 0x2D3A SWAP2 SWAP1 PUSH2 0x34EF JUMP JUMPDEST PUSH1 0x40 MLOAD DUP1 SWAP2 SUB SWAP1 REVERT JUMPDEST DUP2 ISZERO PUSH2 0x2DA5 JUMPI DUP4 DUP6 PUSH20 0xFFFFFFFFFFFFFFFFFFFFFFFFFFFFFFFFFFFFFFFF AND DUP3 PUSH20 0xFFFFFFFFFFFFFFFFFFFFFFFFFFFFFFFFFFFFFFFF AND PUSH32 0x8C5BE1E5EBEC7D5BD14F71427D1E84F3DD0314C0F7B2291E5B200AC8C7C3B925 PUSH1 0x40 MLOAD PUSH1 0x40 MLOAD DUP1 SWAP2 SUB SWAP1 LOG4 JUMPDEST POP JUMPDEST DUP4 PUSH1 0x4 PUSH0 DUP6 DUP2 MSTORE PUSH1 0x20 ADD SWAP1 DUP2 MSTORE PUSH1 0x20 ADD PUSH0 KECCAK256 PUSH0 PUSH2 0x100 EXP DUP2 SLOAD DUP2 PUSH20 0xFFFFFFFFFFFFFFFFFFFFFFFFFFFFFFFFFFFFFFFF MUL NOT AND SWAP1 DUP4 PUSH20 0xFFFFFFFFFFFFFFFFFFFFFFFFFFFFFFFFFFFFFFFF AND MUL OR SWAP1 SSTORE POP POP POP POP POP JUMP JUMPDEST PUSH2 0x2E07 DUP4 DUP4 DUP4 PUSH2 0x30ED JUMP JUMPDEST PUSH2 0x2EBA JUMPI PUSH0 PUSH20 0xFFFFFFFFFFFFFFFFFFFFFFFFFFFFFFFFFFFFFFFF AND DUP4 PUSH20 0xFFFFFFFFFFFFFFFFFFFFFFFFFFFFFFFFFFFFFFFF AND SUB PUSH2 0x2E7B JUMPI DUP1 PUSH1 0x40 MLOAD PUSH32 0x7E27328900000000000000000000000000000000000000000000000000000000 DUP2 MSTORE PUSH1 0x4 ADD PUSH2 0x2E72 SWAP2 SWAP1 PUSH2 0x3A39 JUMP JUMPDEST PUSH1 0x40 MLOAD DUP1 SWAP2 SUB SWAP1 REVERT JUMPDEST DUP2 DUP2 PUSH1 0x40 MLOAD PUSH32 0x177E802F00000000000000000000000000000000000000000000000000000000 DUP2 MSTORE PUSH1 0x4 ADD PUSH2 0x2EB1 SWAP3 SWAP2 SWAP1 PUSH2 0x42EB JUMP JUMPDEST PUSH1 0x40 MLOAD DUP1 SWAP2 SUB SWAP1 REVERT JUMPDEST POP POP POP JUMP JUMPDEST PUSH2 0x2EC9 DUP3 DUP3 PUSH2 0x1676 JUMP JUMPDEST PUSH2 0x2F0C JUMPI DUP1 DUP3 PUSH1 0x40 MLOAD PUSH32 0xE2517D3F00000000000000000000000000000000000000000000000000000000 DUP2 MSTORE PUSH1 0x4 ADD PUSH2 0x2F03 SWAP3 SWAP2 SWAP1 PUSH2 0x48C4 JUMP JUMPDEST PUSH1 0x40 MLOAD DUP1 SWAP2 SUB SWAP1 REVERT JUMPDEST POP POP JUMP JUMPDEST PUSH2 0x2F1A DUP4 DUP4 PUSH2 0x31AD JUMP JUMPDEST PUSH2 0x2F2E PUSH2 0x2F25 PUSH2 0x215D JUMP JUMPDEST PUSH0 DUP6 DUP6 DUP6 PUSH2 0x272F JUMP JUMPDEST POP POP POP JUMP JUMPDEST PUSH0 DUP1 PUSH0 SWAP1 POP PUSH27 0x184F03E93FF9F4DAA797ED6E38ED64BF6A1F010000000000000000 DUP4 LT PUSH2 0x2F8F JUMPI PUSH27 0x184F03E93FF9F4DAA797ED6E38ED64BF6A1F010000000000000000 DUP4 DUP2 PUSH2 0x2F85 JUMPI PUSH2 0x2F84 PUSH2 0x4897 JUMP JUMPDEST JUMPDEST DIV SWAP3 POP PUSH1 0x40 DUP2 ADD SWAP1 POP JUMPDEST PUSH14 0x4EE2D6D415B85ACEF8100000000 DUP4 LT PUSH2 0x2FCC JUMPI PUSH14 0x4EE2D6D415B85ACEF8100000000 DUP4 DUP2 PUSH2 0x2FC2 JUMPI PUSH2 0x2FC1 PUSH2 0x4897 JUMP JUMPDEST JUMPDEST DIV SWAP3 POP PUSH1 0x20 DUP2 ADD SWAP1 POP JUMPDEST PUSH7 0x2386F26FC10000 DUP4 LT PUSH2 0x2FFB JUMPI PUSH7 0x2386F26FC10000 DUP4 DUP2 PUSH2 0x2FF1 JUMPI PUSH2 0x2FF0 PUSH2 0x4897 JUMP JUMPDEST JUMPDEST DIV SWAP3 POP PUSH1 0x10 DUP2 ADD SWAP1 POP JUMPDEST PUSH4 0x5F5E100 DUP4 LT PUSH2 0x3024 JUMPI PUSH4 0x5F5E100 DUP4 DUP2 PUSH2 0x301A JUMPI PUSH2 0x3019 PUSH2 0x4897 JUMP JUMPDEST JUMPDEST DIV SWAP3 POP PUSH1 0x8 DUP2 ADD SWAP1 POP JUMPDEST PUSH2 0x2710 DUP4 LT PUSH2 0x3049 JUMPI PUSH2 0x2710 DUP4 DUP2 PUSH2 0x303F JUMPI PUSH2 0x303E PUSH2 0x4897 JUMP JUMPDEST JUMPDEST DIV SWAP3 POP PUSH1 0x4 DUP2 ADD SWAP1 POP JUMPDEST PUSH1 0x64 DUP4 LT PUSH2 0x306C JUMPI PUSH1 0x64 DUP4 DUP2 PUSH2 0x3062 JUMPI PUSH2 0x3061 PUSH2 0x4897 JUMP JUMPDEST JUMPDEST DIV SWAP3 POP PUSH1 0x2 DUP2 ADD SWAP1 POP JUMPDEST PUSH1 0xA DUP4 LT PUSH2 0x307B JUMPI PUSH1 0x1 DUP2 ADD SWAP1 POP JUMPDEST DUP1 SWAP2 POP POP SWAP2 SWAP1 POP JUMP JUMPDEST PUSH0 PUSH32 0x1FFC9A700000000000000000000000000000000000000000000000000000000 PUSH28 0xFFFFFFFFFFFFFFFFFFFFFFFFFFFFFFFFFFFFFFFFFFFFFFFFFFFFFFFF NOT AND DUP3 PUSH28 0xFFFFFFFFFFFFFFFFFFFFFFFFFFFFFFFFFFFFFFFFFFFFFFFFFFFFFFFF NOT AND EQ SWAP1 POP SWAP2 SWAP1 POP JUMP JUMPDEST PUSH0 DUP1 PUSH20 0xFFFFFFFFFFFFFFFFFFFFFFFFFFFFFFFFFFFFFFFF AND DUP4 PUSH20 0xFFFFFFFFFFFFFFFFFFFFFFFFFFFFFFFFFFFFFFFF AND EQ ISZERO DUP1 ISZERO PUSH2 0x31A4 JUMPI POP DUP3 PUSH20 0xFFFFFFFFFFFFFFFFFFFFFFFFFFFFFFFFFFFFFFFF AND DUP5 PUSH20 0xFFFFFFFFFFFFFFFFFFFFFFFFFFFFFFFFFFFFFFFF AND EQ DUP1 PUSH2 0x3165 JUMPI POP PUSH2 0x3164 DUP5 DUP5 PUSH2 0x1E6A JUMP JUMPDEST JUMPDEST DUP1 PUSH2 0x31A3 JUMPI POP DUP3 PUSH20 0xFFFFFFFFFFFFFFFFFFFFFFFFFFFFFFFFFFFFFFFF AND PUSH2 0x318B DUP4 PUSH2 0x2124 JUMP JUMPDEST PUSH20 0xFFFFFFFFFFFFFFFFFFFFFFFFFFFFFFFFFFFFFFFF AND EQ JUMPDEST JUMPDEST SWAP1 POP SWAP4 SWAP3 POP POP POP JUMP JUMPDEST PUSH0 PUSH20 0xFFFFFFFFFFFFFFFFFFFFFFFFFFFFFFFFFFFFFFFF AND DUP3 PUSH20 0xFFFFFFFFFFFFFFFFFFFFFFFFFFFFFFFFFFFFFFFF AND SUB PUSH2 0x321D JUMPI PUSH0 PUSH1 0x40 MLOAD PUSH32 0x64A0AE9200000000000000000000000000000000000000000000000000000000 DUP2 MSTORE PUSH1 0x4 ADD PUSH2 0x3214 SWAP2 SWAP1 PUSH2 0x34EF JUMP JUMPDEST PUSH1 0x40 MLOAD DUP1 SWAP2 SUB SWAP1 REVERT JUMPDEST PUSH0 PUSH2 0x3229 DUP4 DUP4 PUSH0 PUSH2 0x21B6 JUMP JUMPDEST SWAP1 POP PUSH0 PUSH20 0xFFFFFFFFFFFFFFFFFFFFFFFFFFFFFFFFFFFFFFFF AND DUP2 PUSH20 0xFFFFFFFFFFFFFFFFFFFFFFFFFFFFFFFFFFFFFFFF AND EQ PUSH2 0x329B JUMPI PUSH0 PUSH1 0x40 MLOAD PUSH32 0x73C6AC6E00000000000000000000000000000000000000000000000000000000 DUP2 MSTORE PUSH1 0x4 ADD PUSH2 0x3292 SWAP2 SWAP1 PUSH2 0x34EF JUMP JUMPDEST PUSH1 0x40 MLOAD DUP1 SWAP2 SUB SWAP1 REVERT JUMPDEST POP POP POP JUMP JUMPDEST PUSH1 0x40 MLOAD DUP1 PUSH1 0xC0 ADD PUSH1 0x40 MSTORE DUP1 PUSH0 DUP2 MSTORE PUSH1 0x20 ADD PUSH1 0x60 DUP2 MSTORE PUSH1 0x20 ADD PUSH0 PUSH20 0xFFFFFFFFFFFFFFFFFFFFFFFFFFFFFFFFFFFFFFFF AND DUP2 MSTORE PUSH1 0x20 ADD PUSH0 DUP2 MSTORE PUSH1 0x20 ADD PUSH1 0x60 DUP2 MSTORE PUSH1 0x20 ADD PUSH0 PUSH20 0xFFFFFFFFFFFFFFFFFFFFFFFFFFFFFFFFFFFFFFFF AND DUP2 MSTORE POP SWAP1 JUMP JUMPDEST PUSH0 PUSH1 0x40 MLOAD SWAP1 POP SWAP1 JUMP JUMPDEST PUSH0 DUP1 REVERT JUMPDEST PUSH0 DUP1 REVERT JUMPDEST PUSH0 PUSH32 0xFFFFFFFF00000000000000000000000000000000000000000000000000000000 DUP3 AND SWAP1 POP SWAP2 SWAP1 POP JUMP JUMPDEST PUSH2 0x3343 DUP2 PUSH2 0x330F JUMP JUMPDEST DUP2 EQ PUSH2 0x334D JUMPI PUSH0 DUP1 REVERT JUMPDEST POP JUMP JUMPDEST PUSH0 DUP2 CALLDATALOAD SWAP1 POP PUSH2 0x335E DUP2 PUSH2 0x333A JUMP JUMPDEST SWAP3 SWAP2 POP POP JUMP JUMPDEST PUSH0 PUSH1 0x20 DUP3 DUP5 SUB SLT ISZERO PUSH2 0x3379 JUMPI PUSH2 0x3378 PUSH2 0x3307 JUMP JUMPDEST JUMPDEST PUSH0 PUSH2 0x3386 DUP5 DUP3 DUP6 ADD PUSH2 0x3350 JUMP JUMPDEST SWAP2 POP POP SWAP3 SWAP2 POP POP JUMP JUMPDEST PUSH0 DUP2 ISZERO ISZERO SWAP1 POP SWAP2 SWAP1 POP JUMP JUMPDEST PUSH2 0x33A3 DUP2 PUSH2 0x338F JUMP JUMPDEST DUP3 MSTORE POP POP JUMP JUMPDEST PUSH0 PUSH1 0x20 DUP3 ADD SWAP1 POP PUSH2 0x33BC PUSH0 DUP4 ADD DUP5 PUSH2 0x339A JUMP JUMPDEST SWAP3 SWAP2 POP POP JUMP JUMPDEST PUSH0 DUP2 MLOAD SWAP1 POP SWAP2 SWAP1 POP JUMP JUMPDEST PUSH0 DUP3 DUP3 MSTORE PUSH1 0x20 DUP3 ADD SWAP1 POP SWAP3 SWAP2 POP POP JUMP JUMPDEST DUP3 DUP2 DUP4 MCOPY PUSH0 DUP4 DUP4 ADD MSTORE POP POP POP JUMP JUMPDEST PUSH0 PUSH1 0x1F NOT PUSH1 0x1F DUP4 ADD AND SWAP1 POP SWAP2 SWAP1 POP JUMP JUMPDEST PUSH0 PUSH2 0x3404 DUP3 PUSH2 0x33C2 JUMP JUMPDEST PUSH2 0x340E DUP2 DUP6 PUSH2 0x33CC JUMP JUMPDEST SWAP4 POP PUSH2 0x341E DUP2 DUP6 PUSH1 0x20 DUP7 ADD PUSH2 0x33DC JUMP JUMPDEST PUSH2 0x3427 DUP2 PUSH2 0x33EA JUMP JUMPDEST DUP5 ADD SWAP2 POP POP SWAP3 SWAP2 POP POP JUMP JUMPDEST PUSH0 PUSH1 0x20 DUP3 ADD SWAP1 POP DUP2 DUP2 SUB PUSH0 DUP4 ADD MSTORE PUSH2 0x344A DUP2 DUP5 PUSH2 0x33FA JUMP JUMPDEST SWAP1 POP SWAP3 SWAP2 POP POP JUMP JUMPDEST PUSH0 DUP2 SWAP1 POP SWAP2 SWAP1 POP JUMP JUMPDEST PUSH2 0x3464 DUP2 PUSH2 0x3452 JUMP JUMPDEST DUP2 EQ PUSH2 0x346E JUMPI PUSH0 DUP1 REVERT JUMPDEST POP JUMP JUMPDEST PUSH0 DUP2 CALLDATALOAD SWAP1 POP PUSH2 0x347F DUP2 PUSH2 0x345B JUMP JUMPDEST SWAP3 SWAP2 POP POP JUMP JUMPDEST PUSH0 PUSH1 0x20 DUP3 DUP5 SUB SLT ISZERO PUSH2 0x349A JUMPI PUSH2 0x3499 PUSH2 0x3307 JUMP JUMPDEST JUMPDEST PUSH0 PUSH2 0x34A7 DUP5 DUP3 DUP6 ADD PUSH2 0x3471 JUMP JUMPDEST SWAP2 POP POP SWAP3 SWAP2 POP POP JUMP JUMPDEST PUSH0 PUSH20 0xFFFFFFFFFFFFFFFFFFFFFFFFFFFFFFFFFFFFFFFF DUP3 AND SWAP1 POP SWAP2 SWAP1 POP JUMP JUMPDEST PUSH0 PUSH2 0x34D9 DUP3 PUSH2 0x34B0 JUMP JUMPDEST SWAP1 POP SWAP2 SWAP1 POP JUMP JUMPDEST PUSH2 0x34E9 DUP2 PUSH2 0x34CF JUMP JUMPDEST DUP3 MSTORE POP POP JUMP JUMPDEST PUSH0 PUSH1 0x20 DUP3 ADD SWAP1 POP PUSH2 0x3502 PUSH0 DUP4 ADD DUP5 PUSH2 0x34E0 JUMP JUMPDEST SWAP3 SWAP2 POP POP JUMP JUMPDEST PUSH2 0x3511 DUP2 PUSH2 0x34CF JUMP JUMPDEST DUP2 EQ PUSH2 0x351B JUMPI PUSH0 DUP1 REVERT JUMPDEST POP JUMP JUMPDEST PUSH0 DUP2 CALLDATALOAD SWAP1 POP PUSH2 0x352C DUP2 PUSH2 0x3508 JUMP JUMPDEST SWAP3 SWAP2 POP POP JUMP JUMPDEST PUSH0 DUP1 PUSH1 0x40 DUP4 DUP6 SUB SLT ISZERO PUSH2 0x3548 JUMPI PUSH2 0x3547 PUSH2 0x3307 JUMP JUMPDEST JUMPDEST PUSH0 PUSH2 0x3555 DUP6 DUP3 DUP7 ADD PUSH2 0x351E JUMP JUMPDEST SWAP3 POP POP PUSH1 0x20 PUSH2 0x3566 DUP6 DUP3 DUP7 ADD PUSH2 0x3471 JUMP JUMPDEST SWAP2 POP POP SWAP3 POP SWAP3 SWAP1 POP JUMP JUMPDEST PUSH0 DUP1 REVERT JUMPDEST PUSH0 DUP1 REVERT JUMPDEST PUSH0 DUP1 REVERT JUMPDEST PUSH0 DUP1 DUP4 PUSH1 0x1F DUP5 ADD SLT PUSH2 0x3591 JUMPI PUSH2 0x3590 PUSH2 0x3570 JUMP JUMPDEST JUMPDEST DUP3 CALLDATALOAD SWAP1 POP PUSH8 0xFFFFFFFFFFFFFFFF DUP2 GT ISZERO PUSH2 0x35AE JUMPI PUSH2 0x35AD PUSH2 0x3574 JUMP JUMPDEST JUMPDEST PUSH1 0x20 DUP4 ADD SWAP2 POP DUP4 PUSH1 0x1 DUP3 MUL DUP4 ADD GT ISZERO PUSH2 0x35CA JUMPI PUSH2 0x35C9 PUSH2 0x3578 JUMP JUMPDEST JUMPDEST SWAP3 POP SWAP3 SWAP1 POP JUMP JUMPDEST PUSH0 DUP1 PUSH0 DUP1 PUSH0 PUSH1 0x80 DUP7 DUP9 SUB SLT ISZERO PUSH2 0x35EA JUMPI PUSH2 0x35E9 PUSH2 0x3307 JUMP JUMPDEST JUMPDEST PUSH0 PUSH2 0x35F7 DUP9 DUP3 DUP10 ADD PUSH2 0x351E JUMP JUMPDEST SWAP6 POP POP PUSH1 0x20 PUSH2 0x3608 DUP9 DUP3 DUP10 ADD PUSH2 0x351E JUMP JUMPDEST SWAP5 POP POP PUSH1 0x40 PUSH2 0x3619 DUP9 DUP3 DUP10 ADD PUSH2 0x3471 JUMP JUMPDEST SWAP4 POP POP PUSH1 0x60 DUP7 ADD CALLDATALOAD PUSH8 0xFFFFFFFFFFFFFFFF DUP2 GT ISZERO PUSH2 0x363A JUMPI PUSH2 0x3639 PUSH2 0x330B JUMP JUMPDEST JUMPDEST PUSH2 0x3646 DUP9 DUP3 DUP10 ADD PUSH2 0x357C JUMP JUMPDEST SWAP3 POP SWAP3 POP POP SWAP3 SWAP6 POP SWAP3 SWAP6 SWAP1 SWAP4 POP JUMP JUMPDEST PUSH2 0x365E DUP2 PUSH2 0x330F JUMP JUMPDEST DUP3 MSTORE POP POP JUMP JUMPDEST PUSH0 PUSH1 0x20 DUP3 ADD SWAP1 POP PUSH2 0x3677 PUSH0 DUP4 ADD DUP5 PUSH2 0x3655 JUMP JUMPDEST SWAP3 SWAP2 POP POP JUMP JUMPDEST PUSH0 DUP1 PUSH0 PUSH1 0x60 DUP5 DUP7 SUB SLT ISZERO PUSH2 0x3694 JUMPI PUSH2 0x3693 PUSH2 0x3307 JUMP JUMPDEST JUMPDEST PUSH0 PUSH2 0x36A1 DUP7 DUP3 DUP8 ADD PUSH2 0x3471 JUMP JUMPDEST SWAP4 POP POP PUSH1 0x20 PUSH2 0x36B2 DUP7 DUP3 DUP8 ADD PUSH2 0x351E JUMP JUMPDEST SWAP3 POP POP PUSH1 0x40 PUSH2 0x36C3 DUP7 DUP3 DUP8 ADD PUSH2 0x3471 JUMP JUMPDEST SWAP2 POP POP SWAP3 POP SWAP3 POP SWAP3 JUMP JUMPDEST PUSH0 DUP1 PUSH0 PUSH1 0x60 DUP5 DUP7 SUB SLT ISZERO PUSH2 0x36E4 JUMPI PUSH2 0x36E3 PUSH2 0x3307 JUMP JUMPDEST JUMPDEST PUSH0 PUSH2 0x36F1 DUP7 DUP3 DUP8 ADD PUSH2 0x351E JUMP JUMPDEST SWAP4 POP POP PUSH1 0x20 PUSH2 0x3702 DUP7 DUP3 DUP8 ADD PUSH2 0x351E JUMP JUMPDEST SWAP3 POP POP PUSH1 0x40 PUSH2 0x3713 DUP7 DUP3 DUP8 ADD PUSH2 0x3471 JUMP JUMPDEST SWAP2 POP POP SWAP3 POP SWAP3 POP SWAP3 JUMP JUMPDEST PUSH0 DUP2 SWAP1 POP SWAP2 SWAP1 POP JUMP JUMPDEST PUSH2 0x372F DUP2 PUSH2 0x371D JUMP JUMPDEST DUP2 EQ PUSH2 0x3739 JUMPI PUSH0 DUP1 REVERT JUMPDEST POP JUMP JUMPDEST PUSH0 DUP2 CALLDATALOAD SWAP1 POP PUSH2 0x374A DUP2 PUSH2 0x3726 JUMP JUMPDEST SWAP3 SWAP2 POP POP JUMP JUMPDEST PUSH0 PUSH1 0x20 DUP3 DUP5 SUB SLT ISZERO PUSH2 0x3765 JUMPI PUSH2 0x3764 PUSH2 0x3307 JUMP JUMPDEST JUMPDEST PUSH0 PUSH2 0x3772 DUP5 DUP3 DUP6 ADD PUSH2 0x373C JUMP JUMPDEST SWAP2 POP POP SWAP3 SWAP2 POP POP JUMP JUMPDEST PUSH2 0x3784 DUP2 PUSH2 0x371D JUMP JUMPDEST DUP3 MSTORE POP POP JUMP JUMPDEST PUSH0 PUSH1 0x20 DUP3 ADD SWAP1 POP PUSH2 0x379D PUSH0 DUP4 ADD DUP5 PUSH2 0x377B JUMP JUMPDEST SWAP3 SWAP2 POP POP JUMP JUMPDEST PUSH0 PUSH1 0x20 DUP3 DUP5 SUB SLT ISZERO PUSH2 0x37B8 JUMPI PUSH2 0x37B7 PUSH2 0x3307 JUMP JUMPDEST JUMPDEST PUSH0 PUSH2 0x37C5 DUP5 DUP3 DUP6 ADD PUSH2 0x351E JUMP JUMPDEST SWAP2 POP POP SWAP3 SWAP2 POP POP JUMP JUMPDEST PUSH0 DUP1 PUSH1 0x40 DUP4 DUP6 SUB SLT ISZERO PUSH2 0x37E4 JUMPI PUSH2 0x37E3 PUSH2 0x3307 JUMP JUMPDEST JUMPDEST PUSH0 PUSH2 0x37F1 DUP6 DUP3 DUP7 ADD PUSH2 0x373C JUMP JUMPDEST SWAP3 POP POP PUSH1 0x20 PUSH2 0x3802 DUP6 DUP3 DUP7 ADD PUSH2 0x351E JUMP JUMPDEST SWAP2 POP POP SWAP3 POP SWAP3 SWAP1 POP JUMP JUMPDEST PUSH0 DUP1 REVERT JUMPDEST PUSH32 0x4E487B7100000000000000000000000000000000000000000000000000000000 PUSH0 MSTORE PUSH1 0x41 PUSH1 0x4 MSTORE PUSH1 0x24 PUSH0 REVERT JUMPDEST PUSH2 0x3846 DUP3 PUSH2 0x33EA JUMP JUMPDEST DUP2 ADD DUP2 DUP2 LT PUSH8 0xFFFFFFFFFFFFFFFF DUP3 GT OR ISZERO PUSH2 0x3865 JUMPI PUSH2 0x3864 PUSH2 0x3810 JUMP JUMPDEST JUMPDEST DUP1 PUSH1 0x40 MSTORE POP POP POP JUMP JUMPDEST PUSH0 PUSH2 0x3877 PUSH2 0x32FE JUMP JUMPDEST SWAP1 POP PUSH2 0x3883 DUP3 DUP3 PUSH2 0x383D JUMP JUMPDEST SWAP2 SWAP1 POP JUMP JUMPDEST PUSH0 PUSH8 0xFFFFFFFFFFFFFFFF DUP3 GT ISZERO PUSH2 0x38A2 JUMPI PUSH2 0x38A1 PUSH2 0x3810 JUMP JUMPDEST JUMPDEST PUSH2 0x38AB DUP3 PUSH2 0x33EA JUMP JUMPDEST SWAP1 POP PUSH1 0x20 DUP2 ADD SWAP1 POP SWAP2 SWAP1 POP JUMP JUMPDEST DUP3 DUP2 DUP4 CALLDATACOPY PUSH0 DUP4 DUP4 ADD MSTORE POP POP POP JUMP JUMPDEST PUSH0 PUSH2 0x38D8 PUSH2 0x38D3 DUP5 PUSH2 0x3888 JUMP JUMPDEST PUSH2 0x386E JUMP JUMPDEST SWAP1 POP DUP3 DUP2 MSTORE PUSH1 0x20 DUP2 ADD DUP5 DUP5 DUP5 ADD GT ISZERO PUSH2 0x38F4 JUMPI PUSH2 0x38F3 PUSH2 0x380C JUMP JUMPDEST JUMPDEST PUSH2 0x38FF DUP5 DUP3 DUP6 PUSH2 0x38B8 JUMP JUMPDEST POP SWAP4 SWAP3 POP POP POP JUMP JUMPDEST PUSH0 DUP3 PUSH1 0x1F DUP4 ADD SLT PUSH2 0x391B JUMPI PUSH2 0x391A PUSH2 0x3570 JUMP JUMPDEST JUMPDEST DUP2 CALLDATALOAD PUSH2 0x392B DUP5 DUP3 PUSH1 0x20 DUP7 ADD PUSH2 0x38C6 JUMP JUMPDEST SWAP2 POP POP SWAP3 SWAP2 POP POP JUMP JUMPDEST PUSH0 DUP1 PUSH1 0x40 DUP4 DUP6 SUB SLT ISZERO PUSH2 0x394A JUMPI PUSH2 0x3949 PUSH2 0x3307 JUMP JUMPDEST JUMPDEST PUSH0 PUSH2 0x3957 DUP6 DUP3 DUP7 ADD PUSH2 0x3471 JUMP JUMPDEST SWAP3 POP POP PUSH1 0x20 DUP4 ADD CALLDATALOAD PUSH8 0xFFFFFFFFFFFFFFFF DUP2 GT ISZERO PUSH2 0x3978 JUMPI PUSH2 0x3977 PUSH2 0x330B JUMP JUMPDEST JUMPDEST PUSH2 0x3984 DUP6 DUP3 DUP7 ADD PUSH2 0x3907 JUMP JUMPDEST SWAP2 POP POP SWAP3 POP SWAP3 SWAP1 POP JUMP JUMPDEST PUSH0 DUP1 PUSH0 DUP1 PUSH1 0x80 DUP6 DUP8 SUB SLT ISZERO PUSH2 0x39A6 JUMPI PUSH2 0x39A5 PUSH2 0x3307 JUMP JUMPDEST JUMPDEST PUSH0 DUP6 ADD CALLDATALOAD PUSH8 0xFFFFFFFFFFFFFFFF DUP2 GT ISZERO PUSH2 0x39C3 JUMPI PUSH2 0x39C2 PUSH2 0x330B JUMP JUMPDEST JUMPDEST PUSH2 0x39CF DUP8 DUP3 DUP9 ADD PUSH2 0x3907 JUMP JUMPDEST SWAP5 POP POP PUSH1 0x20 PUSH2 0x39E0 DUP8 DUP3 DUP9 ADD PUSH2 0x351E JUMP JUMPDEST SWAP4 POP POP PUSH1 0x40 PUSH2 0x39F1 DUP8 DUP3 DUP9 ADD PUSH2 0x3471 JUMP JUMPDEST SWAP3 POP POP PUSH1 0x60 DUP6 ADD CALLDATALOAD PUSH8 0xFFFFFFFFFFFFFFFF DUP2 GT ISZERO PUSH2 0x3A12 JUMPI PUSH2 0x3A11 PUSH2 0x330B JUMP JUMPDEST JUMPDEST PUSH2 0x3A1E DUP8 DUP3 DUP9 ADD PUSH2 0x3907 JUMP JUMPDEST SWAP2 POP POP SWAP3 SWAP6 SWAP2 SWAP5 POP SWAP3 POP JUMP JUMPDEST PUSH2 0x3A33 DUP2 PUSH2 0x3452 JUMP JUMPDEST DUP3 MSTORE POP POP JUMP JUMPDEST PUSH0 PUSH1 0x20 DUP3 ADD SWAP1 POP PUSH2 0x3A4C PUSH0 DUP4 ADD DUP5 PUSH2 0x3A2A JUMP JUMPDEST SWAP3 SWAP2 POP POP JUMP JUMPDEST PUSH0 DUP1 PUSH1 0x40 DUP4 DUP6 SUB SLT ISZERO PUSH2 0x3A68 JUMPI PUSH2 0x3A67 PUSH2 0x3307 JUMP JUMPDEST JUMPDEST PUSH0 PUSH2 0x3A75 DUP6 DUP3 DUP7 ADD PUSH2 0x3471 JUMP JUMPDEST SWAP3 POP POP PUSH1 0x20 PUSH2 0x3A86 DUP6 DUP3 DUP7 ADD PUSH2 0x3471 JUMP JUMPDEST SWAP2 POP POP SWAP3 POP SWAP3 SWAP1 POP JUMP JUMPDEST PUSH32 0x4E487B7100000000000000000000000000000000000000000000000000000000 PUSH0 MSTORE PUSH1 0x21 PUSH1 0x4 MSTORE PUSH1 0x24 PUSH0 REVERT JUMPDEST PUSH1 0x3 DUP2 LT PUSH2 0x3ACE JUMPI PUSH2 0x3ACD PUSH2 0x3A90 JUMP JUMPDEST JUMPDEST POP JUMP JUMPDEST PUSH0 DUP2 SWAP1 POP PUSH2 0x3ADE DUP3 PUSH2 0x3ABD JUMP JUMPDEST SWAP2 SWAP1 POP JUMP JUMPDEST PUSH0 PUSH2 0x3AED DUP3 PUSH2 0x3AD1 JUMP JUMPDEST SWAP1 POP SWAP2 SWAP1 POP JUMP JUMPDEST PUSH2 0x3AFD DUP2 PUSH2 0x3AE3 JUMP JUMPDEST DUP3 MSTORE POP POP JUMP JUMPDEST PUSH0 PUSH1 0x60 DUP3 ADD SWAP1 POP PUSH2 0x3B16 PUSH0 DUP4 ADD DUP7 PUSH2 0x34E0 JUMP JUMPDEST PUSH2 0x3B23 PUSH1 0x20 DUP4 ADD DUP6 PUSH2 0x3A2A JUMP JUMPDEST PUSH2 0x3B30 PUSH1 0x40 DUP4 ADD DUP5 PUSH2 0x3AF4 JUMP JUMPDEST SWAP5 SWAP4 POP POP POP POP JUMP JUMPDEST PUSH2 0x3B41 DUP2 PUSH2 0x3452 JUMP JUMPDEST DUP3 MSTORE POP POP JUMP JUMPDEST PUSH0 DUP3 DUP3 MSTORE PUSH1 0x20 DUP3 ADD SWAP1 POP SWAP3 SWAP2 POP POP JUMP JUMPDEST PUSH0 PUSH2 0x3B61 DUP3 PUSH2 0x33C2 JUMP JUMPDEST PUSH2 0x3B6B DUP2 DUP6 PUSH2 0x3B47 JUMP JUMPDEST SWAP4 POP PUSH2 0x3B7B DUP2 DUP6 PUSH1 0x20 DUP7 ADD PUSH2 0x33DC JUMP JUMPDEST PUSH2 0x3B84 DUP2 PUSH2 0x33EA JUMP JUMPDEST DUP5 ADD SWAP2 POP POP SWAP3 SWAP2 POP POP JUMP JUMPDEST PUSH2 0x3B98 DUP2 PUSH2 0x34CF JUMP JUMPDEST DUP3 MSTORE POP POP JUMP JUMPDEST PUSH0 PUSH1 0xC0 DUP4 ADD PUSH0 DUP4 ADD MLOAD PUSH2 0x3BB3 PUSH0 DUP7 ADD DUP3 PUSH2 0x3B38 JUMP JUMPDEST POP PUSH1 0x20 DUP4 ADD MLOAD DUP5 DUP3 SUB PUSH1 0x20 DUP7 ADD MSTORE PUSH2 0x3BCB DUP3 DUP3 PUSH2 0x3B57 JUMP JUMPDEST SWAP2 POP POP PUSH1 0x40 DUP4 ADD MLOAD PUSH2 0x3BE0 PUSH1 0x40 DUP7 ADD DUP3 PUSH2 0x3B8F JUMP JUMPDEST POP PUSH1 0x60 DUP4 ADD MLOAD PUSH2 0x3BF3 PUSH1 0x60 DUP7 ADD DUP3 PUSH2 0x3B38 JUMP JUMPDEST POP PUSH1 0x80 DUP4 ADD MLOAD DUP5 DUP3 SUB PUSH1 0x80 DUP7 ADD MSTORE PUSH2 0x3C0B DUP3 DUP3 PUSH2 0x3B57 JUMP JUMPDEST SWAP2 POP POP PUSH1 0xA0 DUP4 ADD MLOAD PUSH2 0x3C20 PUSH1 0xA0 DUP7 ADD DUP3 PUSH2 0x3B8F JUMP JUMPDEST POP DUP1 SWAP2 POP POP SWAP3 SWAP2 POP POP JUMP JUMPDEST PUSH0 PUSH1 0x20 DUP3 ADD SWAP1 POP DUP2 DUP2 SUB PUSH0 DUP4 ADD MSTORE PUSH2 0x3C43 DUP2 DUP5 PUSH2 0x3B9E JUMP JUMPDEST SWAP1 POP SWAP3 SWAP2 POP POP JUMP JUMPDEST PUSH2 0x3C54 DUP2 PUSH2 0x338F JUMP JUMPDEST DUP2 EQ PUSH2 0x3C5E JUMPI PUSH0 DUP1 REVERT JUMPDEST POP JUMP JUMPDEST PUSH0 DUP2 CALLDATALOAD SWAP1 POP PUSH2 0x3C6F DUP2 PUSH2 0x3C4B JUMP JUMPDEST SWAP3 SWAP2 POP POP JUMP JUMPDEST PUSH0 DUP1 PUSH1 0x40 DUP4 DUP6 SUB SLT ISZERO PUSH2 0x3C8B JUMPI PUSH2 0x3C8A PUSH2 0x3307 JUMP JUMPDEST JUMPDEST PUSH0 PUSH2 0x3C98 DUP6 DUP3 DUP7 ADD PUSH2 0x351E JUMP JUMPDEST SWAP3 POP POP PUSH1 0x20 PUSH2 0x3CA9 DUP6 DUP3 DUP7 ADD PUSH2 0x3C61 JUMP JUMPDEST SWAP2 POP POP SWAP3 POP SWAP3 SWAP1 POP JUMP JUMPDEST PUSH0 DUP2 MLOAD SWAP1 POP SWAP2 SWAP1 POP JUMP JUMPDEST PUSH0 DUP3 DUP3 MSTORE PUSH1 0x20 DUP3 ADD SWAP1 POP SWAP3 SWAP2 POP POP JUMP JUMPDEST PUSH0 DUP2 SWAP1 POP PUSH1 0x20 DUP3 ADD SWAP1 POP SWAP2 SWAP1 POP JUMP JUMPDEST PUSH2 0x3CE5 DUP2 PUSH2 0x3AE3 JUMP JUMPDEST DUP3 MSTORE POP POP JUMP JUMPDEST PUSH1 0x60 DUP3 ADD PUSH0 DUP3 ADD MLOAD PUSH2 0x3CFF PUSH0 DUP6 ADD DUP3 PUSH2 0x3B8F JUMP JUMPDEST POP PUSH1 0x20 DUP3 ADD MLOAD PUSH2 0x3D12 PUSH1 0x20 DUP6 ADD DUP3 PUSH2 0x3B38 JUMP JUMPDEST POP PUSH1 0x40 DUP3 ADD MLOAD PUSH2 0x3D25 PUSH1 0x40 DUP6 ADD DUP3 PUSH2 0x3CDC JUMP JUMPDEST POP POP POP POP JUMP JUMPDEST PUSH0 PUSH2 0x3D36 DUP4 DUP4 PUSH2 0x3CEB JUMP JUMPDEST PUSH1 0x60 DUP4 ADD SWAP1 POP SWAP3 SWAP2 POP POP JUMP JUMPDEST PUSH0 PUSH1 0x20 DUP3 ADD SWAP1 POP SWAP2 SWAP1 POP JUMP JUMPDEST PUSH0 PUSH2 0x3D58 DUP3 PUSH2 0x3CB3 JUMP JUMPDEST PUSH2 0x3D62 DUP2 DUP6 PUSH2 0x3CBD JUMP JUMPDEST SWAP4 POP PUSH2 0x3D6D DUP4 PUSH2 0x3CCD JUMP JUMPDEST DUP1 PUSH0 JUMPDEST DUP4 DUP2 LT ISZERO PUSH2 0x3D9D JUMPI DUP2 MLOAD PUSH2 0x3D84 DUP9 DUP3 PUSH2 0x3D2B JUMP JUMPDEST SWAP8 POP PUSH2 0x3D8F DUP4 PUSH2 0x3D42 JUMP JUMPDEST SWAP3 POP POP PUSH1 0x1 DUP2 ADD SWAP1 POP PUSH2 0x3D70 JUMP JUMPDEST POP DUP6 SWAP4 POP POP POP POP SWAP3 SWAP2 POP POP JUMP JUMPDEST PUSH0 PUSH1 0x20 DUP3 ADD SWAP1 POP DUP2 DUP2 SUB PUSH0 DUP4 ADD MSTORE PUSH2 0x3DC2 DUP2 DUP5 PUSH2 0x3D4E JUMP JUMPDEST SWAP1 POP SWAP3 SWAP2 POP POP JUMP JUMPDEST PUSH0 PUSH8 0xFFFFFFFFFFFFFFFF DUP3 GT ISZERO PUSH2 0x3DE4 JUMPI PUSH2 0x3DE3 PUSH2 0x3810 JUMP JUMPDEST JUMPDEST PUSH2 0x3DED DUP3 PUSH2 0x33EA JUMP JUMPDEST SWAP1 POP PUSH1 0x20 DUP2 ADD SWAP1 POP SWAP2 SWAP1 POP JUMP JUMPDEST PUSH0 PUSH2 0x3E0C PUSH2 0x3E07 DUP5 PUSH2 0x3DCA JUMP JUMPDEST PUSH2 0x386E JUMP JUMPDEST SWAP1 POP DUP3 DUP2 MSTORE PUSH1 0x20 DUP2 ADD DUP5 DUP5 DUP5 ADD GT ISZERO PUSH2 0x3E28 JUMPI PUSH2 0x3E27 PUSH2 0x380C JUMP JUMPDEST JUMPDEST PUSH2 0x3E33 DUP5 DUP3 DUP6 PUSH2 0x38B8 JUMP JUMPDEST POP SWAP4 SWAP3 POP POP POP JUMP JUMPDEST PUSH0 DUP3 PUSH1 0x1F DUP4 ADD SLT PUSH2 0x3E4F JUMPI PUSH2 0x3E4E PUSH2 0x3570 JUMP JUMPDEST JUMPDEST DUP2 CALLDATALOAD PUSH2 0x3E5F DUP5 DUP3 PUSH1 0x20 DUP7 ADD PUSH2 0x3DFA JUMP JUMPDEST SWAP2 POP POP SWAP3 SWAP2 POP POP JUMP JUMPDEST PUSH0 DUP1 PUSH0 DUP1 PUSH1 0x80 DUP6 DUP8 SUB SLT ISZERO PUSH2 0x3E80 JUMPI PUSH2 0x3E7F PUSH2 0x3307 JUMP JUMPDEST JUMPDEST PUSH0 PUSH2 0x3E8D DUP8 DUP3 DUP9 ADD PUSH2 0x351E JUMP JUMPDEST SWAP5 POP POP PUSH1 0x20 PUSH2 0x3E9E DUP8 DUP3 DUP9 ADD PUSH2 0x351E JUMP JUMPDEST SWAP4 POP POP PUSH1 0x40 PUSH2 0x3EAF DUP8 DUP3 DUP9 ADD PUSH2 0x3471 JUMP JUMPDEST SWAP3 POP POP PUSH1 0x60 DUP6 ADD CALLDATALOAD PUSH8 0xFFFFFFFFFFFFFFFF DUP2 GT ISZERO PUSH2 0x3ED0 JUMPI PUSH2 0x3ECF PUSH2 0x330B JUMP JUMPDEST JUMPDEST PUSH2 0x3EDC DUP8 DUP3 DUP9 ADD PUSH2 0x3E3B JUMP JUMPDEST SWAP2 POP POP SWAP3 SWAP6 SWAP2 SWAP5 POP SWAP3 POP JUMP JUMPDEST PUSH0 PUSH1 0xC0 DUP3 ADD SWAP1 POP PUSH2 0x3EFB PUSH0 DUP4 ADD DUP10 PUSH2 0x3A2A JUMP JUMPDEST DUP2 DUP2 SUB PUSH1 0x20 DUP4 ADD MSTORE PUSH2 0x3F0D DUP2 DUP9 PUSH2 0x33FA JUMP JUMPDEST SWAP1 POP PUSH2 0x3F1C PUSH1 0x40 DUP4 ADD DUP8 PUSH2 0x34E0 JUMP JUMPDEST PUSH2 0x3F29 PUSH1 0x60 DUP4 ADD DUP7 PUSH2 0x3A2A JUMP JUMPDEST DUP2 DUP2 SUB PUSH1 0x80 DUP4 ADD MSTORE PUSH2 0x3F3B DUP2 DUP6 PUSH2 0x33FA JUMP JUMPDEST SWAP1 POP PUSH2 0x3F4A PUSH1 0xA0 DUP4 ADD DUP5 PUSH2 0x34E0 JUMP JUMPDEST SWAP8 SWAP7 POP POP POP POP POP POP POP JUMP JUMPDEST PUSH0 DUP1 PUSH1 0x40 DUP4 DUP6 SUB SLT ISZERO PUSH2 0x3F6B JUMPI PUSH2 0x3F6A PUSH2 0x3307 JUMP JUMPDEST JUMPDEST PUSH0 PUSH2 0x3F78 DUP6 DUP3 DUP7 ADD PUSH2 0x351E JUMP JUMPDEST SWAP3 POP POP PUSH1 0x20 PUSH2 0x3F89 DUP6 DUP3 DUP7 ADD PUSH2 0x351E JUMP JUMPDEST SWAP2 POP POP SWAP3 POP SWAP3 SWAP1 POP JUMP JUMPDEST PUSH0 DUP2 MLOAD SWAP1 POP SWAP2 SWAP1 POP JUMP JUMPDEST PUSH0 DUP3 DUP3 MSTORE PUSH1 0x20 DUP3 ADD SWAP1 POP SWAP3 SWAP2 POP POP JUMP JUMPDEST PUSH0 DUP2 SWAP1 POP PUSH1 0x20 DUP3 ADD SWAP1 POP SWAP2 SWAP1 POP JUMP JUMPDEST PUSH0 PUSH2 0x3FC7 DUP4 DUP4 PUSH2 0x3B57 JUMP JUMPDEST SWAP1 POP SWAP3 SWAP2 POP POP JUMP JUMPDEST PUSH0 PUSH1 0x20 DUP3 ADD SWAP1 POP SWAP2 SWAP1 POP JUMP JUMPDEST PUSH0 PUSH2 0x3FE5 DUP3 PUSH2 0x3F93 JUMP JUMPDEST PUSH2 0x3FEF DUP2 DUP6 PUSH2 0x3F9D JUMP JUMPDEST SWAP4 POP DUP4 PUSH1 0x20 DUP3 MUL DUP6 ADD PUSH2 0x4001 DUP6 PUSH2 0x3FAD JUMP JUMPDEST DUP1 PUSH0 JUMPDEST DUP6 DUP2 LT ISZERO PUSH2 0x403C JUMPI DUP5 DUP5 SUB DUP10 MSTORE DUP2 MLOAD PUSH2 0x401D DUP6 DUP3 PUSH2 0x3FBC JUMP JUMPDEST SWAP5 POP PUSH2 0x4028 DUP4 PUSH2 0x3FCF JUMP JUMPDEST SWAP3 POP PUSH1 0x20 DUP11 ADD SWAP10 POP POP PUSH1 0x1 DUP2 ADD SWAP1 POP PUSH2 0x4004 JUMP JUMPDEST POP DUP3 SWAP8 POP DUP8 SWAP6 POP POP POP POP POP POP SWAP3 SWAP2 POP POP JUMP JUMPDEST PUSH0 PUSH1 0x20 DUP3 ADD SWAP1 POP DUP2 DUP2 SUB PUSH0 DUP4 ADD MSTORE PUSH2 0x4066 DUP2 DUP5 PUSH2 0x3FDB JUMP JUMPDEST SWAP1 POP SWAP3 SWAP2 POP POP JUMP JUMPDEST PUSH32 0x4E487B7100000000000000000000000000000000000000000000000000000000 PUSH0 MSTORE PUSH1 0x22 PUSH1 0x4 MSTORE PUSH1 0x24 PUSH0 REVERT JUMPDEST PUSH0 PUSH1 0x2 DUP3 DIV SWAP1 POP PUSH1 0x1 DUP3 AND DUP1 PUSH2 0x40B2 JUMPI PUSH1 0x7F DUP3 AND SWAP2 POP JUMPDEST PUSH1 0x20 DUP3 LT DUP2 SUB PUSH2 0x40C5 JUMPI PUSH2 0x40C4 PUSH2 0x406E JUMP JUMPDEST JUMPDEST POP SWAP2 SWAP1 POP JUMP JUMPDEST PUSH32 0x43616C6C6572206973206E6F7420616E20617574686F72697479000000000000 PUSH0 DUP3 ADD MSTORE POP JUMP JUMPDEST PUSH0 PUSH2 0x40FF PUSH1 0x1A DUP4 PUSH2 0x33CC JUMP JUMPDEST SWAP2 POP PUSH2 0x410A DUP3 PUSH2 0x40CB JUMP JUMPDEST PUSH1 0x20 DUP3 ADD SWAP1 POP SWAP2 SWAP1 POP JUMP JUMPDEST PUSH0 PUSH1 0x20 DUP3 ADD SWAP1 POP DUP2 DUP2 SUB PUSH0 DUP4 ADD MSTORE PUSH2 0x412C DUP2 PUSH2 0x40F3 JUMP JUMPDEST SWAP1 POP SWAP2 SWAP1 POP JUMP JUMPDEST PUSH32 0x55415620746F6B656E20646F6573206E6F742065786973740000000000000000 PUSH0 DUP3 ADD MSTORE POP JUMP JUMPDEST PUSH0 PUSH2 0x4167 PUSH1 0x18 DUP4 PUSH2 0x33CC JUMP JUMPDEST SWAP2 POP PUSH2 0x4172 DUP3 PUSH2 0x4133 JUMP JUMPDEST PUSH1 0x20 DUP3 ADD SWAP1 POP SWAP2 SWAP1 POP JUMP JUMPDEST PUSH0 PUSH1 0x20 DUP3 ADD SWAP1 POP DUP2 DUP2 SUB PUSH0 DUP4 ADD MSTORE PUSH2 0x4194 DUP2 PUSH2 0x415B JUMP JUMPDEST SWAP1 POP SWAP2 SWAP1 POP JUMP JUMPDEST PUSH0 DUP2 MLOAD SWAP1 POP PUSH2 0x41A9 DUP2 PUSH2 0x3508 JUMP JUMPDEST SWAP3 SWAP2 POP POP JUMP JUMPDEST PUSH0 PUSH1 0x20 DUP3 DUP5 SUB SLT ISZERO PUSH2 0x41C4 JUMPI PUSH2 0x41C3 PUSH2 0x3307 JUMP JUMPDEST JUMPDEST PUSH0 PUSH2 0x41D1 DUP5 DUP3 DUP6 ADD PUSH2 0x419B JUMP JUMPDEST SWAP2 POP POP SWAP3 SWAP2 POP POP JUMP JUMPDEST PUSH32 0x43616C6C6572206973206E6F7420746865206F776E6572206F66207468652043 PUSH0 DUP3 ADD MSTORE PUSH32 0x657274696669636174654E465400000000000000000000000000000000000000 PUSH1 0x20 DUP3 ADD MSTORE POP JUMP JUMPDEST PUSH0 PUSH2 0x4234 PUSH1 0x2D DUP4 PUSH2 0x33CC JUMP JUMPDEST SWAP2 POP PUSH2 0x423F DUP3 PUSH2 0x41DA JUMP JUMPDEST PUSH1 0x40 DUP3 ADD SWAP1 POP SWAP2 SWAP1 POP JUMP JUMPDEST PUSH0 PUSH1 0x20 DUP3 ADD SWAP1 POP DUP2 DUP2 SUB PUSH0 DUP4 ADD MSTORE PUSH2 0x4261 DUP2 PUSH2 0x4228 JUMP JUMPDEST SWAP1 POP SWAP2 SWAP1 POP JUMP JUMPDEST PUSH1 0x3 DUP2 LT PUSH2 0x4274 JUMPI PUSH0 DUP1 REVERT JUMPDEST POP JUMP JUMPDEST PUSH0 DUP2 MLOAD SWAP1 POP PUSH2 0x4285 DUP2 PUSH2 0x4268 JUMP JUMPDEST SWAP3 SWAP2 POP POP JUMP JUMPDEST PUSH0 PUSH1 0x20 DUP3 DUP5 SUB SLT ISZERO PUSH2 0x42A0 JUMPI PUSH2 0x429F PUSH2 0x3307 JUMP JUMPDEST JUMPDEST PUSH0 PUSH2 0x42AD DUP5 DUP3 DUP6 ADD PUSH2 0x4277 JUMP JUMPDEST SWAP2 POP POP SWAP3 SWAP2 POP POP JUMP JUMPDEST PUSH0 PUSH1 0x60 DUP3 ADD SWAP1 POP PUSH2 0x42C9 PUSH0 DUP4 ADD DUP7 PUSH2 0x34E0 JUMP JUMPDEST PUSH2 0x42D6 PUSH1 0x20 DUP4 ADD DUP6 PUSH2 0x34E0 JUMP JUMPDEST PUSH2 0x42E3 PUSH1 0x40 DUP4 ADD DUP5 PUSH2 0x3A2A JUMP JUMPDEST SWAP5 SWAP4 POP POP POP POP JUMP JUMPDEST PUSH0 PUSH1 0x40 DUP3 ADD SWAP1 POP PUSH2 0x42FE PUSH0 DUP4 ADD DUP6 PUSH2 0x34E0 JUMP JUMPDEST PUSH2 0x430B PUSH1 0x20 DUP4 ADD DUP5 PUSH2 0x3A2A JUMP JUMPDEST SWAP4 SWAP3 POP POP POP JUMP JUMPDEST PUSH0 PUSH1 0x60 DUP3 ADD SWAP1 POP PUSH2 0x4325 PUSH0 DUP4 ADD DUP7 PUSH2 0x34E0 JUMP JUMPDEST PUSH2 0x4332 PUSH1 0x20 DUP4 ADD DUP6 PUSH2 0x3A2A JUMP JUMPDEST PUSH2 0x433F PUSH1 0x40 DUP4 ADD DUP5 PUSH2 0x34E0 JUMP JUMPDEST SWAP5 SWAP4 POP POP POP POP JUMP JUMPDEST PUSH32 0x43616C6C6572206973206E6F742061646D696E00000000000000000000000000 PUSH0 DUP3 ADD MSTORE POP JUMP JUMPDEST PUSH0 PUSH2 0x437B PUSH1 0x13 DUP4 PUSH2 0x33CC JUMP JUMPDEST SWAP2 POP PUSH2 0x4386 DUP3 PUSH2 0x4347 JUMP JUMPDEST PUSH1 0x20 DUP3 ADD SWAP1 POP SWAP2 SWAP1 POP JUMP JUMPDEST PUSH0 PUSH1 0x20 DUP3 ADD SWAP1 POP DUP2 DUP2 SUB PUSH0 DUP4 ADD MSTORE PUSH2 0x43A8 DUP2 PUSH2 0x436F JUMP JUMPDEST SWAP1 POP SWAP2 SWAP1 POP JUMP JUMPDEST PUSH32 0x43616C6C6572206973206E6F7420746865206F776E6572000000000000000000 PUSH0 DUP3 ADD MSTORE POP JUMP JUMPDEST PUSH0 PUSH2 0x43E3 PUSH1 0x17 DUP4 PUSH2 0x33CC JUMP JUMPDEST SWAP2 POP PUSH2 0x43EE DUP3 PUSH2 0x43AF JUMP JUMPDEST PUSH1 0x20 DUP3 ADD SWAP1 POP SWAP2 SWAP1 POP JUMP JUMPDEST PUSH0 PUSH1 0x20 DUP3 ADD SWAP1 POP DUP2 DUP2 SUB PUSH0 DUP4 ADD MSTORE PUSH2 0x4410 DUP2 PUSH2 0x43D7 JUMP JUMPDEST SWAP1 POP SWAP2 SWAP1 POP JUMP JUMPDEST PUSH0 DUP2 SWAP1 POP DUP2 PUSH0 MSTORE PUSH1 0x20 PUSH0 KECCAK256 SWAP1 POP SWAP2 SWAP1 POP JUMP JUMPDEST PUSH0 PUSH1 0x20 PUSH1 0x1F DUP4 ADD DIV SWAP1 POP SWAP2 SWAP1 POP JUMP JUMPDEST PUSH0 DUP3 DUP3 SHL SWAP1 POP SWAP3 SWAP2 POP POP JUMP JUMPDEST PUSH0 PUSH1 0x8 DUP4 MUL PUSH2 0x4473 PUSH32 0xFFFFFFFFFFFFFFFFFFFFFFFFFFFFFFFFFFFFFFFFFFFFFFFFFFFFFFFFFFFFFFFF DUP3 PUSH2 0x4438 JUMP JUMPDEST PUSH2 0x447D DUP7 DUP4 PUSH2 0x4438 JUMP JUMPDEST SWAP6 POP DUP1 NOT DUP5 AND SWAP4 POP DUP1 DUP7 AND DUP5 OR SWAP3 POP POP POP SWAP4 SWAP3 POP POP POP JUMP JUMPDEST PUSH0 DUP2 SWAP1 POP SWAP2 SWAP1 POP JUMP JUMPDEST PUSH0 PUSH2 0x44B8 PUSH2 0x44B3 PUSH2 0x44AE DUP5 PUSH2 0x3452 JUMP JUMPDEST PUSH2 0x4495 JUMP JUMPDEST PUSH2 0x3452 JUMP JUMPDEST SWAP1 POP SWAP2 SWAP1 POP JUMP JUMPDEST PUSH0 DUP2 SWAP1 POP SWAP2 SWAP1 POP JUMP JUMPDEST PUSH2 0x44D1 DUP4 PUSH2 0x449E JUMP JUMPDEST PUSH2 0x44E5 PUSH2 0x44DD DUP3 PUSH2 0x44BF JUMP JUMPDEST DUP5 DUP5 SLOAD PUSH2 0x4444 JUMP JUMPDEST DUP3 SSTORE POP POP POP POP JUMP JUMPDEST PUSH0 SWAP1 JUMP JUMPDEST PUSH2 0x44F9 PUSH2 0x44ED JUMP JUMPDEST PUSH2 0x4504 DUP2 DUP5 DUP5 PUSH2 0x44C8 JUMP JUMPDEST POP POP POP JUMP JUMPDEST JUMPDEST DUP2 DUP2 LT ISZERO PUSH2 0x4527 JUMPI PUSH2 0x451C PUSH0 DUP3 PUSH2 0x44F1 JUMP JUMPDEST PUSH1 0x1 DUP2 ADD SWAP1 POP PUSH2 0x450A JUMP JUMPDEST POP POP JUMP JUMPDEST PUSH1 0x1F DUP3 GT ISZERO PUSH2 0x456C JUMPI PUSH2 0x453D DUP2 PUSH2 0x4417 JUMP JUMPDEST PUSH2 0x4546 DUP5 PUSH2 0x4429 JUMP JUMPDEST DUP2 ADD PUSH1 0x20 DUP6 LT ISZERO PUSH2 0x4555 JUMPI DUP2 SWAP1 POP JUMPDEST PUSH2 0x4569 PUSH2 0x4561 DUP6 PUSH2 0x4429 JUMP JUMPDEST DUP4 ADD DUP3 PUSH2 0x4509 JUMP JUMPDEST POP POP JUMPDEST POP POP POP JUMP JUMPDEST PUSH0 DUP3 DUP3 SHR SWAP1 POP SWAP3 SWAP2 POP POP JUMP JUMPDEST PUSH0 PUSH2 0x458C PUSH0 NOT DUP5 PUSH1 0x8 MUL PUSH2 0x4571 JUMP JUMPDEST NOT DUP1 DUP4 AND SWAP2 POP POP SWAP3 SWAP2 POP POP JUMP JUMPDEST PUSH0 PUSH2 0x45A4 DUP4 DUP4 PUSH2 0x457D JUMP JUMPDEST SWAP2 POP DUP3 PUSH1 0x2 MUL DUP3 OR SWAP1 POP SWAP3 SWAP2 POP POP JUMP JUMPDEST PUSH2 0x45BD DUP3 PUSH2 0x33C2 JUMP JUMPDEST PUSH8 0xFFFFFFFFFFFFFFFF DUP2 GT ISZERO PUSH2 0x45D6 JUMPI PUSH2 0x45D5 PUSH2 0x3810 JUMP JUMPDEST JUMPDEST PUSH2 0x45E0 DUP3 SLOAD PUSH2 0x409B JUMP JUMPDEST PUSH2 0x45EB DUP3 DUP3 DUP6 PUSH2 0x452B JUMP JUMPDEST PUSH0 PUSH1 0x20 SWAP1 POP PUSH1 0x1F DUP4 GT PUSH1 0x1 DUP2 EQ PUSH2 0x461C JUMPI PUSH0 DUP5 ISZERO PUSH2 0x460A JUMPI DUP3 DUP8 ADD MLOAD SWAP1 POP JUMPDEST PUSH2 0x4614 DUP6 DUP3 PUSH2 0x4599 JUMP JUMPDEST DUP7 SSTORE POP PUSH2 0x467B JUMP JUMPDEST PUSH1 0x1F NOT DUP5 AND PUSH2 0x462A DUP7 PUSH2 0x4417 JUMP JUMPDEST PUSH0 JUMPDEST DUP3 DUP2 LT ISZERO PUSH2 0x4651 JUMPI DUP5 DUP10 ADD MLOAD DUP3 SSTORE PUSH1 0x1 DUP3 ADD SWAP2 POP PUSH1 0x20 DUP6 ADD SWAP5 POP PUSH1 0x20 DUP2 ADD SWAP1 POP PUSH2 0x462C JUMP JUMPDEST DUP7 DUP4 LT ISZERO PUSH2 0x466E JUMPI DUP5 DUP10 ADD MLOAD PUSH2 0x466A PUSH1 0x1F DUP10 AND DUP3 PUSH2 0x457D JUMP JUMPDEST DUP4 SSTORE POP JUMPDEST PUSH1 0x1 PUSH1 0x2 DUP9 MUL ADD DUP9 SSTORE POP POP POP JUMPDEST POP POP POP POP POP POP JUMP JUMPDEST PUSH32 0x43616C6C6572206973206E6F742061206D616E75666163747572657200000000 PUSH0 DUP3 ADD MSTORE POP JUMP JUMPDEST PUSH0 PUSH2 0x46B7 PUSH1 0x1C DUP4 PUSH2 0x33CC JUMP JUMPDEST SWAP2 POP PUSH2 0x46C2 DUP3 PUSH2 0x4683 JUMP JUMPDEST PUSH1 0x20 DUP3 ADD SWAP1 POP SWAP2 SWAP1 POP JUMP JUMPDEST PUSH0 PUSH1 0x20 DUP3 ADD SWAP1 POP DUP2 DUP2 SUB PUSH0 DUP4 ADD MSTORE PUSH2 0x46E4 DUP2 PUSH2 0x46AB JUMP JUMPDEST SWAP1 POP SWAP2 SWAP1 POP JUMP JUMPDEST PUSH32 0x4E487B7100000000000000000000000000000000000000000000000000000000 PUSH0 MSTORE PUSH1 0x11 PUSH1 0x4 MSTORE PUSH1 0x24 PUSH0 REVERT JUMPDEST PUSH0 PUSH2 0x4722 DUP3 PUSH2 0x3452 JUMP JUMPDEST SWAP2 POP PUSH32 0xFFFFFFFFFFFFFFFFFFFFFFFFFFFFFFFFFFFFFFFFFFFFFFFFFFFFFFFFFFFFFFFF DUP3 SUB PUSH2 0x4754 JUMPI PUSH2 0x4753 PUSH2 0x46EB JUMP JUMPDEST JUMPDEST PUSH1 0x1 DUP3 ADD SWAP1 POP SWAP2 SWAP1 POP JUMP JUMPDEST PUSH0 DUP2 SWAP1 POP SWAP3 SWAP2 POP POP JUMP JUMPDEST PUSH0 PUSH2 0x4773 DUP3 PUSH2 0x33C2 JUMP JUMPDEST PUSH2 0x477D DUP2 DUP6 PUSH2 0x475F JUMP JUMPDEST SWAP4 POP PUSH2 0x478D DUP2 DUP6 PUSH1 0x20 DUP7 ADD PUSH2 0x33DC JUMP JUMPDEST DUP1 DUP5 ADD SWAP2 POP POP SWAP3 SWAP2 POP POP JUMP JUMPDEST PUSH0 PUSH2 0x47A4 DUP3 DUP6 PUSH2 0x4769 JUMP JUMPDEST SWAP2 POP PUSH2 0x47B0 DUP3 DUP5 PUSH2 0x4769 JUMP JUMPDEST SWAP2 POP DUP2 SWAP1 POP SWAP4 SWAP3 POP POP POP JUMP JUMPDEST PUSH0 DUP2 MLOAD SWAP1 POP SWAP2 SWAP1 POP JUMP JUMPDEST PUSH0 DUP3 DUP3 MSTORE PUSH1 0x20 DUP3 ADD SWAP1 POP SWAP3 SWAP2 POP POP JUMP JUMPDEST PUSH0 PUSH2 0x47E0 DUP3 PUSH2 0x47BC JUMP JUMPDEST PUSH2 0x47EA DUP2 DUP6 PUSH2 0x47C6 JUMP JUMPDEST SWAP4 POP PUSH2 0x47FA DUP2 DUP6 PUSH1 0x20 DUP7 ADD PUSH2 0x33DC JUMP JUMPDEST PUSH2 0x4803 DUP2 PUSH2 0x33EA JUMP JUMPDEST DUP5 ADD SWAP2 POP POP SWAP3 SWAP2 POP POP JUMP JUMPDEST PUSH0 PUSH1 0x80 DUP3 ADD SWAP1 POP PUSH2 0x4821 PUSH0 DUP4 ADD DUP8 PUSH2 0x34E0 JUMP JUMPDEST PUSH2 0x482E PUSH1 0x20 DUP4 ADD DUP7 PUSH2 0x34E0 JUMP JUMPDEST PUSH2 0x483B PUSH1 0x40 DUP4 ADD DUP6 PUSH2 0x3A2A JUMP JUMPDEST DUP2 DUP2 SUB PUSH1 0x60 DUP4 ADD MSTORE PUSH2 0x484D DUP2 DUP5 PUSH2 0x47D6 JUMP JUMPDEST SWAP1 POP SWAP6 SWAP5 POP POP POP POP POP JUMP JUMPDEST PUSH0 DUP2 MLOAD SWAP1 POP PUSH2 0x4866 DUP2 PUSH2 0x333A JUMP JUMPDEST SWAP3 SWAP2 POP POP JUMP JUMPDEST PUSH0 PUSH1 0x20 DUP3 DUP5 SUB SLT ISZERO PUSH2 0x4881 JUMPI PUSH2 0x4880 PUSH2 0x3307 JUMP JUMPDEST JUMPDEST PUSH0 PUSH2 0x488E DUP5 DUP3 DUP6 ADD PUSH2 0x4858 JUMP JUMPDEST SWAP2 POP POP SWAP3 SWAP2 POP POP JUMP JUMPDEST PUSH32 0x4E487B7100000000000000000000000000000000000000000000000000000000 PUSH0 MSTORE PUSH1 0x12 PUSH1 0x4 MSTORE PUSH1 0x24 PUSH0 REVERT JUMPDEST PUSH0 PUSH1 0x40 DUP3 ADD SWAP1 POP PUSH2 0x48D7 PUSH0 DUP4 ADD DUP6 PUSH2 0x34E0 JUMP JUMPDEST PUSH2 0x48E4 PUSH1 0x20 DUP4 ADD DUP5 PUSH2 0x377B JUMP JUMPDEST SWAP4 SWAP3 POP POP POP JUMP INVALID LOG2 PUSH5 0x6970667358 0x22 SLT KECCAK256 MSIZE 0xA7 0xDB CREATE2 0x28 ADDRESS 0x28 BYTE ISZERO PUSH21 0x9333C43B1F0E284494CA62FB19DE69CA449487D074 OR PUSH5 0x736F6C6343 STOP ADDMOD BYTE STOP CALLER "
		},
		"gasEstimates": {
			"creation": {
				"codeDepositCost": "3744200",
				"executionCost": "infinite",
				"totalCost": "infinite"
			},
			"external": {
				"AUTHORITY_ROLE()": "437",
				"DEFAULT_ADMIN_ROLE()": "419",
				"MANUFACTURER_ROLE()": "392",
				"addAuthority(address)": "infinite",
				"addManufacturer(address)": "infinite",
				"approve(address,uint256)": "infinite",
				"balanceOf(address)": "infinite",
				"getApproved(uint256)": "infinite",
				"getImportExportTrace(uint256)": "infinite",
				"getLinkedCertificates(uint256)": "infinite",
				"getRoleAdmin(bytes32)": "infinite",
				"getUAVData(uint256)": "infinite",
				"grantRole(bytes32,address)": "infinite",
				"hasRole(bytes32,address)": "3234",
				"importExportTrace(uint256,uint256)": "infinite",
				"isApprovedForAll(address,address)": "infinite",
				"linkCertificate(uint256,address,uint256)": "infinite",
				"linkedCertificates(uint256,uint256)": "infinite",
				"mintUAV(string,address,uint256,string)": "infinite",
				"name()": "infinite",
				"onERC721Received(address,address,uint256,bytes)": "infinite",
				"ownerOf(uint256)": "infinite",
				"recordImportExport(uint256,string)": "infinite",
				"rejectImport(uint256,string)": "infinite",
				"renounceRole(bytes32,address)": "infinite",
				"revokeRole(bytes32,address)": "infinite",
				"safeTransferFrom(address,address,uint256)": "infinite",
				"safeTransferFrom(address,address,uint256,bytes)": "infinite",
				"setApprovalForAll(address,bool)": "infinite",
				"supportsInterface(bytes4)": "940",
				"symbol()": "infinite",
				"tokenCounter()": "2558",
				"tokenURI(uint256)": "infinite",
				"transferFrom(address,address,uint256)": "infinite",
				"transferUAV(address,uint256)": "infinite",
				"uavData(uint256)": "infinite",
				"updateMetadata(uint256,string)": "infinite"
			},
			"internal": {
				"_tokenExists(uint256)": "2307"
			}
		},
		"methodIdentifiers": {
			"AUTHORITY_ROLE()": "4a3fba0e",
			"DEFAULT_ADMIN_ROLE()": "a217fddf",
			"MANUFACTURER_ROLE()": "965288b0",
			"addAuthority(address)": "26defa73",
			"addManufacturer(address)": "5f8a5afa",
			"approve(address,uint256)": "095ea7b3",
			"balanceOf(address)": "70a08231",
			"getApproved(uint256)": "081812fc",
			"getImportExportTrace(uint256)": "fa245be3",
			"getLinkedCertificates(uint256)": "b1295c58",
			"getRoleAdmin(bytes32)": "248a9ca3",
			"getUAVData(uint256)": "79757f59",
			"grantRole(bytes32,address)": "2f2ff15d",
			"hasRole(bytes32,address)": "91d14854",
			"importExportTrace(uint256,uint256)": "c6f6caf6",
			"isApprovedForAll(address,address)": "e985e9c5",
			"linkCertificate(uint256,address,uint256)": "238be283",
			"linkedCertificates(uint256,uint256)": "73e94ce0",
			"mintUAV(string,address,uint256,string)": "5f283686",
			"name()": "06fdde03",
			"onERC721Received(address,address,uint256,bytes)": "150b7a02",
			"ownerOf(uint256)": "6352211e",
			"recordImportExport(uint256,string)": "dd57a349",
			"rejectImport(uint256,string)": "8628d7ce",
			"renounceRole(bytes32,address)": "36568abe",
			"revokeRole(bytes32,address)": "d547741f",
			"safeTransferFrom(address,address,uint256)": "42842e0e",
			"safeTransferFrom(address,address,uint256,bytes)": "b88d4fde",
			"setApprovalForAll(address,bool)": "a22cb465",
			"supportsInterface(bytes4)": "01ffc9a7",
			"symbol()": "95d89b41",
			"tokenCounter()": "d082e381",
			"tokenURI(uint256)": "c87b56dd",
			"transferFrom(address,address,uint256)": "23b872dd",
			"transferUAV(address,uint256)": "d3929d41",
			"uavData(uint256)": "c1780b01",
			"updateMetadata(uint256,string)": "53c8388e"
		}
	},
	"abi": [
		{
			"inputs": [],
			"stateMutability": "nonpayable",
			"type": "constructor"
		},
		{
			"inputs": [],
			"name": "AccessControlBadConfirmation",
			"type": "error"
		},
		{
			"inputs": [
				{
					"internalType": "address",
					"name": "account",
					"type": "address"
				},
				{
					"internalType": "bytes32",
					"name": "neededRole",
					"type": "bytes32"
				}
			],
			"name": "AccessControlUnauthorizedAccount",
			"type": "error"
		},
		{
			"inputs": [
				{
					"internalType": "address",
					"name": "sender",
					"type": "address"
				},
				{
					"internalType": "uint256",
					"name": "tokenId",
					"type": "uint256"
				},
				{
					"internalType": "address",
					"name": "owner",
					"type": "address"
				}
			],
			"name": "ERC721IncorrectOwner",
			"type": "error"
		},
		{
			"inputs": [
				{
					"internalType": "address",
					"name": "operator",
					"type": "address"
				},
				{
					"internalType": "uint256",
					"name": "tokenId",
					"type": "uint256"
				}
			],
			"name": "ERC721InsufficientApproval",
			"type": "error"
		},
		{
			"inputs": [
				{
					"internalType": "address",
					"name": "approver",
					"type": "address"
				}
			],
			"name": "ERC721InvalidApprover",
			"type": "error"
		},
		{
			"inputs": [
				{
					"internalType": "address",
					"name": "operator",
					"type": "address"
				}
			],
			"name": "ERC721InvalidOperator",
			"type": "error"
		},
		{
			"inputs": [
				{
					"internalType": "address",
					"name": "owner",
					"type": "address"
				}
			],
			"name": "ERC721InvalidOwner",
			"type": "error"
		},
		{
			"inputs": [
				{
					"internalType": "address",
					"name": "receiver",
					"type": "address"
				}
			],
			"name": "ERC721InvalidReceiver",
			"type": "error"
		},
		{
			"inputs": [
				{
					"internalType": "address",
					"name": "sender",
					"type": "address"
				}
			],
			"name": "ERC721InvalidSender",
			"type": "error"
		},
		{
			"inputs": [
				{
					"internalType": "uint256",
					"name": "tokenId",
					"type": "uint256"
				}
			],
			"name": "ERC721NonexistentToken",
			"type": "error"
		},
		{
			"anonymous": false,
			"inputs": [
				{
					"indexed": true,
					"internalType": "address",
					"name": "owner",
					"type": "address"
				},
				{
					"indexed": true,
					"internalType": "address",
					"name": "approved",
					"type": "address"
				},
				{
					"indexed": true,
					"internalType": "uint256",
					"name": "tokenId",
					"type": "uint256"
				}
			],
			"name": "Approval",
			"type": "event"
		},
		{
			"anonymous": false,
			"inputs": [
				{
					"indexed": true,
					"internalType": "address",
					"name": "owner",
					"type": "address"
				},
				{
					"indexed": true,
					"internalType": "address",
					"name": "operator",
					"type": "address"
				},
				{
					"indexed": false,
					"internalType": "bool",
					"name": "approved",
					"type": "bool"
				}
			],
			"name": "ApprovalForAll",
			"type": "event"
		},
		{
			"anonymous": false,
			"inputs": [
				{
					"indexed": true,
					"internalType": "uint256",
					"name": "tokenId",
					"type": "uint256"
				},
				{
					"indexed": true,
					"internalType": "enum CertificateTypes.CertificateType",
					"name": "ctype",
					"type": "uint8"
				},
				{
					"indexed": false,
					"internalType": "address",
					"name": "certificateContract",
					"type": "address"
				},
				{
					"indexed": false,
					"internalType": "uint256",
					"name": "certificateTokenId",
					"type": "uint256"
				}
			],
			"name": "CertificateLinked",
			"type": "event"
		},
		{
			"anonymous": false,
			"inputs": [
				{
					"indexed": true,
					"internalType": "uint256",
					"name": "tokenId",
					"type": "uint256"
				},
				{
					"indexed": false,
					"internalType": "string",
					"name": "jurisdictionIdentifier",
					"type": "string"
				}
			],
			"name": "ImportExportRecorded",
			"type": "event"
		},
		{
			"anonymous": false,
			"inputs": [
				{
					"indexed": true,
					"internalType": "uint256",
					"name": "tokenId",
					"type": "uint256"
				},
				{
					"indexed": false,
					"internalType": "string",
					"name": "reason",
					"type": "string"
				}
			],
			"name": "ImportRejected",
			"type": "event"
		},
		{
			"anonymous": false,
			"inputs": [
				{
					"indexed": true,
					"internalType": "uint256",
					"name": "tokenId",
					"type": "uint256"
				},
				{
					"indexed": false,
					"internalType": "string",
					"name": "ipfsMetadataCID",
					"type": "string"
				}
			],
			"name": "MetadataUpdated",
			"type": "event"
		},
		{
			"anonymous": false,
			"inputs": [
				{
					"indexed": true,
					"internalType": "uint256",
					"name": "tokenId",
					"type": "uint256"
				},
				{
					"indexed": true,
					"internalType": "address",
					"name": "previousOwner",
					"type": "address"
				},
				{
					"indexed": true,
					"internalType": "address",
					"name": "newOwner",
					"type": "address"
				}
			],
			"name": "OwnershipTransferred",
			"type": "event"
		},
		{
			"anonymous": false,
			"inputs": [
				{
					"indexed": true,
					"internalType": "bytes32",
					"name": "role",
					"type": "bytes32"
				},
				{
					"indexed": true,
					"internalType": "bytes32",
					"name": "previousAdminRole",
					"type": "bytes32"
				},
				{
					"indexed": true,
					"internalType": "bytes32",
					"name": "newAdminRole",
					"type": "bytes32"
				}
			],
			"name": "RoleAdminChanged",
			"type": "event"
		},
		{
			"anonymous": false,
			"inputs": [
				{
					"indexed": true,
					"internalType": "bytes32",
					"name": "role",
					"type": "bytes32"
				},
				{
					"indexed": true,
					"internalType": "address",
					"name": "account",
					"type": "address"
				},
				{
					"indexed": true,
					"internalType": "address",
					"name": "sender",
					"type": "address"
				}
			],
			"name": "RoleGranted",
			"type": "event"
		},
		{
			"anonymous": false,
			"inputs": [
				{
					"indexed": true,
					"internalType": "bytes32",
					"name": "role",
					"type": "bytes32"
				},
				{
					"indexed": true,
					"internalType": "address",
					"name": "account",
					"type": "address"
				},
				{
					"indexed": true,
					"internalType": "address",
					"name": "sender",
					"type": "address"
				}
			],
			"name": "RoleRevoked",
			"type": "event"
		},
		{
			"anonymous": false,
			"inputs": [
				{
					"indexed": true,
					"internalType": "address",
					"name": "from",
					"type": "address"
				},
				{
					"indexed": true,
					"internalType": "address",
					"name": "to",
					"type": "address"
				},
				{
					"indexed": true,
					"internalType": "uint256",
					"name": "tokenId",
					"type": "uint256"
				}
			],
			"name": "Transfer",
			"type": "event"
		},
		{
			"anonymous": false,
			"inputs": [
				{
					"indexed": true,
					"internalType": "uint256",
					"name": "tokenId",
					"type": "uint256"
				},
				{
					"indexed": true,
					"internalType": "address",
					"name": "manufacturer",
					"type": "address"
				},
				{
					"indexed": false,
					"internalType": "string",
					"name": "ipfsMetadataCID",
					"type": "string"
				}
			],
			"name": "UAVMinted",
			"type": "event"
		},
		{
			"inputs": [],
			"name": "AUTHORITY_ROLE",
			"outputs": [
				{
					"internalType": "bytes32",
					"name": "",
					"type": "bytes32"
				}
			],
			"stateMutability": "view",
			"type": "function"
		},
		{
			"inputs": [],
			"name": "DEFAULT_ADMIN_ROLE",
			"outputs": [
				{
					"internalType": "bytes32",
					"name": "",
					"type": "bytes32"
				}
			],
			"stateMutability": "view",
			"type": "function"
		},
		{
			"inputs": [],
			"name": "MANUFACTURER_ROLE",
			"outputs": [
				{
					"internalType": "bytes32",
					"name": "",
					"type": "bytes32"
				}
			],
			"stateMutability": "view",
			"type": "function"
		},
		{
			"inputs": [
				{
					"internalType": "address",
					"name": "authority",
					"type": "address"
				}
			],
			"name": "addAuthority",
			"outputs": [],
			"stateMutability": "nonpayable",
			"type": "function"
		},
		{
			"inputs": [
				{
					"internalType": "address",
					"name": "manufacturer",
					"type": "address"
				}
			],
			"name": "addManufacturer",
			"outputs": [],
			"stateMutability": "nonpayable",
			"type": "function"
		},
		{
			"inputs": [
				{
					"internalType": "address",
					"name": "to",
					"type": "address"
				},
				{
					"internalType": "uint256",
					"name": "tokenId",
					"type": "uint256"
				}
			],
			"name": "approve",
			"outputs": [],
			"stateMutability": "nonpayable",
			"type": "function"
		},
		{
			"inputs": [
				{
					"internalType": "address",
					"name": "owner",
					"type": "address"
				}
			],
			"name": "balanceOf",
			"outputs": [
				{
					"internalType": "uint256",
					"name": "",
					"type": "uint256"
				}
			],
			"stateMutability": "view",
			"type": "function"
		},
		{
			"inputs": [
				{
					"internalType": "uint256",
					"name": "tokenId",
					"type": "uint256"
				}
			],
			"name": "getApproved",
			"outputs": [
				{
					"internalType": "address",
					"name": "",
					"type": "address"
				}
			],
			"stateMutability": "view",
			"type": "function"
		},
		{
			"inputs": [
				{
					"internalType": "uint256",
					"name": "tokenId",
					"type": "uint256"
				}
			],
			"name": "getImportExportTrace",
			"outputs": [
				{
					"internalType": "string[]",
					"name": "",
					"type": "string[]"
				}
			],
			"stateMutability": "view",
			"type": "function"
		},
		{
			"inputs": [
				{
					"internalType": "uint256",
					"name": "tokenId",
					"type": "uint256"
				}
			],
			"name": "getLinkedCertificates",
			"outputs": [
				{
					"components": [
						{
							"internalType": "address",
							"name": "certificateContract",
							"type": "address"
						},
						{
							"internalType": "uint256",
							"name": "certificateTokenId",
							"type": "uint256"
						},
						{
							"internalType": "enum CertificateTypes.CertificateType",
							"name": "ctype",
							"type": "uint8"
						}
					],
					"internalType": "struct UAVPassportNFT.LinkedCertificate[]",
					"name": "",
					"type": "tuple[]"
				}
			],
			"stateMutability": "view",
			"type": "function"
		},
		{
			"inputs": [
				{
					"internalType": "bytes32",
					"name": "role",
					"type": "bytes32"
				}
			],
			"name": "getRoleAdmin",
			"outputs": [
				{
					"internalType": "bytes32",
					"name": "",
					"type": "bytes32"
				}
			],
			"stateMutability": "view",
			"type": "function"
		},
		{
			"inputs": [
				{
					"internalType": "uint256",
					"name": "tokenId",
					"type": "uint256"
				}
			],
			"name": "getUAVData",
			"outputs": [
				{
					"components": [
						{
							"internalType": "uint256",
							"name": "tokenId",
							"type": "uint256"
						},
						{
							"internalType": "string",
							"name": "serialNumber",
							"type": "string"
						},
						{
							"internalType": "address",
							"name": "typeCertificateContract",
							"type": "address"
						},
						{
							"internalType": "uint256",
							"name": "typeCertificateApplicationId",
							"type": "uint256"
						},
						{
							"internalType": "string",
							"name": "ipfsMetadataCID",
							"type": "string"
						},
						{
							"internalType": "address",
							"name": "owner",
							"type": "address"
						}
					],
					"internalType": "struct UAVPassportNFT.UAVData",
					"name": "",
					"type": "tuple"
				}
			],
			"stateMutability": "view",
			"type": "function"
		},
		{
			"inputs": [
				{
					"internalType": "bytes32",
					"name": "role",
					"type": "bytes32"
				},
				{
					"internalType": "address",
					"name": "account",
					"type": "address"
				}
			],
			"name": "grantRole",
			"outputs": [],
			"stateMutability": "nonpayable",
			"type": "function"
		},
		{
			"inputs": [
				{
					"internalType": "bytes32",
					"name": "role",
					"type": "bytes32"
				},
				{
					"internalType": "address",
					"name": "account",
					"type": "address"
				}
			],
			"name": "hasRole",
			"outputs": [
				{
					"internalType": "bool",
					"name": "",
					"type": "bool"
				}
			],
			"stateMutability": "view",
			"type": "function"
		},
		{
			"inputs": [
				{
					"internalType": "uint256",
					"name": "",
					"type": "uint256"
				},
				{
					"internalType": "uint256",
					"name": "",
					"type": "uint256"
				}
			],
			"name": "importExportTrace",
			"outputs": [
				{
					"internalType": "string",
					"name": "",
					"type": "string"
				}
			],
			"stateMutability": "view",
			"type": "function"
		},
		{
			"inputs": [
				{
					"internalType": "address",
					"name": "owner",
					"type": "address"
				},
				{
					"internalType": "address",
					"name": "operator",
					"type": "address"
				}
			],
			"name": "isApprovedForAll",
			"outputs": [
				{
					"internalType": "bool",
					"name": "",
					"type": "bool"
				}
			],
			"stateMutability": "view",
			"type": "function"
		},
		{
			"inputs": [
				{
					"internalType": "uint256",
					"name": "uavTokenId",
					"type": "uint256"
				},
				{
					"internalType": "address",
					"name": "certificateContractAddress",
					"type": "address"
				},
				{
					"internalType": "uint256",
					"name": "certificateTokenId",
					"type": "uint256"
				}
			],
			"name": "linkCertificate",
			"outputs": [],
			"stateMutability": "nonpayable",
			"type": "function"
		},
		{
			"inputs": [
				{
					"internalType": "uint256",
					"name": "",
					"type": "uint256"
				},
				{
					"internalType": "uint256",
					"name": "",
					"type": "uint256"
				}
			],
			"name": "linkedCertificates",
			"outputs": [
				{
					"internalType": "address",
					"name": "certificateContract",
					"type": "address"
				},
				{
					"internalType": "uint256",
					"name": "certificateTokenId",
					"type": "uint256"
				},
				{
					"internalType": "enum CertificateTypes.CertificateType",
					"name": "ctype",
					"type": "uint8"
				}
			],
			"stateMutability": "view",
			"type": "function"
		},
		{
			"inputs": [
				{
					"internalType": "string",
					"name": "serialNumber",
					"type": "string"
				},
				{
					"internalType": "address",
					"name": "typeCertificateContract",
					"type": "address"
				},
				{
					"internalType": "uint256",
					"name": "typeCertificateApplicationId",
					"type": "uint256"
				},
				{
					"internalType": "string",
					"name": "ipfsMetadataCID",
					"type": "string"
				}
			],
			"name": "mintUAV",
			"outputs": [],
			"stateMutability": "nonpayable",
			"type": "function"
		},
		{
			"inputs": [],
			"name": "name",
			"outputs": [
				{
					"internalType": "string",
					"name": "",
					"type": "string"
				}
			],
			"stateMutability": "view",
			"type": "function"
		},
		{
			"inputs": [
				{
					"internalType": "address",
					"name": "",
					"type": "address"
				},
				{
					"internalType": "address",
					"name": "",
					"type": "address"
				},
				{
					"internalType": "uint256",
					"name": "",
					"type": "uint256"
				},
				{
					"internalType": "bytes",
					"name": "",
					"type": "bytes"
				}
			],
			"name": "onERC721Received",
			"outputs": [
				{
					"internalType": "bytes4",
					"name": "",
					"type": "bytes4"
				}
			],
			"stateMutability": "pure",
			"type": "function"
		},
		{
			"inputs": [
				{
					"internalType": "uint256",
					"name": "tokenId",
					"type": "uint256"
				}
			],
			"name": "ownerOf",
			"outputs": [
				{
					"internalType": "address",
					"name": "",
					"type": "address"
				}
			],
			"stateMutability": "view",
			"type": "function"
		},
		{
			"inputs": [
				{
					"internalType": "uint256",
					"name": "tokenId",
					"type": "uint256"
				},
				{
					"internalType": "string",
					"name": "jurisdictionIdentifier",
					"type": "string"
				}
			],
			"name": "recordImportExport",
			"outputs": [],
			"stateMutability": "nonpayable",
			"type": "function"
		},
		{
			"inputs": [
				{
					"internalType": "uint256",
					"name": "tokenId",
					"type": "uint256"
				},
				{
					"internalType": "string",
					"name": "reason",
					"type": "string"
				}
			],
			"name": "rejectImport",
			"outputs": [],
			"stateMutability": "nonpayable",
			"type": "function"
		},
		{
			"inputs": [
				{
					"internalType": "bytes32",
					"name": "role",
					"type": "bytes32"
				},
				{
					"internalType": "address",
					"name": "callerConfirmation",
					"type": "address"
				}
			],
			"name": "renounceRole",
			"outputs": [],
			"stateMutability": "nonpayable",
			"type": "function"
		},
		{
			"inputs": [
				{
					"internalType": "bytes32",
					"name": "role",
					"type": "bytes32"
				},
				{
					"internalType": "address",
					"name": "account",
					"type": "address"
				}
			],
			"name": "revokeRole",
			"outputs": [],
			"stateMutability": "nonpayable",
			"type": "function"
		},
		{
			"inputs": [
				{
					"internalType": "address",
					"name": "from",
					"type": "address"
				},
				{
					"internalType": "address",
					"name": "to",
					"type": "address"
				},
				{
					"internalType": "uint256",
					"name": "tokenId",
					"type": "uint256"
				}
			],
			"name": "safeTransferFrom",
			"outputs": [],
			"stateMutability": "nonpayable",
			"type": "function"
		},
		{
			"inputs": [
				{
					"internalType": "address",
					"name": "from",
					"type": "address"
				},
				{
					"internalType": "address",
					"name": "to",
					"type": "address"
				},
				{
					"internalType": "uint256",
					"name": "tokenId",
					"type": "uint256"
				},
				{
					"internalType": "bytes",
					"name": "data",
					"type": "bytes"
				}
			],
			"name": "safeTransferFrom",
			"outputs": [],
			"stateMutability": "nonpayable",
			"type": "function"
		},
		{
			"inputs": [
				{
					"internalType": "address",
					"name": "operator",
					"type": "address"
				},
				{
					"internalType": "bool",
					"name": "approved",
					"type": "bool"
				}
			],
			"name": "setApprovalForAll",
			"outputs": [],
			"stateMutability": "nonpayable",
			"type": "function"
		},
		{
			"inputs": [
				{
					"internalType": "bytes4",
					"name": "interfaceId",
					"type": "bytes4"
				}
			],
			"name": "supportsInterface",
			"outputs": [
				{
					"internalType": "bool",
					"name": "",
					"type": "bool"
				}
			],
			"stateMutability": "view",
			"type": "function"
		},
		{
			"inputs": [],
			"name": "symbol",
			"outputs": [
				{
					"internalType": "string",
					"name": "",
					"type": "string"
				}
			],
			"stateMutability": "view",
			"type": "function"
		},
		{
			"inputs": [],
			"name": "tokenCounter",
			"outputs": [
				{
					"internalType": "uint256",
					"name": "",
					"type": "uint256"
				}
			],
			"stateMutability": "view",
			"type": "function"
		},
		{
			"inputs": [
				{
					"internalType": "uint256",
					"name": "tokenId",
					"type": "uint256"
				}
			],
			"name": "tokenURI",
			"outputs": [
				{
					"internalType": "string",
					"name": "",
					"type": "string"
				}
			],
			"stateMutability": "view",
			"type": "function"
		},
		{
			"inputs": [
				{
					"internalType": "address",
					"name": "from",
					"type": "address"
				},
				{
					"internalType": "address",
					"name": "to",
					"type": "address"
				},
				{
					"internalType": "uint256",
					"name": "tokenId",
					"type": "uint256"
				}
			],
			"name": "transferFrom",
			"outputs": [],
			"stateMutability": "nonpayable",
			"type": "function"
		},
		{
			"inputs": [
				{
					"internalType": "address",
					"name": "to",
					"type": "address"
				},
				{
					"internalType": "uint256",
					"name": "tokenId",
					"type": "uint256"
				}
			],
			"name": "transferUAV",
			"outputs": [],
			"stateMutability": "nonpayable",
			"type": "function"
		},
		{
			"inputs": [
				{
					"internalType": "uint256",
					"name": "",
					"type": "uint256"
				}
			],
			"name": "uavData",
			"outputs": [
				{
					"internalType": "uint256",
					"name": "tokenId",
					"type": "uint256"
				},
				{
					"internalType": "string",
					"name": "serialNumber",
					"type": "string"
				},
				{
					"internalType": "address",
					"name": "typeCertificateContract",
					"type": "address"
				},
				{
					"internalType": "uint256",
					"name": "typeCertificateApplicationId",
					"type": "uint256"
				},
				{
					"internalType": "string",
					"name": "ipfsMetadataCID",
					"type": "string"
				},
				{
					"internalType": "address",
					"name": "owner",
					"type": "address"
				}
			],
			"stateMutability": "view",
			"type": "function"
		},
		{
			"inputs": [
				{
					"internalType": "uint256",
					"name": "tokenId",
					"type": "uint256"
				},
				{
					"internalType": "string",
					"name": "ipfsMetadataCID",
					"type": "string"
				}
			],
			"name": "updateMetadata",
			"outputs": [],
			"stateMutability": "nonpayable",
			"type": "function"
		}
	]
}